{
	"contracts/Lottery_v2.sol": {
		"Lottery": {
			"abi": [
				{
					"inputs": [],
					"stateMutability": "nonpayable",
					"type": "constructor"
				},
				{
					"inputs": [],
					"name": "getBalance",
					"outputs": [
						{
							"internalType": "uint256",
							"name": "",
							"type": "uint256"
						}
					],
					"stateMutability": "view",
					"type": "function"
				},
				{
					"inputs": [],
					"name": "owner",
					"outputs": [
						{
							"internalType": "address",
							"name": "",
							"type": "address"
						}
					],
					"stateMutability": "view",
					"type": "function"
				},
				{
					"inputs": [],
					"name": "pickWinner",
					"outputs": [],
					"stateMutability": "nonpayable",
					"type": "function"
				},
				{
					"inputs": [
						{
							"internalType": "uint256",
							"name": "",
							"type": "uint256"
						}
					],
					"name": "players",
					"outputs": [
						{
							"internalType": "address payable",
							"name": "",
							"type": "address"
						}
					],
					"stateMutability": "view",
					"type": "function"
				},
				{
					"inputs": [],
					"name": "random",
					"outputs": [
						{
							"internalType": "uint256",
							"name": "",
							"type": "uint256"
						}
					],
					"stateMutability": "view",
					"type": "function"
				},
				{
					"stateMutability": "payable",
					"type": "receive"
				}
			],
			"devdoc": {
				"kind": "dev",
				"methods": {},
				"version": 1
			},
			"evm": {
				"assembly": "    /* \"contracts/Lottery_v2.sol\":300:1761  contract Lottery {... */\n  mstore(0x40, 0x80)\n    /* \"contracts/Lottery_v2.sol\":396:456  constructor(){... */\n  callvalue\n  dup1\n  iszero\n  tag_1\n  jumpi\n  0x00\n  dup1\n  revert\ntag_1:\n  pop\n    /* \"contracts/Lottery_v2.sol\":428:438  msg.sender */\n  caller\n    /* \"contracts/Lottery_v2.sol\":420:425  owner */\n  0x01\n  0x00\n    /* \"contracts/Lottery_v2.sol\":420:438  owner = msg.sender */\n  0x0100\n  exp\n  dup2\n  sload\n  dup2\n  0xffffffffffffffffffffffffffffffffffffffff\n  mul\n  not\n  and\n  swap1\n  dup4\n  0xffffffffffffffffffffffffffffffffffffffff\n  and\n  mul\n  or\n  swap1\n  sstore\n  pop\n    /* \"contracts/Lottery_v2.sol\":300:1761  contract Lottery {... */\n  dataSize(sub_0)\n  dup1\n  dataOffset(sub_0)\n  0x00\n  codecopy\n  0x00\n  return\nstop\n\nsub_0: assembly {\n        /* \"contracts/Lottery_v2.sol\":300:1761  contract Lottery {... */\n      mstore(0x40, 0x80)\n      jumpi(tag_1, lt(calldatasize, 0x04))\n      shr(0xe0, calldataload(0x00))\n      dup1\n      0x12065fe0\n      eq\n      tag_3\n      jumpi\n      dup1\n      0x5d495aea\n      eq\n      tag_4\n      jumpi\n      dup1\n      0x5ec01e4d\n      eq\n      tag_5\n      jumpi\n      dup1\n      0x8da5cb5b\n      eq\n      tag_6\n      jumpi\n      dup1\n      0xf71d96cb\n      eq\n      tag_7\n      jumpi\n      jump(tag_2)\n    tag_1:\n      jumpi(tag_2, calldatasize)\n        /* \"contracts/Lottery_v2.sol\":687:694  1 ether */\n      0x0de0b6b3a7640000\n        /* \"contracts/Lottery_v2.sol\":674:683  msg.value */\n      callvalue\n        /* \"contracts/Lottery_v2.sol\":674:694  msg.value == 1 ether */\n      eq\n        /* \"contracts/Lottery_v2.sol\":666:723  require(msg.value == 1 ether, \"Entry price is 0.1 ether\") */\n      tag_10\n      jumpi\n      mload(0x40)\n      0x08c379a000000000000000000000000000000000000000000000000000000000\n      dup2\n      mstore\n      0x04\n      add\n      tag_11\n      swap1\n      tag_12\n      jump\t// in\n    tag_11:\n      mload(0x40)\n      dup1\n      swap2\n      sub\n      swap1\n      revert\n    tag_10:\n        /* \"contracts/Lottery_v2.sol\":756:761  owner */\n      0x01\n      0x00\n      swap1\n      sload\n      swap1\n      0x0100\n      exp\n      swap1\n      div\n      0xffffffffffffffffffffffffffffffffffffffff\n      and\n        /* \"contracts/Lottery_v2.sol\":742:761  msg.sender != owner */\n      0xffffffffffffffffffffffffffffffffffffffff\n      and\n        /* \"contracts/Lottery_v2.sol\":742:752  msg.sender */\n      caller\n        /* \"contracts/Lottery_v2.sol\":742:761  msg.sender != owner */\n      0xffffffffffffffffffffffffffffffffffffffff\n      and\n      sub\n        /* \"contracts/Lottery_v2.sol\":734:762  require(msg.sender != owner) */\n      tag_13\n      jumpi\n      0x00\n      dup1\n      revert\n    tag_13:\n        /* \"contracts/Lottery_v2.sol\":773:780  players */\n      0x00\n        /* \"contracts/Lottery_v2.sol\":794:804  msg.sender */\n      caller\n        /* \"contracts/Lottery_v2.sol\":773:806  players.push(payable(msg.sender)) */\n      swap1\n      dup1\n      0x01\n      dup2\n      sload\n      add\n      dup1\n      dup3\n      sstore\n      dup1\n      swap2\n      pop\n      pop\n      0x01\n      swap1\n      sub\n      swap1\n      0x00\n      mstore\n      keccak256(0x00, 0x20)\n      add\n      0x00\n      swap1\n      swap2\n      swap1\n      swap2\n      swap1\n      swap2\n      0x0100\n      exp\n      dup2\n      sload\n      dup2\n      0xffffffffffffffffffffffffffffffffffffffff\n      mul\n      not\n      and\n      swap1\n      dup4\n      0xffffffffffffffffffffffffffffffffffffffff\n      and\n      mul\n      or\n      swap1\n      sstore\n      stop\n        /* \"contracts/Lottery_v2.sol\":300:1761  contract Lottery {... */\n    tag_2:\n      0x00\n      dup1\n      revert\n        /* \"contracts/Lottery_v2.sol\":822:926  function getBalance() public view onlyOwner returns(uint){... */\n    tag_3:\n      callvalue\n      dup1\n      iszero\n      tag_15\n      jumpi\n      0x00\n      dup1\n      revert\n    tag_15:\n      pop\n      tag_16\n      tag_17\n      jump\t// in\n    tag_16:\n      mload(0x40)\n      tag_18\n      swap2\n      swap1\n      tag_19\n      jump\t// in\n    tag_18:\n      mload(0x40)\n      dup1\n      swap2\n      sub\n      swap1\n      return\n        /* \"contracts/Lottery_v2.sol\":1216:1750  function pickWinner() public{... */\n    tag_4:\n      callvalue\n      dup1\n      iszero\n      tag_20\n      jumpi\n      0x00\n      dup1\n      revert\n    tag_20:\n      pop\n      tag_21\n      tag_22\n      jump\t// in\n    tag_21:\n      stop\n        /* \"contracts/Lottery_v2.sol\":934:1206  function random() public view returns(uint){... */\n    tag_5:\n      callvalue\n      dup1\n      iszero\n      tag_23\n      jumpi\n      0x00\n      dup1\n      revert\n    tag_23:\n      pop\n      tag_24\n      tag_25\n      jump\t// in\n    tag_24:\n      mload(0x40)\n      tag_26\n      swap2\n      swap1\n      tag_19\n      jump\t// in\n    tag_26:\n      mload(0x40)\n      dup1\n      swap2\n      sub\n      swap1\n      return\n        /* \"contracts/Lottery_v2.sol\":363:383  address public owner */\n    tag_6:\n      callvalue\n      dup1\n      iszero\n      tag_27\n      jumpi\n      0x00\n      dup1\n      revert\n    tag_27:\n      pop\n      tag_28\n      tag_29\n      jump\t// in\n    tag_28:\n      mload(0x40)\n      tag_30\n      swap2\n      swap1\n      tag_31\n      jump\t// in\n    tag_30:\n      mload(0x40)\n      dup1\n      swap2\n      sub\n      swap1\n      return\n        /* \"contracts/Lottery_v2.sol\":324:356  address payable[] public players */\n    tag_7:\n      callvalue\n      dup1\n      iszero\n      tag_32\n      jumpi\n      0x00\n      dup1\n      revert\n    tag_32:\n      pop\n      tag_33\n      0x04\n      dup1\n      calldatasize\n      sub\n      dup2\n      add\n      swap1\n      tag_34\n      swap2\n      swap1\n      tag_35\n      jump\t// in\n    tag_34:\n      tag_36\n      jump\t// in\n    tag_33:\n      mload(0x40)\n      tag_37\n      swap2\n      swap1\n      tag_38\n      jump\t// in\n    tag_37:\n      mload(0x40)\n      dup1\n      swap2\n      sub\n      swap1\n      return\n        /* \"contracts/Lottery_v2.sol\":822:926  function getBalance() public view onlyOwner returns(uint){... */\n    tag_17:\n        /* \"contracts/Lottery_v2.sol\":874:878  uint */\n      0x00\n        /* \"contracts/Lottery_v2.sol\":572:577  owner */\n      0x01\n      0x00\n      swap1\n      sload\n      swap1\n      0x0100\n      exp\n      swap1\n      div\n      0xffffffffffffffffffffffffffffffffffffffff\n      and\n        /* \"contracts/Lottery_v2.sol\":558:577  msg.sender == owner */\n      0xffffffffffffffffffffffffffffffffffffffff\n      and\n        /* \"contracts/Lottery_v2.sol\":558:568  msg.sender */\n      caller\n        /* \"contracts/Lottery_v2.sol\":558:577  msg.sender == owner */\n      0xffffffffffffffffffffffffffffffffffffffff\n      and\n      eq\n        /* \"contracts/Lottery_v2.sol\":550:601  require(msg.sender == owner, \"Admin access denied\") */\n      tag_40\n      jumpi\n      mload(0x40)\n      0x08c379a000000000000000000000000000000000000000000000000000000000\n      dup2\n      mstore\n      0x04\n      add\n      tag_41\n      swap1\n      tag_42\n      jump\t// in\n    tag_41:\n      mload(0x40)\n      dup1\n      swap2\n      sub\n      swap1\n      revert\n    tag_40:\n        /* \"contracts/Lottery_v2.sol\":897:918  address(this).balance */\n      selfbalance\n        /* \"contracts/Lottery_v2.sol\":890:918  return address(this).balance */\n      swap1\n      pop\n        /* \"contracts/Lottery_v2.sol\":822:926  function getBalance() public view onlyOwner returns(uint){... */\n      swap1\n      jump\t// out\n        /* \"contracts/Lottery_v2.sol\":1216:1750  function pickWinner() public{... */\n    tag_22:\n        /* \"contracts/Lottery_v2.sol\":1281:1283  10 */\n      0x0a\n        /* \"contracts/Lottery_v2.sol\":1263:1270  players */\n      0x00\n        /* \"contracts/Lottery_v2.sol\":1263:1277  players.length */\n      dup1\n      sload\n      swap1\n      pop\n        /* \"contracts/Lottery_v2.sol\":1263:1283  players.length >= 10 */\n      lt\n      iszero\n        /* \"contracts/Lottery_v2.sol\":1255:1284  require(players.length >= 10) */\n      tag_45\n      jumpi\n      0x00\n      dup1\n      revert\n    tag_45:\n        /* \"contracts/Lottery_v2.sol\":1295:1304  uint rand */\n      0x00\n        /* \"contracts/Lottery_v2.sol\":1307:1315  random() */\n      tag_46\n        /* \"contracts/Lottery_v2.sol\":1307:1313  random */\n      tag_25\n        /* \"contracts/Lottery_v2.sol\":1307:1315  random() */\n      jump\t// in\n    tag_46:\n        /* \"contracts/Lottery_v2.sol\":1295:1315  uint rand = random() */\n      swap1\n      pop\n        /* \"contracts/Lottery_v2.sol\":1326:1348  address payable winner */\n      0x00\n        /* \"contracts/Lottery_v2.sol\":1359:1366  players */\n      dup1\n        /* \"contracts/Lottery_v2.sol\":1380:1385  owner */\n      0x01\n      0x00\n      swap1\n      sload\n      swap1\n      0x0100\n      exp\n      swap1\n      div\n      0xffffffffffffffffffffffffffffffffffffffff\n      and\n        /* \"contracts/Lottery_v2.sol\":1359:1387  players.push(payable(owner)) */\n      swap1\n      dup1\n      0x01\n      dup2\n      sload\n      add\n      dup1\n      dup3\n      sstore\n      dup1\n      swap2\n      pop\n      pop\n      0x01\n      swap1\n      sub\n      swap1\n      0x00\n      mstore\n      keccak256(0x00, 0x20)\n      add\n      0x00\n      swap1\n      swap2\n      swap1\n      swap2\n      swap1\n      swap2\n      0x0100\n      exp\n      dup2\n      sload\n      dup2\n      0xffffffffffffffffffffffffffffffffffffffff\n      mul\n      not\n      and\n      swap1\n      dup4\n      0xffffffffffffffffffffffffffffffffffffffff\n      and\n      mul\n      or\n      swap1\n      sstore\n      pop\n        /* \"contracts/Lottery_v2.sol\":1435:1445  uint index */\n      0x00\n        /* \"contracts/Lottery_v2.sol\":1455:1462  players */\n      dup1\n        /* \"contracts/Lottery_v2.sol\":1455:1469  players.length */\n      dup1\n      sload\n      swap1\n      pop\n        /* \"contracts/Lottery_v2.sol\":1448:1452  rand */\n      dup4\n        /* \"contracts/Lottery_v2.sol\":1448:1469  rand % players.length */\n      tag_48\n      swap2\n      swap1\n      tag_49\n      jump\t// in\n    tag_48:\n        /* \"contracts/Lottery_v2.sol\":1435:1469  uint index = rand % players.length */\n      swap1\n      pop\n        /* \"contracts/Lottery_v2.sol\":1498:1503  owner */\n      0x01\n      0x00\n      swap1\n      sload\n      swap1\n      0x0100\n      exp\n      swap1\n      div\n      0xffffffffffffffffffffffffffffffffffffffff\n      and\n        /* \"contracts/Lottery_v2.sol\":1490:1513  payable(owner).transfer */\n      0xffffffffffffffffffffffffffffffffffffffff\n      and\n        /* \"contracts/Lottery_v2.sol\":1490:1536  payable(owner).transfer((getBalance()*10)/100) */\n      0x08fc\n        /* \"contracts/Lottery_v2.sol\":1532:1535  100 */\n      0x64\n        /* \"contracts/Lottery_v2.sol\":1528:1530  10 */\n      0x0a\n        /* \"contracts/Lottery_v2.sol\":1515:1527  getBalance() */\n      tag_50\n        /* \"contracts/Lottery_v2.sol\":1515:1525  getBalance */\n      tag_17\n        /* \"contracts/Lottery_v2.sol\":1515:1527  getBalance() */\n      jump\t// in\n    tag_50:\n        /* \"contracts/Lottery_v2.sol\":1515:1530  getBalance()*10 */\n      tag_51\n      swap2\n      swap1\n      tag_52\n      jump\t// in\n    tag_51:\n        /* \"contracts/Lottery_v2.sol\":1514:1535  (getBalance()*10)/100 */\n      tag_53\n      swap2\n      swap1\n      tag_54\n      jump\t// in\n    tag_53:\n        /* \"contracts/Lottery_v2.sol\":1490:1536  payable(owner).transfer((getBalance()*10)/100) */\n      swap1\n      dup2\n      iszero\n      mul\n      swap1\n      mload(0x40)\n      0x00\n      mload(0x40)\n      dup1\n      dup4\n      sub\n      dup2\n      dup6\n      dup9\n      dup9\n      call\n      swap4\n      pop\n      pop\n      pop\n      pop\n      iszero\n      dup1\n      iszero\n      tag_56\n      jumpi\n      returndatasize\n      0x00\n      dup1\n      returndatacopy\n      revert(0x00, returndatasize)\n    tag_56:\n      pop\n        /* \"contracts/Lottery_v2.sol\":1578:1585  players */\n      0x00\n        /* \"contracts/Lottery_v2.sol\":1586:1591  index */\n      dup2\n        /* \"contracts/Lottery_v2.sol\":1578:1592  players[index] */\n      dup2\n      sload\n      dup2\n      lt\n      tag_57\n      jumpi\n      tag_58\n      tag_59\n      jump\t// in\n    tag_58:\n    tag_57:\n      swap1\n      0x00\n      mstore\n      keccak256(0x00, 0x20)\n      add\n      0x00\n      swap1\n      sload\n      swap1\n      0x0100\n      exp\n      swap1\n      div\n      0xffffffffffffffffffffffffffffffffffffffff\n      and\n        /* \"contracts/Lottery_v2.sol\":1569:1592  winner = players[index] */\n      swap2\n      pop\n        /* \"contracts/Lottery_v2.sol\":1603:1609  winner */\n      dup2\n        /* \"contracts/Lottery_v2.sol\":1603:1618  winner.transfer */\n      0xffffffffffffffffffffffffffffffffffffffff\n      and\n        /* \"contracts/Lottery_v2.sol\":1603:1632  winner.transfer(getBalance()) */\n      0x08fc\n        /* \"contracts/Lottery_v2.sol\":1619:1631  getBalance() */\n      tag_61\n        /* \"contracts/Lottery_v2.sol\":1619:1629  getBalance */\n      tag_17\n        /* \"contracts/Lottery_v2.sol\":1619:1631  getBalance() */\n      jump\t// in\n    tag_61:\n        /* \"contracts/Lottery_v2.sol\":1603:1632  winner.transfer(getBalance()) */\n      swap1\n      dup2\n      iszero\n      mul\n      swap1\n      mload(0x40)\n      0x00\n      mload(0x40)\n      dup1\n      dup4\n      sub\n      dup2\n      dup6\n      dup9\n      dup9\n      call\n      swap4\n      pop\n      pop\n      pop\n      pop\n      iszero\n      dup1\n      iszero\n      tag_63\n      jumpi\n      returndatasize\n      0x00\n      dup1\n      returndatacopy\n      revert(0x00, returndatasize)\n    tag_63:\n      pop\n        /* \"contracts/Lottery_v2.sol\":1722:1723  0 */\n      0x00\n        /* \"contracts/Lottery_v2.sol\":1700:1724  new address payable[](0) */\n      0xffffffffffffffff\n      dup2\n      gt\n      iszero\n      tag_64\n      jumpi\n      tag_65\n      tag_66\n      jump\t// in\n    tag_65:\n    tag_64:\n      mload(0x40)\n      swap1\n      dup1\n      dup3\n      mstore\n      dup1\n      0x20\n      mul\n      0x20\n      add\n      dup3\n      add\n      0x40\n      mstore\n      dup1\n      iszero\n      tag_67\n      jumpi\n      dup2\n      0x20\n      add\n      0x20\n      dup3\n      mul\n      dup1\n      calldatasize\n      dup4\n      calldatacopy\n      dup1\n      dup3\n      add\n      swap2\n      pop\n      pop\n      swap1\n      pop\n    tag_67:\n      pop\n        /* \"contracts/Lottery_v2.sol\":1690:1697  players */\n      0x00\n        /* \"contracts/Lottery_v2.sol\":1690:1724  players = new address payable[](0) */\n      swap1\n      dup1\n      mload\n      swap1\n      0x20\n      add\n      swap1\n      tag_68\n      swap3\n      swap2\n      swap1\n      tag_69\n      jump\t// in\n    tag_68:\n      pop\n        /* \"contracts/Lottery_v2.sol\":1244:1750  {... */\n      pop\n      pop\n      pop\n        /* \"contracts/Lottery_v2.sol\":1216:1750  function pickWinner() public{... */\n      jump\t// out\n        /* \"contracts/Lottery_v2.sol\":934:1206  function random() public view returns(uint){... */\n    tag_25:\n        /* \"contracts/Lottery_v2.sol\":972:976  uint */\n      0x00\n        /* \"contracts/Lottery_v2.sol\":1146:1162  block.difficulty */\n      difficulty\n        /* \"contracts/Lottery_v2.sol\":1164:1179  block.timestamp */\n      timestamp\n        /* \"contracts/Lottery_v2.sol\":1181:1188  players */\n      0x00\n        /* \"contracts/Lottery_v2.sol\":1181:1195  players.length */\n      dup1\n      sload\n      swap1\n      pop\n        /* \"contracts/Lottery_v2.sol\":1129:1196  abi.encodePacked(block.difficulty, block.timestamp, players.length) */\n      add(0x20, mload(0x40))\n      tag_71\n      swap4\n      swap3\n      swap2\n      swap1\n      tag_72\n      jump\t// in\n    tag_71:\n      mload(0x40)\n      0x20\n      dup2\n      dup4\n      sub\n      sub\n      dup2\n      mstore\n      swap1\n      0x40\n      mstore\n        /* \"contracts/Lottery_v2.sol\":1119:1197  keccak256(abi.encodePacked(block.difficulty, block.timestamp, players.length)) */\n      dup1\n      mload\n      swap1\n      0x20\n      add\n      keccak256\n        /* \"contracts/Lottery_v2.sol\":1114:1198  uint(keccak256(abi.encodePacked(block.difficulty, block.timestamp, players.length))) */\n      0x00\n      shr\n        /* \"contracts/Lottery_v2.sol\":1107:1198  return uint(keccak256(abi.encodePacked(block.difficulty, block.timestamp, players.length))) */\n      swap1\n      pop\n        /* \"contracts/Lottery_v2.sol\":934:1206  function random() public view returns(uint){... */\n      swap1\n      jump\t// out\n        /* \"contracts/Lottery_v2.sol\":363:383  address public owner */\n    tag_29:\n      0x01\n      0x00\n      swap1\n      sload\n      swap1\n      0x0100\n      exp\n      swap1\n      div\n      0xffffffffffffffffffffffffffffffffffffffff\n      and\n      dup2\n      jump\t// out\n        /* \"contracts/Lottery_v2.sol\":324:356  address payable[] public players */\n    tag_36:\n      0x00\n      dup2\n      dup2\n      sload\n      dup2\n      lt\n      tag_73\n      jumpi\n      0x00\n      dup1\n      revert\n    tag_73:\n      swap1\n      0x00\n      mstore\n      keccak256(0x00, 0x20)\n      add\n      0x00\n      swap2\n      pop\n      sload\n      swap1\n      0x0100\n      exp\n      swap1\n      div\n      0xffffffffffffffffffffffffffffffffffffffff\n      and\n      dup2\n      jump\t// out\n    tag_69:\n      dup3\n      dup1\n      sload\n      dup3\n      dup3\n      sstore\n      swap1\n      0x00\n      mstore\n      keccak256(0x00, 0x20)\n      swap1\n      dup2\n      add\n      swap3\n      dup3\n      iszero\n      tag_75\n      jumpi\n      swap2\n      0x20\n      mul\n      dup3\n      add\n    tag_76:\n      dup3\n      dup2\n      gt\n      iszero\n      tag_77\n      jumpi\n      dup3\n      mload\n      dup3\n      exp(0x0100, 0x00)\n      dup2\n      sload\n      dup2\n      0xffffffffffffffffffffffffffffffffffffffff\n      mul\n      not\n      and\n      swap1\n      dup4\n      0xffffffffffffffffffffffffffffffffffffffff\n      and\n      mul\n      or\n      swap1\n      sstore\n      pop\n      swap2\n      0x20\n      add\n      swap2\n      swap1\n      0x01\n      add\n      swap1\n      jump(tag_76)\n    tag_77:\n    tag_75:\n      pop\n      swap1\n      pop\n      tag_78\n      swap2\n      swap1\n      tag_79\n      jump\t// in\n    tag_78:\n      pop\n      swap1\n      jump\t// out\n    tag_79:\n    tag_80:\n      dup1\n      dup3\n      gt\n      iszero\n      tag_81\n      jumpi\n      0x00\n      dup2\n      0x00\n      swap1\n      sstore\n      pop\n      0x01\n      add\n      jump(tag_80)\n    tag_81:\n      pop\n      swap1\n      jump\t// out\n        /* \"#utility.yul\":7:176   */\n    tag_82:\n        /* \"#utility.yul\":91:102   */\n      0x00\n        /* \"#utility.yul\":125:131   */\n      dup3\n        /* \"#utility.yul\":120:123   */\n      dup3\n        /* \"#utility.yul\":113:132   */\n      mstore\n        /* \"#utility.yul\":165:169   */\n      0x20\n        /* \"#utility.yul\":160:163   */\n      dup3\n        /* \"#utility.yul\":156:170   */\n      add\n        /* \"#utility.yul\":141:170   */\n      swap1\n      pop\n        /* \"#utility.yul\":7:176   */\n      swap3\n      swap2\n      pop\n      pop\n      jump\t// out\n        /* \"#utility.yul\":182:356   */\n    tag_83:\n        /* \"#utility.yul\":322:348   */\n      0x456e74727920707269636520697320302e312065746865720000000000000000\n        /* \"#utility.yul\":318:319   */\n      0x00\n        /* \"#utility.yul\":310:316   */\n      dup3\n        /* \"#utility.yul\":306:320   */\n      add\n        /* \"#utility.yul\":299:349   */\n      mstore\n        /* \"#utility.yul\":182:356   */\n      pop\n      jump\t// out\n        /* \"#utility.yul\":362:728   */\n    tag_84:\n        /* \"#utility.yul\":504:507   */\n      0x00\n        /* \"#utility.yul\":525:592   */\n      tag_107\n        /* \"#utility.yul\":589:591   */\n      0x18\n        /* \"#utility.yul\":584:587   */\n      dup4\n        /* \"#utility.yul\":525:592   */\n      tag_82\n      jump\t// in\n    tag_107:\n        /* \"#utility.yul\":518:592   */\n      swap2\n      pop\n        /* \"#utility.yul\":601:694   */\n      tag_108\n        /* \"#utility.yul\":690:693   */\n      dup3\n        /* \"#utility.yul\":601:694   */\n      tag_83\n      jump\t// in\n    tag_108:\n        /* \"#utility.yul\":719:721   */\n      0x20\n        /* \"#utility.yul\":714:717   */\n      dup3\n        /* \"#utility.yul\":710:722   */\n      add\n        /* \"#utility.yul\":703:722   */\n      swap1\n      pop\n        /* \"#utility.yul\":362:728   */\n      swap2\n      swap1\n      pop\n      jump\t// out\n        /* \"#utility.yul\":734:1153   */\n    tag_12:\n        /* \"#utility.yul\":900:904   */\n      0x00\n        /* \"#utility.yul\":938:940   */\n      0x20\n        /* \"#utility.yul\":927:936   */\n      dup3\n        /* \"#utility.yul\":923:941   */\n      add\n        /* \"#utility.yul\":915:941   */\n      swap1\n      pop\n        /* \"#utility.yul\":987:996   */\n      dup2\n        /* \"#utility.yul\":981:985   */\n      dup2\n        /* \"#utility.yul\":977:997   */\n      sub\n        /* \"#utility.yul\":973:974   */\n      0x00\n        /* \"#utility.yul\":962:971   */\n      dup4\n        /* \"#utility.yul\":958:975   */\n      add\n        /* \"#utility.yul\":951:998   */\n      mstore\n        /* \"#utility.yul\":1015:1146   */\n      tag_110\n        /* \"#utility.yul\":1141:1145   */\n      dup2\n        /* \"#utility.yul\":1015:1146   */\n      tag_84\n      jump\t// in\n    tag_110:\n        /* \"#utility.yul\":1007:1146   */\n      swap1\n      pop\n        /* \"#utility.yul\":734:1153   */\n      swap2\n      swap1\n      pop\n      jump\t// out\n        /* \"#utility.yul\":1159:1236   */\n    tag_85:\n        /* \"#utility.yul\":1196:1203   */\n      0x00\n        /* \"#utility.yul\":1225:1230   */\n      dup2\n        /* \"#utility.yul\":1214:1230   */\n      swap1\n      pop\n        /* \"#utility.yul\":1159:1236   */\n      swap2\n      swap1\n      pop\n      jump\t// out\n        /* \"#utility.yul\":1242:1360   */\n    tag_86:\n        /* \"#utility.yul\":1329:1353   */\n      tag_113\n        /* \"#utility.yul\":1347:1352   */\n      dup2\n        /* \"#utility.yul\":1329:1353   */\n      tag_85\n      jump\t// in\n    tag_113:\n        /* \"#utility.yul\":1324:1327   */\n      dup3\n        /* \"#utility.yul\":1317:1354   */\n      mstore\n        /* \"#utility.yul\":1242:1360   */\n      pop\n      pop\n      jump\t// out\n        /* \"#utility.yul\":1366:1588   */\n    tag_19:\n        /* \"#utility.yul\":1459:1463   */\n      0x00\n        /* \"#utility.yul\":1497:1499   */\n      0x20\n        /* \"#utility.yul\":1486:1495   */\n      dup3\n        /* \"#utility.yul\":1482:1500   */\n      add\n        /* \"#utility.yul\":1474:1500   */\n      swap1\n      pop\n        /* \"#utility.yul\":1510:1581   */\n      tag_115\n        /* \"#utility.yul\":1578:1579   */\n      0x00\n        /* \"#utility.yul\":1567:1576   */\n      dup4\n        /* \"#utility.yul\":1563:1580   */\n      add\n        /* \"#utility.yul\":1554:1560   */\n      dup5\n        /* \"#utility.yul\":1510:1581   */\n      tag_86\n      jump\t// in\n    tag_115:\n        /* \"#utility.yul\":1366:1588   */\n      swap3\n      swap2\n      pop\n      pop\n      jump\t// out\n        /* \"#utility.yul\":1594:1720   */\n    tag_87:\n        /* \"#utility.yul\":1631:1638   */\n      0x00\n        /* \"#utility.yul\":1671:1713   */\n      0xffffffffffffffffffffffffffffffffffffffff\n        /* \"#utility.yul\":1664:1669   */\n      dup3\n        /* \"#utility.yul\":1660:1714   */\n      and\n        /* \"#utility.yul\":1649:1714   */\n      swap1\n      pop\n        /* \"#utility.yul\":1594:1720   */\n      swap2\n      swap1\n      pop\n      jump\t// out\n        /* \"#utility.yul\":1726:1822   */\n    tag_88:\n        /* \"#utility.yul\":1763:1770   */\n      0x00\n        /* \"#utility.yul\":1792:1816   */\n      tag_118\n        /* \"#utility.yul\":1810:1815   */\n      dup3\n        /* \"#utility.yul\":1792:1816   */\n      tag_87\n      jump\t// in\n    tag_118:\n        /* \"#utility.yul\":1781:1816   */\n      swap1\n      pop\n        /* \"#utility.yul\":1726:1822   */\n      swap2\n      swap1\n      pop\n      jump\t// out\n        /* \"#utility.yul\":1828:1946   */\n    tag_89:\n        /* \"#utility.yul\":1915:1939   */\n      tag_120\n        /* \"#utility.yul\":1933:1938   */\n      dup2\n        /* \"#utility.yul\":1915:1939   */\n      tag_88\n      jump\t// in\n    tag_120:\n        /* \"#utility.yul\":1910:1913   */\n      dup3\n        /* \"#utility.yul\":1903:1940   */\n      mstore\n        /* \"#utility.yul\":1828:1946   */\n      pop\n      pop\n      jump\t// out\n        /* \"#utility.yul\":1952:2174   */\n    tag_31:\n        /* \"#utility.yul\":2045:2049   */\n      0x00\n        /* \"#utility.yul\":2083:2085   */\n      0x20\n        /* \"#utility.yul\":2072:2081   */\n      dup3\n        /* \"#utility.yul\":2068:2086   */\n      add\n        /* \"#utility.yul\":2060:2086   */\n      swap1\n      pop\n        /* \"#utility.yul\":2096:2167   */\n      tag_122\n        /* \"#utility.yul\":2164:2165   */\n      0x00\n        /* \"#utility.yul\":2153:2162   */\n      dup4\n        /* \"#utility.yul\":2149:2166   */\n      add\n        /* \"#utility.yul\":2140:2146   */\n      dup5\n        /* \"#utility.yul\":2096:2167   */\n      tag_89\n      jump\t// in\n    tag_122:\n        /* \"#utility.yul\":1952:2174   */\n      swap3\n      swap2\n      pop\n      pop\n      jump\t// out\n        /* \"#utility.yul\":2261:2378   */\n    tag_91:\n        /* \"#utility.yul\":2370:2371   */\n      0x00\n        /* \"#utility.yul\":2367:2368   */\n      dup1\n        /* \"#utility.yul\":2360:2372   */\n      revert\n        /* \"#utility.yul\":2507:2629   */\n    tag_93:\n        /* \"#utility.yul\":2580:2604   */\n      tag_127\n        /* \"#utility.yul\":2598:2603   */\n      dup2\n        /* \"#utility.yul\":2580:2604   */\n      tag_85\n      jump\t// in\n    tag_127:\n        /* \"#utility.yul\":2573:2578   */\n      dup2\n        /* \"#utility.yul\":2570:2605   */\n      eq\n        /* \"#utility.yul\":2560:2623   */\n      tag_128\n      jumpi\n        /* \"#utility.yul\":2619:2620   */\n      0x00\n        /* \"#utility.yul\":2616:2617   */\n      dup1\n        /* \"#utility.yul\":2609:2621   */\n      revert\n        /* \"#utility.yul\":2560:2623   */\n    tag_128:\n        /* \"#utility.yul\":2507:2629   */\n      pop\n      jump\t// out\n        /* \"#utility.yul\":2635:2774   */\n    tag_94:\n        /* \"#utility.yul\":2681:2686   */\n      0x00\n        /* \"#utility.yul\":2719:2725   */\n      dup2\n        /* \"#utility.yul\":2706:2726   */\n      calldataload\n        /* \"#utility.yul\":2697:2726   */\n      swap1\n      pop\n        /* \"#utility.yul\":2735:2768   */\n      tag_130\n        /* \"#utility.yul\":2762:2767   */\n      dup2\n        /* \"#utility.yul\":2735:2768   */\n      tag_93\n      jump\t// in\n    tag_130:\n        /* \"#utility.yul\":2635:2774   */\n      swap3\n      swap2\n      pop\n      pop\n      jump\t// out\n        /* \"#utility.yul\":2780:3109   */\n    tag_35:\n        /* \"#utility.yul\":2839:2845   */\n      0x00\n        /* \"#utility.yul\":2888:2890   */\n      0x20\n        /* \"#utility.yul\":2876:2885   */\n      dup3\n        /* \"#utility.yul\":2867:2874   */\n      dup5\n        /* \"#utility.yul\":2863:2886   */\n      sub\n        /* \"#utility.yul\":2859:2891   */\n      slt\n        /* \"#utility.yul\":2856:2975   */\n      iszero\n      tag_132\n      jumpi\n        /* \"#utility.yul\":2894:2973   */\n      tag_133\n      tag_91\n      jump\t// in\n    tag_133:\n        /* \"#utility.yul\":2856:2975   */\n    tag_132:\n        /* \"#utility.yul\":3014:3015   */\n      0x00\n        /* \"#utility.yul\":3039:3092   */\n      tag_134\n        /* \"#utility.yul\":3084:3091   */\n      dup5\n        /* \"#utility.yul\":3075:3081   */\n      dup3\n        /* \"#utility.yul\":3064:3073   */\n      dup6\n        /* \"#utility.yul\":3060:3082   */\n      add\n        /* \"#utility.yul\":3039:3092   */\n      tag_94\n      jump\t// in\n    tag_134:\n        /* \"#utility.yul\":3029:3092   */\n      swap2\n      pop\n        /* \"#utility.yul\":2985:3102   */\n      pop\n        /* \"#utility.yul\":2780:3109   */\n      swap3\n      swap2\n      pop\n      pop\n      jump\t// out\n        /* \"#utility.yul\":3115:3219   */\n    tag_95:\n        /* \"#utility.yul\":3160:3167   */\n      0x00\n        /* \"#utility.yul\":3189:3213   */\n      tag_136\n        /* \"#utility.yul\":3207:3212   */\n      dup3\n        /* \"#utility.yul\":3189:3213   */\n      tag_87\n      jump\t// in\n    tag_136:\n        /* \"#utility.yul\":3178:3213   */\n      swap1\n      pop\n        /* \"#utility.yul\":3115:3219   */\n      swap2\n      swap1\n      pop\n      jump\t// out\n        /* \"#utility.yul\":3225:3367   */\n    tag_96:\n        /* \"#utility.yul\":3328:3360   */\n      tag_138\n        /* \"#utility.yul\":3354:3359   */\n      dup2\n        /* \"#utility.yul\":3328:3360   */\n      tag_95\n      jump\t// in\n    tag_138:\n        /* \"#utility.yul\":3323:3326   */\n      dup3\n        /* \"#utility.yul\":3316:3361   */\n      mstore\n        /* \"#utility.yul\":3225:3367   */\n      pop\n      pop\n      jump\t// out\n        /* \"#utility.yul\":3373:3627   */\n    tag_38:\n        /* \"#utility.yul\":3482:3486   */\n      0x00\n        /* \"#utility.yul\":3520:3522   */\n      0x20\n        /* \"#utility.yul\":3509:3518   */\n      dup3\n        /* \"#utility.yul\":3505:3523   */\n      add\n        /* \"#utility.yul\":3497:3523   */\n      swap1\n      pop\n        /* \"#utility.yul\":3533:3620   */\n      tag_140\n        /* \"#utility.yul\":3617:3618   */\n      0x00\n        /* \"#utility.yul\":3606:3615   */\n      dup4\n        /* \"#utility.yul\":3602:3619   */\n      add\n        /* \"#utility.yul\":3593:3599   */\n      dup5\n        /* \"#utility.yul\":3533:3620   */\n      tag_96\n      jump\t// in\n    tag_140:\n        /* \"#utility.yul\":3373:3627   */\n      swap3\n      swap2\n      pop\n      pop\n      jump\t// out\n        /* \"#utility.yul\":3633:3802   */\n    tag_97:\n        /* \"#utility.yul\":3773:3794   */\n      0x41646d696e206163636573732064656e69656400000000000000000000000000\n        /* \"#utility.yul\":3769:3770   */\n      0x00\n        /* \"#utility.yul\":3761:3767   */\n      dup3\n        /* \"#utility.yul\":3757:3771   */\n      add\n        /* \"#utility.yul\":3750:3795   */\n      mstore\n        /* \"#utility.yul\":3633:3802   */\n      pop\n      jump\t// out\n        /* \"#utility.yul\":3808:4174   */\n    tag_98:\n        /* \"#utility.yul\":3950:3953   */\n      0x00\n        /* \"#utility.yul\":3971:4038   */\n      tag_143\n        /* \"#utility.yul\":4035:4037   */\n      0x13\n        /* \"#utility.yul\":4030:4033   */\n      dup4\n        /* \"#utility.yul\":3971:4038   */\n      tag_82\n      jump\t// in\n    tag_143:\n        /* \"#utility.yul\":3964:4038   */\n      swap2\n      pop\n        /* \"#utility.yul\":4047:4140   */\n      tag_144\n        /* \"#utility.yul\":4136:4139   */\n      dup3\n        /* \"#utility.yul\":4047:4140   */\n      tag_97\n      jump\t// in\n    tag_144:\n        /* \"#utility.yul\":4165:4167   */\n      0x20\n        /* \"#utility.yul\":4160:4163   */\n      dup3\n        /* \"#utility.yul\":4156:4168   */\n      add\n        /* \"#utility.yul\":4149:4168   */\n      swap1\n      pop\n        /* \"#utility.yul\":3808:4174   */\n      swap2\n      swap1\n      pop\n      jump\t// out\n        /* \"#utility.yul\":4180:4599   */\n    tag_42:\n        /* \"#utility.yul\":4346:4350   */\n      0x00\n        /* \"#utility.yul\":4384:4386   */\n      0x20\n        /* \"#utility.yul\":4373:4382   */\n      dup3\n        /* \"#utility.yul\":4369:4387   */\n      add\n        /* \"#utility.yul\":4361:4387   */\n      swap1\n      pop\n        /* \"#utility.yul\":4433:4442   */\n      dup2\n        /* \"#utility.yul\":4427:4431   */\n      dup2\n        /* \"#utility.yul\":4423:4443   */\n      sub\n        /* \"#utility.yul\":4419:4420   */\n      0x00\n        /* \"#utility.yul\":4408:4417   */\n      dup4\n        /* \"#utility.yul\":4404:4421   */\n      add\n        /* \"#utility.yul\":4397:4444   */\n      mstore\n        /* \"#utility.yul\":4461:4592   */\n      tag_146\n        /* \"#utility.yul\":4587:4591   */\n      dup2\n        /* \"#utility.yul\":4461:4592   */\n      tag_98\n      jump\t// in\n    tag_146:\n        /* \"#utility.yul\":4453:4592   */\n      swap1\n      pop\n        /* \"#utility.yul\":4180:4599   */\n      swap2\n      swap1\n      pop\n      jump\t// out\n        /* \"#utility.yul\":4605:4785   */\n    tag_99:\n        /* \"#utility.yul\":4653:4730   */\n      0x4e487b7100000000000000000000000000000000000000000000000000000000\n        /* \"#utility.yul\":4650:4651   */\n      0x00\n        /* \"#utility.yul\":4643:4731   */\n      mstore\n        /* \"#utility.yul\":4750:4754   */\n      0x12\n        /* \"#utility.yul\":4747:4748   */\n      0x04\n        /* \"#utility.yul\":4740:4755   */\n      mstore\n        /* \"#utility.yul\":4774:4778   */\n      0x24\n        /* \"#utility.yul\":4771:4772   */\n      0x00\n        /* \"#utility.yul\":4764:4779   */\n      revert\n        /* \"#utility.yul\":4791:4967   */\n    tag_49:\n        /* \"#utility.yul\":4823:4824   */\n      0x00\n        /* \"#utility.yul\":4840:4860   */\n      tag_149\n        /* \"#utility.yul\":4858:4859   */\n      dup3\n        /* \"#utility.yul\":4840:4860   */\n      tag_85\n      jump\t// in\n    tag_149:\n        /* \"#utility.yul\":4835:4860   */\n      swap2\n      pop\n        /* \"#utility.yul\":4874:4894   */\n      tag_150\n        /* \"#utility.yul\":4892:4893   */\n      dup4\n        /* \"#utility.yul\":4874:4894   */\n      tag_85\n      jump\t// in\n    tag_150:\n        /* \"#utility.yul\":4869:4894   */\n      swap3\n      pop\n        /* \"#utility.yul\":4913:4914   */\n      dup3\n        /* \"#utility.yul\":4903:4938   */\n      tag_151\n      jumpi\n        /* \"#utility.yul\":4918:4936   */\n      tag_152\n      tag_99\n      jump\t// in\n    tag_152:\n        /* \"#utility.yul\":4903:4938   */\n    tag_151:\n        /* \"#utility.yul\":4959:4960   */\n      dup3\n        /* \"#utility.yul\":4956:4957   */\n      dup3\n        /* \"#utility.yul\":4952:4961   */\n      mod\n        /* \"#utility.yul\":4947:4961   */\n      swap1\n      pop\n        /* \"#utility.yul\":4791:4967   */\n      swap3\n      swap2\n      pop\n      pop\n      jump\t// out\n        /* \"#utility.yul\":4973:5153   */\n    tag_100:\n        /* \"#utility.yul\":5021:5098   */\n      0x4e487b7100000000000000000000000000000000000000000000000000000000\n        /* \"#utility.yul\":5018:5019   */\n      0x00\n        /* \"#utility.yul\":5011:5099   */\n      mstore\n        /* \"#utility.yul\":5118:5122   */\n      0x11\n        /* \"#utility.yul\":5115:5116   */\n      0x04\n        /* \"#utility.yul\":5108:5123   */\n      mstore\n        /* \"#utility.yul\":5142:5146   */\n      0x24\n        /* \"#utility.yul\":5139:5140   */\n      0x00\n        /* \"#utility.yul\":5132:5147   */\n      revert\n        /* \"#utility.yul\":5159:5569   */\n    tag_52:\n        /* \"#utility.yul\":5199:5206   */\n      0x00\n        /* \"#utility.yul\":5222:5242   */\n      tag_155\n        /* \"#utility.yul\":5240:5241   */\n      dup3\n        /* \"#utility.yul\":5222:5242   */\n      tag_85\n      jump\t// in\n    tag_155:\n        /* \"#utility.yul\":5217:5242   */\n      swap2\n      pop\n        /* \"#utility.yul\":5256:5276   */\n      tag_156\n        /* \"#utility.yul\":5274:5275   */\n      dup4\n        /* \"#utility.yul\":5256:5276   */\n      tag_85\n      jump\t// in\n    tag_156:\n        /* \"#utility.yul\":5251:5276   */\n      swap3\n      pop\n        /* \"#utility.yul\":5311:5312   */\n      dup3\n        /* \"#utility.yul\":5308:5309   */\n      dup3\n        /* \"#utility.yul\":5304:5313   */\n      mul\n        /* \"#utility.yul\":5333:5363   */\n      tag_157\n        /* \"#utility.yul\":5351:5362   */\n      dup2\n        /* \"#utility.yul\":5333:5363   */\n      tag_85\n      jump\t// in\n    tag_157:\n        /* \"#utility.yul\":5322:5363   */\n      swap2\n      pop\n        /* \"#utility.yul\":5512:5513   */\n      dup3\n        /* \"#utility.yul\":5503:5510   */\n      dup3\n        /* \"#utility.yul\":5499:5514   */\n      div\n        /* \"#utility.yul\":5496:5497   */\n      dup5\n        /* \"#utility.yul\":5493:5515   */\n      eq\n        /* \"#utility.yul\":5473:5474   */\n      dup4\n        /* \"#utility.yul\":5466:5475   */\n      iszero\n        /* \"#utility.yul\":5446:5529   */\n      or\n        /* \"#utility.yul\":5423:5562   */\n      tag_158\n      jumpi\n        /* \"#utility.yul\":5542:5560   */\n      tag_159\n      tag_100\n      jump\t// in\n    tag_159:\n        /* \"#utility.yul\":5423:5562   */\n    tag_158:\n        /* \"#utility.yul\":5207:5569   */\n      pop\n        /* \"#utility.yul\":5159:5569   */\n      swap3\n      swap2\n      pop\n      pop\n      jump\t// out\n        /* \"#utility.yul\":5575:5760   */\n    tag_54:\n        /* \"#utility.yul\":5615:5616   */\n      0x00\n        /* \"#utility.yul\":5632:5652   */\n      tag_161\n        /* \"#utility.yul\":5650:5651   */\n      dup3\n        /* \"#utility.yul\":5632:5652   */\n      tag_85\n      jump\t// in\n    tag_161:\n        /* \"#utility.yul\":5627:5652   */\n      swap2\n      pop\n        /* \"#utility.yul\":5666:5686   */\n      tag_162\n        /* \"#utility.yul\":5684:5685   */\n      dup4\n        /* \"#utility.yul\":5666:5686   */\n      tag_85\n      jump\t// in\n    tag_162:\n        /* \"#utility.yul\":5661:5686   */\n      swap3\n      pop\n        /* \"#utility.yul\":5705:5706   */\n      dup3\n        /* \"#utility.yul\":5695:5730   */\n      tag_163\n      jumpi\n        /* \"#utility.yul\":5710:5728   */\n      tag_164\n      tag_99\n      jump\t// in\n    tag_164:\n        /* \"#utility.yul\":5695:5730   */\n    tag_163:\n        /* \"#utility.yul\":5752:5753   */\n      dup3\n        /* \"#utility.yul\":5749:5750   */\n      dup3\n        /* \"#utility.yul\":5745:5754   */\n      div\n        /* \"#utility.yul\":5740:5754   */\n      swap1\n      pop\n        /* \"#utility.yul\":5575:5760   */\n      swap3\n      swap2\n      pop\n      pop\n      jump\t// out\n        /* \"#utility.yul\":5766:5946   */\n    tag_59:\n        /* \"#utility.yul\":5814:5891   */\n      0x4e487b7100000000000000000000000000000000000000000000000000000000\n        /* \"#utility.yul\":5811:5812   */\n      0x00\n        /* \"#utility.yul\":5804:5892   */\n      mstore\n        /* \"#utility.yul\":5911:5915   */\n      0x32\n        /* \"#utility.yul\":5908:5909   */\n      0x04\n        /* \"#utility.yul\":5901:5916   */\n      mstore\n        /* \"#utility.yul\":5935:5939   */\n      0x24\n        /* \"#utility.yul\":5932:5933   */\n      0x00\n        /* \"#utility.yul\":5925:5940   */\n      revert\n        /* \"#utility.yul\":5952:6132   */\n    tag_66:\n        /* \"#utility.yul\":6000:6077   */\n      0x4e487b7100000000000000000000000000000000000000000000000000000000\n        /* \"#utility.yul\":5997:5998   */\n      0x00\n        /* \"#utility.yul\":5990:6078   */\n      mstore\n        /* \"#utility.yul\":6097:6101   */\n      0x41\n        /* \"#utility.yul\":6094:6095   */\n      0x04\n        /* \"#utility.yul\":6087:6102   */\n      mstore\n        /* \"#utility.yul\":6121:6125   */\n      0x24\n        /* \"#utility.yul\":6118:6119   */\n      0x00\n        /* \"#utility.yul\":6111:6126   */\n      revert\n        /* \"#utility.yul\":6138:6217   */\n    tag_101:\n        /* \"#utility.yul\":6177:6184   */\n      0x00\n        /* \"#utility.yul\":6206:6211   */\n      dup2\n        /* \"#utility.yul\":6195:6211   */\n      swap1\n      pop\n        /* \"#utility.yul\":6138:6217   */\n      swap2\n      swap1\n      pop\n      jump\t// out\n        /* \"#utility.yul\":6223:6380   */\n    tag_102:\n        /* \"#utility.yul\":6328:6373   */\n      tag_169\n        /* \"#utility.yul\":6348:6372   */\n      tag_170\n        /* \"#utility.yul\":6366:6371   */\n      dup3\n        /* \"#utility.yul\":6348:6372   */\n      tag_85\n      jump\t// in\n    tag_170:\n        /* \"#utility.yul\":6328:6373   */\n      tag_101\n      jump\t// in\n    tag_169:\n        /* \"#utility.yul\":6323:6326   */\n      dup3\n        /* \"#utility.yul\":6316:6374   */\n      mstore\n        /* \"#utility.yul\":6223:6380   */\n      pop\n      pop\n      jump\t// out\n        /* \"#utility.yul\":6386:6924   */\n    tag_72:\n        /* \"#utility.yul\":6554:6557   */\n      0x00\n        /* \"#utility.yul\":6569:6644   */\n      tag_172\n        /* \"#utility.yul\":6640:6643   */\n      dup3\n        /* \"#utility.yul\":6631:6637   */\n      dup7\n        /* \"#utility.yul\":6569:6644   */\n      tag_102\n      jump\t// in\n    tag_172:\n        /* \"#utility.yul\":6669:6671   */\n      0x20\n        /* \"#utility.yul\":6664:6667   */\n      dup3\n        /* \"#utility.yul\":6660:6672   */\n      add\n        /* \"#utility.yul\":6653:6672   */\n      swap2\n      pop\n        /* \"#utility.yul\":6682:6757   */\n      tag_173\n        /* \"#utility.yul\":6753:6756   */\n      dup3\n        /* \"#utility.yul\":6744:6750   */\n      dup6\n        /* \"#utility.yul\":6682:6757   */\n      tag_102\n      jump\t// in\n    tag_173:\n        /* \"#utility.yul\":6782:6784   */\n      0x20\n        /* \"#utility.yul\":6777:6780   */\n      dup3\n        /* \"#utility.yul\":6773:6785   */\n      add\n        /* \"#utility.yul\":6766:6785   */\n      swap2\n      pop\n        /* \"#utility.yul\":6795:6870   */\n      tag_174\n        /* \"#utility.yul\":6866:6869   */\n      dup3\n        /* \"#utility.yul\":6857:6863   */\n      dup5\n        /* \"#utility.yul\":6795:6870   */\n      tag_102\n      jump\t// in\n    tag_174:\n        /* \"#utility.yul\":6895:6897   */\n      0x20\n        /* \"#utility.yul\":6890:6893   */\n      dup3\n        /* \"#utility.yul\":6886:6898   */\n      add\n        /* \"#utility.yul\":6879:6898   */\n      swap2\n      pop\n        /* \"#utility.yul\":6915:6918   */\n      dup2\n        /* \"#utility.yul\":6908:6918   */\n      swap1\n      pop\n        /* \"#utility.yul\":6386:6924   */\n      swap5\n      swap4\n      pop\n      pop\n      pop\n      pop\n      jump\t// out\n\n    auxdata: 0xa264697066735822122079d91ba9ab34d5949647f73b930d2eab69b610f1fb3951bdf3e183c26a4834a764736f6c63430008110033\n}\n",
				"bytecode": {
					"linkReferences": {},
					"object": "608060405234801561001057600080fd5b5033600160006101000a81548173ffffffffffffffffffffffffffffffffffffffff021916908373ffffffffffffffffffffffffffffffffffffffff160217905550610a4f806100616000396000f3fe60806040526004361061004e5760003560e01c806312065fe0146101605780635d495aea1461018b5780635ec01e4d146101a25780638da5cb5b146101cd578063f71d96cb146101f85761015b565b3661015b57670de0b6b3a7640000341461009d576040517f08c379a0000000000000000000000000000000000000000000000000000000008152600401610094906106a5565b60405180910390fd5b600160009054906101000a900473ffffffffffffffffffffffffffffffffffffffff1673ffffffffffffffffffffffffffffffffffffffff163373ffffffffffffffffffffffffffffffffffffffff16036100f757600080fd5b6000339080600181540180825580915050600190039060005260206000200160009091909190916101000a81548173ffffffffffffffffffffffffffffffffffffffff021916908373ffffffffffffffffffffffffffffffffffffffff1602179055005b600080fd5b34801561016c57600080fd5b50610175610235565b60405161018291906106de565b60405180910390f35b34801561019757600080fd5b506101a06102cd565b005b3480156101ae57600080fd5b506101b7610502565b6040516101c491906106de565b60405180910390f35b3480156101d957600080fd5b506101e261053c565b6040516101ef919061073a565b60405180910390f35b34801561020457600080fd5b5061021f600480360381019061021a9190610786565b610562565b60405161022c91906107d4565b60405180910390f35b6000600160009054906101000a900473ffffffffffffffffffffffffffffffffffffffff1673ffffffffffffffffffffffffffffffffffffffff163373ffffffffffffffffffffffffffffffffffffffff16146102c7576040517f08c379a00000000000000000000000000000000000000000000000000000000081526004016102be9061083b565b60405180910390fd5b47905090565b600a60008054905010156102e057600080fd5b60006102ea610502565b9050600080600160009054906101000a900473ffffffffffffffffffffffffffffffffffffffff169080600181540180825580915050600190039060005260206000200160009091909190916101000a81548173ffffffffffffffffffffffffffffffffffffffff021916908373ffffffffffffffffffffffffffffffffffffffff1602179055506000808054905083610384919061088a565b9050600160009054906101000a900473ffffffffffffffffffffffffffffffffffffffff1673ffffffffffffffffffffffffffffffffffffffff166108fc6064600a6103ce610235565b6103d891906108ea565b6103e2919061092c565b9081150290604051600060405180830381858888f1935050505015801561040d573d6000803e3d6000fd5b50600081815481106104225761042161095d565b5b9060005260206000200160009054906101000a900473ffffffffffffffffffffffffffffffffffffffff1691508173ffffffffffffffffffffffffffffffffffffffff166108fc610471610235565b9081150290604051600060405180830381858888f1935050505015801561049c573d6000803e3d6000fd5b50600067ffffffffffffffff8111156104b8576104b761098c565b5b6040519080825280602002602001820160405280156104e65781602001602082028036833780820191505090505b50600090805190602001906104fc9291906105a1565b50505050565b6000444260008054905060405160200161051e939291906109dc565b6040516020818303038152906040528051906020012060001c905090565b600160009054906101000a900473ffffffffffffffffffffffffffffffffffffffff1681565b6000818154811061057257600080fd5b906000526020600020016000915054906101000a900473ffffffffffffffffffffffffffffffffffffffff1681565b82805482825590600052602060002090810192821561061a579160200282015b828111156106195782518260006101000a81548173ffffffffffffffffffffffffffffffffffffffff021916908373ffffffffffffffffffffffffffffffffffffffff160217905550916020019190600101906105c1565b5b509050610627919061062b565b5090565b5b8082111561064457600081600090555060010161062c565b5090565b600082825260208201905092915050565b7f456e74727920707269636520697320302e312065746865720000000000000000600082015250565b600061068f601883610648565b915061069a82610659565b602082019050919050565b600060208201905081810360008301526106be81610682565b9050919050565b6000819050919050565b6106d8816106c5565b82525050565b60006020820190506106f360008301846106cf565b92915050565b600073ffffffffffffffffffffffffffffffffffffffff82169050919050565b6000610724826106f9565b9050919050565b61073481610719565b82525050565b600060208201905061074f600083018461072b565b92915050565b600080fd5b610763816106c5565b811461076e57600080fd5b50565b6000813590506107808161075a565b92915050565b60006020828403121561079c5761079b610755565b5b60006107aa84828501610771565b91505092915050565b60006107be826106f9565b9050919050565b6107ce816107b3565b82525050565b60006020820190506107e960008301846107c5565b92915050565b7f41646d696e206163636573732064656e69656400000000000000000000000000600082015250565b6000610825601383610648565b9150610830826107ef565b602082019050919050565b6000602082019050818103600083015261085481610818565b9050919050565b7f4e487b7100000000000000000000000000000000000000000000000000000000600052601260045260246000fd5b6000610895826106c5565b91506108a0836106c5565b9250826108b0576108af61085b565b5b828206905092915050565b7f4e487b7100000000000000000000000000000000000000000000000000000000600052601160045260246000fd5b60006108f5826106c5565b9150610900836106c5565b925082820261090e816106c5565b91508282048414831517610925576109246108bb565b5b5092915050565b6000610937826106c5565b9150610942836106c5565b9250826109525761095161085b565b5b828204905092915050565b7f4e487b7100000000000000000000000000000000000000000000000000000000600052603260045260246000fd5b7f4e487b7100000000000000000000000000000000000000000000000000000000600052604160045260246000fd5b6000819050919050565b6109d66109d1826106c5565b6109bb565b82525050565b60006109e882866109c5565b6020820191506109f882856109c5565b602082019150610a0882846109c5565b60208201915081905094935050505056fea264697066735822122079d91ba9ab34d5949647f73b930d2eab69b610f1fb3951bdf3e183c26a4834a764736f6c63430008110033",
					"opcodes": "PUSH1 0x80 PUSH1 0x40 MSTORE CALLVALUE DUP1 ISZERO PUSH2 0x10 JUMPI PUSH1 0x0 DUP1 REVERT JUMPDEST POP CALLER PUSH1 0x1 PUSH1 0x0 PUSH2 0x100 EXP DUP2 SLOAD DUP2 PUSH20 0xFFFFFFFFFFFFFFFFFFFFFFFFFFFFFFFFFFFFFFFF MUL NOT AND SWAP1 DUP4 PUSH20 0xFFFFFFFFFFFFFFFFFFFFFFFFFFFFFFFFFFFFFFFF AND MUL OR SWAP1 SSTORE POP PUSH2 0xA4F DUP1 PUSH2 0x61 PUSH1 0x0 CODECOPY PUSH1 0x0 RETURN INVALID PUSH1 0x80 PUSH1 0x40 MSTORE PUSH1 0x4 CALLDATASIZE LT PUSH2 0x4E JUMPI PUSH1 0x0 CALLDATALOAD PUSH1 0xE0 SHR DUP1 PUSH4 0x12065FE0 EQ PUSH2 0x160 JUMPI DUP1 PUSH4 0x5D495AEA EQ PUSH2 0x18B JUMPI DUP1 PUSH4 0x5EC01E4D EQ PUSH2 0x1A2 JUMPI DUP1 PUSH4 0x8DA5CB5B EQ PUSH2 0x1CD JUMPI DUP1 PUSH4 0xF71D96CB EQ PUSH2 0x1F8 JUMPI PUSH2 0x15B JUMP JUMPDEST CALLDATASIZE PUSH2 0x15B JUMPI PUSH8 0xDE0B6B3A7640000 CALLVALUE EQ PUSH2 0x9D JUMPI PUSH1 0x40 MLOAD PUSH32 0x8C379A000000000000000000000000000000000000000000000000000000000 DUP2 MSTORE PUSH1 0x4 ADD PUSH2 0x94 SWAP1 PUSH2 0x6A5 JUMP JUMPDEST PUSH1 0x40 MLOAD DUP1 SWAP2 SUB SWAP1 REVERT JUMPDEST PUSH1 0x1 PUSH1 0x0 SWAP1 SLOAD SWAP1 PUSH2 0x100 EXP SWAP1 DIV PUSH20 0xFFFFFFFFFFFFFFFFFFFFFFFFFFFFFFFFFFFFFFFF AND PUSH20 0xFFFFFFFFFFFFFFFFFFFFFFFFFFFFFFFFFFFFFFFF AND CALLER PUSH20 0xFFFFFFFFFFFFFFFFFFFFFFFFFFFFFFFFFFFFFFFF AND SUB PUSH2 0xF7 JUMPI PUSH1 0x0 DUP1 REVERT JUMPDEST PUSH1 0x0 CALLER SWAP1 DUP1 PUSH1 0x1 DUP2 SLOAD ADD DUP1 DUP3 SSTORE DUP1 SWAP2 POP POP PUSH1 0x1 SWAP1 SUB SWAP1 PUSH1 0x0 MSTORE PUSH1 0x20 PUSH1 0x0 KECCAK256 ADD PUSH1 0x0 SWAP1 SWAP2 SWAP1 SWAP2 SWAP1 SWAP2 PUSH2 0x100 EXP DUP2 SLOAD DUP2 PUSH20 0xFFFFFFFFFFFFFFFFFFFFFFFFFFFFFFFFFFFFFFFF MUL NOT AND SWAP1 DUP4 PUSH20 0xFFFFFFFFFFFFFFFFFFFFFFFFFFFFFFFFFFFFFFFF AND MUL OR SWAP1 SSTORE STOP JUMPDEST PUSH1 0x0 DUP1 REVERT JUMPDEST CALLVALUE DUP1 ISZERO PUSH2 0x16C JUMPI PUSH1 0x0 DUP1 REVERT JUMPDEST POP PUSH2 0x175 PUSH2 0x235 JUMP JUMPDEST PUSH1 0x40 MLOAD PUSH2 0x182 SWAP2 SWAP1 PUSH2 0x6DE JUMP JUMPDEST PUSH1 0x40 MLOAD DUP1 SWAP2 SUB SWAP1 RETURN JUMPDEST CALLVALUE DUP1 ISZERO PUSH2 0x197 JUMPI PUSH1 0x0 DUP1 REVERT JUMPDEST POP PUSH2 0x1A0 PUSH2 0x2CD JUMP JUMPDEST STOP JUMPDEST CALLVALUE DUP1 ISZERO PUSH2 0x1AE JUMPI PUSH1 0x0 DUP1 REVERT JUMPDEST POP PUSH2 0x1B7 PUSH2 0x502 JUMP JUMPDEST PUSH1 0x40 MLOAD PUSH2 0x1C4 SWAP2 SWAP1 PUSH2 0x6DE JUMP JUMPDEST PUSH1 0x40 MLOAD DUP1 SWAP2 SUB SWAP1 RETURN JUMPDEST CALLVALUE DUP1 ISZERO PUSH2 0x1D9 JUMPI PUSH1 0x0 DUP1 REVERT JUMPDEST POP PUSH2 0x1E2 PUSH2 0x53C JUMP JUMPDEST PUSH1 0x40 MLOAD PUSH2 0x1EF SWAP2 SWAP1 PUSH2 0x73A JUMP JUMPDEST PUSH1 0x40 MLOAD DUP1 SWAP2 SUB SWAP1 RETURN JUMPDEST CALLVALUE DUP1 ISZERO PUSH2 0x204 JUMPI PUSH1 0x0 DUP1 REVERT JUMPDEST POP PUSH2 0x21F PUSH1 0x4 DUP1 CALLDATASIZE SUB DUP2 ADD SWAP1 PUSH2 0x21A SWAP2 SWAP1 PUSH2 0x786 JUMP JUMPDEST PUSH2 0x562 JUMP JUMPDEST PUSH1 0x40 MLOAD PUSH2 0x22C SWAP2 SWAP1 PUSH2 0x7D4 JUMP JUMPDEST PUSH1 0x40 MLOAD DUP1 SWAP2 SUB SWAP1 RETURN JUMPDEST PUSH1 0x0 PUSH1 0x1 PUSH1 0x0 SWAP1 SLOAD SWAP1 PUSH2 0x100 EXP SWAP1 DIV PUSH20 0xFFFFFFFFFFFFFFFFFFFFFFFFFFFFFFFFFFFFFFFF AND PUSH20 0xFFFFFFFFFFFFFFFFFFFFFFFFFFFFFFFFFFFFFFFF AND CALLER PUSH20 0xFFFFFFFFFFFFFFFFFFFFFFFFFFFFFFFFFFFFFFFF AND EQ PUSH2 0x2C7 JUMPI PUSH1 0x40 MLOAD PUSH32 0x8C379A000000000000000000000000000000000000000000000000000000000 DUP2 MSTORE PUSH1 0x4 ADD PUSH2 0x2BE SWAP1 PUSH2 0x83B JUMP JUMPDEST PUSH1 0x40 MLOAD DUP1 SWAP2 SUB SWAP1 REVERT JUMPDEST SELFBALANCE SWAP1 POP SWAP1 JUMP JUMPDEST PUSH1 0xA PUSH1 0x0 DUP1 SLOAD SWAP1 POP LT ISZERO PUSH2 0x2E0 JUMPI PUSH1 0x0 DUP1 REVERT JUMPDEST PUSH1 0x0 PUSH2 0x2EA PUSH2 0x502 JUMP JUMPDEST SWAP1 POP PUSH1 0x0 DUP1 PUSH1 0x1 PUSH1 0x0 SWAP1 SLOAD SWAP1 PUSH2 0x100 EXP SWAP1 DIV PUSH20 0xFFFFFFFFFFFFFFFFFFFFFFFFFFFFFFFFFFFFFFFF AND SWAP1 DUP1 PUSH1 0x1 DUP2 SLOAD ADD DUP1 DUP3 SSTORE DUP1 SWAP2 POP POP PUSH1 0x1 SWAP1 SUB SWAP1 PUSH1 0x0 MSTORE PUSH1 0x20 PUSH1 0x0 KECCAK256 ADD PUSH1 0x0 SWAP1 SWAP2 SWAP1 SWAP2 SWAP1 SWAP2 PUSH2 0x100 EXP DUP2 SLOAD DUP2 PUSH20 0xFFFFFFFFFFFFFFFFFFFFFFFFFFFFFFFFFFFFFFFF MUL NOT AND SWAP1 DUP4 PUSH20 0xFFFFFFFFFFFFFFFFFFFFFFFFFFFFFFFFFFFFFFFF AND MUL OR SWAP1 SSTORE POP PUSH1 0x0 DUP1 DUP1 SLOAD SWAP1 POP DUP4 PUSH2 0x384 SWAP2 SWAP1 PUSH2 0x88A JUMP JUMPDEST SWAP1 POP PUSH1 0x1 PUSH1 0x0 SWAP1 SLOAD SWAP1 PUSH2 0x100 EXP SWAP1 DIV PUSH20 0xFFFFFFFFFFFFFFFFFFFFFFFFFFFFFFFFFFFFFFFF AND PUSH20 0xFFFFFFFFFFFFFFFFFFFFFFFFFFFFFFFFFFFFFFFF AND PUSH2 0x8FC PUSH1 0x64 PUSH1 0xA PUSH2 0x3CE PUSH2 0x235 JUMP JUMPDEST PUSH2 0x3D8 SWAP2 SWAP1 PUSH2 0x8EA JUMP JUMPDEST PUSH2 0x3E2 SWAP2 SWAP1 PUSH2 0x92C JUMP JUMPDEST SWAP1 DUP2 ISZERO MUL SWAP1 PUSH1 0x40 MLOAD PUSH1 0x0 PUSH1 0x40 MLOAD DUP1 DUP4 SUB DUP2 DUP6 DUP9 DUP9 CALL SWAP4 POP POP POP POP ISZERO DUP1 ISZERO PUSH2 0x40D JUMPI RETURNDATASIZE PUSH1 0x0 DUP1 RETURNDATACOPY RETURNDATASIZE PUSH1 0x0 REVERT JUMPDEST POP PUSH1 0x0 DUP2 DUP2 SLOAD DUP2 LT PUSH2 0x422 JUMPI PUSH2 0x421 PUSH2 0x95D JUMP JUMPDEST JUMPDEST SWAP1 PUSH1 0x0 MSTORE PUSH1 0x20 PUSH1 0x0 KECCAK256 ADD PUSH1 0x0 SWAP1 SLOAD SWAP1 PUSH2 0x100 EXP SWAP1 DIV PUSH20 0xFFFFFFFFFFFFFFFFFFFFFFFFFFFFFFFFFFFFFFFF AND SWAP2 POP DUP2 PUSH20 0xFFFFFFFFFFFFFFFFFFFFFFFFFFFFFFFFFFFFFFFF AND PUSH2 0x8FC PUSH2 0x471 PUSH2 0x235 JUMP JUMPDEST SWAP1 DUP2 ISZERO MUL SWAP1 PUSH1 0x40 MLOAD PUSH1 0x0 PUSH1 0x40 MLOAD DUP1 DUP4 SUB DUP2 DUP6 DUP9 DUP9 CALL SWAP4 POP POP POP POP ISZERO DUP1 ISZERO PUSH2 0x49C JUMPI RETURNDATASIZE PUSH1 0x0 DUP1 RETURNDATACOPY RETURNDATASIZE PUSH1 0x0 REVERT JUMPDEST POP PUSH1 0x0 PUSH8 0xFFFFFFFFFFFFFFFF DUP2 GT ISZERO PUSH2 0x4B8 JUMPI PUSH2 0x4B7 PUSH2 0x98C JUMP JUMPDEST JUMPDEST PUSH1 0x40 MLOAD SWAP1 DUP1 DUP3 MSTORE DUP1 PUSH1 0x20 MUL PUSH1 0x20 ADD DUP3 ADD PUSH1 0x40 MSTORE DUP1 ISZERO PUSH2 0x4E6 JUMPI DUP2 PUSH1 0x20 ADD PUSH1 0x20 DUP3 MUL DUP1 CALLDATASIZE DUP4 CALLDATACOPY DUP1 DUP3 ADD SWAP2 POP POP SWAP1 POP JUMPDEST POP PUSH1 0x0 SWAP1 DUP1 MLOAD SWAP1 PUSH1 0x20 ADD SWAP1 PUSH2 0x4FC SWAP3 SWAP2 SWAP1 PUSH2 0x5A1 JUMP JUMPDEST POP POP POP POP JUMP JUMPDEST PUSH1 0x0 DIFFICULTY TIMESTAMP PUSH1 0x0 DUP1 SLOAD SWAP1 POP PUSH1 0x40 MLOAD PUSH1 0x20 ADD PUSH2 0x51E SWAP4 SWAP3 SWAP2 SWAP1 PUSH2 0x9DC JUMP JUMPDEST PUSH1 0x40 MLOAD PUSH1 0x20 DUP2 DUP4 SUB SUB DUP2 MSTORE SWAP1 PUSH1 0x40 MSTORE DUP1 MLOAD SWAP1 PUSH1 0x20 ADD KECCAK256 PUSH1 0x0 SHR SWAP1 POP SWAP1 JUMP JUMPDEST PUSH1 0x1 PUSH1 0x0 SWAP1 SLOAD SWAP1 PUSH2 0x100 EXP SWAP1 DIV PUSH20 0xFFFFFFFFFFFFFFFFFFFFFFFFFFFFFFFFFFFFFFFF AND DUP2 JUMP JUMPDEST PUSH1 0x0 DUP2 DUP2 SLOAD DUP2 LT PUSH2 0x572 JUMPI PUSH1 0x0 DUP1 REVERT JUMPDEST SWAP1 PUSH1 0x0 MSTORE PUSH1 0x20 PUSH1 0x0 KECCAK256 ADD PUSH1 0x0 SWAP2 POP SLOAD SWAP1 PUSH2 0x100 EXP SWAP1 DIV PUSH20 0xFFFFFFFFFFFFFFFFFFFFFFFFFFFFFFFFFFFFFFFF AND DUP2 JUMP JUMPDEST DUP3 DUP1 SLOAD DUP3 DUP3 SSTORE SWAP1 PUSH1 0x0 MSTORE PUSH1 0x20 PUSH1 0x0 KECCAK256 SWAP1 DUP2 ADD SWAP3 DUP3 ISZERO PUSH2 0x61A JUMPI SWAP2 PUSH1 0x20 MUL DUP3 ADD JUMPDEST DUP3 DUP2 GT ISZERO PUSH2 0x619 JUMPI DUP3 MLOAD DUP3 PUSH1 0x0 PUSH2 0x100 EXP DUP2 SLOAD DUP2 PUSH20 0xFFFFFFFFFFFFFFFFFFFFFFFFFFFFFFFFFFFFFFFF MUL NOT AND SWAP1 DUP4 PUSH20 0xFFFFFFFFFFFFFFFFFFFFFFFFFFFFFFFFFFFFFFFF AND MUL OR SWAP1 SSTORE POP SWAP2 PUSH1 0x20 ADD SWAP2 SWAP1 PUSH1 0x1 ADD SWAP1 PUSH2 0x5C1 JUMP JUMPDEST JUMPDEST POP SWAP1 POP PUSH2 0x627 SWAP2 SWAP1 PUSH2 0x62B JUMP JUMPDEST POP SWAP1 JUMP JUMPDEST JUMPDEST DUP1 DUP3 GT ISZERO PUSH2 0x644 JUMPI PUSH1 0x0 DUP2 PUSH1 0x0 SWAP1 SSTORE POP PUSH1 0x1 ADD PUSH2 0x62C JUMP JUMPDEST POP SWAP1 JUMP JUMPDEST PUSH1 0x0 DUP3 DUP3 MSTORE PUSH1 0x20 DUP3 ADD SWAP1 POP SWAP3 SWAP2 POP POP JUMP JUMPDEST PUSH32 0x456E74727920707269636520697320302E312065746865720000000000000000 PUSH1 0x0 DUP3 ADD MSTORE POP JUMP JUMPDEST PUSH1 0x0 PUSH2 0x68F PUSH1 0x18 DUP4 PUSH2 0x648 JUMP JUMPDEST SWAP2 POP PUSH2 0x69A DUP3 PUSH2 0x659 JUMP JUMPDEST PUSH1 0x20 DUP3 ADD SWAP1 POP SWAP2 SWAP1 POP JUMP JUMPDEST PUSH1 0x0 PUSH1 0x20 DUP3 ADD SWAP1 POP DUP2 DUP2 SUB PUSH1 0x0 DUP4 ADD MSTORE PUSH2 0x6BE DUP2 PUSH2 0x682 JUMP JUMPDEST SWAP1 POP SWAP2 SWAP1 POP JUMP JUMPDEST PUSH1 0x0 DUP2 SWAP1 POP SWAP2 SWAP1 POP JUMP JUMPDEST PUSH2 0x6D8 DUP2 PUSH2 0x6C5 JUMP JUMPDEST DUP3 MSTORE POP POP JUMP JUMPDEST PUSH1 0x0 PUSH1 0x20 DUP3 ADD SWAP1 POP PUSH2 0x6F3 PUSH1 0x0 DUP4 ADD DUP5 PUSH2 0x6CF JUMP JUMPDEST SWAP3 SWAP2 POP POP JUMP JUMPDEST PUSH1 0x0 PUSH20 0xFFFFFFFFFFFFFFFFFFFFFFFFFFFFFFFFFFFFFFFF DUP3 AND SWAP1 POP SWAP2 SWAP1 POP JUMP JUMPDEST PUSH1 0x0 PUSH2 0x724 DUP3 PUSH2 0x6F9 JUMP JUMPDEST SWAP1 POP SWAP2 SWAP1 POP JUMP JUMPDEST PUSH2 0x734 DUP2 PUSH2 0x719 JUMP JUMPDEST DUP3 MSTORE POP POP JUMP JUMPDEST PUSH1 0x0 PUSH1 0x20 DUP3 ADD SWAP1 POP PUSH2 0x74F PUSH1 0x0 DUP4 ADD DUP5 PUSH2 0x72B JUMP JUMPDEST SWAP3 SWAP2 POP POP JUMP JUMPDEST PUSH1 0x0 DUP1 REVERT JUMPDEST PUSH2 0x763 DUP2 PUSH2 0x6C5 JUMP JUMPDEST DUP2 EQ PUSH2 0x76E JUMPI PUSH1 0x0 DUP1 REVERT JUMPDEST POP JUMP JUMPDEST PUSH1 0x0 DUP2 CALLDATALOAD SWAP1 POP PUSH2 0x780 DUP2 PUSH2 0x75A JUMP JUMPDEST SWAP3 SWAP2 POP POP JUMP JUMPDEST PUSH1 0x0 PUSH1 0x20 DUP3 DUP5 SUB SLT ISZERO PUSH2 0x79C JUMPI PUSH2 0x79B PUSH2 0x755 JUMP JUMPDEST JUMPDEST PUSH1 0x0 PUSH2 0x7AA DUP5 DUP3 DUP6 ADD PUSH2 0x771 JUMP JUMPDEST SWAP2 POP POP SWAP3 SWAP2 POP POP JUMP JUMPDEST PUSH1 0x0 PUSH2 0x7BE DUP3 PUSH2 0x6F9 JUMP JUMPDEST SWAP1 POP SWAP2 SWAP1 POP JUMP JUMPDEST PUSH2 0x7CE DUP2 PUSH2 0x7B3 JUMP JUMPDEST DUP3 MSTORE POP POP JUMP JUMPDEST PUSH1 0x0 PUSH1 0x20 DUP3 ADD SWAP1 POP PUSH2 0x7E9 PUSH1 0x0 DUP4 ADD DUP5 PUSH2 0x7C5 JUMP JUMPDEST SWAP3 SWAP2 POP POP JUMP JUMPDEST PUSH32 0x41646D696E206163636573732064656E69656400000000000000000000000000 PUSH1 0x0 DUP3 ADD MSTORE POP JUMP JUMPDEST PUSH1 0x0 PUSH2 0x825 PUSH1 0x13 DUP4 PUSH2 0x648 JUMP JUMPDEST SWAP2 POP PUSH2 0x830 DUP3 PUSH2 0x7EF JUMP JUMPDEST PUSH1 0x20 DUP3 ADD SWAP1 POP SWAP2 SWAP1 POP JUMP JUMPDEST PUSH1 0x0 PUSH1 0x20 DUP3 ADD SWAP1 POP DUP2 DUP2 SUB PUSH1 0x0 DUP4 ADD MSTORE PUSH2 0x854 DUP2 PUSH2 0x818 JUMP JUMPDEST SWAP1 POP SWAP2 SWAP1 POP JUMP JUMPDEST PUSH32 0x4E487B7100000000000000000000000000000000000000000000000000000000 PUSH1 0x0 MSTORE PUSH1 0x12 PUSH1 0x4 MSTORE PUSH1 0x24 PUSH1 0x0 REVERT JUMPDEST PUSH1 0x0 PUSH2 0x895 DUP3 PUSH2 0x6C5 JUMP JUMPDEST SWAP2 POP PUSH2 0x8A0 DUP4 PUSH2 0x6C5 JUMP JUMPDEST SWAP3 POP DUP3 PUSH2 0x8B0 JUMPI PUSH2 0x8AF PUSH2 0x85B JUMP JUMPDEST JUMPDEST DUP3 DUP3 MOD SWAP1 POP SWAP3 SWAP2 POP POP JUMP JUMPDEST PUSH32 0x4E487B7100000000000000000000000000000000000000000000000000000000 PUSH1 0x0 MSTORE PUSH1 0x11 PUSH1 0x4 MSTORE PUSH1 0x24 PUSH1 0x0 REVERT JUMPDEST PUSH1 0x0 PUSH2 0x8F5 DUP3 PUSH2 0x6C5 JUMP JUMPDEST SWAP2 POP PUSH2 0x900 DUP4 PUSH2 0x6C5 JUMP JUMPDEST SWAP3 POP DUP3 DUP3 MUL PUSH2 0x90E DUP2 PUSH2 0x6C5 JUMP JUMPDEST SWAP2 POP DUP3 DUP3 DIV DUP5 EQ DUP4 ISZERO OR PUSH2 0x925 JUMPI PUSH2 0x924 PUSH2 0x8BB JUMP JUMPDEST JUMPDEST POP SWAP3 SWAP2 POP POP JUMP JUMPDEST PUSH1 0x0 PUSH2 0x937 DUP3 PUSH2 0x6C5 JUMP JUMPDEST SWAP2 POP PUSH2 0x942 DUP4 PUSH2 0x6C5 JUMP JUMPDEST SWAP3 POP DUP3 PUSH2 0x952 JUMPI PUSH2 0x951 PUSH2 0x85B JUMP JUMPDEST JUMPDEST DUP3 DUP3 DIV SWAP1 POP SWAP3 SWAP2 POP POP JUMP JUMPDEST PUSH32 0x4E487B7100000000000000000000000000000000000000000000000000000000 PUSH1 0x0 MSTORE PUSH1 0x32 PUSH1 0x4 MSTORE PUSH1 0x24 PUSH1 0x0 REVERT JUMPDEST PUSH32 0x4E487B7100000000000000000000000000000000000000000000000000000000 PUSH1 0x0 MSTORE PUSH1 0x41 PUSH1 0x4 MSTORE PUSH1 0x24 PUSH1 0x0 REVERT JUMPDEST PUSH1 0x0 DUP2 SWAP1 POP SWAP2 SWAP1 POP JUMP JUMPDEST PUSH2 0x9D6 PUSH2 0x9D1 DUP3 PUSH2 0x6C5 JUMP JUMPDEST PUSH2 0x9BB JUMP JUMPDEST DUP3 MSTORE POP POP JUMP JUMPDEST PUSH1 0x0 PUSH2 0x9E8 DUP3 DUP7 PUSH2 0x9C5 JUMP JUMPDEST PUSH1 0x20 DUP3 ADD SWAP2 POP PUSH2 0x9F8 DUP3 DUP6 PUSH2 0x9C5 JUMP JUMPDEST PUSH1 0x20 DUP3 ADD SWAP2 POP PUSH2 0xA08 DUP3 DUP5 PUSH2 0x9C5 JUMP JUMPDEST PUSH1 0x20 DUP3 ADD SWAP2 POP DUP2 SWAP1 POP SWAP5 SWAP4 POP POP POP POP JUMP INVALID LOG2 PUSH5 0x6970667358 0x22 SLT KECCAK256 PUSH26 0xD91BA9AB34D5949647F73B930D2EAB69B610F1FB3951BDF3E183 0xC2 PUSH11 0x4834A764736F6C63430008 GT STOP CALLER "
				},
				"gasEstimates": {
					"creation": {
						"codeDepositCost": "527800",
						"executionCost": "24828",
						"totalCost": "552628"
					},
					"external": {
						"getBalance()": "2584",
						"owner()": "2558",
						"pickWinner()": "infinite",
						"players(uint256)": "5022",
						"random()": "infinite"
					}
				},
				"methodIdentifiers": {
					"getBalance()": "12065fe0",
					"owner()": "8da5cb5b",
					"pickWinner()": "5d495aea",
					"players(uint256)": "f71d96cb",
					"random()": "5ec01e4d"
				}
			},
			"storageLayout": {
				"storage": [
					{
						"astId": 4,
						"contract": "contracts/Lottery_v2.sol:Lottery",
						"label": "players",
						"offset": 0,
						"slot": "0",
						"type": "t_array(t_address_payable)dyn_storage"
					},
					{
						"astId": 6,
						"contract": "contracts/Lottery_v2.sol:Lottery",
						"label": "owner",
						"offset": 0,
						"slot": "1",
						"type": "t_address"
					}
				],
				"types": {
					"t_address": {
						"encoding": "inplace",
						"label": "address",
						"numberOfBytes": "20"
					},
					"t_address_payable": {
						"encoding": "inplace",
						"label": "address payable",
						"numberOfBytes": "20"
					},
					"t_array(t_address_payable)dyn_storage": {
						"base": "t_address_payable",
						"encoding": "dynamic_array",
						"label": "address payable[]",
						"numberOfBytes": "32"
					}
				}
			},
			"userdoc": {
				"kind": "user",
				"methods": {},
				"version": 1
			}
		}
	}
}