{
	"contracts/Auction.sol": {
		"Auction": {
			"abi": [
				{
					"inputs": [
						{
							"internalType": "address",
							"name": "eoa",
							"type": "address"
						}
					],
					"stateMutability": "nonpayable",
					"type": "constructor"
				},
				{
					"inputs": [],
					"name": "auctionState",
					"outputs": [
						{
							"internalType": "enum Auction.State",
							"name": "",
							"type": "uint8"
						}
					],
					"stateMutability": "view",
					"type": "function"
				},
				{
					"inputs": [
						{
							"internalType": "address",
							"name": "",
							"type": "address"
						}
					],
					"name": "bids",
					"outputs": [
						{
							"internalType": "uint256",
							"name": "",
							"type": "uint256"
						}
					],
					"stateMutability": "view",
					"type": "function"
				},
				{
					"inputs": [],
					"name": "cancelAuction",
					"outputs": [],
					"stateMutability": "nonpayable",
					"type": "function"
				},
				{
					"inputs": [],
					"name": "endAuction",
					"outputs": [],
					"stateMutability": "nonpayable",
					"type": "function"
				},
				{
					"inputs": [],
					"name": "endBlock",
					"outputs": [
						{
							"internalType": "uint256",
							"name": "",
							"type": "uint256"
						}
					],
					"stateMutability": "view",
					"type": "function"
				},
				{
					"inputs": [],
					"name": "highestBid",
					"outputs": [
						{
							"internalType": "uint256",
							"name": "",
							"type": "uint256"
						}
					],
					"stateMutability": "view",
					"type": "function"
				},
				{
					"inputs": [],
					"name": "highestBidder",
					"outputs": [
						{
							"internalType": "address payable",
							"name": "",
							"type": "address"
						}
					],
					"stateMutability": "view",
					"type": "function"
				},
				{
					"inputs": [],
					"name": "ipfsHash",
					"outputs": [
						{
							"internalType": "string",
							"name": "",
							"type": "string"
						}
					],
					"stateMutability": "view",
					"type": "function"
				},
				{
					"inputs": [],
					"name": "owner",
					"outputs": [
						{
							"internalType": "address payable",
							"name": "",
							"type": "address"
						}
					],
					"stateMutability": "view",
					"type": "function"
				},
				{
					"inputs": [],
					"name": "placeBid",
					"outputs": [],
					"stateMutability": "payable",
					"type": "function"
				},
				{
					"inputs": [],
					"name": "startBlock",
					"outputs": [
						{
							"internalType": "uint256",
							"name": "",
							"type": "uint256"
						}
					],
					"stateMutability": "view",
					"type": "function"
				}
			],
			"devdoc": {
				"kind": "dev",
				"methods": {},
				"version": 1
			},
			"evm": {
				"assembly": "    /* \"contracts/Auction.sol\":289:4918  contract Auction{... */\n  mstore(0x40, 0x80)\n    /* \"contracts/Auction.sol\":815:1441  constructor(address eoa){                                                                       //note for myself: eoa == externally owned address... */\n  callvalue\n  dup1\n  iszero\n  tag_1\n  jumpi\n  0x00\n  dup1\n  revert\ntag_1:\n  pop\n  mload(0x40)\n  sub(codesize, bytecodeSize)\n  dup1\n  bytecodeSize\n  dup4\n  codecopy\n  dup2\n  dup2\n  add\n  0x40\n  mstore\n  dup2\n  add\n  swap1\n  tag_2\n  swap2\n  swap1\n  tag_3\n  jump\t// in\ntag_2:\n    /* \"contracts/Auction.sol\":987:990  eoa */\n  dup1\n    /* \"contracts/Auction.sol\":971:976  owner */\n  0x00\n  dup1\n    /* \"contracts/Auction.sol\":971:991  owner = payable(eoa) */\n  0x0100\n  exp\n  dup2\n  sload\n  dup2\n  0xffffffffffffffffffffffffffffffffffffffff\n  mul\n  not\n  and\n  swap1\n  dup4\n  0xffffffffffffffffffffffffffffffffffffffff\n  and\n  mul\n  or\n  swap1\n  sstore\n  pop\n    /* \"contracts/Auction.sol\":1017:1030  State.Running */\n  0x00\n    /* \"contracts/Auction.sol\":1002:1014  auctionState */\n  0x04\n  0x00\n    /* \"contracts/Auction.sol\":1002:1030  auctionState = State.Running */\n  0x0100\n  exp\n  dup2\n  sload\n  dup2\n  0xff\n  mul\n  not\n  and\n  swap1\n  dup4\n  0x02\n  dup2\n  gt\n  iszero\n  tag_6\n  jumpi\n  tag_7\n  tag_8\n  jump\t// in\ntag_7:\ntag_6:\n  mul\n  or\n  swap1\n  sstore\n  pop\n    /* \"contracts/Auction.sol\":1054:1066  block.number */\n  number\n    /* \"contracts/Auction.sol\":1041:1051  startBlock */\n  0x01\n    /* \"contracts/Auction.sol\":1041:1066  startBlock = block.number */\n  dup2\n  swap1\n  sstore\n  pop\n    /* \"contracts/Auction.sol\":1101:1106  40320 */\n  0x9d80\n    /* \"contracts/Auction.sol\":1088:1098  startBlock */\n  sload(0x01)\n    /* \"contracts/Auction.sol\":1088:1106  startBlock + 40320 */\n  tag_9\n  swap2\n  swap1\n  tag_10\n  jump\t// in\ntag_9:\n    /* \"contracts/Auction.sol\":1077:1085  endBlock */\n  0x02\n    /* \"contracts/Auction.sol\":1077:1106  endBlock = startBlock + 40320 */\n  dup2\n  swap1\n  sstore\n  pop\n    /* \"contracts/Auction.sol\":1288:1301  ipfsHash = \"\" */\n  mload(0x40)\n  dup1\n  0x20\n  add\n  0x40\n  mstore\n  dup1\n  0x00\n  dup2\n  mstore\n  pop\n    /* \"contracts/Auction.sol\":1288:1296  ipfsHash */\n  0x03\n    /* \"contracts/Auction.sol\":1288:1301  ipfsHash = \"\" */\n  swap1\n  dup2\n  tag_11\n  swap2\n  swap1\n  tag_12\n  jump\t// in\ntag_11:\n  pop\n    /* \"contracts/Auction.sol\":1327:1330  100 */\n  0x64\n    /* \"contracts/Auction.sol\":1312:1324  bidIncrement */\n  0x08\n    /* \"contracts/Auction.sol\":1312:1330  bidIncrement = 100 */\n  dup2\n  swap1\n  sstore\n  pop\n    /* \"contracts/Auction.sol\":815:1441  constructor(address eoa){                                                                       //note for myself: eoa == externally owned address... */\n  pop\n    /* \"contracts/Auction.sol\":289:4918  contract Auction{... */\n  jump(tag_13)\n    /* \"#utility.yul\":88:205   */\ntag_15:\n    /* \"#utility.yul\":197:198   */\n  0x00\n    /* \"#utility.yul\":194:195   */\n  dup1\n    /* \"#utility.yul\":187:199   */\n  revert\n    /* \"#utility.yul\":334:460   */\ntag_17:\n    /* \"#utility.yul\":371:378   */\n  0x00\n    /* \"#utility.yul\":411:453   */\n  0xffffffffffffffffffffffffffffffffffffffff\n    /* \"#utility.yul\":404:409   */\n  dup3\n    /* \"#utility.yul\":400:454   */\n  and\n    /* \"#utility.yul\":389:454   */\n  swap1\n  pop\n    /* \"#utility.yul\":334:460   */\n  swap2\n  swap1\n  pop\n  jump\t// out\n    /* \"#utility.yul\":466:562   */\ntag_18:\n    /* \"#utility.yul\":503:510   */\n  0x00\n    /* \"#utility.yul\":532:556   */\n  tag_48\n    /* \"#utility.yul\":550:555   */\n  dup3\n    /* \"#utility.yul\":532:556   */\n  tag_17\n  jump\t// in\ntag_48:\n    /* \"#utility.yul\":521:556   */\n  swap1\n  pop\n    /* \"#utility.yul\":466:562   */\n  swap2\n  swap1\n  pop\n  jump\t// out\n    /* \"#utility.yul\":568:690   */\ntag_19:\n    /* \"#utility.yul\":641:665   */\n  tag_50\n    /* \"#utility.yul\":659:664   */\n  dup2\n    /* \"#utility.yul\":641:665   */\n  tag_18\n  jump\t// in\ntag_50:\n    /* \"#utility.yul\":634:639   */\n  dup2\n    /* \"#utility.yul\":631:666   */\n  eq\n    /* \"#utility.yul\":621:684   */\n  tag_51\n  jumpi\n    /* \"#utility.yul\":680:681   */\n  0x00\n    /* \"#utility.yul\":677:678   */\n  dup1\n    /* \"#utility.yul\":670:682   */\n  revert\n    /* \"#utility.yul\":621:684   */\ntag_51:\n    /* \"#utility.yul\":568:690   */\n  pop\n  jump\t// out\n    /* \"#utility.yul\":696:839   */\ntag_20:\n    /* \"#utility.yul\":753:758   */\n  0x00\n    /* \"#utility.yul\":784:790   */\n  dup2\n    /* \"#utility.yul\":778:791   */\n  mload\n    /* \"#utility.yul\":769:791   */\n  swap1\n  pop\n    /* \"#utility.yul\":800:833   */\n  tag_53\n    /* \"#utility.yul\":827:832   */\n  dup2\n    /* \"#utility.yul\":800:833   */\n  tag_19\n  jump\t// in\ntag_53:\n    /* \"#utility.yul\":696:839   */\n  swap3\n  swap2\n  pop\n  pop\n  jump\t// out\n    /* \"#utility.yul\":845:1196   */\ntag_3:\n    /* \"#utility.yul\":915:921   */\n  0x00\n    /* \"#utility.yul\":964:966   */\n  0x20\n    /* \"#utility.yul\":952:961   */\n  dup3\n    /* \"#utility.yul\":943:950   */\n  dup5\n    /* \"#utility.yul\":939:962   */\n  sub\n    /* \"#utility.yul\":935:967   */\n  slt\n    /* \"#utility.yul\":932:1051   */\n  iszero\n  tag_55\n  jumpi\n    /* \"#utility.yul\":970:1049   */\n  tag_56\n  tag_15\n  jump\t// in\ntag_56:\n    /* \"#utility.yul\":932:1051   */\ntag_55:\n    /* \"#utility.yul\":1090:1091   */\n  0x00\n    /* \"#utility.yul\":1115:1179   */\n  tag_57\n    /* \"#utility.yul\":1171:1178   */\n  dup5\n    /* \"#utility.yul\":1162:1168   */\n  dup3\n    /* \"#utility.yul\":1151:1160   */\n  dup6\n    /* \"#utility.yul\":1147:1169   */\n  add\n    /* \"#utility.yul\":1115:1179   */\n  tag_20\n  jump\t// in\ntag_57:\n    /* \"#utility.yul\":1105:1179   */\n  swap2\n  pop\n    /* \"#utility.yul\":1061:1189   */\n  pop\n    /* \"#utility.yul\":845:1196   */\n  swap3\n  swap2\n  pop\n  pop\n  jump\t// out\n    /* \"#utility.yul\":1202:1382   */\ntag_8:\n    /* \"#utility.yul\":1250:1327   */\n  0x4e487b7100000000000000000000000000000000000000000000000000000000\n    /* \"#utility.yul\":1247:1248   */\n  0x00\n    /* \"#utility.yul\":1240:1328   */\n  mstore\n    /* \"#utility.yul\":1347:1351   */\n  0x21\n    /* \"#utility.yul\":1344:1345   */\n  0x04\n    /* \"#utility.yul\":1337:1352   */\n  mstore\n    /* \"#utility.yul\":1371:1375   */\n  0x24\n    /* \"#utility.yul\":1368:1369   */\n  0x00\n    /* \"#utility.yul\":1361:1376   */\n  revert\n    /* \"#utility.yul\":1388:1465   */\ntag_21:\n    /* \"#utility.yul\":1425:1432   */\n  0x00\n    /* \"#utility.yul\":1454:1459   */\n  dup2\n    /* \"#utility.yul\":1443:1459   */\n  swap1\n  pop\n    /* \"#utility.yul\":1388:1465   */\n  swap2\n  swap1\n  pop\n  jump\t// out\n    /* \"#utility.yul\":1471:1651   */\ntag_22:\n    /* \"#utility.yul\":1519:1596   */\n  0x4e487b7100000000000000000000000000000000000000000000000000000000\n    /* \"#utility.yul\":1516:1517   */\n  0x00\n    /* \"#utility.yul\":1509:1597   */\n  mstore\n    /* \"#utility.yul\":1616:1620   */\n  0x11\n    /* \"#utility.yul\":1613:1614   */\n  0x04\n    /* \"#utility.yul\":1606:1621   */\n  mstore\n    /* \"#utility.yul\":1640:1644   */\n  0x24\n    /* \"#utility.yul\":1637:1638   */\n  0x00\n    /* \"#utility.yul\":1630:1645   */\n  revert\n    /* \"#utility.yul\":1657:1848   */\ntag_10:\n    /* \"#utility.yul\":1697:1700   */\n  0x00\n    /* \"#utility.yul\":1716:1736   */\n  tag_62\n    /* \"#utility.yul\":1734:1735   */\n  dup3\n    /* \"#utility.yul\":1716:1736   */\n  tag_21\n  jump\t// in\ntag_62:\n    /* \"#utility.yul\":1711:1736   */\n  swap2\n  pop\n    /* \"#utility.yul\":1750:1770   */\n  tag_63\n    /* \"#utility.yul\":1768:1769   */\n  dup4\n    /* \"#utility.yul\":1750:1770   */\n  tag_21\n  jump\t// in\ntag_63:\n    /* \"#utility.yul\":1745:1770   */\n  swap3\n  pop\n    /* \"#utility.yul\":1793:1794   */\n  dup3\n    /* \"#utility.yul\":1790:1791   */\n  dup3\n    /* \"#utility.yul\":1786:1795   */\n  add\n    /* \"#utility.yul\":1779:1795   */\n  swap1\n  pop\n    /* \"#utility.yul\":1814:1817   */\n  dup1\n    /* \"#utility.yul\":1811:1812   */\n  dup3\n    /* \"#utility.yul\":1808:1818   */\n  gt\n    /* \"#utility.yul\":1805:1841   */\n  iszero\n  tag_64\n  jumpi\n    /* \"#utility.yul\":1821:1839   */\n  tag_65\n  tag_22\n  jump\t// in\ntag_65:\n    /* \"#utility.yul\":1805:1841   */\ntag_64:\n    /* \"#utility.yul\":1657:1848   */\n  swap3\n  swap2\n  pop\n  pop\n  jump\t// out\n    /* \"#utility.yul\":1854:1953   */\ntag_23:\n    /* \"#utility.yul\":1906:1912   */\n  0x00\n    /* \"#utility.yul\":1940:1945   */\n  dup2\n    /* \"#utility.yul\":1934:1946   */\n  mload\n    /* \"#utility.yul\":1924:1946   */\n  swap1\n  pop\n    /* \"#utility.yul\":1854:1953   */\n  swap2\n  swap1\n  pop\n  jump\t// out\n    /* \"#utility.yul\":1959:2139   */\ntag_24:\n    /* \"#utility.yul\":2007:2084   */\n  0x4e487b7100000000000000000000000000000000000000000000000000000000\n    /* \"#utility.yul\":2004:2005   */\n  0x00\n    /* \"#utility.yul\":1997:2085   */\n  mstore\n    /* \"#utility.yul\":2104:2108   */\n  0x41\n    /* \"#utility.yul\":2101:2102   */\n  0x04\n    /* \"#utility.yul\":2094:2109   */\n  mstore\n    /* \"#utility.yul\":2128:2132   */\n  0x24\n    /* \"#utility.yul\":2125:2126   */\n  0x00\n    /* \"#utility.yul\":2118:2133   */\n  revert\n    /* \"#utility.yul\":2145:2325   */\ntag_25:\n    /* \"#utility.yul\":2193:2270   */\n  0x4e487b7100000000000000000000000000000000000000000000000000000000\n    /* \"#utility.yul\":2190:2191   */\n  0x00\n    /* \"#utility.yul\":2183:2271   */\n  mstore\n    /* \"#utility.yul\":2290:2294   */\n  0x22\n    /* \"#utility.yul\":2287:2288   */\n  0x04\n    /* \"#utility.yul\":2280:2295   */\n  mstore\n    /* \"#utility.yul\":2314:2318   */\n  0x24\n    /* \"#utility.yul\":2311:2312   */\n  0x00\n    /* \"#utility.yul\":2304:2319   */\n  revert\n    /* \"#utility.yul\":2331:2651   */\ntag_26:\n    /* \"#utility.yul\":2375:2381   */\n  0x00\n    /* \"#utility.yul\":2412:2413   */\n  0x02\n    /* \"#utility.yul\":2406:2410   */\n  dup3\n    /* \"#utility.yul\":2402:2414   */\n  div\n    /* \"#utility.yul\":2392:2414   */\n  swap1\n  pop\n    /* \"#utility.yul\":2459:2460   */\n  0x01\n    /* \"#utility.yul\":2453:2457   */\n  dup3\n    /* \"#utility.yul\":2449:2461   */\n  and\n    /* \"#utility.yul\":2480:2498   */\n  dup1\n    /* \"#utility.yul\":2470:2551   */\n  tag_70\n  jumpi\n    /* \"#utility.yul\":2536:2540   */\n  0x7f\n    /* \"#utility.yul\":2528:2534   */\n  dup3\n    /* \"#utility.yul\":2524:2541   */\n  and\n    /* \"#utility.yul\":2514:2541   */\n  swap2\n  pop\n    /* \"#utility.yul\":2470:2551   */\ntag_70:\n    /* \"#utility.yul\":2598:2600   */\n  0x20\n    /* \"#utility.yul\":2590:2596   */\n  dup3\n    /* \"#utility.yul\":2587:2601   */\n  lt\n    /* \"#utility.yul\":2567:2585   */\n  dup2\n    /* \"#utility.yul\":2564:2602   */\n  sub\n    /* \"#utility.yul\":2561:2645   */\n  tag_71\n  jumpi\n    /* \"#utility.yul\":2617:2635   */\n  tag_72\n  tag_25\n  jump\t// in\ntag_72:\n    /* \"#utility.yul\":2561:2645   */\ntag_71:\n    /* \"#utility.yul\":2382:2651   */\n  pop\n    /* \"#utility.yul\":2331:2651   */\n  swap2\n  swap1\n  pop\n  jump\t// out\n    /* \"#utility.yul\":2657:2798   */\ntag_27:\n    /* \"#utility.yul\":2706:2710   */\n  0x00\n    /* \"#utility.yul\":2729:2732   */\n  dup2\n    /* \"#utility.yul\":2721:2732   */\n  swap1\n  pop\n    /* \"#utility.yul\":2752:2755   */\n  dup2\n    /* \"#utility.yul\":2749:2750   */\n  0x00\n    /* \"#utility.yul\":2742:2756   */\n  mstore\n    /* \"#utility.yul\":2786:2790   */\n  0x20\n    /* \"#utility.yul\":2783:2784   */\n  0x00\n    /* \"#utility.yul\":2773:2791   */\n  keccak256\n    /* \"#utility.yul\":2765:2791   */\n  swap1\n  pop\n    /* \"#utility.yul\":2657:2798   */\n  swap2\n  swap1\n  pop\n  jump\t// out\n    /* \"#utility.yul\":2804:2897   */\ntag_28:\n    /* \"#utility.yul\":2841:2847   */\n  0x00\n    /* \"#utility.yul\":2888:2890   */\n  0x20\n    /* \"#utility.yul\":2883:2885   */\n  0x1f\n    /* \"#utility.yul\":2876:2881   */\n  dup4\n    /* \"#utility.yul\":2872:2886   */\n  add\n    /* \"#utility.yul\":2868:2891   */\n  div\n    /* \"#utility.yul\":2858:2891   */\n  swap1\n  pop\n    /* \"#utility.yul\":2804:2897   */\n  swap2\n  swap1\n  pop\n  jump\t// out\n    /* \"#utility.yul\":2903:3010   */\ntag_29:\n    /* \"#utility.yul\":2947:2955   */\n  0x00\n    /* \"#utility.yul\":2997:3002   */\n  dup3\n    /* \"#utility.yul\":2991:2995   */\n  dup3\n    /* \"#utility.yul\":2987:3003   */\n  shl\n    /* \"#utility.yul\":2966:3003   */\n  swap1\n  pop\n    /* \"#utility.yul\":2903:3010   */\n  swap3\n  swap2\n  pop\n  pop\n  jump\t// out\n    /* \"#utility.yul\":3016:3409   */\ntag_30:\n    /* \"#utility.yul\":3085:3091   */\n  0x00\n    /* \"#utility.yul\":3135:3136   */\n  0x08\n    /* \"#utility.yul\":3123:3133   */\n  dup4\n    /* \"#utility.yul\":3119:3137   */\n  mul\n    /* \"#utility.yul\":3158:3255   */\n  tag_77\n    /* \"#utility.yul\":3188:3254   */\n  0xffffffffffffffffffffffffffffffffffffffffffffffffffffffffffffffff\n    /* \"#utility.yul\":3177:3186   */\n  dup3\n    /* \"#utility.yul\":3158:3255   */\n  tag_29\n  jump\t// in\ntag_77:\n    /* \"#utility.yul\":3276:3315   */\n  tag_78\n    /* \"#utility.yul\":3306:3314   */\n  dup7\n    /* \"#utility.yul\":3295:3304   */\n  dup4\n    /* \"#utility.yul\":3276:3315   */\n  tag_29\n  jump\t// in\ntag_78:\n    /* \"#utility.yul\":3264:3315   */\n  swap6\n  pop\n    /* \"#utility.yul\":3348:3352   */\n  dup1\n    /* \"#utility.yul\":3344:3353   */\n  not\n    /* \"#utility.yul\":3337:3342   */\n  dup5\n    /* \"#utility.yul\":3333:3354   */\n  and\n    /* \"#utility.yul\":3324:3354   */\n  swap4\n  pop\n    /* \"#utility.yul\":3397:3401   */\n  dup1\n    /* \"#utility.yul\":3387:3395   */\n  dup7\n    /* \"#utility.yul\":3383:3402   */\n  and\n    /* \"#utility.yul\":3376:3381   */\n  dup5\n    /* \"#utility.yul\":3373:3403   */\n  or\n    /* \"#utility.yul\":3363:3403   */\n  swap3\n  pop\n    /* \"#utility.yul\":3092:3409   */\n  pop\n  pop\n    /* \"#utility.yul\":3016:3409   */\n  swap4\n  swap3\n  pop\n  pop\n  pop\n  jump\t// out\n    /* \"#utility.yul\":3415:3475   */\ntag_31:\n    /* \"#utility.yul\":3443:3446   */\n  0x00\n    /* \"#utility.yul\":3464:3469   */\n  dup2\n    /* \"#utility.yul\":3457:3469   */\n  swap1\n  pop\n    /* \"#utility.yul\":3415:3475   */\n  swap2\n  swap1\n  pop\n  jump\t// out\n    /* \"#utility.yul\":3481:3623   */\ntag_32:\n    /* \"#utility.yul\":3531:3540   */\n  0x00\n    /* \"#utility.yul\":3564:3617   */\n  tag_81\n    /* \"#utility.yul\":3582:3616   */\n  tag_82\n    /* \"#utility.yul\":3591:3615   */\n  tag_83\n    /* \"#utility.yul\":3609:3614   */\n  dup5\n    /* \"#utility.yul\":3591:3615   */\n  tag_21\n  jump\t// in\ntag_83:\n    /* \"#utility.yul\":3582:3616   */\n  tag_31\n  jump\t// in\ntag_82:\n    /* \"#utility.yul\":3564:3617   */\n  tag_21\n  jump\t// in\ntag_81:\n    /* \"#utility.yul\":3551:3617   */\n  swap1\n  pop\n    /* \"#utility.yul\":3481:3623   */\n  swap2\n  swap1\n  pop\n  jump\t// out\n    /* \"#utility.yul\":3629:3704   */\ntag_33:\n    /* \"#utility.yul\":3672:3675   */\n  0x00\n    /* \"#utility.yul\":3693:3698   */\n  dup2\n    /* \"#utility.yul\":3686:3698   */\n  swap1\n  pop\n    /* \"#utility.yul\":3629:3704   */\n  swap2\n  swap1\n  pop\n  jump\t// out\n    /* \"#utility.yul\":3710:3979   */\ntag_34:\n    /* \"#utility.yul\":3820:3859   */\n  tag_86\n    /* \"#utility.yul\":3851:3858   */\n  dup4\n    /* \"#utility.yul\":3820:3859   */\n  tag_32\n  jump\t// in\ntag_86:\n    /* \"#utility.yul\":3881:3972   */\n  tag_87\n    /* \"#utility.yul\":3930:3971   */\n  tag_88\n    /* \"#utility.yul\":3954:3970   */\n  dup3\n    /* \"#utility.yul\":3930:3971   */\n  tag_33\n  jump\t// in\ntag_88:\n    /* \"#utility.yul\":3922:3928   */\n  dup5\n    /* \"#utility.yul\":3915:3919   */\n  dup5\n    /* \"#utility.yul\":3909:3920   */\n  sload\n    /* \"#utility.yul\":3881:3972   */\n  tag_30\n  jump\t// in\ntag_87:\n    /* \"#utility.yul\":3875:3879   */\n  dup3\n    /* \"#utility.yul\":3868:3973   */\n  sstore\n    /* \"#utility.yul\":3786:3979   */\n  pop\n    /* \"#utility.yul\":3710:3979   */\n  pop\n  pop\n  pop\n  jump\t// out\n    /* \"#utility.yul\":3985:4058   */\ntag_35:\n    /* \"#utility.yul\":4030:4033   */\n  0x00\n    /* \"#utility.yul\":3985:4058   */\n  swap1\n  jump\t// out\n    /* \"#utility.yul\":4064:4253   */\ntag_36:\n    /* \"#utility.yul\":4141:4173   */\n  tag_91\n  tag_35\n  jump\t// in\ntag_91:\n    /* \"#utility.yul\":4182:4247   */\n  tag_92\n    /* \"#utility.yul\":4240:4246   */\n  dup2\n    /* \"#utility.yul\":4232:4238   */\n  dup5\n    /* \"#utility.yul\":4226:4230   */\n  dup5\n    /* \"#utility.yul\":4182:4247   */\n  tag_34\n  jump\t// in\ntag_92:\n    /* \"#utility.yul\":4117:4253   */\n  pop\n    /* \"#utility.yul\":4064:4253   */\n  pop\n  pop\n  jump\t// out\n    /* \"#utility.yul\":4259:4445   */\ntag_37:\n    /* \"#utility.yul\":4319:4439   */\ntag_94:\n    /* \"#utility.yul\":4336:4339   */\n  dup2\n    /* \"#utility.yul\":4329:4334   */\n  dup2\n    /* \"#utility.yul\":4326:4340   */\n  lt\n    /* \"#utility.yul\":4319:4439   */\n  iszero\n  tag_96\n  jumpi\n    /* \"#utility.yul\":4390:4429   */\n  tag_97\n    /* \"#utility.yul\":4427:4428   */\n  0x00\n    /* \"#utility.yul\":4420:4425   */\n  dup3\n    /* \"#utility.yul\":4390:4429   */\n  tag_36\n  jump\t// in\ntag_97:\n    /* \"#utility.yul\":4363:4364   */\n  0x01\n    /* \"#utility.yul\":4356:4361   */\n  dup2\n    /* \"#utility.yul\":4352:4365   */\n  add\n    /* \"#utility.yul\":4343:4365   */\n  swap1\n  pop\n    /* \"#utility.yul\":4319:4439   */\n  jump(tag_94)\ntag_96:\n    /* \"#utility.yul\":4259:4445   */\n  pop\n  pop\n  jump\t// out\n    /* \"#utility.yul\":4451:4994   */\ntag_38:\n    /* \"#utility.yul\":4552:4554   */\n  0x1f\n    /* \"#utility.yul\":4547:4550   */\n  dup3\n    /* \"#utility.yul\":4544:4555   */\n  gt\n    /* \"#utility.yul\":4541:4987   */\n  iszero\n  tag_99\n  jumpi\n    /* \"#utility.yul\":4586:4624   */\n  tag_100\n    /* \"#utility.yul\":4618:4623   */\n  dup2\n    /* \"#utility.yul\":4586:4624   */\n  tag_27\n  jump\t// in\ntag_100:\n    /* \"#utility.yul\":4670:4699   */\n  tag_101\n    /* \"#utility.yul\":4688:4698   */\n  dup5\n    /* \"#utility.yul\":4670:4699   */\n  tag_28\n  jump\t// in\ntag_101:\n    /* \"#utility.yul\":4660:4668   */\n  dup2\n    /* \"#utility.yul\":4656:4700   */\n  add\n    /* \"#utility.yul\":4853:4855   */\n  0x20\n    /* \"#utility.yul\":4841:4851   */\n  dup6\n    /* \"#utility.yul\":4838:4856   */\n  lt\n    /* \"#utility.yul\":4835:4884   */\n  iszero\n  tag_102\n  jumpi\n    /* \"#utility.yul\":4874:4882   */\n  dup2\n    /* \"#utility.yul\":4859:4882   */\n  swap1\n  pop\n    /* \"#utility.yul\":4835:4884   */\ntag_102:\n    /* \"#utility.yul\":4897:4977   */\n  tag_103\n    /* \"#utility.yul\":4953:4975   */\n  tag_104\n    /* \"#utility.yul\":4971:4974   */\n  dup6\n    /* \"#utility.yul\":4953:4975   */\n  tag_28\n  jump\t// in\ntag_104:\n    /* \"#utility.yul\":4943:4951   */\n  dup4\n    /* \"#utility.yul\":4939:4976   */\n  add\n    /* \"#utility.yul\":4926:4937   */\n  dup3\n    /* \"#utility.yul\":4897:4977   */\n  tag_37\n  jump\t// in\ntag_103:\n    /* \"#utility.yul\":4556:4987   */\n  pop\n  pop\n    /* \"#utility.yul\":4541:4987   */\ntag_99:\n    /* \"#utility.yul\":4451:4994   */\n  pop\n  pop\n  pop\n  jump\t// out\n    /* \"#utility.yul\":5000:5117   */\ntag_39:\n    /* \"#utility.yul\":5054:5062   */\n  0x00\n    /* \"#utility.yul\":5104:5109   */\n  dup3\n    /* \"#utility.yul\":5098:5102   */\n  dup3\n    /* \"#utility.yul\":5094:5110   */\n  shr\n    /* \"#utility.yul\":5073:5110   */\n  swap1\n  pop\n    /* \"#utility.yul\":5000:5117   */\n  swap3\n  swap2\n  pop\n  pop\n  jump\t// out\n    /* \"#utility.yul\":5123:5292   */\ntag_40:\n    /* \"#utility.yul\":5167:5173   */\n  0x00\n    /* \"#utility.yul\":5200:5251   */\n  tag_107\n    /* \"#utility.yul\":5248:5249   */\n  0x00\n    /* \"#utility.yul\":5244:5250   */\n  not\n    /* \"#utility.yul\":5236:5241   */\n  dup5\n    /* \"#utility.yul\":5233:5234   */\n  0x08\n    /* \"#utility.yul\":5229:5242   */\n  mul\n    /* \"#utility.yul\":5200:5251   */\n  tag_39\n  jump\t// in\ntag_107:\n    /* \"#utility.yul\":5196:5252   */\n  not\n    /* \"#utility.yul\":5281:5285   */\n  dup1\n    /* \"#utility.yul\":5275:5279   */\n  dup4\n    /* \"#utility.yul\":5271:5286   */\n  and\n    /* \"#utility.yul\":5261:5286   */\n  swap2\n  pop\n    /* \"#utility.yul\":5174:5292   */\n  pop\n    /* \"#utility.yul\":5123:5292   */\n  swap3\n  swap2\n  pop\n  pop\n  jump\t// out\n    /* \"#utility.yul\":5297:5592   */\ntag_41:\n    /* \"#utility.yul\":5373:5377   */\n  0x00\n    /* \"#utility.yul\":5519:5548   */\n  tag_109\n    /* \"#utility.yul\":5544:5547   */\n  dup4\n    /* \"#utility.yul\":5538:5542   */\n  dup4\n    /* \"#utility.yul\":5519:5548   */\n  tag_40\n  jump\t// in\ntag_109:\n    /* \"#utility.yul\":5511:5548   */\n  swap2\n  pop\n    /* \"#utility.yul\":5581:5584   */\n  dup3\n    /* \"#utility.yul\":5578:5579   */\n  0x02\n    /* \"#utility.yul\":5574:5585   */\n  mul\n    /* \"#utility.yul\":5568:5572   */\n  dup3\n    /* \"#utility.yul\":5565:5586   */\n  or\n    /* \"#utility.yul\":5557:5586   */\n  swap1\n  pop\n    /* \"#utility.yul\":5297:5592   */\n  swap3\n  swap2\n  pop\n  pop\n  jump\t// out\n    /* \"#utility.yul\":5597:6992   */\ntag_12:\n    /* \"#utility.yul\":5714:5751   */\n  tag_111\n    /* \"#utility.yul\":5747:5750   */\n  dup3\n    /* \"#utility.yul\":5714:5751   */\n  tag_23\n  jump\t// in\ntag_111:\n    /* \"#utility.yul\":5816:5834   */\n  0xffffffffffffffff\n    /* \"#utility.yul\":5808:5814   */\n  dup2\n    /* \"#utility.yul\":5805:5835   */\n  gt\n    /* \"#utility.yul\":5802:5858   */\n  iszero\n  tag_112\n  jumpi\n    /* \"#utility.yul\":5838:5856   */\n  tag_113\n  tag_24\n  jump\t// in\ntag_113:\n    /* \"#utility.yul\":5802:5858   */\ntag_112:\n    /* \"#utility.yul\":5882:5920   */\n  tag_114\n    /* \"#utility.yul\":5914:5918   */\n  dup3\n    /* \"#utility.yul\":5908:5919   */\n  sload\n    /* \"#utility.yul\":5882:5920   */\n  tag_26\n  jump\t// in\ntag_114:\n    /* \"#utility.yul\":5967:6034   */\n  tag_115\n    /* \"#utility.yul\":6027:6033   */\n  dup3\n    /* \"#utility.yul\":6019:6025   */\n  dup3\n    /* \"#utility.yul\":6013:6017   */\n  dup6\n    /* \"#utility.yul\":5967:6034   */\n  tag_38\n  jump\t// in\ntag_115:\n    /* \"#utility.yul\":6061:6062   */\n  0x00\n    /* \"#utility.yul\":6085:6089   */\n  0x20\n    /* \"#utility.yul\":6072:6089   */\n  swap1\n  pop\n    /* \"#utility.yul\":6117:6119   */\n  0x1f\n    /* \"#utility.yul\":6109:6115   */\n  dup4\n    /* \"#utility.yul\":6106:6120   */\n  gt\n    /* \"#utility.yul\":6134:6135   */\n  0x01\n    /* \"#utility.yul\":6129:6747   */\n  dup2\n  eq\n  tag_117\n  jumpi\n    /* \"#utility.yul\":6791:6792   */\n  0x00\n    /* \"#utility.yul\":6808:6814   */\n  dup5\n    /* \"#utility.yul\":6805:6882   */\n  iszero\n  tag_118\n  jumpi\n    /* \"#utility.yul\":6857:6866   */\n  dup3\n    /* \"#utility.yul\":6852:6855   */\n  dup8\n    /* \"#utility.yul\":6848:6867   */\n  add\n    /* \"#utility.yul\":6842:6868   */\n  mload\n    /* \"#utility.yul\":6833:6868   */\n  swap1\n  pop\n    /* \"#utility.yul\":6805:6882   */\ntag_118:\n    /* \"#utility.yul\":6908:6975   */\n  tag_119\n    /* \"#utility.yul\":6968:6974   */\n  dup6\n    /* \"#utility.yul\":6961:6966   */\n  dup3\n    /* \"#utility.yul\":6908:6975   */\n  tag_41\n  jump\t// in\ntag_119:\n    /* \"#utility.yul\":6902:6906   */\n  dup7\n    /* \"#utility.yul\":6895:6976   */\n  sstore\n    /* \"#utility.yul\":6764:6986   */\n  pop\n    /* \"#utility.yul\":6099:6986   */\n  jump(tag_116)\n    /* \"#utility.yul\":6129:6747   */\ntag_117:\n    /* \"#utility.yul\":6181:6185   */\n  0x1f\n    /* \"#utility.yul\":6177:6186   */\n  not\n    /* \"#utility.yul\":6169:6175   */\n  dup5\n    /* \"#utility.yul\":6165:6187   */\n  and\n    /* \"#utility.yul\":6215:6252   */\n  tag_120\n    /* \"#utility.yul\":6247:6251   */\n  dup7\n    /* \"#utility.yul\":6215:6252   */\n  tag_27\n  jump\t// in\ntag_120:\n    /* \"#utility.yul\":6274:6275   */\n  0x00\n    /* \"#utility.yul\":6288:6496   */\ntag_121:\n    /* \"#utility.yul\":6302:6309   */\n  dup3\n    /* \"#utility.yul\":6299:6300   */\n  dup2\n    /* \"#utility.yul\":6296:6310   */\n  lt\n    /* \"#utility.yul\":6288:6496   */\n  iszero\n  tag_123\n  jumpi\n    /* \"#utility.yul\":6381:6390   */\n  dup5\n    /* \"#utility.yul\":6376:6379   */\n  dup10\n    /* \"#utility.yul\":6372:6391   */\n  add\n    /* \"#utility.yul\":6366:6392   */\n  mload\n    /* \"#utility.yul\":6358:6364   */\n  dup3\n    /* \"#utility.yul\":6351:6393   */\n  sstore\n    /* \"#utility.yul\":6432:6433   */\n  0x01\n    /* \"#utility.yul\":6424:6430   */\n  dup3\n    /* \"#utility.yul\":6420:6434   */\n  add\n    /* \"#utility.yul\":6410:6434   */\n  swap2\n  pop\n    /* \"#utility.yul\":6479:6481   */\n  0x20\n    /* \"#utility.yul\":6468:6477   */\n  dup6\n    /* \"#utility.yul\":6464:6482   */\n  add\n    /* \"#utility.yul\":6451:6482   */\n  swap5\n  pop\n    /* \"#utility.yul\":6325:6329   */\n  0x20\n    /* \"#utility.yul\":6322:6323   */\n  dup2\n    /* \"#utility.yul\":6318:6330   */\n  add\n    /* \"#utility.yul\":6313:6330   */\n  swap1\n  pop\n    /* \"#utility.yul\":6288:6496   */\n  jump(tag_121)\ntag_123:\n    /* \"#utility.yul\":6524:6530   */\n  dup7\n    /* \"#utility.yul\":6515:6522   */\n  dup4\n    /* \"#utility.yul\":6512:6531   */\n  lt\n    /* \"#utility.yul\":6509:6688   */\n  iszero\n  tag_124\n  jumpi\n    /* \"#utility.yul\":6582:6591   */\n  dup5\n    /* \"#utility.yul\":6577:6580   */\n  dup10\n    /* \"#utility.yul\":6573:6592   */\n  add\n    /* \"#utility.yul\":6567:6593   */\n  mload\n    /* \"#utility.yul\":6625:6673   */\n  tag_125\n    /* \"#utility.yul\":6667:6671   */\n  0x1f\n    /* \"#utility.yul\":6659:6665   */\n  dup10\n    /* \"#utility.yul\":6655:6672   */\n  and\n    /* \"#utility.yul\":6644:6653   */\n  dup3\n    /* \"#utility.yul\":6625:6673   */\n  tag_40\n  jump\t// in\ntag_125:\n    /* \"#utility.yul\":6617:6623   */\n  dup4\n    /* \"#utility.yul\":6610:6674   */\n  sstore\n    /* \"#utility.yul\":6532:6688   */\n  pop\n    /* \"#utility.yul\":6509:6688   */\ntag_124:\n    /* \"#utility.yul\":6734:6735   */\n  0x01\n    /* \"#utility.yul\":6730:6731   */\n  0x02\n    /* \"#utility.yul\":6722:6728   */\n  dup9\n    /* \"#utility.yul\":6718:6732   */\n  mul\n    /* \"#utility.yul\":6714:6736   */\n  add\n    /* \"#utility.yul\":6708:6712   */\n  dup9\n    /* \"#utility.yul\":6701:6737   */\n  sstore\n    /* \"#utility.yul\":6136:6747   */\n  pop\n  pop\n  pop\n    /* \"#utility.yul\":6099:6986   */\ntag_116:\n  pop\n    /* \"#utility.yul\":5689:6992   */\n  pop\n  pop\n  pop\n    /* \"#utility.yul\":5597:6992   */\n  pop\n  pop\n  jump\t// out\n    /* \"contracts/Auction.sol\":289:4918  contract Auction{... */\ntag_13:\n  dataSize(sub_0)\n  dup1\n  dataOffset(sub_0)\n  0x00\n  codecopy\n  0x00\n  return\nstop\n\nsub_0: assembly {\n        /* \"contracts/Auction.sol\":289:4918  contract Auction{... */\n      mstore(0x40, 0x80)\n      jumpi(tag_1, lt(calldatasize, 0x04))\n      shr(0xe0, calldataload(0x00))\n      dup1\n      0x8fa8b790\n      gt\n      tag_13\n      jumpi\n      dup1\n      0x8fa8b790\n      eq\n      tag_7\n      jumpi\n      dup1\n      0x91f90157\n      eq\n      tag_8\n      jumpi\n      dup1\n      0xc623674f\n      eq\n      tag_9\n      jumpi\n      dup1\n      0xd57bde79\n      eq\n      tag_10\n      jumpi\n      dup1\n      0xecfc7ecc\n      eq\n      tag_11\n      jumpi\n      dup1\n      0xfe67a54b\n      eq\n      tag_12\n      jumpi\n      jump(tag_1)\n    tag_13:\n      dup1\n      0x083c6323\n      eq\n      tag_2\n      jumpi\n      dup1\n      0x48cd4cb1\n      eq\n      tag_3\n      jumpi\n      dup1\n      0x62ea82db\n      eq\n      tag_4\n      jumpi\n      dup1\n      0x7fb45099\n      eq\n      tag_5\n      jumpi\n      dup1\n      0x8da5cb5b\n      eq\n      tag_6\n      jumpi\n    tag_1:\n      0x00\n      dup1\n      revert\n        /* \"contracts/Auction.sol\":376:396  uint public endBlock */\n    tag_2:\n      callvalue\n      dup1\n      iszero\n      tag_14\n      jumpi\n      0x00\n      dup1\n      revert\n    tag_14:\n      pop\n      tag_15\n      tag_16\n      jump\t// in\n    tag_15:\n      mload(0x40)\n      tag_17\n      swap2\n      swap1\n      tag_18\n      jump\t// in\n    tag_17:\n      mload(0x40)\n      dup1\n      swap2\n      sub\n      swap1\n      return\n        /* \"contracts/Auction.sol\":347:369  uint public startBlock */\n    tag_3:\n      callvalue\n      dup1\n      iszero\n      tag_19\n      jumpi\n      0x00\n      dup1\n      revert\n    tag_19:\n      pop\n      tag_20\n      tag_21\n      jump\t// in\n    tag_20:\n      mload(0x40)\n      tag_22\n      swap2\n      swap1\n      tag_18\n      jump\t// in\n    tag_22:\n      mload(0x40)\n      dup1\n      swap2\n      sub\n      swap1\n      return\n        /* \"contracts/Auction.sol\":746:782  mapping(address => uint) public bids */\n    tag_4:\n      callvalue\n      dup1\n      iszero\n      tag_23\n      jumpi\n      0x00\n      dup1\n      revert\n    tag_23:\n      pop\n      tag_24\n      0x04\n      dup1\n      calldatasize\n      sub\n      dup2\n      add\n      swap1\n      tag_25\n      swap2\n      swap1\n      tag_26\n      jump\t// in\n    tag_25:\n      tag_27\n      jump\t// in\n    tag_24:\n      mload(0x40)\n      tag_28\n      swap2\n      swap1\n      tag_18\n      jump\t// in\n    tag_28:\n      mload(0x40)\n      dup1\n      swap2\n      sub\n      swap1\n      return\n        /* \"contracts/Auction.sol\":481:506  State public auctionState */\n    tag_5:\n      callvalue\n      dup1\n      iszero\n      tag_29\n      jumpi\n      0x00\n      dup1\n      revert\n    tag_29:\n      pop\n      tag_30\n      tag_31\n      jump\t// in\n    tag_30:\n      mload(0x40)\n      tag_32\n      swap2\n      swap1\n      tag_33\n      jump\t// in\n    tag_32:\n      mload(0x40)\n      dup1\n      swap2\n      sub\n      swap1\n      return\n        /* \"contracts/Auction.sol\":312:340  address payable public owner */\n    tag_6:\n      callvalue\n      dup1\n      iszero\n      tag_34\n      jumpi\n      0x00\n      dup1\n      revert\n    tag_34:\n      pop\n      tag_35\n      tag_36\n      jump\t// in\n    tag_35:\n      mload(0x40)\n      tag_37\n      swap2\n      swap1\n      tag_38\n      jump\t// in\n    tag_37:\n      mload(0x40)\n      dup1\n      swap2\n      sub\n      swap1\n      return\n        /* \"contracts/Auction.sol\":3108:3197  function cancelAuction() public onlyOwner{... */\n    tag_7:\n      callvalue\n      dup1\n      iszero\n      tag_39\n      jumpi\n      0x00\n      dup1\n      revert\n    tag_39:\n      pop\n      tag_40\n      tag_41\n      jump\t// in\n    tag_40:\n      stop\n        /* \"contracts/Auction.sol\":697:733  address payable public highestBidder */\n    tag_8:\n      callvalue\n      dup1\n      iszero\n      tag_42\n      jumpi\n      0x00\n      dup1\n      revert\n    tag_42:\n      pop\n      tag_43\n      tag_44\n      jump\t// in\n    tag_43:\n      mload(0x40)\n      tag_45\n      swap2\n      swap1\n      tag_38\n      jump\t// in\n    tag_45:\n      mload(0x40)\n      dup1\n      swap2\n      sub\n      swap1\n      return\n        /* \"contracts/Auction.sol\":403:425  string public ipfsHash */\n    tag_9:\n      callvalue\n      dup1\n      iszero\n      tag_46\n      jumpi\n      0x00\n      dup1\n      revert\n    tag_46:\n      pop\n      tag_47\n      tag_48\n      jump\t// in\n    tag_47:\n      mload(0x40)\n      tag_49\n      swap2\n      swap1\n      tag_50\n      jump\t// in\n    tag_49:\n      mload(0x40)\n      dup1\n      swap2\n      sub\n      swap1\n      return\n        /* \"contracts/Auction.sol\":519:541  uint public highestBid */\n    tag_10:\n      callvalue\n      dup1\n      iszero\n      tag_51\n      jumpi\n      0x00\n      dup1\n      revert\n    tag_51:\n      pop\n      tag_52\n      tag_53\n      jump\t// in\n    tag_52:\n      mload(0x40)\n      tag_54\n      swap2\n      swap1\n      tag_18\n      jump\t// in\n    tag_54:\n      mload(0x40)\n      dup1\n      swap2\n      sub\n      swap1\n      return\n        /* \"contracts/Auction.sol\":2056:3096  function placeBid() public payable notOwner afterStart beforeEnd{... */\n    tag_11:\n      tag_55\n      tag_56\n      jump\t// in\n    tag_55:\n      stop\n        /* \"contracts/Auction.sol\":3205:4915  function endAuction() public{... */\n    tag_12:\n      callvalue\n      dup1\n      iszero\n      tag_57\n      jumpi\n      0x00\n      dup1\n      revert\n    tag_57:\n      pop\n      tag_58\n      tag_59\n      jump\t// in\n    tag_58:\n      stop\n        /* \"contracts/Auction.sol\":376:396  uint public endBlock */\n    tag_16:\n      sload(0x02)\n      dup2\n      jump\t// out\n        /* \"contracts/Auction.sol\":347:369  uint public startBlock */\n    tag_21:\n      sload(0x01)\n      dup2\n      jump\t// out\n        /* \"contracts/Auction.sol\":746:782  mapping(address => uint) public bids */\n    tag_27:\n      mstore(0x20, 0x07)\n      dup1\n      0x00\n      mstore\n      keccak256(0x00, 0x40)\n      0x00\n      swap2\n      pop\n      swap1\n      pop\n      sload\n      dup2\n      jump\t// out\n        /* \"contracts/Auction.sol\":481:506  State public auctionState */\n    tag_31:\n      0x04\n      0x00\n      swap1\n      sload\n      swap1\n      0x0100\n      exp\n      swap1\n      div\n      0xff\n      and\n      dup2\n      jump\t// out\n        /* \"contracts/Auction.sol\":312:340  address payable public owner */\n    tag_36:\n      0x00\n      dup1\n      sload\n      swap1\n      0x0100\n      exp\n      swap1\n      div\n      0xffffffffffffffffffffffffffffffffffffffff\n      and\n      dup2\n      jump\t// out\n        /* \"contracts/Auction.sol\":3108:3197  function cancelAuction() public onlyOwner{... */\n    tag_41:\n        /* \"contracts/Auction.sol\":1584:1589  owner */\n      0x00\n      dup1\n      sload\n      swap1\n      0x0100\n      exp\n      swap1\n      div\n      0xffffffffffffffffffffffffffffffffffffffff\n      and\n        /* \"contracts/Auction.sol\":1572:1589  msg.sender==owner */\n      0xffffffffffffffffffffffffffffffffffffffff\n      and\n        /* \"contracts/Auction.sol\":1572:1582  msg.sender */\n      caller\n        /* \"contracts/Auction.sol\":1572:1589  msg.sender==owner */\n      0xffffffffffffffffffffffffffffffffffffffff\n      and\n      eq\n        /* \"contracts/Auction.sol\":1564:1590  require(msg.sender==owner) */\n      tag_61\n      jumpi\n      0x00\n      dup1\n      revert\n    tag_61:\n        /* \"contracts/Auction.sol\":3175:3189  State.Canceled */\n      0x02\n        /* \"contracts/Auction.sol\":3160:3172  auctionState */\n      0x04\n      0x00\n        /* \"contracts/Auction.sol\":3160:3189  auctionState = State.Canceled */\n      0x0100\n      exp\n      dup2\n      sload\n      dup2\n      0xff\n      mul\n      not\n      and\n      swap1\n      dup4\n      0x02\n      dup2\n      gt\n      iszero\n      tag_63\n      jumpi\n      tag_64\n      tag_65\n      jump\t// in\n    tag_64:\n    tag_63:\n      mul\n      or\n      swap1\n      sstore\n      pop\n        /* \"contracts/Auction.sol\":3108:3197  function cancelAuction() public onlyOwner{... */\n      jump\t// out\n        /* \"contracts/Auction.sol\":697:733  address payable public highestBidder */\n    tag_44:\n      0x06\n      0x00\n      swap1\n      sload\n      swap1\n      0x0100\n      exp\n      swap1\n      div\n      0xffffffffffffffffffffffffffffffffffffffff\n      and\n      dup2\n      jump\t// out\n        /* \"contracts/Auction.sol\":403:425  string public ipfsHash */\n    tag_48:\n      0x03\n      dup1\n      sload\n      tag_66\n      swap1\n      tag_67\n      jump\t// in\n    tag_66:\n      dup1\n      0x1f\n      add\n      0x20\n      dup1\n      swap2\n      div\n      mul\n      0x20\n      add\n      mload(0x40)\n      swap1\n      dup2\n      add\n      0x40\n      mstore\n      dup1\n      swap3\n      swap2\n      swap1\n      dup2\n      dup2\n      mstore\n      0x20\n      add\n      dup3\n      dup1\n      sload\n      tag_68\n      swap1\n      tag_67\n      jump\t// in\n    tag_68:\n      dup1\n      iszero\n      tag_69\n      jumpi\n      dup1\n      0x1f\n      lt\n      tag_70\n      jumpi\n      0x0100\n      dup1\n      dup4\n      sload\n      div\n      mul\n      dup4\n      mstore\n      swap2\n      0x20\n      add\n      swap2\n      jump(tag_69)\n    tag_70:\n      dup3\n      add\n      swap2\n      swap1\n      0x00\n      mstore\n      keccak256(0x00, 0x20)\n      swap1\n    tag_71:\n      dup2\n      sload\n      dup2\n      mstore\n      swap1\n      0x01\n      add\n      swap1\n      0x20\n      add\n      dup1\n      dup4\n      gt\n      tag_71\n      jumpi\n      dup3\n      swap1\n      sub\n      0x1f\n      and\n      dup3\n      add\n      swap2\n    tag_69:\n      pop\n      pop\n      pop\n      pop\n      pop\n      dup2\n      jump\t// out\n        /* \"contracts/Auction.sol\":519:541  uint public highestBid */\n    tag_53:\n      sload(0x05)\n      dup2\n      jump\t// out\n        /* \"contracts/Auction.sol\":2056:3096  function placeBid() public payable notOwner afterStart beforeEnd{... */\n    tag_56:\n        /* \"contracts/Auction.sol\":1668:1673  owner */\n      0x00\n      dup1\n      sload\n      swap1\n      0x0100\n      exp\n      swap1\n      div\n      0xffffffffffffffffffffffffffffffffffffffff\n      and\n        /* \"contracts/Auction.sol\":1656:1673  msg.sender!=owner */\n      0xffffffffffffffffffffffffffffffffffffffff\n      and\n        /* \"contracts/Auction.sol\":1656:1666  msg.sender */\n      caller\n        /* \"contracts/Auction.sol\":1656:1673  msg.sender!=owner */\n      0xffffffffffffffffffffffffffffffffffffffff\n      and\n      sub\n        /* \"contracts/Auction.sol\":1648:1674  require(msg.sender!=owner) */\n      tag_73\n      jumpi\n      0x00\n      dup1\n      revert\n    tag_73:\n        /* \"contracts/Auction.sol\":1758:1768  startBlock */\n      sload(0x01)\n        /* \"contracts/Auction.sol\":1742:1754  block.number */\n      number\n        /* \"contracts/Auction.sol\":1742:1768  block.number >= startBlock */\n      lt\n      iszero\n        /* \"contracts/Auction.sol\":1734:1769  require(block.number >= startBlock) */\n      tag_75\n      jumpi\n      0x00\n      dup1\n      revert\n    tag_75:\n        /* \"contracts/Auction.sol\":1852:1860  endBlock */\n      sload(0x02)\n        /* \"contracts/Auction.sol\":1836:1848  block.number */\n      number\n        /* \"contracts/Auction.sol\":1836:1860  block.number <= endBlock */\n      gt\n      iszero\n        /* \"contracts/Auction.sol\":1828:1861  require(block.number <= endBlock) */\n      tag_77\n      jumpi\n      0x00\n      dup1\n      revert\n    tag_77:\n        /* \"contracts/Auction.sol\":2155:2168  State.Running */\n      0x00\n        /* \"contracts/Auction.sol\":2139:2168  auctionState == State.Running */\n      0x02\n      dup2\n      gt\n      iszero\n      tag_79\n      jumpi\n      tag_80\n      tag_65\n      jump\t// in\n    tag_80:\n    tag_79:\n        /* \"contracts/Auction.sol\":2139:2151  auctionState */\n      0x04\n      0x00\n      swap1\n      sload\n      swap1\n      0x0100\n      exp\n      swap1\n      div\n      0xff\n      and\n        /* \"contracts/Auction.sol\":2139:2168  auctionState == State.Running */\n      0x02\n      dup2\n      gt\n      iszero\n      tag_81\n      jumpi\n      tag_82\n      tag_65\n      jump\t// in\n    tag_82:\n    tag_81:\n      eq\n        /* \"contracts/Auction.sol\":2139:2188  auctionState == State.Running && msg.value >= 100 */\n      dup1\n      iszero\n      tag_83\n      jumpi\n      pop\n        /* \"contracts/Auction.sol\":2185:2188  100 */\n      0x64\n        /* \"contracts/Auction.sol\":2172:2181  msg.value */\n      callvalue\n        /* \"contracts/Auction.sol\":2172:2188  msg.value >= 100 */\n      lt\n      iszero\n        /* \"contracts/Auction.sol\":2139:2188  auctionState == State.Running && msg.value >= 100 */\n    tag_83:\n        /* \"contracts/Auction.sol\":2131:2189  require(auctionState == State.Running && msg.value >= 100) */\n      tag_84\n      jumpi\n      0x00\n      dup1\n      revert\n    tag_84:\n        /* \"contracts/Auction.sol\":2293:2308  uint currentBid */\n      0x00\n        /* \"contracts/Auction.sol\":2330:2339  msg.value */\n      callvalue\n        /* \"contracts/Auction.sol\":2311:2315  bids */\n      0x07\n        /* \"contracts/Auction.sol\":2311:2327  bids[msg.sender] */\n      0x00\n        /* \"contracts/Auction.sol\":2316:2326  msg.sender */\n      caller\n        /* \"contracts/Auction.sol\":2311:2327  bids[msg.sender] */\n      0xffffffffffffffffffffffffffffffffffffffff\n      and\n      0xffffffffffffffffffffffffffffffffffffffff\n      and\n      dup2\n      mstore\n      0x20\n      add\n      swap1\n      dup2\n      mstore\n      0x20\n      add\n      0x00\n      keccak256\n      sload\n        /* \"contracts/Auction.sol\":2311:2339  bids[msg.sender] + msg.value */\n      tag_85\n      swap2\n      swap1\n      tag_86\n      jump\t// in\n    tag_85:\n        /* \"contracts/Auction.sol\":2293:2339  uint currentBid = bids[msg.sender] + msg.value */\n      swap1\n      pop\n        /* \"contracts/Auction.sol\":2430:2440  highestBid */\n      sload(0x05)\n        /* \"contracts/Auction.sol\":2417:2427  currentBid */\n      dup2\n        /* \"contracts/Auction.sol\":2417:2440  currentBid > highestBid */\n      gt\n        /* \"contracts/Auction.sol\":2409:2441  require(currentBid > highestBid) */\n      tag_87\n      jumpi\n      0x00\n      dup1\n      revert\n    tag_87:\n        /* \"contracts/Auction.sol\":2563:2567  bids */\n      0x07\n        /* \"contracts/Auction.sol\":2563:2582  bids[highestBidder] */\n      0x00\n        /* \"contracts/Auction.sol\":2568:2581  highestBidder */\n      0x06\n      0x00\n      swap1\n      sload\n      swap1\n      0x0100\n      exp\n      swap1\n      div\n      0xffffffffffffffffffffffffffffffffffffffff\n      and\n        /* \"contracts/Auction.sol\":2563:2582  bids[highestBidder] */\n      0xffffffffffffffffffffffffffffffffffffffff\n      and\n      0xffffffffffffffffffffffffffffffffffffffff\n      and\n      dup2\n      mstore\n      0x20\n      add\n      swap1\n      dup2\n      mstore\n      0x20\n      add\n      0x00\n      keccak256\n      sload\n        /* \"contracts/Auction.sol\":2549:2559  currentBid */\n      dup2\n        /* \"contracts/Auction.sol\":2549:2582  currentBid <= bids[highestBidder] */\n      gt\n        /* \"contracts/Auction.sol\":2546:3089  if(currentBid <= bids[highestBidder]){                                  // if bid isnt higher than how much the highestBidder is willing to pay... */\n      tag_88\n      jumpi\n        /* \"contracts/Auction.sol\":2716:2767  min(currentBid + bidIncrement, bids[highestBidder]) */\n      tag_89\n        /* \"contracts/Auction.sol\":2733:2745  bidIncrement */\n      sload(0x08)\n        /* \"contracts/Auction.sol\":2720:2730  currentBid */\n      dup3\n        /* \"contracts/Auction.sol\":2720:2745  currentBid + bidIncrement */\n      tag_90\n      swap2\n      swap1\n      tag_86\n      jump\t// in\n    tag_90:\n        /* \"contracts/Auction.sol\":2747:2751  bids */\n      0x07\n        /* \"contracts/Auction.sol\":2747:2766  bids[highestBidder] */\n      0x00\n        /* \"contracts/Auction.sol\":2752:2765  highestBidder */\n      0x06\n      0x00\n      swap1\n      sload\n      swap1\n      0x0100\n      exp\n      swap1\n      div\n      0xffffffffffffffffffffffffffffffffffffffff\n      and\n        /* \"contracts/Auction.sol\":2747:2766  bids[highestBidder] */\n      0xffffffffffffffffffffffffffffffffffffffff\n      and\n      0xffffffffffffffffffffffffffffffffffffffff\n      and\n      dup2\n      mstore\n      0x20\n      add\n      swap1\n      dup2\n      mstore\n      0x20\n      add\n      0x00\n      keccak256\n      sload\n        /* \"contracts/Auction.sol\":2716:2719  min */\n      tag_91\n        /* \"contracts/Auction.sol\":2716:2767  min(currentBid + bidIncrement, bids[highestBidder]) */\n      jump\t// in\n    tag_89:\n        /* \"contracts/Auction.sol\":2703:2713  highestBid */\n      0x05\n        /* \"contracts/Auction.sol\":2703:2767  highestBid = min(currentBid + bidIncrement, bids[highestBidder]) */\n      dup2\n      swap1\n      sstore\n      pop\n        /* \"contracts/Auction.sol\":2546:3089  if(currentBid <= bids[highestBidder]){                                  // if bid isnt higher than how much the highestBidder is willing to pay... */\n      jump(tag_92)\n    tag_88:\n        /* \"contracts/Auction.sol\":2880:2931  min(currentBid, bids[highestBidder] + bidIncrement) */\n      tag_93\n        /* \"contracts/Auction.sol\":2884:2894  currentBid */\n      dup2\n        /* \"contracts/Auction.sol\":2918:2930  bidIncrement */\n      sload(0x08)\n        /* \"contracts/Auction.sol\":2896:2900  bids */\n      0x07\n        /* \"contracts/Auction.sol\":2896:2915  bids[highestBidder] */\n      0x00\n        /* \"contracts/Auction.sol\":2901:2914  highestBidder */\n      0x06\n      0x00\n      swap1\n      sload\n      swap1\n      0x0100\n      exp\n      swap1\n      div\n      0xffffffffffffffffffffffffffffffffffffffff\n      and\n        /* \"contracts/Auction.sol\":2896:2915  bids[highestBidder] */\n      0xffffffffffffffffffffffffffffffffffffffff\n      and\n      0xffffffffffffffffffffffffffffffffffffffff\n      and\n      dup2\n      mstore\n      0x20\n      add\n      swap1\n      dup2\n      mstore\n      0x20\n      add\n      0x00\n      keccak256\n      sload\n        /* \"contracts/Auction.sol\":2896:2930  bids[highestBidder] + bidIncrement */\n      tag_94\n      swap2\n      swap1\n      tag_86\n      jump\t// in\n    tag_94:\n        /* \"contracts/Auction.sol\":2880:2883  min */\n      tag_91\n        /* \"contracts/Auction.sol\":2880:2931  min(currentBid, bids[highestBidder] + bidIncrement) */\n      jump\t// in\n    tag_93:\n        /* \"contracts/Auction.sol\":2867:2877  highestBid */\n      0x05\n        /* \"contracts/Auction.sol\":2867:2931  highestBid = min(currentBid, bids[highestBidder] + bidIncrement) */\n      dup2\n      swap1\n      sstore\n      pop\n        /* \"contracts/Auction.sol\":2973:2983  msg.sender */\n      caller\n        /* \"contracts/Auction.sol\":2949:2962  highestBidder */\n      0x06\n      0x00\n        /* \"contracts/Auction.sol\":2949:2984  highestBidder = payable(msg.sender) */\n      0x0100\n      exp\n      dup2\n      sload\n      dup2\n      0xffffffffffffffffffffffffffffffffffffffff\n      mul\n      not\n      and\n      swap1\n      dup4\n      0xffffffffffffffffffffffffffffffffffffffff\n      and\n      mul\n      or\n      swap1\n      sstore\n      pop\n        /* \"contracts/Auction.sol\":2546:3089  if(currentBid <= bids[highestBidder]){                                  // if bid isnt higher than how much the highestBidder is willing to pay... */\n    tag_92:\n        /* \"contracts/Auction.sol\":2120:3096  {... */\n      pop\n        /* \"contracts/Auction.sol\":2056:3096  function placeBid() public payable notOwner afterStart beforeEnd{... */\n      jump\t// out\n        /* \"contracts/Auction.sol\":3205:4915  function endAuction() public{... */\n    tag_59:\n        /* \"contracts/Auction.sol\":3268:3282  State.Canceled */\n      0x02\n        /* \"contracts/Auction.sol\":3252:3282  auctionState == State.Canceled */\n      dup1\n      dup2\n      gt\n      iszero\n      tag_96\n      jumpi\n      tag_97\n      tag_65\n      jump\t// in\n    tag_97:\n    tag_96:\n        /* \"contracts/Auction.sol\":3252:3264  auctionState */\n      0x04\n      0x00\n      swap1\n      sload\n      swap1\n      0x0100\n      exp\n      swap1\n      div\n      0xff\n      and\n        /* \"contracts/Auction.sol\":3252:3282  auctionState == State.Canceled */\n      0x02\n      dup2\n      gt\n      iszero\n      tag_98\n      jumpi\n      tag_99\n      tag_65\n      jump\t// in\n    tag_99:\n    tag_98:\n      eq\n        /* \"contracts/Auction.sol\":3252:3310  auctionState == State.Canceled  || block.number > endBlock */\n      dup1\n      tag_100\n      jumpi\n      pop\n        /* \"contracts/Auction.sol\":3302:3310  endBlock */\n      sload(0x02)\n        /* \"contracts/Auction.sol\":3287:3299  block.number */\n      number\n        /* \"contracts/Auction.sol\":3287:3310  block.number > endBlock */\n      gt\n        /* \"contracts/Auction.sol\":3252:3310  auctionState == State.Canceled  || block.number > endBlock */\n    tag_100:\n        /* \"contracts/Auction.sol\":3244:3311  require(auctionState == State.Canceled  || block.number > endBlock) */\n      tag_101\n      jumpi\n      0x00\n      dup1\n      revert\n    tag_101:\n        /* \"contracts/Auction.sol\":3344:3349  owner */\n      0x00\n      dup1\n      sload\n      swap1\n      0x0100\n      exp\n      swap1\n      div\n      0xffffffffffffffffffffffffffffffffffffffff\n      and\n        /* \"contracts/Auction.sol\":3330:3349  msg.sender == owner */\n      0xffffffffffffffffffffffffffffffffffffffff\n      and\n        /* \"contracts/Auction.sol\":3330:3340  msg.sender */\n      caller\n        /* \"contracts/Auction.sol\":3330:3349  msg.sender == owner */\n      0xffffffffffffffffffffffffffffffffffffffff\n      and\n      eq\n        /* \"contracts/Auction.sol\":3330:3374  msg.sender == owner  || bids[msg.sender] > 0 */\n      dup1\n      tag_102\n      jumpi\n      pop\n        /* \"contracts/Auction.sol\":3373:3374  0 */\n      0x00\n        /* \"contracts/Auction.sol\":3354:3358  bids */\n      0x07\n        /* \"contracts/Auction.sol\":3354:3370  bids[msg.sender] */\n      0x00\n        /* \"contracts/Auction.sol\":3359:3369  msg.sender */\n      caller\n        /* \"contracts/Auction.sol\":3354:3370  bids[msg.sender] */\n      0xffffffffffffffffffffffffffffffffffffffff\n      and\n      0xffffffffffffffffffffffffffffffffffffffff\n      and\n      dup2\n      mstore\n      0x20\n      add\n      swap1\n      dup2\n      mstore\n      0x20\n      add\n      0x00\n      keccak256\n      sload\n        /* \"contracts/Auction.sol\":3354:3374  bids[msg.sender] > 0 */\n      gt\n        /* \"contracts/Auction.sol\":3330:3374  msg.sender == owner  || bids[msg.sender] > 0 */\n    tag_102:\n        /* \"contracts/Auction.sol\":3322:3375  require(msg.sender == owner  || bids[msg.sender] > 0) */\n      tag_103\n      jumpi\n      0x00\n      dup1\n      revert\n    tag_103:\n        /* \"contracts/Auction.sol\":3388:3410  address payable target */\n      0x00\n        /* \"contracts/Auction.sol\":3421:3431  uint value */\n      dup1\n        /* \"contracts/Auction.sol\":3526:3540  State.Canceled */\n      0x02\n        /* \"contracts/Auction.sol\":3510:3540  auctionState == State.Canceled */\n      dup1\n      dup2\n      gt\n      iszero\n      tag_104\n      jumpi\n      tag_105\n      tag_65\n      jump\t// in\n    tag_105:\n    tag_104:\n        /* \"contracts/Auction.sol\":3510:3522  auctionState */\n      0x04\n      0x00\n      swap1\n      sload\n      swap1\n      0x0100\n      exp\n      swap1\n      div\n      0xff\n      and\n        /* \"contracts/Auction.sol\":3510:3540  auctionState == State.Canceled */\n      0x02\n      dup2\n      gt\n      iszero\n      tag_106\n      jumpi\n      tag_107\n      tag_65\n      jump\t// in\n    tag_107:\n    tag_106:\n      sub\n        /* \"contracts/Auction.sol\":3507:4646  if(auctionState == State.Canceled){                                     //Auction canceled, each bidder has to call function to withdraw theirs bids... */\n      tag_108\n      jumpi\n        /* \"contracts/Auction.sol\":3686:3696  msg.sender */\n      caller\n        /* \"contracts/Auction.sol\":3669:3697  target = payable(msg.sender) */\n      swap2\n      pop\n        /* \"contracts/Auction.sol\":3720:3724  bids */\n      0x07\n        /* \"contracts/Auction.sol\":3720:3736  bids[msg.sender] */\n      0x00\n        /* \"contracts/Auction.sol\":3725:3735  msg.sender */\n      caller\n        /* \"contracts/Auction.sol\":3720:3736  bids[msg.sender] */\n      0xffffffffffffffffffffffffffffffffffffffff\n      and\n      0xffffffffffffffffffffffffffffffffffffffff\n      and\n      dup2\n      mstore\n      0x20\n      add\n      swap1\n      dup2\n      mstore\n      0x20\n      add\n      0x00\n      keccak256\n      sload\n        /* \"contracts/Auction.sol\":3712:3736  value = bids[msg.sender] */\n      swap1\n      pop\n        /* \"contracts/Auction.sol\":3507:4646  if(auctionState == State.Canceled){                                     //Auction canceled, each bidder has to call function to withdraw theirs bids... */\n      jump(tag_109)\n    tag_108:\n        /* \"contracts/Auction.sol\":3865:3870  owner */\n      0x00\n      dup1\n      sload\n      swap1\n      0x0100\n      exp\n      swap1\n      div\n      0xffffffffffffffffffffffffffffffffffffffff\n      and\n        /* \"contracts/Auction.sol\":3851:3870  msg.sender == owner */\n      0xffffffffffffffffffffffffffffffffffffffff\n      and\n        /* \"contracts/Auction.sol\":3851:3861  msg.sender */\n      caller\n        /* \"contracts/Auction.sol\":3851:3870  msg.sender == owner */\n      0xffffffffffffffffffffffffffffffffffffffff\n      and\n      sub\n        /* \"contracts/Auction.sol\":3848:4635  if(msg.sender == owner){                                            //Owner closed the auction... */\n      tag_110\n      jumpi\n        /* \"contracts/Auction.sol\":3969:3974  owner */\n      0x00\n      dup1\n      sload\n      swap1\n      0x0100\n      exp\n      swap1\n      div\n      0xffffffffffffffffffffffffffffffffffffffff\n      and\n        /* \"contracts/Auction.sol\":3960:3974  target = owner */\n      swap2\n      pop\n        /* \"contracts/Auction.sol\":4001:4011  highestBid */\n      sload(0x05)\n        /* \"contracts/Auction.sol\":3993:4011  value = highestBid */\n      swap1\n      pop\n        /* \"contracts/Auction.sol\":3848:4635  if(msg.sender == owner){                                            //Owner closed the auction... */\n      jump(tag_111)\n    tag_110:\n        /* \"contracts/Auction.sol\":4156:4169  highestBidder */\n      0x06\n      0x00\n      swap1\n      sload\n      swap1\n      0x0100\n      exp\n      swap1\n      div\n      0xffffffffffffffffffffffffffffffffffffffff\n      and\n        /* \"contracts/Auction.sol\":4142:4169  msg.sender == highestBidder */\n      0xffffffffffffffffffffffffffffffffffffffff\n      and\n        /* \"contracts/Auction.sol\":4142:4152  msg.sender */\n      caller\n        /* \"contracts/Auction.sol\":4142:4169  msg.sender == highestBidder */\n      0xffffffffffffffffffffffffffffffffffffffff\n      and\n      sub\n        /* \"contracts/Auction.sol\":4139:4620  if(msg.sender == highestBidder){                                //Highest bidder closed the auction... */\n      tag_112\n      jumpi\n        /* \"contracts/Auction.sol\":4269:4282  highestBidder */\n      0x06\n      0x00\n      swap1\n      sload\n      swap1\n      0x0100\n      exp\n      swap1\n      div\n      0xffffffffffffffffffffffffffffffffffffffff\n      and\n        /* \"contracts/Auction.sol\":4260:4282  target = highestBidder */\n      swap2\n      pop\n        /* \"contracts/Auction.sol\":4332:4342  highestBid */\n      sload(0x05)\n        /* \"contracts/Auction.sol\":4313:4317  bids */\n      0x07\n        /* \"contracts/Auction.sol\":4313:4329  bids[msg.sender] */\n      0x00\n        /* \"contracts/Auction.sol\":4318:4328  msg.sender */\n      caller\n        /* \"contracts/Auction.sol\":4313:4329  bids[msg.sender] */\n      0xffffffffffffffffffffffffffffffffffffffff\n      and\n      0xffffffffffffffffffffffffffffffffffffffff\n      and\n      dup2\n      mstore\n      0x20\n      add\n      swap1\n      dup2\n      mstore\n      0x20\n      add\n      0x00\n      keccak256\n      sload\n        /* \"contracts/Auction.sol\":4313:4342  bids[msg.sender] - highestBid */\n      tag_113\n      swap2\n      swap1\n      tag_114\n      jump\t// in\n    tag_113:\n        /* \"contracts/Auction.sol\":4305:4342  value = bids[msg.sender] - highestBid */\n      swap1\n      pop\n        /* \"contracts/Auction.sol\":4139:4620  if(msg.sender == highestBidder){                                //Highest bidder closed the auction... */\n      jump(tag_115)\n    tag_112:\n        /* \"contracts/Auction.sol\":4465:4475  msg.sender */\n      caller\n        /* \"contracts/Auction.sol\":4448:4476  target = payable(msg.sender) */\n      swap2\n      pop\n        /* \"contracts/Auction.sol\":4507:4511  bids */\n      0x07\n        /* \"contracts/Auction.sol\":4507:4523  bids[msg.sender] */\n      0x00\n        /* \"contracts/Auction.sol\":4512:4522  msg.sender */\n      caller\n        /* \"contracts/Auction.sol\":4507:4523  bids[msg.sender] */\n      0xffffffffffffffffffffffffffffffffffffffff\n      and\n      0xffffffffffffffffffffffffffffffffffffffff\n      and\n      dup2\n      mstore\n      0x20\n      add\n      swap1\n      dup2\n      mstore\n      0x20\n      add\n      0x00\n      keccak256\n      sload\n        /* \"contracts/Auction.sol\":4499:4523  value = bids[msg.sender] */\n      swap1\n      pop\n        /* \"contracts/Auction.sol\":4139:4620  if(msg.sender == highestBidder){                                //Highest bidder closed the auction... */\n    tag_115:\n        /* \"contracts/Auction.sol\":3848:4635  if(msg.sender == owner){                                            //Owner closed the auction... */\n    tag_111:\n        /* \"contracts/Auction.sol\":3507:4646  if(auctionState == State.Canceled){                                     //Auction canceled, each bidder has to call function to withdraw theirs bids... */\n    tag_109:\n        /* \"contracts/Auction.sol\":4671:4672  0 */\n      0x00\n        /* \"contracts/Auction.sol\":4656:4660  bids */\n      0x07\n        /* \"contracts/Auction.sol\":4656:4668  bids[target] */\n      0x00\n        /* \"contracts/Auction.sol\":4661:4667  target */\n      dup5\n        /* \"contracts/Auction.sol\":4656:4668  bids[target] */\n      0xffffffffffffffffffffffffffffffffffffffff\n      and\n      0xffffffffffffffffffffffffffffffffffffffff\n      and\n      dup2\n      mstore\n      0x20\n      add\n      swap1\n      dup2\n      mstore\n      0x20\n      add\n      0x00\n      keccak256\n        /* \"contracts/Auction.sol\":4656:4672  bids[target] = 0 */\n      dup2\n      swap1\n      sstore\n      pop\n        /* \"contracts/Auction.sol\":4815:4821  target */\n      dup2\n        /* \"contracts/Auction.sol\":4815:4830  target.transfer */\n      0xffffffffffffffffffffffffffffffffffffffff\n      and\n        /* \"contracts/Auction.sol\":4815:4837  target.transfer(value) */\n      0x08fc\n        /* \"contracts/Auction.sol\":4831:4836  value */\n      dup3\n        /* \"contracts/Auction.sol\":4815:4837  target.transfer(value) */\n      swap1\n      dup2\n      iszero\n      mul\n      swap1\n      mload(0x40)\n      0x00\n      mload(0x40)\n      dup1\n      dup4\n      sub\n      dup2\n      dup6\n      dup9\n      dup9\n      call\n      swap4\n      pop\n      pop\n      pop\n      pop\n      iszero\n      dup1\n      iszero\n      tag_117\n      jumpi\n      returndatasize\n      0x00\n      dup1\n      returndatacopy\n      revert(0x00, returndatasize)\n    tag_117:\n      pop\n        /* \"contracts/Auction.sol\":3233:4915  {... */\n      pop\n      pop\n        /* \"contracts/Auction.sol\":3205:4915  function endAuction() public{... */\n      jump\t// out\n        /* \"contracts/Auction.sol\":1891:2048  function min(uint a, uint b) pure internal returns(uint){... */\n    tag_91:\n        /* \"contracts/Auction.sol\":1942:1946  uint */\n      0x00\n        /* \"contracts/Auction.sol\":1965:1966  b */\n      dup2\n        /* \"contracts/Auction.sol\":1962:1963  a */\n      dup4\n        /* \"contracts/Auction.sol\":1962:1966  a<=b */\n      gt\n        /* \"contracts/Auction.sol\":1958:2041  if (a<=b){... */\n      tag_119\n      jumpi\n        /* \"contracts/Auction.sol\":1989:1990  a */\n      dup3\n        /* \"contracts/Auction.sol\":1982:1990  return a */\n      swap1\n      pop\n      jump(tag_118)\n        /* \"contracts/Auction.sol\":1958:2041  if (a<=b){... */\n    tag_119:\n        /* \"contracts/Auction.sol\":2028:2029  b */\n      dup2\n        /* \"contracts/Auction.sol\":2021:2029  return b */\n      swap1\n      pop\n        /* \"contracts/Auction.sol\":1891:2048  function min(uint a, uint b) pure internal returns(uint){... */\n    tag_118:\n      swap3\n      swap2\n      pop\n      pop\n      jump\t// out\n        /* \"#utility.yul\":7:84   */\n    tag_121:\n        /* \"#utility.yul\":44:51   */\n      0x00\n        /* \"#utility.yul\":73:78   */\n      dup2\n        /* \"#utility.yul\":62:78   */\n      swap1\n      pop\n        /* \"#utility.yul\":7:84   */\n      swap2\n      swap1\n      pop\n      jump\t// out\n        /* \"#utility.yul\":90:208   */\n    tag_122:\n        /* \"#utility.yul\":177:201   */\n      tag_146\n        /* \"#utility.yul\":195:200   */\n      dup2\n        /* \"#utility.yul\":177:201   */\n      tag_121\n      jump\t// in\n    tag_146:\n        /* \"#utility.yul\":172:175   */\n      dup3\n        /* \"#utility.yul\":165:202   */\n      mstore\n        /* \"#utility.yul\":90:208   */\n      pop\n      pop\n      jump\t// out\n        /* \"#utility.yul\":214:436   */\n    tag_18:\n        /* \"#utility.yul\":307:311   */\n      0x00\n        /* \"#utility.yul\":345:347   */\n      0x20\n        /* \"#utility.yul\":334:343   */\n      dup3\n        /* \"#utility.yul\":330:348   */\n      add\n        /* \"#utility.yul\":322:348   */\n      swap1\n      pop\n        /* \"#utility.yul\":358:429   */\n      tag_148\n        /* \"#utility.yul\":426:427   */\n      0x00\n        /* \"#utility.yul\":415:424   */\n      dup4\n        /* \"#utility.yul\":411:428   */\n      add\n        /* \"#utility.yul\":402:408   */\n      dup5\n        /* \"#utility.yul\":358:429   */\n      tag_122\n      jump\t// in\n    tag_148:\n        /* \"#utility.yul\":214:436   */\n      swap3\n      swap2\n      pop\n      pop\n      jump\t// out\n        /* \"#utility.yul\":523:640   */\n    tag_124:\n        /* \"#utility.yul\":632:633   */\n      0x00\n        /* \"#utility.yul\":629:630   */\n      dup1\n        /* \"#utility.yul\":622:634   */\n      revert\n        /* \"#utility.yul\":769:895   */\n    tag_126:\n        /* \"#utility.yul\":806:813   */\n      0x00\n        /* \"#utility.yul\":846:888   */\n      0xffffffffffffffffffffffffffffffffffffffff\n        /* \"#utility.yul\":839:844   */\n      dup3\n        /* \"#utility.yul\":835:889   */\n      and\n        /* \"#utility.yul\":824:889   */\n      swap1\n      pop\n        /* \"#utility.yul\":769:895   */\n      swap2\n      swap1\n      pop\n      jump\t// out\n        /* \"#utility.yul\":901:997   */\n    tag_127:\n        /* \"#utility.yul\":938:945   */\n      0x00\n        /* \"#utility.yul\":967:991   */\n      tag_154\n        /* \"#utility.yul\":985:990   */\n      dup3\n        /* \"#utility.yul\":967:991   */\n      tag_126\n      jump\t// in\n    tag_154:\n        /* \"#utility.yul\":956:991   */\n      swap1\n      pop\n        /* \"#utility.yul\":901:997   */\n      swap2\n      swap1\n      pop\n      jump\t// out\n        /* \"#utility.yul\":1003:1125   */\n    tag_128:\n        /* \"#utility.yul\":1076:1100   */\n      tag_156\n        /* \"#utility.yul\":1094:1099   */\n      dup2\n        /* \"#utility.yul\":1076:1100   */\n      tag_127\n      jump\t// in\n    tag_156:\n        /* \"#utility.yul\":1069:1074   */\n      dup2\n        /* \"#utility.yul\":1066:1101   */\n      eq\n        /* \"#utility.yul\":1056:1119   */\n      tag_157\n      jumpi\n        /* \"#utility.yul\":1115:1116   */\n      0x00\n        /* \"#utility.yul\":1112:1113   */\n      dup1\n        /* \"#utility.yul\":1105:1117   */\n      revert\n        /* \"#utility.yul\":1056:1119   */\n    tag_157:\n        /* \"#utility.yul\":1003:1125   */\n      pop\n      jump\t// out\n        /* \"#utility.yul\":1131:1270   */\n    tag_129:\n        /* \"#utility.yul\":1177:1182   */\n      0x00\n        /* \"#utility.yul\":1215:1221   */\n      dup2\n        /* \"#utility.yul\":1202:1222   */\n      calldataload\n        /* \"#utility.yul\":1193:1222   */\n      swap1\n      pop\n        /* \"#utility.yul\":1231:1264   */\n      tag_159\n        /* \"#utility.yul\":1258:1263   */\n      dup2\n        /* \"#utility.yul\":1231:1264   */\n      tag_128\n      jump\t// in\n    tag_159:\n        /* \"#utility.yul\":1131:1270   */\n      swap3\n      swap2\n      pop\n      pop\n      jump\t// out\n        /* \"#utility.yul\":1276:1605   */\n    tag_26:\n        /* \"#utility.yul\":1335:1341   */\n      0x00\n        /* \"#utility.yul\":1384:1386   */\n      0x20\n        /* \"#utility.yul\":1372:1381   */\n      dup3\n        /* \"#utility.yul\":1363:1370   */\n      dup5\n        /* \"#utility.yul\":1359:1382   */\n      sub\n        /* \"#utility.yul\":1355:1387   */\n      slt\n        /* \"#utility.yul\":1352:1471   */\n      iszero\n      tag_161\n      jumpi\n        /* \"#utility.yul\":1390:1469   */\n      tag_162\n      tag_124\n      jump\t// in\n    tag_162:\n        /* \"#utility.yul\":1352:1471   */\n    tag_161:\n        /* \"#utility.yul\":1510:1511   */\n      0x00\n        /* \"#utility.yul\":1535:1588   */\n      tag_163\n        /* \"#utility.yul\":1580:1587   */\n      dup5\n        /* \"#utility.yul\":1571:1577   */\n      dup3\n        /* \"#utility.yul\":1560:1569   */\n      dup6\n        /* \"#utility.yul\":1556:1578   */\n      add\n        /* \"#utility.yul\":1535:1588   */\n      tag_129\n      jump\t// in\n    tag_163:\n        /* \"#utility.yul\":1525:1588   */\n      swap2\n      pop\n        /* \"#utility.yul\":1481:1598   */\n      pop\n        /* \"#utility.yul\":1276:1605   */\n      swap3\n      swap2\n      pop\n      pop\n      jump\t// out\n        /* \"#utility.yul\":1611:1791   */\n    tag_65:\n        /* \"#utility.yul\":1659:1736   */\n      0x4e487b7100000000000000000000000000000000000000000000000000000000\n        /* \"#utility.yul\":1656:1657   */\n      0x00\n        /* \"#utility.yul\":1649:1737   */\n      mstore\n        /* \"#utility.yul\":1756:1760   */\n      0x21\n        /* \"#utility.yul\":1753:1754   */\n      0x04\n        /* \"#utility.yul\":1746:1761   */\n      mstore\n        /* \"#utility.yul\":1780:1784   */\n      0x24\n        /* \"#utility.yul\":1777:1778   */\n      0x00\n        /* \"#utility.yul\":1770:1785   */\n      revert\n        /* \"#utility.yul\":1797:1910   */\n    tag_130:\n        /* \"#utility.yul\":1878:1879   */\n      0x03\n        /* \"#utility.yul\":1871:1876   */\n      dup2\n        /* \"#utility.yul\":1868:1880   */\n      lt\n        /* \"#utility.yul\":1858:1904   */\n      tag_166\n      jumpi\n        /* \"#utility.yul\":1884:1902   */\n      tag_167\n      tag_65\n      jump\t// in\n    tag_167:\n        /* \"#utility.yul\":1858:1904   */\n    tag_166:\n        /* \"#utility.yul\":1797:1910   */\n      pop\n      jump\t// out\n        /* \"#utility.yul\":1916:2043   */\n    tag_131:\n        /* \"#utility.yul\":1961:1968   */\n      0x00\n        /* \"#utility.yul\":1990:1995   */\n      dup2\n        /* \"#utility.yul\":1979:1995   */\n      swap1\n      pop\n        /* \"#utility.yul\":1996:2037   */\n      tag_169\n        /* \"#utility.yul\":2031:2036   */\n      dup3\n        /* \"#utility.yul\":1996:2037   */\n      tag_130\n      jump\t// in\n    tag_169:\n        /* \"#utility.yul\":1916:2043   */\n      swap2\n      swap1\n      pop\n      jump\t// out\n        /* \"#utility.yul\":2049:2176   */\n    tag_132:\n        /* \"#utility.yul\":2105:2114   */\n      0x00\n        /* \"#utility.yul\":2138:2170   */\n      tag_171\n        /* \"#utility.yul\":2164:2169   */\n      dup3\n        /* \"#utility.yul\":2138:2170   */\n      tag_131\n      jump\t// in\n    tag_171:\n        /* \"#utility.yul\":2125:2170   */\n      swap1\n      pop\n        /* \"#utility.yul\":2049:2176   */\n      swap2\n      swap1\n      pop\n      jump\t// out\n        /* \"#utility.yul\":2182:2325   */\n    tag_133:\n        /* \"#utility.yul\":2275:2318   */\n      tag_173\n        /* \"#utility.yul\":2312:2317   */\n      dup2\n        /* \"#utility.yul\":2275:2318   */\n      tag_132\n      jump\t// in\n    tag_173:\n        /* \"#utility.yul\":2270:2273   */\n      dup3\n        /* \"#utility.yul\":2263:2319   */\n      mstore\n        /* \"#utility.yul\":2182:2325   */\n      pop\n      pop\n      jump\t// out\n        /* \"#utility.yul\":2331:2565   */\n    tag_33:\n        /* \"#utility.yul\":2430:2434   */\n      0x00\n        /* \"#utility.yul\":2468:2470   */\n      0x20\n        /* \"#utility.yul\":2457:2466   */\n      dup3\n        /* \"#utility.yul\":2453:2471   */\n      add\n        /* \"#utility.yul\":2445:2471   */\n      swap1\n      pop\n        /* \"#utility.yul\":2481:2558   */\n      tag_175\n        /* \"#utility.yul\":2555:2556   */\n      0x00\n        /* \"#utility.yul\":2544:2553   */\n      dup4\n        /* \"#utility.yul\":2540:2557   */\n      add\n        /* \"#utility.yul\":2531:2537   */\n      dup5\n        /* \"#utility.yul\":2481:2558   */\n      tag_133\n      jump\t// in\n    tag_175:\n        /* \"#utility.yul\":2331:2565   */\n      swap3\n      swap2\n      pop\n      pop\n      jump\t// out\n        /* \"#utility.yul\":2571:2675   */\n    tag_134:\n        /* \"#utility.yul\":2616:2623   */\n      0x00\n        /* \"#utility.yul\":2645:2669   */\n      tag_177\n        /* \"#utility.yul\":2663:2668   */\n      dup3\n        /* \"#utility.yul\":2645:2669   */\n      tag_126\n      jump\t// in\n    tag_177:\n        /* \"#utility.yul\":2634:2669   */\n      swap1\n      pop\n        /* \"#utility.yul\":2571:2675   */\n      swap2\n      swap1\n      pop\n      jump\t// out\n        /* \"#utility.yul\":2681:2823   */\n    tag_135:\n        /* \"#utility.yul\":2784:2816   */\n      tag_179\n        /* \"#utility.yul\":2810:2815   */\n      dup2\n        /* \"#utility.yul\":2784:2816   */\n      tag_134\n      jump\t// in\n    tag_179:\n        /* \"#utility.yul\":2779:2782   */\n      dup3\n        /* \"#utility.yul\":2772:2817   */\n      mstore\n        /* \"#utility.yul\":2681:2823   */\n      pop\n      pop\n      jump\t// out\n        /* \"#utility.yul\":2829:3083   */\n    tag_38:\n        /* \"#utility.yul\":2938:2942   */\n      0x00\n        /* \"#utility.yul\":2976:2978   */\n      0x20\n        /* \"#utility.yul\":2965:2974   */\n      dup3\n        /* \"#utility.yul\":2961:2979   */\n      add\n        /* \"#utility.yul\":2953:2979   */\n      swap1\n      pop\n        /* \"#utility.yul\":2989:3076   */\n      tag_181\n        /* \"#utility.yul\":3073:3074   */\n      0x00\n        /* \"#utility.yul\":3062:3071   */\n      dup4\n        /* \"#utility.yul\":3058:3075   */\n      add\n        /* \"#utility.yul\":3049:3055   */\n      dup5\n        /* \"#utility.yul\":2989:3076   */\n      tag_135\n      jump\t// in\n    tag_181:\n        /* \"#utility.yul\":2829:3083   */\n      swap3\n      swap2\n      pop\n      pop\n      jump\t// out\n        /* \"#utility.yul\":3089:3188   */\n    tag_136:\n        /* \"#utility.yul\":3141:3147   */\n      0x00\n        /* \"#utility.yul\":3175:3180   */\n      dup2\n        /* \"#utility.yul\":3169:3181   */\n      mload\n        /* \"#utility.yul\":3159:3181   */\n      swap1\n      pop\n        /* \"#utility.yul\":3089:3188   */\n      swap2\n      swap1\n      pop\n      jump\t// out\n        /* \"#utility.yul\":3194:3363   */\n    tag_137:\n        /* \"#utility.yul\":3278:3289   */\n      0x00\n        /* \"#utility.yul\":3312:3318   */\n      dup3\n        /* \"#utility.yul\":3307:3310   */\n      dup3\n        /* \"#utility.yul\":3300:3319   */\n      mstore\n        /* \"#utility.yul\":3352:3356   */\n      0x20\n        /* \"#utility.yul\":3347:3350   */\n      dup3\n        /* \"#utility.yul\":3343:3357   */\n      add\n        /* \"#utility.yul\":3328:3357   */\n      swap1\n      pop\n        /* \"#utility.yul\":3194:3363   */\n      swap3\n      swap2\n      pop\n      pop\n      jump\t// out\n        /* \"#utility.yul\":3369:3615   */\n    tag_138:\n        /* \"#utility.yul\":3450:3451   */\n      0x00\n        /* \"#utility.yul\":3460:3573   */\n    tag_185:\n        /* \"#utility.yul\":3474:3480   */\n      dup4\n        /* \"#utility.yul\":3471:3472   */\n      dup2\n        /* \"#utility.yul\":3468:3481   */\n      lt\n        /* \"#utility.yul\":3460:3573   */\n      iszero\n      tag_187\n      jumpi\n        /* \"#utility.yul\":3559:3560   */\n      dup1\n        /* \"#utility.yul\":3554:3557   */\n      dup3\n        /* \"#utility.yul\":3550:3561   */\n      add\n        /* \"#utility.yul\":3544:3562   */\n      mload\n        /* \"#utility.yul\":3540:3541   */\n      dup2\n        /* \"#utility.yul\":3535:3538   */\n      dup5\n        /* \"#utility.yul\":3531:3542   */\n      add\n        /* \"#utility.yul\":3524:3563   */\n      mstore\n        /* \"#utility.yul\":3496:3498   */\n      0x20\n        /* \"#utility.yul\":3493:3494   */\n      dup2\n        /* \"#utility.yul\":3489:3499   */\n      add\n        /* \"#utility.yul\":3484:3499   */\n      swap1\n      pop\n        /* \"#utility.yul\":3460:3573   */\n      jump(tag_185)\n    tag_187:\n        /* \"#utility.yul\":3607:3608   */\n      0x00\n        /* \"#utility.yul\":3598:3604   */\n      dup5\n        /* \"#utility.yul\":3593:3596   */\n      dup5\n        /* \"#utility.yul\":3589:3605   */\n      add\n        /* \"#utility.yul\":3582:3609   */\n      mstore\n        /* \"#utility.yul\":3431:3615   */\n      pop\n        /* \"#utility.yul\":3369:3615   */\n      pop\n      pop\n      pop\n      jump\t// out\n        /* \"#utility.yul\":3621:3723   */\n    tag_139:\n        /* \"#utility.yul\":3662:3668   */\n      0x00\n        /* \"#utility.yul\":3713:3715   */\n      0x1f\n        /* \"#utility.yul\":3709:3716   */\n      not\n        /* \"#utility.yul\":3704:3706   */\n      0x1f\n        /* \"#utility.yul\":3697:3702   */\n      dup4\n        /* \"#utility.yul\":3693:3707   */\n      add\n        /* \"#utility.yul\":3689:3717   */\n      and\n        /* \"#utility.yul\":3679:3717   */\n      swap1\n      pop\n        /* \"#utility.yul\":3621:3723   */\n      swap2\n      swap1\n      pop\n      jump\t// out\n        /* \"#utility.yul\":3729:4106   */\n    tag_140:\n        /* \"#utility.yul\":3817:3820   */\n      0x00\n        /* \"#utility.yul\":3845:3884   */\n      tag_190\n        /* \"#utility.yul\":3878:3883   */\n      dup3\n        /* \"#utility.yul\":3845:3884   */\n      tag_136\n      jump\t// in\n    tag_190:\n        /* \"#utility.yul\":3900:3971   */\n      tag_191\n        /* \"#utility.yul\":3964:3970   */\n      dup2\n        /* \"#utility.yul\":3959:3962   */\n      dup6\n        /* \"#utility.yul\":3900:3971   */\n      tag_137\n      jump\t// in\n    tag_191:\n        /* \"#utility.yul\":3893:3971   */\n      swap4\n      pop\n        /* \"#utility.yul\":3980:4045   */\n      tag_192\n        /* \"#utility.yul\":4038:4044   */\n      dup2\n        /* \"#utility.yul\":4033:4036   */\n      dup6\n        /* \"#utility.yul\":4026:4030   */\n      0x20\n        /* \"#utility.yul\":4019:4024   */\n      dup7\n        /* \"#utility.yul\":4015:4031   */\n      add\n        /* \"#utility.yul\":3980:4045   */\n      tag_138\n      jump\t// in\n    tag_192:\n        /* \"#utility.yul\":4070:4099   */\n      tag_193\n        /* \"#utility.yul\":4092:4098   */\n      dup2\n        /* \"#utility.yul\":4070:4099   */\n      tag_139\n      jump\t// in\n    tag_193:\n        /* \"#utility.yul\":4065:4068   */\n      dup5\n        /* \"#utility.yul\":4061:4100   */\n      add\n        /* \"#utility.yul\":4054:4100   */\n      swap2\n      pop\n        /* \"#utility.yul\":3821:4106   */\n      pop\n        /* \"#utility.yul\":3729:4106   */\n      swap3\n      swap2\n      pop\n      pop\n      jump\t// out\n        /* \"#utility.yul\":4112:4425   */\n    tag_50:\n        /* \"#utility.yul\":4225:4229   */\n      0x00\n        /* \"#utility.yul\":4263:4265   */\n      0x20\n        /* \"#utility.yul\":4252:4261   */\n      dup3\n        /* \"#utility.yul\":4248:4266   */\n      add\n        /* \"#utility.yul\":4240:4266   */\n      swap1\n      pop\n        /* \"#utility.yul\":4312:4321   */\n      dup2\n        /* \"#utility.yul\":4306:4310   */\n      dup2\n        /* \"#utility.yul\":4302:4322   */\n      sub\n        /* \"#utility.yul\":4298:4299   */\n      0x00\n        /* \"#utility.yul\":4287:4296   */\n      dup4\n        /* \"#utility.yul\":4283:4300   */\n      add\n        /* \"#utility.yul\":4276:4323   */\n      mstore\n        /* \"#utility.yul\":4340:4418   */\n      tag_195\n        /* \"#utility.yul\":4413:4417   */\n      dup2\n        /* \"#utility.yul\":4404:4410   */\n      dup5\n        /* \"#utility.yul\":4340:4418   */\n      tag_140\n      jump\t// in\n    tag_195:\n        /* \"#utility.yul\":4332:4418   */\n      swap1\n      pop\n        /* \"#utility.yul\":4112:4425   */\n      swap3\n      swap2\n      pop\n      pop\n      jump\t// out\n        /* \"#utility.yul\":4431:4611   */\n    tag_141:\n        /* \"#utility.yul\":4479:4556   */\n      0x4e487b7100000000000000000000000000000000000000000000000000000000\n        /* \"#utility.yul\":4476:4477   */\n      0x00\n        /* \"#utility.yul\":4469:4557   */\n      mstore\n        /* \"#utility.yul\":4576:4580   */\n      0x22\n        /* \"#utility.yul\":4573:4574   */\n      0x04\n        /* \"#utility.yul\":4566:4581   */\n      mstore\n        /* \"#utility.yul\":4600:4604   */\n      0x24\n        /* \"#utility.yul\":4597:4598   */\n      0x00\n        /* \"#utility.yul\":4590:4605   */\n      revert\n        /* \"#utility.yul\":4617:4937   */\n    tag_67:\n        /* \"#utility.yul\":4661:4667   */\n      0x00\n        /* \"#utility.yul\":4698:4699   */\n      0x02\n        /* \"#utility.yul\":4692:4696   */\n      dup3\n        /* \"#utility.yul\":4688:4700   */\n      div\n        /* \"#utility.yul\":4678:4700   */\n      swap1\n      pop\n        /* \"#utility.yul\":4745:4746   */\n      0x01\n        /* \"#utility.yul\":4739:4743   */\n      dup3\n        /* \"#utility.yul\":4735:4747   */\n      and\n        /* \"#utility.yul\":4766:4784   */\n      dup1\n        /* \"#utility.yul\":4756:4837   */\n      tag_198\n      jumpi\n        /* \"#utility.yul\":4822:4826   */\n      0x7f\n        /* \"#utility.yul\":4814:4820   */\n      dup3\n        /* \"#utility.yul\":4810:4827   */\n      and\n        /* \"#utility.yul\":4800:4827   */\n      swap2\n      pop\n        /* \"#utility.yul\":4756:4837   */\n    tag_198:\n        /* \"#utility.yul\":4884:4886   */\n      0x20\n        /* \"#utility.yul\":4876:4882   */\n      dup3\n        /* \"#utility.yul\":4873:4887   */\n      lt\n        /* \"#utility.yul\":4853:4871   */\n      dup2\n        /* \"#utility.yul\":4850:4888   */\n      sub\n        /* \"#utility.yul\":4847:4931   */\n      tag_199\n      jumpi\n        /* \"#utility.yul\":4903:4921   */\n      tag_200\n      tag_141\n      jump\t// in\n    tag_200:\n        /* \"#utility.yul\":4847:4931   */\n    tag_199:\n        /* \"#utility.yul\":4668:4937   */\n      pop\n        /* \"#utility.yul\":4617:4937   */\n      swap2\n      swap1\n      pop\n      jump\t// out\n        /* \"#utility.yul\":4943:5123   */\n    tag_142:\n        /* \"#utility.yul\":4991:5068   */\n      0x4e487b7100000000000000000000000000000000000000000000000000000000\n        /* \"#utility.yul\":4988:4989   */\n      0x00\n        /* \"#utility.yul\":4981:5069   */\n      mstore\n        /* \"#utility.yul\":5088:5092   */\n      0x11\n        /* \"#utility.yul\":5085:5086   */\n      0x04\n        /* \"#utility.yul\":5078:5093   */\n      mstore\n        /* \"#utility.yul\":5112:5116   */\n      0x24\n        /* \"#utility.yul\":5109:5110   */\n      0x00\n        /* \"#utility.yul\":5102:5117   */\n      revert\n        /* \"#utility.yul\":5129:5320   */\n    tag_86:\n        /* \"#utility.yul\":5169:5172   */\n      0x00\n        /* \"#utility.yul\":5188:5208   */\n      tag_203\n        /* \"#utility.yul\":5206:5207   */\n      dup3\n        /* \"#utility.yul\":5188:5208   */\n      tag_121\n      jump\t// in\n    tag_203:\n        /* \"#utility.yul\":5183:5208   */\n      swap2\n      pop\n        /* \"#utility.yul\":5222:5242   */\n      tag_204\n        /* \"#utility.yul\":5240:5241   */\n      dup4\n        /* \"#utility.yul\":5222:5242   */\n      tag_121\n      jump\t// in\n    tag_204:\n        /* \"#utility.yul\":5217:5242   */\n      swap3\n      pop\n        /* \"#utility.yul\":5265:5266   */\n      dup3\n        /* \"#utility.yul\":5262:5263   */\n      dup3\n        /* \"#utility.yul\":5258:5267   */\n      add\n        /* \"#utility.yul\":5251:5267   */\n      swap1\n      pop\n        /* \"#utility.yul\":5286:5289   */\n      dup1\n        /* \"#utility.yul\":5283:5284   */\n      dup3\n        /* \"#utility.yul\":5280:5290   */\n      gt\n        /* \"#utility.yul\":5277:5313   */\n      iszero\n      tag_205\n      jumpi\n        /* \"#utility.yul\":5293:5311   */\n      tag_206\n      tag_142\n      jump\t// in\n    tag_206:\n        /* \"#utility.yul\":5277:5313   */\n    tag_205:\n        /* \"#utility.yul\":5129:5320   */\n      swap3\n      swap2\n      pop\n      pop\n      jump\t// out\n        /* \"#utility.yul\":5326:5520   */\n    tag_114:\n        /* \"#utility.yul\":5366:5370   */\n      0x00\n        /* \"#utility.yul\":5386:5406   */\n      tag_208\n        /* \"#utility.yul\":5404:5405   */\n      dup3\n        /* \"#utility.yul\":5386:5406   */\n      tag_121\n      jump\t// in\n    tag_208:\n        /* \"#utility.yul\":5381:5406   */\n      swap2\n      pop\n        /* \"#utility.yul\":5420:5440   */\n      tag_209\n        /* \"#utility.yul\":5438:5439   */\n      dup4\n        /* \"#utility.yul\":5420:5440   */\n      tag_121\n      jump\t// in\n    tag_209:\n        /* \"#utility.yul\":5415:5440   */\n      swap3\n      pop\n        /* \"#utility.yul\":5464:5465   */\n      dup3\n        /* \"#utility.yul\":5461:5462   */\n      dup3\n        /* \"#utility.yul\":5457:5466   */\n      sub\n        /* \"#utility.yul\":5449:5466   */\n      swap1\n      pop\n        /* \"#utility.yul\":5488:5489   */\n      dup2\n        /* \"#utility.yul\":5482:5486   */\n      dup2\n        /* \"#utility.yul\":5479:5490   */\n      gt\n        /* \"#utility.yul\":5476:5513   */\n      iszero\n      tag_210\n      jumpi\n        /* \"#utility.yul\":5493:5511   */\n      tag_211\n      tag_142\n      jump\t// in\n    tag_211:\n        /* \"#utility.yul\":5476:5513   */\n    tag_210:\n        /* \"#utility.yul\":5326:5520   */\n      swap3\n      swap2\n      pop\n      pop\n      jump\t// out\n\n    auxdata: 0xa2646970667358221220d508eb189a36e051fb6b4b431419b8cc5f6a3419f6f1405ac1d6efe567d3f3ad64736f6c63430008110033\n}\n",
				"bytecode": {
					"linkReferences": {},
					"object": "60806040523480156200001157600080fd5b506040516200136b3803806200136b83398181016040528101906200003791906200015e565b806000806101000a81548173ffffffffffffffffffffffffffffffffffffffff021916908373ffffffffffffffffffffffffffffffffffffffff1602179055506000600460006101000a81548160ff02191690836002811115620000a0576200009f62000190565b5b021790555043600181905550619d80600154620000be9190620001f8565b6002819055506040518060200160405280600081525060039081620000e49190620004a3565b506064600881905550506200058a565b600080fd5b600073ffffffffffffffffffffffffffffffffffffffff82169050919050565b60006200012682620000f9565b9050919050565b620001388162000119565b81146200014457600080fd5b50565b60008151905062000158816200012d565b92915050565b600060208284031215620001775762000176620000f4565b5b6000620001878482850162000147565b91505092915050565b7f4e487b7100000000000000000000000000000000000000000000000000000000600052602160045260246000fd5b6000819050919050565b7f4e487b7100000000000000000000000000000000000000000000000000000000600052601160045260246000fd5b60006200020582620001bf565b91506200021283620001bf565b92508282019050808211156200022d576200022c620001c9565b5b92915050565b600081519050919050565b7f4e487b7100000000000000000000000000000000000000000000000000000000600052604160045260246000fd5b7f4e487b7100000000000000000000000000000000000000000000000000000000600052602260045260246000fd5b60006002820490506001821680620002b557607f821691505b602082108103620002cb57620002ca6200026d565b5b50919050565b60008190508160005260206000209050919050565b60006020601f8301049050919050565b600082821b905092915050565b600060088302620003357fffffffffffffffffffffffffffffffffffffffffffffffffffffffffffffffff82620002f6565b620003418683620002f6565b95508019841693508086168417925050509392505050565b6000819050919050565b6000620003846200037e6200037884620001bf565b62000359565b620001bf565b9050919050565b6000819050919050565b620003a08362000363565b620003b8620003af826200038b565b84845462000303565b825550505050565b600090565b620003cf620003c0565b620003dc81848462000395565b505050565b5b818110156200040457620003f8600082620003c5565b600181019050620003e2565b5050565b601f82111562000453576200041d81620002d1565b6200042884620002e6565b8101602085101562000438578190505b620004506200044785620002e6565b830182620003e1565b50505b505050565b600082821c905092915050565b6000620004786000198460080262000458565b1980831691505092915050565b600062000493838362000465565b9150826002028217905092915050565b620004ae8262000233565b67ffffffffffffffff811115620004ca57620004c96200023e565b5b620004d682546200029c565b620004e382828562000408565b600060209050601f8311600181146200051b576000841562000506578287015190505b62000512858262000485565b86555062000582565b601f1984166200052b86620002d1565b60005b8281101562000555578489015182556001820191506020850194506020810190506200052e565b8683101562000575578489015162000571601f89168262000465565b8355505b6001600288020188555050505b505050505050565b610dd1806200059a6000396000f3fe60806040526004361061009c5760003560e01c80638fa8b790116100645780638fa8b7901461018a57806391f90157146101a1578063c623674f146101cc578063d57bde79146101f7578063ecfc7ecc14610222578063fe67a54b1461022c5761009c565b8063083c6323146100a157806348cd4cb1146100cc57806362ea82db146100f75780637fb45099146101345780638da5cb5b1461015f575b600080fd5b3480156100ad57600080fd5b506100b6610243565b6040516100c39190610a79565b60405180910390f35b3480156100d857600080fd5b506100e1610249565b6040516100ee9190610a79565b60405180910390f35b34801561010357600080fd5b5061011e60048036038101906101199190610af7565b61024f565b60405161012b9190610a79565b60405180910390f35b34801561014057600080fd5b50610149610267565b6040516101569190610b9b565b60405180910390f35b34801561016b57600080fd5b5061017461027a565b6040516101819190610bd7565b60405180910390f35b34801561019657600080fd5b5061019f61029e565b005b3480156101ad57600080fd5b506101b6610323565b6040516101c39190610bd7565b60405180910390f35b3480156101d857600080fd5b506101e1610349565b6040516101ee9190610c82565b60405180910390f35b34801561020357600080fd5b5061020c6103d7565b6040516102199190610a79565b60405180910390f35b61022a6103dd565b005b34801561023857600080fd5b506102416106ab565b005b60025481565b60015481565b60076020528060005260406000206000915090505481565b600460009054906101000a900460ff1681565b60008054906101000a900473ffffffffffffffffffffffffffffffffffffffff1681565b60008054906101000a900473ffffffffffffffffffffffffffffffffffffffff1673ffffffffffffffffffffffffffffffffffffffff163373ffffffffffffffffffffffffffffffffffffffff16146102f657600080fd5b6002600460006101000a81548160ff0219169083600281111561031c5761031b610b24565b5b0217905550565b600660009054906101000a900473ffffffffffffffffffffffffffffffffffffffff1681565b6003805461035690610cd3565b80601f016020809104026020016040519081016040528092919081815260200182805461038290610cd3565b80156103cf5780601f106103a4576101008083540402835291602001916103cf565b820191906000526020600020905b8154815290600101906020018083116103b257829003601f168201915b505050505081565b60055481565b60008054906101000a900473ffffffffffffffffffffffffffffffffffffffff1673ffffffffffffffffffffffffffffffffffffffff163373ffffffffffffffffffffffffffffffffffffffff160361043557600080fd5b60015443101561044457600080fd5b60025443111561045357600080fd5b6000600281111561046757610466610b24565b5b600460009054906101000a900460ff16600281111561048957610488610b24565b5b148015610497575060643410155b6104a057600080fd5b600034600760003373ffffffffffffffffffffffffffffffffffffffff1673ffffffffffffffffffffffffffffffffffffffff168152602001908152602001600020546104ed9190610d33565b905060055481116104fd57600080fd5b60076000600660009054906101000a900473ffffffffffffffffffffffffffffffffffffffff1673ffffffffffffffffffffffffffffffffffffffff1673ffffffffffffffffffffffffffffffffffffffff1681526020019081526020016000205481116105e8576105dd600854826105769190610d33565b60076000600660009054906101000a900473ffffffffffffffffffffffffffffffffffffffff1673ffffffffffffffffffffffffffffffffffffffff1673ffffffffffffffffffffffffffffffffffffffff16815260200190815260200160002054610a45565b6005819055506106a8565b6106608160085460076000600660009054906101000a900473ffffffffffffffffffffffffffffffffffffffff1673ffffffffffffffffffffffffffffffffffffffff1673ffffffffffffffffffffffffffffffffffffffff1681526020019081526020016000205461065b9190610d33565b610a45565b60058190555033600660006101000a81548173ffffffffffffffffffffffffffffffffffffffff021916908373ffffffffffffffffffffffffffffffffffffffff1602179055505b50565b6002808111156106be576106bd610b24565b5b600460009054906101000a900460ff1660028111156106e0576106df610b24565b5b14806106ed575060025443115b6106f657600080fd5b60008054906101000a900473ffffffffffffffffffffffffffffffffffffffff1673ffffffffffffffffffffffffffffffffffffffff163373ffffffffffffffffffffffffffffffffffffffff16148061078f57506000600760003373ffffffffffffffffffffffffffffffffffffffff1673ffffffffffffffffffffffffffffffffffffffff16815260200190815260200160002054115b61079857600080fd5b6000806002808111156107ae576107ad610b24565b5b600460009054906101000a900460ff1660028111156107d0576107cf610b24565b5b0361081f57339150600760003373ffffffffffffffffffffffffffffffffffffffff1673ffffffffffffffffffffffffffffffffffffffff1681526020019081526020016000205490506109b5565b60008054906101000a900473ffffffffffffffffffffffffffffffffffffffff1673ffffffffffffffffffffffffffffffffffffffff163373ffffffffffffffffffffffffffffffffffffffff160361089f5760008054906101000a900473ffffffffffffffffffffffffffffffffffffffff16915060055490506109b4565b600660009054906101000a900473ffffffffffffffffffffffffffffffffffffffff1673ffffffffffffffffffffffffffffffffffffffff163373ffffffffffffffffffffffffffffffffffffffff160361096d57600660009054906101000a900473ffffffffffffffffffffffffffffffffffffffff169150600554600760003373ffffffffffffffffffffffffffffffffffffffff1673ffffffffffffffffffffffffffffffffffffffff168152602001908152602001600020546109669190610d67565b90506109b3565b339150600760003373ffffffffffffffffffffffffffffffffffffffff1673ffffffffffffffffffffffffffffffffffffffff1681526020019081526020016000205490505b5b5b6000600760008473ffffffffffffffffffffffffffffffffffffffff1673ffffffffffffffffffffffffffffffffffffffff168152602001908152602001600020819055508173ffffffffffffffffffffffffffffffffffffffff166108fc829081150290604051600060405180830381858888f19350505050158015610a40573d6000803e3d6000fd5b505050565b6000818311610a5657829050610a5a565b8190505b92915050565b6000819050919050565b610a7381610a60565b82525050565b6000602082019050610a8e6000830184610a6a565b92915050565b600080fd5b600073ffffffffffffffffffffffffffffffffffffffff82169050919050565b6000610ac482610a99565b9050919050565b610ad481610ab9565b8114610adf57600080fd5b50565b600081359050610af181610acb565b92915050565b600060208284031215610b0d57610b0c610a94565b5b6000610b1b84828501610ae2565b91505092915050565b7f4e487b7100000000000000000000000000000000000000000000000000000000600052602160045260246000fd5b60038110610b6457610b63610b24565b5b50565b6000819050610b7582610b53565b919050565b6000610b8582610b67565b9050919050565b610b9581610b7a565b82525050565b6000602082019050610bb06000830184610b8c565b92915050565b6000610bc182610a99565b9050919050565b610bd181610bb6565b82525050565b6000602082019050610bec6000830184610bc8565b92915050565b600081519050919050565b600082825260208201905092915050565b60005b83811015610c2c578082015181840152602081019050610c11565b60008484015250505050565b6000601f19601f8301169050919050565b6000610c5482610bf2565b610c5e8185610bfd565b9350610c6e818560208601610c0e565b610c7781610c38565b840191505092915050565b60006020820190508181036000830152610c9c8184610c49565b905092915050565b7f4e487b7100000000000000000000000000000000000000000000000000000000600052602260045260246000fd5b60006002820490506001821680610ceb57607f821691505b602082108103610cfe57610cfd610ca4565b5b50919050565b7f4e487b7100000000000000000000000000000000000000000000000000000000600052601160045260246000fd5b6000610d3e82610a60565b9150610d4983610a60565b9250828201905080821115610d6157610d60610d04565b5b92915050565b6000610d7282610a60565b9150610d7d83610a60565b9250828203905081811115610d9557610d94610d04565b5b9291505056fea2646970667358221220d508eb189a36e051fb6b4b431419b8cc5f6a3419f6f1405ac1d6efe567d3f3ad64736f6c63430008110033",
					"opcodes": "PUSH1 0x80 PUSH1 0x40 MSTORE CALLVALUE DUP1 ISZERO PUSH3 0x11 JUMPI PUSH1 0x0 DUP1 REVERT JUMPDEST POP PUSH1 0x40 MLOAD PUSH3 0x136B CODESIZE SUB DUP1 PUSH3 0x136B DUP4 CODECOPY DUP2 DUP2 ADD PUSH1 0x40 MSTORE DUP2 ADD SWAP1 PUSH3 0x37 SWAP2 SWAP1 PUSH3 0x15E JUMP JUMPDEST DUP1 PUSH1 0x0 DUP1 PUSH2 0x100 EXP DUP2 SLOAD DUP2 PUSH20 0xFFFFFFFFFFFFFFFFFFFFFFFFFFFFFFFFFFFFFFFF MUL NOT AND SWAP1 DUP4 PUSH20 0xFFFFFFFFFFFFFFFFFFFFFFFFFFFFFFFFFFFFFFFF AND MUL OR SWAP1 SSTORE POP PUSH1 0x0 PUSH1 0x4 PUSH1 0x0 PUSH2 0x100 EXP DUP2 SLOAD DUP2 PUSH1 0xFF MUL NOT AND SWAP1 DUP4 PUSH1 0x2 DUP2 GT ISZERO PUSH3 0xA0 JUMPI PUSH3 0x9F PUSH3 0x190 JUMP JUMPDEST JUMPDEST MUL OR SWAP1 SSTORE POP NUMBER PUSH1 0x1 DUP2 SWAP1 SSTORE POP PUSH2 0x9D80 PUSH1 0x1 SLOAD PUSH3 0xBE SWAP2 SWAP1 PUSH3 0x1F8 JUMP JUMPDEST PUSH1 0x2 DUP2 SWAP1 SSTORE POP PUSH1 0x40 MLOAD DUP1 PUSH1 0x20 ADD PUSH1 0x40 MSTORE DUP1 PUSH1 0x0 DUP2 MSTORE POP PUSH1 0x3 SWAP1 DUP2 PUSH3 0xE4 SWAP2 SWAP1 PUSH3 0x4A3 JUMP JUMPDEST POP PUSH1 0x64 PUSH1 0x8 DUP2 SWAP1 SSTORE POP POP PUSH3 0x58A JUMP JUMPDEST PUSH1 0x0 DUP1 REVERT JUMPDEST PUSH1 0x0 PUSH20 0xFFFFFFFFFFFFFFFFFFFFFFFFFFFFFFFFFFFFFFFF DUP3 AND SWAP1 POP SWAP2 SWAP1 POP JUMP JUMPDEST PUSH1 0x0 PUSH3 0x126 DUP3 PUSH3 0xF9 JUMP JUMPDEST SWAP1 POP SWAP2 SWAP1 POP JUMP JUMPDEST PUSH3 0x138 DUP2 PUSH3 0x119 JUMP JUMPDEST DUP2 EQ PUSH3 0x144 JUMPI PUSH1 0x0 DUP1 REVERT JUMPDEST POP JUMP JUMPDEST PUSH1 0x0 DUP2 MLOAD SWAP1 POP PUSH3 0x158 DUP2 PUSH3 0x12D JUMP JUMPDEST SWAP3 SWAP2 POP POP JUMP JUMPDEST PUSH1 0x0 PUSH1 0x20 DUP3 DUP5 SUB SLT ISZERO PUSH3 0x177 JUMPI PUSH3 0x176 PUSH3 0xF4 JUMP JUMPDEST JUMPDEST PUSH1 0x0 PUSH3 0x187 DUP5 DUP3 DUP6 ADD PUSH3 0x147 JUMP JUMPDEST SWAP2 POP POP SWAP3 SWAP2 POP POP JUMP JUMPDEST PUSH32 0x4E487B7100000000000000000000000000000000000000000000000000000000 PUSH1 0x0 MSTORE PUSH1 0x21 PUSH1 0x4 MSTORE PUSH1 0x24 PUSH1 0x0 REVERT JUMPDEST PUSH1 0x0 DUP2 SWAP1 POP SWAP2 SWAP1 POP JUMP JUMPDEST PUSH32 0x4E487B7100000000000000000000000000000000000000000000000000000000 PUSH1 0x0 MSTORE PUSH1 0x11 PUSH1 0x4 MSTORE PUSH1 0x24 PUSH1 0x0 REVERT JUMPDEST PUSH1 0x0 PUSH3 0x205 DUP3 PUSH3 0x1BF JUMP JUMPDEST SWAP2 POP PUSH3 0x212 DUP4 PUSH3 0x1BF JUMP JUMPDEST SWAP3 POP DUP3 DUP3 ADD SWAP1 POP DUP1 DUP3 GT ISZERO PUSH3 0x22D JUMPI PUSH3 0x22C PUSH3 0x1C9 JUMP JUMPDEST JUMPDEST SWAP3 SWAP2 POP POP JUMP JUMPDEST PUSH1 0x0 DUP2 MLOAD SWAP1 POP SWAP2 SWAP1 POP JUMP JUMPDEST PUSH32 0x4E487B7100000000000000000000000000000000000000000000000000000000 PUSH1 0x0 MSTORE PUSH1 0x41 PUSH1 0x4 MSTORE PUSH1 0x24 PUSH1 0x0 REVERT JUMPDEST PUSH32 0x4E487B7100000000000000000000000000000000000000000000000000000000 PUSH1 0x0 MSTORE PUSH1 0x22 PUSH1 0x4 MSTORE PUSH1 0x24 PUSH1 0x0 REVERT JUMPDEST PUSH1 0x0 PUSH1 0x2 DUP3 DIV SWAP1 POP PUSH1 0x1 DUP3 AND DUP1 PUSH3 0x2B5 JUMPI PUSH1 0x7F DUP3 AND SWAP2 POP JUMPDEST PUSH1 0x20 DUP3 LT DUP2 SUB PUSH3 0x2CB JUMPI PUSH3 0x2CA PUSH3 0x26D JUMP JUMPDEST JUMPDEST POP SWAP2 SWAP1 POP JUMP JUMPDEST PUSH1 0x0 DUP2 SWAP1 POP DUP2 PUSH1 0x0 MSTORE PUSH1 0x20 PUSH1 0x0 KECCAK256 SWAP1 POP SWAP2 SWAP1 POP JUMP JUMPDEST PUSH1 0x0 PUSH1 0x20 PUSH1 0x1F DUP4 ADD DIV SWAP1 POP SWAP2 SWAP1 POP JUMP JUMPDEST PUSH1 0x0 DUP3 DUP3 SHL SWAP1 POP SWAP3 SWAP2 POP POP JUMP JUMPDEST PUSH1 0x0 PUSH1 0x8 DUP4 MUL PUSH3 0x335 PUSH32 0xFFFFFFFFFFFFFFFFFFFFFFFFFFFFFFFFFFFFFFFFFFFFFFFFFFFFFFFFFFFFFFFF DUP3 PUSH3 0x2F6 JUMP JUMPDEST PUSH3 0x341 DUP7 DUP4 PUSH3 0x2F6 JUMP JUMPDEST SWAP6 POP DUP1 NOT DUP5 AND SWAP4 POP DUP1 DUP7 AND DUP5 OR SWAP3 POP POP POP SWAP4 SWAP3 POP POP POP JUMP JUMPDEST PUSH1 0x0 DUP2 SWAP1 POP SWAP2 SWAP1 POP JUMP JUMPDEST PUSH1 0x0 PUSH3 0x384 PUSH3 0x37E PUSH3 0x378 DUP5 PUSH3 0x1BF JUMP JUMPDEST PUSH3 0x359 JUMP JUMPDEST PUSH3 0x1BF JUMP JUMPDEST SWAP1 POP SWAP2 SWAP1 POP JUMP JUMPDEST PUSH1 0x0 DUP2 SWAP1 POP SWAP2 SWAP1 POP JUMP JUMPDEST PUSH3 0x3A0 DUP4 PUSH3 0x363 JUMP JUMPDEST PUSH3 0x3B8 PUSH3 0x3AF DUP3 PUSH3 0x38B JUMP JUMPDEST DUP5 DUP5 SLOAD PUSH3 0x303 JUMP JUMPDEST DUP3 SSTORE POP POP POP POP JUMP JUMPDEST PUSH1 0x0 SWAP1 JUMP JUMPDEST PUSH3 0x3CF PUSH3 0x3C0 JUMP JUMPDEST PUSH3 0x3DC DUP2 DUP5 DUP5 PUSH3 0x395 JUMP JUMPDEST POP POP POP JUMP JUMPDEST JUMPDEST DUP2 DUP2 LT ISZERO PUSH3 0x404 JUMPI PUSH3 0x3F8 PUSH1 0x0 DUP3 PUSH3 0x3C5 JUMP JUMPDEST PUSH1 0x1 DUP2 ADD SWAP1 POP PUSH3 0x3E2 JUMP JUMPDEST POP POP JUMP JUMPDEST PUSH1 0x1F DUP3 GT ISZERO PUSH3 0x453 JUMPI PUSH3 0x41D DUP2 PUSH3 0x2D1 JUMP JUMPDEST PUSH3 0x428 DUP5 PUSH3 0x2E6 JUMP JUMPDEST DUP2 ADD PUSH1 0x20 DUP6 LT ISZERO PUSH3 0x438 JUMPI DUP2 SWAP1 POP JUMPDEST PUSH3 0x450 PUSH3 0x447 DUP6 PUSH3 0x2E6 JUMP JUMPDEST DUP4 ADD DUP3 PUSH3 0x3E1 JUMP JUMPDEST POP POP JUMPDEST POP POP POP JUMP JUMPDEST PUSH1 0x0 DUP3 DUP3 SHR SWAP1 POP SWAP3 SWAP2 POP POP JUMP JUMPDEST PUSH1 0x0 PUSH3 0x478 PUSH1 0x0 NOT DUP5 PUSH1 0x8 MUL PUSH3 0x458 JUMP JUMPDEST NOT DUP1 DUP4 AND SWAP2 POP POP SWAP3 SWAP2 POP POP JUMP JUMPDEST PUSH1 0x0 PUSH3 0x493 DUP4 DUP4 PUSH3 0x465 JUMP JUMPDEST SWAP2 POP DUP3 PUSH1 0x2 MUL DUP3 OR SWAP1 POP SWAP3 SWAP2 POP POP JUMP JUMPDEST PUSH3 0x4AE DUP3 PUSH3 0x233 JUMP JUMPDEST PUSH8 0xFFFFFFFFFFFFFFFF DUP2 GT ISZERO PUSH3 0x4CA JUMPI PUSH3 0x4C9 PUSH3 0x23E JUMP JUMPDEST JUMPDEST PUSH3 0x4D6 DUP3 SLOAD PUSH3 0x29C JUMP JUMPDEST PUSH3 0x4E3 DUP3 DUP3 DUP6 PUSH3 0x408 JUMP JUMPDEST PUSH1 0x0 PUSH1 0x20 SWAP1 POP PUSH1 0x1F DUP4 GT PUSH1 0x1 DUP2 EQ PUSH3 0x51B JUMPI PUSH1 0x0 DUP5 ISZERO PUSH3 0x506 JUMPI DUP3 DUP8 ADD MLOAD SWAP1 POP JUMPDEST PUSH3 0x512 DUP6 DUP3 PUSH3 0x485 JUMP JUMPDEST DUP7 SSTORE POP PUSH3 0x582 JUMP JUMPDEST PUSH1 0x1F NOT DUP5 AND PUSH3 0x52B DUP7 PUSH3 0x2D1 JUMP JUMPDEST PUSH1 0x0 JUMPDEST DUP3 DUP2 LT ISZERO PUSH3 0x555 JUMPI DUP5 DUP10 ADD MLOAD DUP3 SSTORE PUSH1 0x1 DUP3 ADD SWAP2 POP PUSH1 0x20 DUP6 ADD SWAP5 POP PUSH1 0x20 DUP2 ADD SWAP1 POP PUSH3 0x52E JUMP JUMPDEST DUP7 DUP4 LT ISZERO PUSH3 0x575 JUMPI DUP5 DUP10 ADD MLOAD PUSH3 0x571 PUSH1 0x1F DUP10 AND DUP3 PUSH3 0x465 JUMP JUMPDEST DUP4 SSTORE POP JUMPDEST PUSH1 0x1 PUSH1 0x2 DUP9 MUL ADD DUP9 SSTORE POP POP POP JUMPDEST POP POP POP POP POP POP JUMP JUMPDEST PUSH2 0xDD1 DUP1 PUSH3 0x59A PUSH1 0x0 CODECOPY PUSH1 0x0 RETURN INVALID PUSH1 0x80 PUSH1 0x40 MSTORE PUSH1 0x4 CALLDATASIZE LT PUSH2 0x9C JUMPI PUSH1 0x0 CALLDATALOAD PUSH1 0xE0 SHR DUP1 PUSH4 0x8FA8B790 GT PUSH2 0x64 JUMPI DUP1 PUSH4 0x8FA8B790 EQ PUSH2 0x18A JUMPI DUP1 PUSH4 0x91F90157 EQ PUSH2 0x1A1 JUMPI DUP1 PUSH4 0xC623674F EQ PUSH2 0x1CC JUMPI DUP1 PUSH4 0xD57BDE79 EQ PUSH2 0x1F7 JUMPI DUP1 PUSH4 0xECFC7ECC EQ PUSH2 0x222 JUMPI DUP1 PUSH4 0xFE67A54B EQ PUSH2 0x22C JUMPI PUSH2 0x9C JUMP JUMPDEST DUP1 PUSH4 0x83C6323 EQ PUSH2 0xA1 JUMPI DUP1 PUSH4 0x48CD4CB1 EQ PUSH2 0xCC JUMPI DUP1 PUSH4 0x62EA82DB EQ PUSH2 0xF7 JUMPI DUP1 PUSH4 0x7FB45099 EQ PUSH2 0x134 JUMPI DUP1 PUSH4 0x8DA5CB5B EQ PUSH2 0x15F JUMPI JUMPDEST PUSH1 0x0 DUP1 REVERT JUMPDEST CALLVALUE DUP1 ISZERO PUSH2 0xAD JUMPI PUSH1 0x0 DUP1 REVERT JUMPDEST POP PUSH2 0xB6 PUSH2 0x243 JUMP JUMPDEST PUSH1 0x40 MLOAD PUSH2 0xC3 SWAP2 SWAP1 PUSH2 0xA79 JUMP JUMPDEST PUSH1 0x40 MLOAD DUP1 SWAP2 SUB SWAP1 RETURN JUMPDEST CALLVALUE DUP1 ISZERO PUSH2 0xD8 JUMPI PUSH1 0x0 DUP1 REVERT JUMPDEST POP PUSH2 0xE1 PUSH2 0x249 JUMP JUMPDEST PUSH1 0x40 MLOAD PUSH2 0xEE SWAP2 SWAP1 PUSH2 0xA79 JUMP JUMPDEST PUSH1 0x40 MLOAD DUP1 SWAP2 SUB SWAP1 RETURN JUMPDEST CALLVALUE DUP1 ISZERO PUSH2 0x103 JUMPI PUSH1 0x0 DUP1 REVERT JUMPDEST POP PUSH2 0x11E PUSH1 0x4 DUP1 CALLDATASIZE SUB DUP2 ADD SWAP1 PUSH2 0x119 SWAP2 SWAP1 PUSH2 0xAF7 JUMP JUMPDEST PUSH2 0x24F JUMP JUMPDEST PUSH1 0x40 MLOAD PUSH2 0x12B SWAP2 SWAP1 PUSH2 0xA79 JUMP JUMPDEST PUSH1 0x40 MLOAD DUP1 SWAP2 SUB SWAP1 RETURN JUMPDEST CALLVALUE DUP1 ISZERO PUSH2 0x140 JUMPI PUSH1 0x0 DUP1 REVERT JUMPDEST POP PUSH2 0x149 PUSH2 0x267 JUMP JUMPDEST PUSH1 0x40 MLOAD PUSH2 0x156 SWAP2 SWAP1 PUSH2 0xB9B JUMP JUMPDEST PUSH1 0x40 MLOAD DUP1 SWAP2 SUB SWAP1 RETURN JUMPDEST CALLVALUE DUP1 ISZERO PUSH2 0x16B JUMPI PUSH1 0x0 DUP1 REVERT JUMPDEST POP PUSH2 0x174 PUSH2 0x27A JUMP JUMPDEST PUSH1 0x40 MLOAD PUSH2 0x181 SWAP2 SWAP1 PUSH2 0xBD7 JUMP JUMPDEST PUSH1 0x40 MLOAD DUP1 SWAP2 SUB SWAP1 RETURN JUMPDEST CALLVALUE DUP1 ISZERO PUSH2 0x196 JUMPI PUSH1 0x0 DUP1 REVERT JUMPDEST POP PUSH2 0x19F PUSH2 0x29E JUMP JUMPDEST STOP JUMPDEST CALLVALUE DUP1 ISZERO PUSH2 0x1AD JUMPI PUSH1 0x0 DUP1 REVERT JUMPDEST POP PUSH2 0x1B6 PUSH2 0x323 JUMP JUMPDEST PUSH1 0x40 MLOAD PUSH2 0x1C3 SWAP2 SWAP1 PUSH2 0xBD7 JUMP JUMPDEST PUSH1 0x40 MLOAD DUP1 SWAP2 SUB SWAP1 RETURN JUMPDEST CALLVALUE DUP1 ISZERO PUSH2 0x1D8 JUMPI PUSH1 0x0 DUP1 REVERT JUMPDEST POP PUSH2 0x1E1 PUSH2 0x349 JUMP JUMPDEST PUSH1 0x40 MLOAD PUSH2 0x1EE SWAP2 SWAP1 PUSH2 0xC82 JUMP JUMPDEST PUSH1 0x40 MLOAD DUP1 SWAP2 SUB SWAP1 RETURN JUMPDEST CALLVALUE DUP1 ISZERO PUSH2 0x203 JUMPI PUSH1 0x0 DUP1 REVERT JUMPDEST POP PUSH2 0x20C PUSH2 0x3D7 JUMP JUMPDEST PUSH1 0x40 MLOAD PUSH2 0x219 SWAP2 SWAP1 PUSH2 0xA79 JUMP JUMPDEST PUSH1 0x40 MLOAD DUP1 SWAP2 SUB SWAP1 RETURN JUMPDEST PUSH2 0x22A PUSH2 0x3DD JUMP JUMPDEST STOP JUMPDEST CALLVALUE DUP1 ISZERO PUSH2 0x238 JUMPI PUSH1 0x0 DUP1 REVERT JUMPDEST POP PUSH2 0x241 PUSH2 0x6AB JUMP JUMPDEST STOP JUMPDEST PUSH1 0x2 SLOAD DUP2 JUMP JUMPDEST PUSH1 0x1 SLOAD DUP2 JUMP JUMPDEST PUSH1 0x7 PUSH1 0x20 MSTORE DUP1 PUSH1 0x0 MSTORE PUSH1 0x40 PUSH1 0x0 KECCAK256 PUSH1 0x0 SWAP2 POP SWAP1 POP SLOAD DUP2 JUMP JUMPDEST PUSH1 0x4 PUSH1 0x0 SWAP1 SLOAD SWAP1 PUSH2 0x100 EXP SWAP1 DIV PUSH1 0xFF AND DUP2 JUMP JUMPDEST PUSH1 0x0 DUP1 SLOAD SWAP1 PUSH2 0x100 EXP SWAP1 DIV PUSH20 0xFFFFFFFFFFFFFFFFFFFFFFFFFFFFFFFFFFFFFFFF AND DUP2 JUMP JUMPDEST PUSH1 0x0 DUP1 SLOAD SWAP1 PUSH2 0x100 EXP SWAP1 DIV PUSH20 0xFFFFFFFFFFFFFFFFFFFFFFFFFFFFFFFFFFFFFFFF AND PUSH20 0xFFFFFFFFFFFFFFFFFFFFFFFFFFFFFFFFFFFFFFFF AND CALLER PUSH20 0xFFFFFFFFFFFFFFFFFFFFFFFFFFFFFFFFFFFFFFFF AND EQ PUSH2 0x2F6 JUMPI PUSH1 0x0 DUP1 REVERT JUMPDEST PUSH1 0x2 PUSH1 0x4 PUSH1 0x0 PUSH2 0x100 EXP DUP2 SLOAD DUP2 PUSH1 0xFF MUL NOT AND SWAP1 DUP4 PUSH1 0x2 DUP2 GT ISZERO PUSH2 0x31C JUMPI PUSH2 0x31B PUSH2 0xB24 JUMP JUMPDEST JUMPDEST MUL OR SWAP1 SSTORE POP JUMP JUMPDEST PUSH1 0x6 PUSH1 0x0 SWAP1 SLOAD SWAP1 PUSH2 0x100 EXP SWAP1 DIV PUSH20 0xFFFFFFFFFFFFFFFFFFFFFFFFFFFFFFFFFFFFFFFF AND DUP2 JUMP JUMPDEST PUSH1 0x3 DUP1 SLOAD PUSH2 0x356 SWAP1 PUSH2 0xCD3 JUMP JUMPDEST DUP1 PUSH1 0x1F ADD PUSH1 0x20 DUP1 SWAP2 DIV MUL PUSH1 0x20 ADD PUSH1 0x40 MLOAD SWAP1 DUP2 ADD PUSH1 0x40 MSTORE DUP1 SWAP3 SWAP2 SWAP1 DUP2 DUP2 MSTORE PUSH1 0x20 ADD DUP3 DUP1 SLOAD PUSH2 0x382 SWAP1 PUSH2 0xCD3 JUMP JUMPDEST DUP1 ISZERO PUSH2 0x3CF JUMPI DUP1 PUSH1 0x1F LT PUSH2 0x3A4 JUMPI PUSH2 0x100 DUP1 DUP4 SLOAD DIV MUL DUP4 MSTORE SWAP2 PUSH1 0x20 ADD SWAP2 PUSH2 0x3CF JUMP JUMPDEST DUP3 ADD SWAP2 SWAP1 PUSH1 0x0 MSTORE PUSH1 0x20 PUSH1 0x0 KECCAK256 SWAP1 JUMPDEST DUP2 SLOAD DUP2 MSTORE SWAP1 PUSH1 0x1 ADD SWAP1 PUSH1 0x20 ADD DUP1 DUP4 GT PUSH2 0x3B2 JUMPI DUP3 SWAP1 SUB PUSH1 0x1F AND DUP3 ADD SWAP2 JUMPDEST POP POP POP POP POP DUP2 JUMP JUMPDEST PUSH1 0x5 SLOAD DUP2 JUMP JUMPDEST PUSH1 0x0 DUP1 SLOAD SWAP1 PUSH2 0x100 EXP SWAP1 DIV PUSH20 0xFFFFFFFFFFFFFFFFFFFFFFFFFFFFFFFFFFFFFFFF AND PUSH20 0xFFFFFFFFFFFFFFFFFFFFFFFFFFFFFFFFFFFFFFFF AND CALLER PUSH20 0xFFFFFFFFFFFFFFFFFFFFFFFFFFFFFFFFFFFFFFFF AND SUB PUSH2 0x435 JUMPI PUSH1 0x0 DUP1 REVERT JUMPDEST PUSH1 0x1 SLOAD NUMBER LT ISZERO PUSH2 0x444 JUMPI PUSH1 0x0 DUP1 REVERT JUMPDEST PUSH1 0x2 SLOAD NUMBER GT ISZERO PUSH2 0x453 JUMPI PUSH1 0x0 DUP1 REVERT JUMPDEST PUSH1 0x0 PUSH1 0x2 DUP2 GT ISZERO PUSH2 0x467 JUMPI PUSH2 0x466 PUSH2 0xB24 JUMP JUMPDEST JUMPDEST PUSH1 0x4 PUSH1 0x0 SWAP1 SLOAD SWAP1 PUSH2 0x100 EXP SWAP1 DIV PUSH1 0xFF AND PUSH1 0x2 DUP2 GT ISZERO PUSH2 0x489 JUMPI PUSH2 0x488 PUSH2 0xB24 JUMP JUMPDEST JUMPDEST EQ DUP1 ISZERO PUSH2 0x497 JUMPI POP PUSH1 0x64 CALLVALUE LT ISZERO JUMPDEST PUSH2 0x4A0 JUMPI PUSH1 0x0 DUP1 REVERT JUMPDEST PUSH1 0x0 CALLVALUE PUSH1 0x7 PUSH1 0x0 CALLER PUSH20 0xFFFFFFFFFFFFFFFFFFFFFFFFFFFFFFFFFFFFFFFF AND PUSH20 0xFFFFFFFFFFFFFFFFFFFFFFFFFFFFFFFFFFFFFFFF AND DUP2 MSTORE PUSH1 0x20 ADD SWAP1 DUP2 MSTORE PUSH1 0x20 ADD PUSH1 0x0 KECCAK256 SLOAD PUSH2 0x4ED SWAP2 SWAP1 PUSH2 0xD33 JUMP JUMPDEST SWAP1 POP PUSH1 0x5 SLOAD DUP2 GT PUSH2 0x4FD JUMPI PUSH1 0x0 DUP1 REVERT JUMPDEST PUSH1 0x7 PUSH1 0x0 PUSH1 0x6 PUSH1 0x0 SWAP1 SLOAD SWAP1 PUSH2 0x100 EXP SWAP1 DIV PUSH20 0xFFFFFFFFFFFFFFFFFFFFFFFFFFFFFFFFFFFFFFFF AND PUSH20 0xFFFFFFFFFFFFFFFFFFFFFFFFFFFFFFFFFFFFFFFF AND PUSH20 0xFFFFFFFFFFFFFFFFFFFFFFFFFFFFFFFFFFFFFFFF AND DUP2 MSTORE PUSH1 0x20 ADD SWAP1 DUP2 MSTORE PUSH1 0x20 ADD PUSH1 0x0 KECCAK256 SLOAD DUP2 GT PUSH2 0x5E8 JUMPI PUSH2 0x5DD PUSH1 0x8 SLOAD DUP3 PUSH2 0x576 SWAP2 SWAP1 PUSH2 0xD33 JUMP JUMPDEST PUSH1 0x7 PUSH1 0x0 PUSH1 0x6 PUSH1 0x0 SWAP1 SLOAD SWAP1 PUSH2 0x100 EXP SWAP1 DIV PUSH20 0xFFFFFFFFFFFFFFFFFFFFFFFFFFFFFFFFFFFFFFFF AND PUSH20 0xFFFFFFFFFFFFFFFFFFFFFFFFFFFFFFFFFFFFFFFF AND PUSH20 0xFFFFFFFFFFFFFFFFFFFFFFFFFFFFFFFFFFFFFFFF AND DUP2 MSTORE PUSH1 0x20 ADD SWAP1 DUP2 MSTORE PUSH1 0x20 ADD PUSH1 0x0 KECCAK256 SLOAD PUSH2 0xA45 JUMP JUMPDEST PUSH1 0x5 DUP2 SWAP1 SSTORE POP PUSH2 0x6A8 JUMP JUMPDEST PUSH2 0x660 DUP2 PUSH1 0x8 SLOAD PUSH1 0x7 PUSH1 0x0 PUSH1 0x6 PUSH1 0x0 SWAP1 SLOAD SWAP1 PUSH2 0x100 EXP SWAP1 DIV PUSH20 0xFFFFFFFFFFFFFFFFFFFFFFFFFFFFFFFFFFFFFFFF AND PUSH20 0xFFFFFFFFFFFFFFFFFFFFFFFFFFFFFFFFFFFFFFFF AND PUSH20 0xFFFFFFFFFFFFFFFFFFFFFFFFFFFFFFFFFFFFFFFF AND DUP2 MSTORE PUSH1 0x20 ADD SWAP1 DUP2 MSTORE PUSH1 0x20 ADD PUSH1 0x0 KECCAK256 SLOAD PUSH2 0x65B SWAP2 SWAP1 PUSH2 0xD33 JUMP JUMPDEST PUSH2 0xA45 JUMP JUMPDEST PUSH1 0x5 DUP2 SWAP1 SSTORE POP CALLER PUSH1 0x6 PUSH1 0x0 PUSH2 0x100 EXP DUP2 SLOAD DUP2 PUSH20 0xFFFFFFFFFFFFFFFFFFFFFFFFFFFFFFFFFFFFFFFF MUL NOT AND SWAP1 DUP4 PUSH20 0xFFFFFFFFFFFFFFFFFFFFFFFFFFFFFFFFFFFFFFFF AND MUL OR SWAP1 SSTORE POP JUMPDEST POP JUMP JUMPDEST PUSH1 0x2 DUP1 DUP2 GT ISZERO PUSH2 0x6BE JUMPI PUSH2 0x6BD PUSH2 0xB24 JUMP JUMPDEST JUMPDEST PUSH1 0x4 PUSH1 0x0 SWAP1 SLOAD SWAP1 PUSH2 0x100 EXP SWAP1 DIV PUSH1 0xFF AND PUSH1 0x2 DUP2 GT ISZERO PUSH2 0x6E0 JUMPI PUSH2 0x6DF PUSH2 0xB24 JUMP JUMPDEST JUMPDEST EQ DUP1 PUSH2 0x6ED JUMPI POP PUSH1 0x2 SLOAD NUMBER GT JUMPDEST PUSH2 0x6F6 JUMPI PUSH1 0x0 DUP1 REVERT JUMPDEST PUSH1 0x0 DUP1 SLOAD SWAP1 PUSH2 0x100 EXP SWAP1 DIV PUSH20 0xFFFFFFFFFFFFFFFFFFFFFFFFFFFFFFFFFFFFFFFF AND PUSH20 0xFFFFFFFFFFFFFFFFFFFFFFFFFFFFFFFFFFFFFFFF AND CALLER PUSH20 0xFFFFFFFFFFFFFFFFFFFFFFFFFFFFFFFFFFFFFFFF AND EQ DUP1 PUSH2 0x78F JUMPI POP PUSH1 0x0 PUSH1 0x7 PUSH1 0x0 CALLER PUSH20 0xFFFFFFFFFFFFFFFFFFFFFFFFFFFFFFFFFFFFFFFF AND PUSH20 0xFFFFFFFFFFFFFFFFFFFFFFFFFFFFFFFFFFFFFFFF AND DUP2 MSTORE PUSH1 0x20 ADD SWAP1 DUP2 MSTORE PUSH1 0x20 ADD PUSH1 0x0 KECCAK256 SLOAD GT JUMPDEST PUSH2 0x798 JUMPI PUSH1 0x0 DUP1 REVERT JUMPDEST PUSH1 0x0 DUP1 PUSH1 0x2 DUP1 DUP2 GT ISZERO PUSH2 0x7AE JUMPI PUSH2 0x7AD PUSH2 0xB24 JUMP JUMPDEST JUMPDEST PUSH1 0x4 PUSH1 0x0 SWAP1 SLOAD SWAP1 PUSH2 0x100 EXP SWAP1 DIV PUSH1 0xFF AND PUSH1 0x2 DUP2 GT ISZERO PUSH2 0x7D0 JUMPI PUSH2 0x7CF PUSH2 0xB24 JUMP JUMPDEST JUMPDEST SUB PUSH2 0x81F JUMPI CALLER SWAP2 POP PUSH1 0x7 PUSH1 0x0 CALLER PUSH20 0xFFFFFFFFFFFFFFFFFFFFFFFFFFFFFFFFFFFFFFFF AND PUSH20 0xFFFFFFFFFFFFFFFFFFFFFFFFFFFFFFFFFFFFFFFF AND DUP2 MSTORE PUSH1 0x20 ADD SWAP1 DUP2 MSTORE PUSH1 0x20 ADD PUSH1 0x0 KECCAK256 SLOAD SWAP1 POP PUSH2 0x9B5 JUMP JUMPDEST PUSH1 0x0 DUP1 SLOAD SWAP1 PUSH2 0x100 EXP SWAP1 DIV PUSH20 0xFFFFFFFFFFFFFFFFFFFFFFFFFFFFFFFFFFFFFFFF AND PUSH20 0xFFFFFFFFFFFFFFFFFFFFFFFFFFFFFFFFFFFFFFFF AND CALLER PUSH20 0xFFFFFFFFFFFFFFFFFFFFFFFFFFFFFFFFFFFFFFFF AND SUB PUSH2 0x89F JUMPI PUSH1 0x0 DUP1 SLOAD SWAP1 PUSH2 0x100 EXP SWAP1 DIV PUSH20 0xFFFFFFFFFFFFFFFFFFFFFFFFFFFFFFFFFFFFFFFF AND SWAP2 POP PUSH1 0x5 SLOAD SWAP1 POP PUSH2 0x9B4 JUMP JUMPDEST PUSH1 0x6 PUSH1 0x0 SWAP1 SLOAD SWAP1 PUSH2 0x100 EXP SWAP1 DIV PUSH20 0xFFFFFFFFFFFFFFFFFFFFFFFFFFFFFFFFFFFFFFFF AND PUSH20 0xFFFFFFFFFFFFFFFFFFFFFFFFFFFFFFFFFFFFFFFF AND CALLER PUSH20 0xFFFFFFFFFFFFFFFFFFFFFFFFFFFFFFFFFFFFFFFF AND SUB PUSH2 0x96D JUMPI PUSH1 0x6 PUSH1 0x0 SWAP1 SLOAD SWAP1 PUSH2 0x100 EXP SWAP1 DIV PUSH20 0xFFFFFFFFFFFFFFFFFFFFFFFFFFFFFFFFFFFFFFFF AND SWAP2 POP PUSH1 0x5 SLOAD PUSH1 0x7 PUSH1 0x0 CALLER PUSH20 0xFFFFFFFFFFFFFFFFFFFFFFFFFFFFFFFFFFFFFFFF AND PUSH20 0xFFFFFFFFFFFFFFFFFFFFFFFFFFFFFFFFFFFFFFFF AND DUP2 MSTORE PUSH1 0x20 ADD SWAP1 DUP2 MSTORE PUSH1 0x20 ADD PUSH1 0x0 KECCAK256 SLOAD PUSH2 0x966 SWAP2 SWAP1 PUSH2 0xD67 JUMP JUMPDEST SWAP1 POP PUSH2 0x9B3 JUMP JUMPDEST CALLER SWAP2 POP PUSH1 0x7 PUSH1 0x0 CALLER PUSH20 0xFFFFFFFFFFFFFFFFFFFFFFFFFFFFFFFFFFFFFFFF AND PUSH20 0xFFFFFFFFFFFFFFFFFFFFFFFFFFFFFFFFFFFFFFFF AND DUP2 MSTORE PUSH1 0x20 ADD SWAP1 DUP2 MSTORE PUSH1 0x20 ADD PUSH1 0x0 KECCAK256 SLOAD SWAP1 POP JUMPDEST JUMPDEST JUMPDEST PUSH1 0x0 PUSH1 0x7 PUSH1 0x0 DUP5 PUSH20 0xFFFFFFFFFFFFFFFFFFFFFFFFFFFFFFFFFFFFFFFF AND PUSH20 0xFFFFFFFFFFFFFFFFFFFFFFFFFFFFFFFFFFFFFFFF AND DUP2 MSTORE PUSH1 0x20 ADD SWAP1 DUP2 MSTORE PUSH1 0x20 ADD PUSH1 0x0 KECCAK256 DUP2 SWAP1 SSTORE POP DUP2 PUSH20 0xFFFFFFFFFFFFFFFFFFFFFFFFFFFFFFFFFFFFFFFF AND PUSH2 0x8FC DUP3 SWAP1 DUP2 ISZERO MUL SWAP1 PUSH1 0x40 MLOAD PUSH1 0x0 PUSH1 0x40 MLOAD DUP1 DUP4 SUB DUP2 DUP6 DUP9 DUP9 CALL SWAP4 POP POP POP POP ISZERO DUP1 ISZERO PUSH2 0xA40 JUMPI RETURNDATASIZE PUSH1 0x0 DUP1 RETURNDATACOPY RETURNDATASIZE PUSH1 0x0 REVERT JUMPDEST POP POP POP JUMP JUMPDEST PUSH1 0x0 DUP2 DUP4 GT PUSH2 0xA56 JUMPI DUP3 SWAP1 POP PUSH2 0xA5A JUMP JUMPDEST DUP2 SWAP1 POP JUMPDEST SWAP3 SWAP2 POP POP JUMP JUMPDEST PUSH1 0x0 DUP2 SWAP1 POP SWAP2 SWAP1 POP JUMP JUMPDEST PUSH2 0xA73 DUP2 PUSH2 0xA60 JUMP JUMPDEST DUP3 MSTORE POP POP JUMP JUMPDEST PUSH1 0x0 PUSH1 0x20 DUP3 ADD SWAP1 POP PUSH2 0xA8E PUSH1 0x0 DUP4 ADD DUP5 PUSH2 0xA6A JUMP JUMPDEST SWAP3 SWAP2 POP POP JUMP JUMPDEST PUSH1 0x0 DUP1 REVERT JUMPDEST PUSH1 0x0 PUSH20 0xFFFFFFFFFFFFFFFFFFFFFFFFFFFFFFFFFFFFFFFF DUP3 AND SWAP1 POP SWAP2 SWAP1 POP JUMP JUMPDEST PUSH1 0x0 PUSH2 0xAC4 DUP3 PUSH2 0xA99 JUMP JUMPDEST SWAP1 POP SWAP2 SWAP1 POP JUMP JUMPDEST PUSH2 0xAD4 DUP2 PUSH2 0xAB9 JUMP JUMPDEST DUP2 EQ PUSH2 0xADF JUMPI PUSH1 0x0 DUP1 REVERT JUMPDEST POP JUMP JUMPDEST PUSH1 0x0 DUP2 CALLDATALOAD SWAP1 POP PUSH2 0xAF1 DUP2 PUSH2 0xACB JUMP JUMPDEST SWAP3 SWAP2 POP POP JUMP JUMPDEST PUSH1 0x0 PUSH1 0x20 DUP3 DUP5 SUB SLT ISZERO PUSH2 0xB0D JUMPI PUSH2 0xB0C PUSH2 0xA94 JUMP JUMPDEST JUMPDEST PUSH1 0x0 PUSH2 0xB1B DUP5 DUP3 DUP6 ADD PUSH2 0xAE2 JUMP JUMPDEST SWAP2 POP POP SWAP3 SWAP2 POP POP JUMP JUMPDEST PUSH32 0x4E487B7100000000000000000000000000000000000000000000000000000000 PUSH1 0x0 MSTORE PUSH1 0x21 PUSH1 0x4 MSTORE PUSH1 0x24 PUSH1 0x0 REVERT JUMPDEST PUSH1 0x3 DUP2 LT PUSH2 0xB64 JUMPI PUSH2 0xB63 PUSH2 0xB24 JUMP JUMPDEST JUMPDEST POP JUMP JUMPDEST PUSH1 0x0 DUP2 SWAP1 POP PUSH2 0xB75 DUP3 PUSH2 0xB53 JUMP JUMPDEST SWAP2 SWAP1 POP JUMP JUMPDEST PUSH1 0x0 PUSH2 0xB85 DUP3 PUSH2 0xB67 JUMP JUMPDEST SWAP1 POP SWAP2 SWAP1 POP JUMP JUMPDEST PUSH2 0xB95 DUP2 PUSH2 0xB7A JUMP JUMPDEST DUP3 MSTORE POP POP JUMP JUMPDEST PUSH1 0x0 PUSH1 0x20 DUP3 ADD SWAP1 POP PUSH2 0xBB0 PUSH1 0x0 DUP4 ADD DUP5 PUSH2 0xB8C JUMP JUMPDEST SWAP3 SWAP2 POP POP JUMP JUMPDEST PUSH1 0x0 PUSH2 0xBC1 DUP3 PUSH2 0xA99 JUMP JUMPDEST SWAP1 POP SWAP2 SWAP1 POP JUMP JUMPDEST PUSH2 0xBD1 DUP2 PUSH2 0xBB6 JUMP JUMPDEST DUP3 MSTORE POP POP JUMP JUMPDEST PUSH1 0x0 PUSH1 0x20 DUP3 ADD SWAP1 POP PUSH2 0xBEC PUSH1 0x0 DUP4 ADD DUP5 PUSH2 0xBC8 JUMP JUMPDEST SWAP3 SWAP2 POP POP JUMP JUMPDEST PUSH1 0x0 DUP2 MLOAD SWAP1 POP SWAP2 SWAP1 POP JUMP JUMPDEST PUSH1 0x0 DUP3 DUP3 MSTORE PUSH1 0x20 DUP3 ADD SWAP1 POP SWAP3 SWAP2 POP POP JUMP JUMPDEST PUSH1 0x0 JUMPDEST DUP4 DUP2 LT ISZERO PUSH2 0xC2C JUMPI DUP1 DUP3 ADD MLOAD DUP2 DUP5 ADD MSTORE PUSH1 0x20 DUP2 ADD SWAP1 POP PUSH2 0xC11 JUMP JUMPDEST PUSH1 0x0 DUP5 DUP5 ADD MSTORE POP POP POP POP JUMP JUMPDEST PUSH1 0x0 PUSH1 0x1F NOT PUSH1 0x1F DUP4 ADD AND SWAP1 POP SWAP2 SWAP1 POP JUMP JUMPDEST PUSH1 0x0 PUSH2 0xC54 DUP3 PUSH2 0xBF2 JUMP JUMPDEST PUSH2 0xC5E DUP2 DUP6 PUSH2 0xBFD JUMP JUMPDEST SWAP4 POP PUSH2 0xC6E DUP2 DUP6 PUSH1 0x20 DUP7 ADD PUSH2 0xC0E JUMP JUMPDEST PUSH2 0xC77 DUP2 PUSH2 0xC38 JUMP JUMPDEST DUP5 ADD SWAP2 POP POP SWAP3 SWAP2 POP POP JUMP JUMPDEST PUSH1 0x0 PUSH1 0x20 DUP3 ADD SWAP1 POP DUP2 DUP2 SUB PUSH1 0x0 DUP4 ADD MSTORE PUSH2 0xC9C DUP2 DUP5 PUSH2 0xC49 JUMP JUMPDEST SWAP1 POP SWAP3 SWAP2 POP POP JUMP JUMPDEST PUSH32 0x4E487B7100000000000000000000000000000000000000000000000000000000 PUSH1 0x0 MSTORE PUSH1 0x22 PUSH1 0x4 MSTORE PUSH1 0x24 PUSH1 0x0 REVERT JUMPDEST PUSH1 0x0 PUSH1 0x2 DUP3 DIV SWAP1 POP PUSH1 0x1 DUP3 AND DUP1 PUSH2 0xCEB JUMPI PUSH1 0x7F DUP3 AND SWAP2 POP JUMPDEST PUSH1 0x20 DUP3 LT DUP2 SUB PUSH2 0xCFE JUMPI PUSH2 0xCFD PUSH2 0xCA4 JUMP JUMPDEST JUMPDEST POP SWAP2 SWAP1 POP JUMP JUMPDEST PUSH32 0x4E487B7100000000000000000000000000000000000000000000000000000000 PUSH1 0x0 MSTORE PUSH1 0x11 PUSH1 0x4 MSTORE PUSH1 0x24 PUSH1 0x0 REVERT JUMPDEST PUSH1 0x0 PUSH2 0xD3E DUP3 PUSH2 0xA60 JUMP JUMPDEST SWAP2 POP PUSH2 0xD49 DUP4 PUSH2 0xA60 JUMP JUMPDEST SWAP3 POP DUP3 DUP3 ADD SWAP1 POP DUP1 DUP3 GT ISZERO PUSH2 0xD61 JUMPI PUSH2 0xD60 PUSH2 0xD04 JUMP JUMPDEST JUMPDEST SWAP3 SWAP2 POP POP JUMP JUMPDEST PUSH1 0x0 PUSH2 0xD72 DUP3 PUSH2 0xA60 JUMP JUMPDEST SWAP2 POP PUSH2 0xD7D DUP4 PUSH2 0xA60 JUMP JUMPDEST SWAP3 POP DUP3 DUP3 SUB SWAP1 POP DUP2 DUP2 GT ISZERO PUSH2 0xD95 JUMPI PUSH2 0xD94 PUSH2 0xD04 JUMP JUMPDEST JUMPDEST SWAP3 SWAP2 POP POP JUMP INVALID LOG2 PUSH5 0x6970667358 0x22 SLT KECCAK256 0xD5 ADDMOD 0xEB XOR SWAP11 CALLDATASIZE 0xE0 MLOAD 0xFB PUSH12 0x4B431419B8CC5F6A3419F6F1 BLOCKHASH GAS 0xC1 0xD6 0xEF 0xE5 PUSH8 0xD3F3AD64736F6C63 NUMBER STOP ADDMOD GT STOP CALLER "
				},
				"gasEstimates": {
					"creation": {
						"codeDepositCost": "707400",
						"executionCost": "infinite",
						"totalCost": "infinite"
					},
					"external": {
						"auctionState()": "2627",
						"bids(address)": "2859",
						"cancelAuction()": "26598",
						"endAuction()": "infinite",
						"endBlock()": "2430",
						"highestBid()": "2495",
						"highestBidder()": "2536",
						"ipfsHash()": "infinite",
						"owner()": "2600",
						"placeBid()": "infinite",
						"startBlock()": "2452"
					},
					"internal": {
						"min(uint256,uint256)": "64"
					}
				},
				"methodIdentifiers": {
					"auctionState()": "7fb45099",
					"bids(address)": "62ea82db",
					"cancelAuction()": "8fa8b790",
					"endAuction()": "fe67a54b",
					"endBlock()": "083c6323",
					"highestBid()": "d57bde79",
					"highestBidder()": "91f90157",
					"ipfsHash()": "c623674f",
					"owner()": "8da5cb5b",
					"placeBid()": "ecfc7ecc",
					"startBlock()": "48cd4cb1"
				}
			},
			"storageLayout": {
				"storage": [
					{
						"astId": 3,
						"contract": "contracts/Auction.sol:Auction",
						"label": "owner",
						"offset": 0,
						"slot": "0",
						"type": "t_address_payable"
					},
					{
						"astId": 5,
						"contract": "contracts/Auction.sol:Auction",
						"label": "startBlock",
						"offset": 0,
						"slot": "1",
						"type": "t_uint256"
					},
					{
						"astId": 7,
						"contract": "contracts/Auction.sol:Auction",
						"label": "endBlock",
						"offset": 0,
						"slot": "2",
						"type": "t_uint256"
					},
					{
						"astId": 9,
						"contract": "contracts/Auction.sol:Auction",
						"label": "ipfsHash",
						"offset": 0,
						"slot": "3",
						"type": "t_string_storage"
					},
					{
						"astId": 16,
						"contract": "contracts/Auction.sol:Auction",
						"label": "auctionState",
						"offset": 0,
						"slot": "4",
						"type": "t_enum(State)13"
					},
					{
						"astId": 18,
						"contract": "contracts/Auction.sol:Auction",
						"label": "highestBid",
						"offset": 0,
						"slot": "5",
						"type": "t_uint256"
					},
					{
						"astId": 20,
						"contract": "contracts/Auction.sol:Auction",
						"label": "highestBidder",
						"offset": 0,
						"slot": "6",
						"type": "t_address_payable"
					},
					{
						"astId": 24,
						"contract": "contracts/Auction.sol:Auction",
						"label": "bids",
						"offset": 0,
						"slot": "7",
						"type": "t_mapping(t_address,t_uint256)"
					},
					{
						"astId": 26,
						"contract": "contracts/Auction.sol:Auction",
						"label": "bidIncrement",
						"offset": 0,
						"slot": "8",
						"type": "t_uint256"
					}
				],
				"types": {
					"t_address": {
						"encoding": "inplace",
						"label": "address",
						"numberOfBytes": "20"
					},
					"t_address_payable": {
						"encoding": "inplace",
						"label": "address payable",
						"numberOfBytes": "20"
					},
					"t_enum(State)13": {
						"encoding": "inplace",
						"label": "enum Auction.State",
						"numberOfBytes": "1"
					},
					"t_mapping(t_address,t_uint256)": {
						"encoding": "mapping",
						"key": "t_address",
						"label": "mapping(address => uint256)",
						"numberOfBytes": "32",
						"value": "t_uint256"
					},
					"t_string_storage": {
						"encoding": "bytes",
						"label": "string",
						"numberOfBytes": "32"
					},
					"t_uint256": {
						"encoding": "inplace",
						"label": "uint256",
						"numberOfBytes": "32"
					}
				}
			},
			"userdoc": {
				"kind": "user",
				"methods": {},
				"version": 1
			}
		}
	}
}