{
	"contracts/CrowdFunding.sol": {
		"CrowdFunding": {
			"abi": [
				{
					"inputs": [
						{
							"internalType": "uint256",
							"name": "_goal",
							"type": "uint256"
						},
						{
							"internalType": "uint256",
							"name": "_deadline",
							"type": "uint256"
						}
					],
					"stateMutability": "nonpayable",
					"type": "constructor"
				},
				{
					"anonymous": false,
					"inputs": [
						{
							"indexed": false,
							"internalType": "address",
							"name": "_sender",
							"type": "address"
						},
						{
							"indexed": false,
							"internalType": "uint256",
							"name": "_value",
							"type": "uint256"
						}
					],
					"name": "ContributeEvent",
					"type": "event"
				},
				{
					"anonymous": false,
					"inputs": [
						{
							"indexed": false,
							"internalType": "string",
							"name": "_description",
							"type": "string"
						},
						{
							"indexed": false,
							"internalType": "address",
							"name": "_target",
							"type": "address"
						},
						{
							"indexed": false,
							"internalType": "uint256",
							"name": "_value",
							"type": "uint256"
						}
					],
					"name": "CreateRequestEvent",
					"type": "event"
				},
				{
					"anonymous": false,
					"inputs": [
						{
							"indexed": false,
							"internalType": "address",
							"name": "_target",
							"type": "address"
						},
						{
							"indexed": false,
							"internalType": "uint256",
							"name": "_value",
							"type": "uint256"
						}
					],
					"name": "MakePaymentEvent",
					"type": "event"
				},
				{
					"inputs": [
						{
							"internalType": "uint256",
							"name": "_requestNum",
							"type": "uint256"
						}
					],
					"name": "acceptRequest",
					"outputs": [],
					"stateMutability": "nonpayable",
					"type": "function"
				},
				{
					"inputs": [],
					"name": "contribute",
					"outputs": [],
					"stateMutability": "payable",
					"type": "function"
				},
				{
					"inputs": [
						{
							"internalType": "address",
							"name": "",
							"type": "address"
						}
					],
					"name": "contributors",
					"outputs": [
						{
							"internalType": "uint256",
							"name": "",
							"type": "uint256"
						}
					],
					"stateMutability": "view",
					"type": "function"
				},
				{
					"inputs": [],
					"name": "deadline",
					"outputs": [
						{
							"internalType": "uint256",
							"name": "",
							"type": "uint256"
						}
					],
					"stateMutability": "view",
					"type": "function"
				},
				{
					"inputs": [
						{
							"internalType": "uint256",
							"name": "_requestNum",
							"type": "uint256"
						}
					],
					"name": "fulfillRequest",
					"outputs": [],
					"stateMutability": "nonpayable",
					"type": "function"
				},
				{
					"inputs": [],
					"name": "getBalance",
					"outputs": [
						{
							"internalType": "uint256",
							"name": "",
							"type": "uint256"
						}
					],
					"stateMutability": "view",
					"type": "function"
				},
				{
					"inputs": [],
					"name": "getRefund",
					"outputs": [],
					"stateMutability": "nonpayable",
					"type": "function"
				},
				{
					"inputs": [],
					"name": "goal",
					"outputs": [
						{
							"internalType": "uint256",
							"name": "",
							"type": "uint256"
						}
					],
					"stateMutability": "view",
					"type": "function"
				},
				{
					"inputs": [],
					"name": "minContr",
					"outputs": [
						{
							"internalType": "uint256",
							"name": "",
							"type": "uint256"
						}
					],
					"stateMutability": "view",
					"type": "function"
				},
				{
					"inputs": [],
					"name": "numRequest",
					"outputs": [
						{
							"internalType": "uint256",
							"name": "",
							"type": "uint256"
						}
					],
					"stateMutability": "view",
					"type": "function"
				},
				{
					"inputs": [],
					"name": "numberContr",
					"outputs": [
						{
							"internalType": "uint256",
							"name": "",
							"type": "uint256"
						}
					],
					"stateMutability": "view",
					"type": "function"
				},
				{
					"inputs": [],
					"name": "owner",
					"outputs": [
						{
							"internalType": "address",
							"name": "",
							"type": "address"
						}
					],
					"stateMutability": "view",
					"type": "function"
				},
				{
					"inputs": [],
					"name": "raised",
					"outputs": [
						{
							"internalType": "uint256",
							"name": "",
							"type": "uint256"
						}
					],
					"stateMutability": "view",
					"type": "function"
				},
				{
					"inputs": [
						{
							"internalType": "uint256",
							"name": "",
							"type": "uint256"
						}
					],
					"name": "requests",
					"outputs": [
						{
							"internalType": "string",
							"name": "description",
							"type": "string"
						},
						{
							"internalType": "address payable",
							"name": "target",
							"type": "address"
						},
						{
							"internalType": "uint256",
							"name": "value",
							"type": "uint256"
						},
						{
							"internalType": "bool",
							"name": "completed",
							"type": "bool"
						},
						{
							"internalType": "uint256",
							"name": "numberOfVotes",
							"type": "uint256"
						}
					],
					"stateMutability": "view",
					"type": "function"
				},
				{
					"inputs": [
						{
							"internalType": "string",
							"name": "_description",
							"type": "string"
						},
						{
							"internalType": "address payable",
							"name": "_target",
							"type": "address"
						},
						{
							"internalType": "uint256",
							"name": "_value",
							"type": "uint256"
						}
					],
					"name": "spendingRequest",
					"outputs": [],
					"stateMutability": "nonpayable",
					"type": "function"
				},
				{
					"stateMutability": "payable",
					"type": "receive"
				}
			],
			"devdoc": {
				"kind": "dev",
				"methods": {},
				"version": 1
			},
			"evm": {
				"assembly": "    /* \"contracts/CrowdFunding.sol\":314:4507  contract CrowdFunding{... */\n  mstore(0x40, 0x80)\n    /* \"contracts/CrowdFunding.sol\":1005:1182  constructor(uint _goal, uint _deadline){... */\n  callvalue\n  dup1\n  iszero\n  tag_1\n  jumpi\n  0x00\n  dup1\n  revert\ntag_1:\n  pop\n  mload(0x40)\n  sub(codesize, bytecodeSize)\n  dup1\n  bytecodeSize\n  dup4\n  codecopy\n  dup2\n  dup2\n  add\n  0x40\n  mstore\n  dup2\n  add\n  swap1\n  tag_2\n  swap2\n  swap1\n  tag_3\n  jump\t// in\ntag_2:\n    /* \"contracts/CrowdFunding.sol\":1063:1073  msg.sender */\n  caller\n    /* \"contracts/CrowdFunding.sol\":1055:1060  owner */\n  0x01\n  0x00\n    /* \"contracts/CrowdFunding.sol\":1055:1073  owner = msg.sender */\n  0x0100\n  exp\n  dup2\n  sload\n  dup2\n  0xffffffffffffffffffffffffffffffffffffffff\n  mul\n  not\n  and\n  swap1\n  dup4\n  0xffffffffffffffffffffffffffffffffffffffff\n  and\n  mul\n  or\n  swap1\n  sstore\n  pop\n    /* \"contracts/CrowdFunding.sol\":1091:1096  _goal */\n  dup2\n    /* \"contracts/CrowdFunding.sol\":1084:1088  goal */\n  0x03\n    /* \"contracts/CrowdFunding.sol\":1084:1096  goal = _goal */\n  dup2\n  swap1\n  sstore\n  pop\n    /* \"contracts/CrowdFunding.sol\":1136:1145  _deadline */\n  dup1\n    /* \"contracts/CrowdFunding.sol\":1118:1133  block.timestamp */\n  timestamp\n    /* \"contracts/CrowdFunding.sol\":1118:1145  block.timestamp + _deadline */\n  tag_6\n  swap2\n  swap1\n  tag_7\n  jump\t// in\ntag_6:\n    /* \"contracts/CrowdFunding.sol\":1107:1115  deadline */\n  0x05\n    /* \"contracts/CrowdFunding.sol\":1107:1145  deadline = block.timestamp + _deadline */\n  dup2\n  swap1\n  sstore\n  pop\n    /* \"contracts/CrowdFunding.sol\":1167:1174  100 wei */\n  0x64\n    /* \"contracts/CrowdFunding.sol\":1156:1164  minContr */\n  0x04\n    /* \"contracts/CrowdFunding.sol\":1156:1174  minContr = 100 wei */\n  dup2\n  swap1\n  sstore\n  pop\n    /* \"contracts/CrowdFunding.sol\":1005:1182  constructor(uint _goal, uint _deadline){... */\n  pop\n  pop\n    /* \"contracts/CrowdFunding.sol\":314:4507  contract CrowdFunding{... */\n  jump(tag_8)\n    /* \"#utility.yul\":88:205   */\ntag_10:\n    /* \"#utility.yul\":197:198   */\n  0x00\n    /* \"#utility.yul\":194:195   */\n  dup1\n    /* \"#utility.yul\":187:199   */\n  revert\n    /* \"#utility.yul\":334:411   */\ntag_12:\n    /* \"#utility.yul\":371:378   */\n  0x00\n    /* \"#utility.yul\":400:405   */\n  dup2\n    /* \"#utility.yul\":389:405   */\n  swap1\n  pop\n    /* \"#utility.yul\":334:411   */\n  swap2\n  swap1\n  pop\n  jump\t// out\n    /* \"#utility.yul\":417:539   */\ntag_13:\n    /* \"#utility.yul\":490:514   */\n  tag_22\n    /* \"#utility.yul\":508:513   */\n  dup2\n    /* \"#utility.yul\":490:514   */\n  tag_12\n  jump\t// in\ntag_22:\n    /* \"#utility.yul\":483:488   */\n  dup2\n    /* \"#utility.yul\":480:515   */\n  eq\n    /* \"#utility.yul\":470:533   */\n  tag_23\n  jumpi\n    /* \"#utility.yul\":529:530   */\n  0x00\n    /* \"#utility.yul\":526:527   */\n  dup1\n    /* \"#utility.yul\":519:531   */\n  revert\n    /* \"#utility.yul\":470:533   */\ntag_23:\n    /* \"#utility.yul\":417:539   */\n  pop\n  jump\t// out\n    /* \"#utility.yul\":545:688   */\ntag_14:\n    /* \"#utility.yul\":602:607   */\n  0x00\n    /* \"#utility.yul\":633:639   */\n  dup2\n    /* \"#utility.yul\":627:640   */\n  mload\n    /* \"#utility.yul\":618:640   */\n  swap1\n  pop\n    /* \"#utility.yul\":649:682   */\n  tag_25\n    /* \"#utility.yul\":676:681   */\n  dup2\n    /* \"#utility.yul\":649:682   */\n  tag_13\n  jump\t// in\ntag_25:\n    /* \"#utility.yul\":545:688   */\n  swap3\n  swap2\n  pop\n  pop\n  jump\t// out\n    /* \"#utility.yul\":694:1201   */\ntag_3:\n    /* \"#utility.yul\":773:779   */\n  0x00\n    /* \"#utility.yul\":781:787   */\n  dup1\n    /* \"#utility.yul\":830:832   */\n  0x40\n    /* \"#utility.yul\":818:827   */\n  dup4\n    /* \"#utility.yul\":809:816   */\n  dup6\n    /* \"#utility.yul\":805:828   */\n  sub\n    /* \"#utility.yul\":801:833   */\n  slt\n    /* \"#utility.yul\":798:917   */\n  iszero\n  tag_27\n  jumpi\n    /* \"#utility.yul\":836:915   */\n  tag_28\n  tag_10\n  jump\t// in\ntag_28:\n    /* \"#utility.yul\":798:917   */\ntag_27:\n    /* \"#utility.yul\":956:957   */\n  0x00\n    /* \"#utility.yul\":981:1045   */\n  tag_29\n    /* \"#utility.yul\":1037:1044   */\n  dup6\n    /* \"#utility.yul\":1028:1034   */\n  dup3\n    /* \"#utility.yul\":1017:1026   */\n  dup7\n    /* \"#utility.yul\":1013:1035   */\n  add\n    /* \"#utility.yul\":981:1045   */\n  tag_14\n  jump\t// in\ntag_29:\n    /* \"#utility.yul\":971:1045   */\n  swap3\n  pop\n    /* \"#utility.yul\":927:1055   */\n  pop\n    /* \"#utility.yul\":1094:1096   */\n  0x20\n    /* \"#utility.yul\":1120:1184   */\n  tag_30\n    /* \"#utility.yul\":1176:1183   */\n  dup6\n    /* \"#utility.yul\":1167:1173   */\n  dup3\n    /* \"#utility.yul\":1156:1165   */\n  dup7\n    /* \"#utility.yul\":1152:1174   */\n  add\n    /* \"#utility.yul\":1120:1184   */\n  tag_14\n  jump\t// in\ntag_30:\n    /* \"#utility.yul\":1110:1184   */\n  swap2\n  pop\n    /* \"#utility.yul\":1065:1194   */\n  pop\n    /* \"#utility.yul\":694:1201   */\n  swap3\n  pop\n  swap3\n  swap1\n  pop\n  jump\t// out\n    /* \"#utility.yul\":1207:1387   */\ntag_15:\n    /* \"#utility.yul\":1255:1332   */\n  0x4e487b7100000000000000000000000000000000000000000000000000000000\n    /* \"#utility.yul\":1252:1253   */\n  0x00\n    /* \"#utility.yul\":1245:1333   */\n  mstore\n    /* \"#utility.yul\":1352:1356   */\n  0x11\n    /* \"#utility.yul\":1349:1350   */\n  0x04\n    /* \"#utility.yul\":1342:1357   */\n  mstore\n    /* \"#utility.yul\":1376:1380   */\n  0x24\n    /* \"#utility.yul\":1373:1374   */\n  0x00\n    /* \"#utility.yul\":1366:1381   */\n  revert\n    /* \"#utility.yul\":1393:1584   */\ntag_7:\n    /* \"#utility.yul\":1433:1436   */\n  0x00\n    /* \"#utility.yul\":1452:1472   */\n  tag_33\n    /* \"#utility.yul\":1470:1471   */\n  dup3\n    /* \"#utility.yul\":1452:1472   */\n  tag_12\n  jump\t// in\ntag_33:\n    /* \"#utility.yul\":1447:1472   */\n  swap2\n  pop\n    /* \"#utility.yul\":1486:1506   */\n  tag_34\n    /* \"#utility.yul\":1504:1505   */\n  dup4\n    /* \"#utility.yul\":1486:1506   */\n  tag_12\n  jump\t// in\ntag_34:\n    /* \"#utility.yul\":1481:1506   */\n  swap3\n  pop\n    /* \"#utility.yul\":1529:1530   */\n  dup3\n    /* \"#utility.yul\":1526:1527   */\n  dup3\n    /* \"#utility.yul\":1522:1531   */\n  add\n    /* \"#utility.yul\":1515:1531   */\n  swap1\n  pop\n    /* \"#utility.yul\":1550:1553   */\n  dup1\n    /* \"#utility.yul\":1547:1548   */\n  dup3\n    /* \"#utility.yul\":1544:1554   */\n  gt\n    /* \"#utility.yul\":1541:1577   */\n  iszero\n  tag_35\n  jumpi\n    /* \"#utility.yul\":1557:1575   */\n  tag_36\n  tag_15\n  jump\t// in\ntag_36:\n    /* \"#utility.yul\":1541:1577   */\ntag_35:\n    /* \"#utility.yul\":1393:1584   */\n  swap3\n  swap2\n  pop\n  pop\n  jump\t// out\n    /* \"contracts/CrowdFunding.sol\":314:4507  contract CrowdFunding{... */\ntag_8:\n  dataSize(sub_0)\n  dup1\n  dataOffset(sub_0)\n  0x00\n  codecopy\n  0x00\n  return\nstop\n\nsub_0: assembly {\n        /* \"contracts/CrowdFunding.sol\":314:4507  contract CrowdFunding{... */\n      mstore(0x40, 0x80)\n      jumpi(tag_1, lt(calldatasize, 0x04))\n      shr(0xe0, calldataload(0x00))\n      dup1\n      0x8da5cb5b\n      gt\n      tag_18\n      jumpi\n      dup1\n      0xb2d5ae44\n      gt\n      tag_19\n      jumpi\n      dup1\n      0xb2d5ae44\n      eq\n      tag_14\n      jumpi\n      dup1\n      0xb8b142de\n      eq\n      tag_15\n      jumpi\n      dup1\n      0xd7bb99ba\n      eq\n      tag_16\n      jumpi\n      dup1\n      0xf0ea4bfc\n      eq\n      tag_17\n      jumpi\n      jump(tag_2)\n    tag_19:\n      dup1\n      0x8da5cb5b\n      eq\n      tag_10\n      jumpi\n      dup1\n      0x9a91eb0d\n      eq\n      tag_11\n      jumpi\n      dup1\n      0xafae512e\n      eq\n      tag_12\n      jumpi\n      dup1\n      0xb1b16431\n      eq\n      tag_13\n      jumpi\n      jump(tag_2)\n    tag_18:\n      dup1\n      0x29dcb0cf\n      gt\n      tag_20\n      jumpi\n      dup1\n      0x29dcb0cf\n      eq\n      tag_6\n      jumpi\n      dup1\n      0x40193883\n      eq\n      tag_7\n      jumpi\n      dup1\n      0x4ba1f098\n      eq\n      tag_8\n      jumpi\n      dup1\n      0x81d12c58\n      eq\n      tag_9\n      jumpi\n      jump(tag_2)\n    tag_20:\n      dup1\n      0x064787dd\n      eq\n      tag_3\n      jumpi\n      dup1\n      0x12065fe0\n      eq\n      tag_4\n      jumpi\n      dup1\n      0x1f6d4942\n      eq\n      tag_5\n      jumpi\n      jump(tag_2)\n    tag_1:\n      jumpi(tag_2, calldatasize)\n        /* \"contracts/CrowdFunding.sol\":2198:2210  contribute() */\n      tag_23\n        /* \"contracts/CrowdFunding.sol\":2198:2208  contribute */\n      tag_24\n        /* \"contracts/CrowdFunding.sol\":2198:2210  contribute() */\n      jump\t// in\n    tag_23:\n        /* \"contracts/CrowdFunding.sol\":314:4507  contract CrowdFunding{... */\n      stop\n    tag_2:\n      0x00\n      dup1\n      revert\n        /* \"contracts/CrowdFunding.sol\":2949:3441  function spendingRequest(string memory _description, address payable _target, uint _value) public onlyOwner{... */\n    tag_3:\n      callvalue\n      dup1\n      iszero\n      tag_25\n      jumpi\n      0x00\n      dup1\n      revert\n    tag_25:\n      pop\n      tag_26\n      0x04\n      dup1\n      calldatasize\n      sub\n      dup2\n      add\n      swap1\n      tag_27\n      swap2\n      swap1\n      tag_28\n      jump\t// in\n    tag_27:\n      tag_29\n      jump\t// in\n    tag_26:\n      stop\n        /* \"contracts/CrowdFunding.sol\":2362:2456  function getBalance() public view returns(uint){... */\n    tag_4:\n      callvalue\n      dup1\n      iszero\n      tag_30\n      jumpi\n      0x00\n      dup1\n      revert\n    tag_30:\n      pop\n      tag_31\n      tag_32\n      jump\t// in\n    tag_31:\n      mload(0x40)\n      tag_33\n      swap2\n      swap1\n      tag_34\n      jump\t// in\n    tag_33:\n      mload(0x40)\n      dup1\n      swap2\n      sub\n      swap1\n      return\n        /* \"contracts/CrowdFunding.sol\":342:386  mapping(address => uint) public contributors */\n    tag_5:\n      callvalue\n      dup1\n      iszero\n      tag_35\n      jumpi\n      0x00\n      dup1\n      revert\n    tag_35:\n      pop\n      tag_36\n      0x04\n      dup1\n      calldatasize\n      sub\n      dup2\n      add\n      swap1\n      tag_37\n      swap2\n      swap1\n      tag_38\n      jump\t// in\n    tag_37:\n      tag_39\n      jump\t// in\n    tag_36:\n      mload(0x40)\n      tag_40\n      swap2\n      swap1\n      tag_34\n      jump\t// in\n    tag_40:\n      mload(0x40)\n      dup1\n      swap2\n      sub\n      swap1\n      return\n        /* \"contracts/CrowdFunding.sol\":587:607  uint public deadline */\n    tag_6:\n      callvalue\n      dup1\n      iszero\n      tag_41\n      jumpi\n      0x00\n      dup1\n      revert\n    tag_41:\n      pop\n      tag_42\n      tag_43\n      jump\t// in\n    tag_42:\n      mload(0x40)\n      tag_44\n      swap2\n      swap1\n      tag_34\n      jump\t// in\n    tag_44:\n      mload(0x40)\n      dup1\n      swap2\n      sub\n      swap1\n      return\n        /* \"contracts/CrowdFunding.sol\":450:466  uint public goal */\n    tag_7:\n      callvalue\n      dup1\n      iszero\n      tag_45\n      jumpi\n      0x00\n      dup1\n      revert\n    tag_45:\n      pop\n      tag_46\n      tag_47\n      jump\t// in\n    tag_46:\n      mload(0x40)\n      tag_48\n      swap2\n      swap1\n      tag_34\n      jump\t// in\n    tag_48:\n      mload(0x40)\n      dup1\n      swap2\n      sub\n      swap1\n      return\n        /* \"contracts/CrowdFunding.sol\":3551:3948  function acceptRequest(uint _requestNum) public{... */\n    tag_8:\n      callvalue\n      dup1\n      iszero\n      tag_49\n      jumpi\n      0x00\n      dup1\n      revert\n    tag_49:\n      pop\n      tag_50\n      0x04\n      dup1\n      calldatasize\n      sub\n      dup2\n      add\n      swap1\n      tag_51\n      swap2\n      swap1\n      tag_52\n      jump\t// in\n    tag_51:\n      tag_53\n      jump\t// in\n    tag_50:\n      stop\n        /* \"contracts/CrowdFunding.sol\":928:967  mapping(uint=> Request) public requests */\n    tag_9:\n      callvalue\n      dup1\n      iszero\n      tag_54\n      jumpi\n      0x00\n      dup1\n      revert\n    tag_54:\n      pop\n      tag_55\n      0x04\n      dup1\n      calldatasize\n      sub\n      dup2\n      add\n      swap1\n      tag_56\n      swap2\n      swap1\n      tag_52\n      jump\t// in\n    tag_56:\n      tag_57\n      jump\t// in\n    tag_55:\n      mload(0x40)\n      tag_58\n      swap6\n      swap5\n      swap4\n      swap3\n      swap2\n      swap1\n      tag_59\n      jump\t// in\n    tag_58:\n      mload(0x40)\n      dup1\n      swap2\n      sub\n      swap1\n      return\n        /* \"contracts/CrowdFunding.sol\":393:413  address public owner */\n    tag_10:\n      callvalue\n      dup1\n      iszero\n      tag_60\n      jumpi\n      0x00\n      dup1\n      revert\n    tag_60:\n      pop\n      tag_61\n      tag_62\n      jump\t// in\n    tag_61:\n      mload(0x40)\n      tag_63\n      swap2\n      swap1\n      tag_64\n      jump\t// in\n    tag_63:\n      mload(0x40)\n      dup1\n      swap2\n      sub\n      swap1\n      return\n        /* \"contracts/CrowdFunding.sol\":3956:4504  function fulfillRequest(uint _requestNum) public onlyOwner{... */\n    tag_11:\n      callvalue\n      dup1\n      iszero\n      tag_65\n      jumpi\n      0x00\n      dup1\n      revert\n    tag_65:\n      pop\n      tag_66\n      0x04\n      dup1\n      calldatasize\n      sub\n      dup2\n      add\n      swap1\n      tag_67\n      swap2\n      swap1\n      tag_52\n      jump\t// in\n    tag_67:\n      tag_68\n      jump\t// in\n    tag_66:\n      stop\n        /* \"contracts/CrowdFunding.sol\":420:443  uint public numberContr */\n    tag_12:\n      callvalue\n      dup1\n      iszero\n      tag_69\n      jumpi\n      0x00\n      dup1\n      revert\n    tag_69:\n      pop\n      tag_70\n      tag_71\n      jump\t// in\n    tag_70:\n      mload(0x40)\n      tag_72\n      swap2\n      swap1\n      tag_34\n      jump\t// in\n    tag_72:\n      mload(0x40)\n      dup1\n      swap2\n      sub\n      swap1\n      return\n        /* \"contracts/CrowdFunding.sol\":974:996  uint public numRequest */\n    tag_13:\n      callvalue\n      dup1\n      iszero\n      tag_73\n      jumpi\n      0x00\n      dup1\n      revert\n    tag_73:\n      pop\n      tag_74\n      tag_75\n      jump\t// in\n    tag_74:\n      mload(0x40)\n      tag_76\n      swap2\n      swap1\n      tag_34\n      jump\t// in\n    tag_76:\n      mload(0x40)\n      dup1\n      swap2\n      sub\n      swap1\n      return\n        /* \"contracts/CrowdFunding.sol\":2464:2941  function getRefund() public ended{... */\n    tag_14:\n      callvalue\n      dup1\n      iszero\n      tag_77\n      jumpi\n      0x00\n      dup1\n      revert\n    tag_77:\n      pop\n      tag_78\n      tag_79\n      jump\t// in\n    tag_78:\n      stop\n        /* \"contracts/CrowdFunding.sol\":473:493  uint public minContr */\n    tag_15:\n      callvalue\n      dup1\n      iszero\n      tag_80\n      jumpi\n      0x00\n      dup1\n      revert\n    tag_80:\n      pop\n      tag_81\n      tag_82\n      jump\t// in\n    tag_81:\n      mload(0x40)\n      tag_83\n      swap2\n      swap1\n      tag_34\n      jump\t// in\n    tag_83:\n      mload(0x40)\n      dup1\n      swap2\n      sub\n      swap1\n      return\n        /* \"contracts/CrowdFunding.sol\":1762:2153  function contribute() public payable stillGoing{... */\n    tag_16:\n      tag_84\n      tag_24\n      jump\t// in\n    tag_84:\n      stop\n        /* \"contracts/CrowdFunding.sol\":698:716  uint public raised */\n    tag_17:\n      callvalue\n      dup1\n      iszero\n      tag_85\n      jumpi\n      0x00\n      dup1\n      revert\n    tag_85:\n      pop\n      tag_86\n      tag_87\n      jump\t// in\n    tag_86:\n      mload(0x40)\n      tag_88\n      swap2\n      swap1\n      tag_34\n      jump\t// in\n    tag_88:\n      mload(0x40)\n      dup1\n      swap2\n      sub\n      swap1\n      return\n        /* \"contracts/CrowdFunding.sol\":1762:2153  function contribute() public payable stillGoing{... */\n    tag_24:\n        /* \"contracts/CrowdFunding.sol\":1577:1585  deadline */\n      sload(0x05)\n        /* \"contracts/CrowdFunding.sol\":1559:1574  block.timestamp */\n      timestamp\n        /* \"contracts/CrowdFunding.sol\":1559:1585  block.timestamp < deadline */\n      lt\n        /* \"contracts/CrowdFunding.sol\":1551:1623  require(block.timestamp < deadline,\"The CrowdFunding has already ended\") */\n      tag_90\n      jumpi\n      mload(0x40)\n      0x08c379a000000000000000000000000000000000000000000000000000000000\n      dup2\n      mstore\n      0x04\n      add\n      tag_91\n      swap1\n      tag_92\n      jump\t// in\n    tag_91:\n      mload(0x40)\n      dup1\n      swap2\n      sub\n      swap1\n      revert\n    tag_90:\n        /* \"contracts/CrowdFunding.sol\":1841:1849  minContr */\n      sload(0x04)\n        /* \"contracts/CrowdFunding.sol\":1828:1837  msg.value */\n      callvalue\n        /* \"contracts/CrowdFunding.sol\":1828:1849  msg.value >= minContr */\n      lt\n      iszero\n        /* \"contracts/CrowdFunding.sol\":1820:1885  require(msg.value >= minContr, \"Minimum contribution is 100 wei\") */\n      tag_94\n      jumpi\n      mload(0x40)\n      0x08c379a000000000000000000000000000000000000000000000000000000000\n      dup2\n      mstore\n      0x04\n      add\n      tag_95\n      swap1\n      tag_96\n      jump\t// in\n    tag_95:\n      mload(0x40)\n      dup1\n      swap2\n      sub\n      swap1\n      revert\n    tag_94:\n        /* \"contracts/CrowdFunding.sol\":1925:1926  0 */\n      0x00\n        /* \"contracts/CrowdFunding.sol\":1899:1911  contributors */\n      dup1\n        /* \"contracts/CrowdFunding.sol\":1899:1923  contributors[msg.sender] */\n      0x00\n        /* \"contracts/CrowdFunding.sol\":1912:1922  msg.sender */\n      caller\n        /* \"contracts/CrowdFunding.sol\":1899:1923  contributors[msg.sender] */\n      0xffffffffffffffffffffffffffffffffffffffff\n      and\n      0xffffffffffffffffffffffffffffffffffffffff\n      and\n      dup2\n      mstore\n      0x20\n      add\n      swap1\n      dup2\n      mstore\n      0x20\n      add\n      0x00\n      keccak256\n      sload\n        /* \"contracts/CrowdFunding.sol\":1899:1926  contributors[msg.sender]==0 */\n      sub\n        /* \"contracts/CrowdFunding.sol\":1896:2011  if(contributors[msg.sender]==0){                                            ... */\n      tag_97\n      jumpi\n        /* \"contracts/CrowdFunding.sol\":1986:1997  numberContr */\n      0x02\n      0x00\n        /* \"contracts/CrowdFunding.sol\":1986:1999  numberContr++ */\n      dup2\n      sload\n      dup1\n      swap3\n      swap2\n      swap1\n      tag_98\n      swap1\n      tag_99\n      jump\t// in\n    tag_98:\n      swap2\n      swap1\n      pop\n      sstore\n      pop\n        /* \"contracts/CrowdFunding.sol\":1896:2011  if(contributors[msg.sender]==0){                                            ... */\n    tag_97:\n        /* \"contracts/CrowdFunding.sol\":2049:2058  msg.value */\n      callvalue\n        /* \"contracts/CrowdFunding.sol\":2021:2033  contributors */\n      0x00\n        /* \"contracts/CrowdFunding.sol\":2021:2045  contributors[msg.sender] */\n      dup1\n        /* \"contracts/CrowdFunding.sol\":2034:2044  msg.sender */\n      caller\n        /* \"contracts/CrowdFunding.sol\":2021:2045  contributors[msg.sender] */\n      0xffffffffffffffffffffffffffffffffffffffff\n      and\n      0xffffffffffffffffffffffffffffffffffffffff\n      and\n      dup2\n      mstore\n      0x20\n      add\n      swap1\n      dup2\n      mstore\n      0x20\n      add\n      0x00\n      keccak256\n      0x00\n        /* \"contracts/CrowdFunding.sol\":2021:2058  contributors[msg.sender] += msg.value */\n      dup3\n      dup3\n      sload\n      tag_100\n      swap2\n      swap1\n      tag_101\n      jump\t// in\n    tag_100:\n      swap3\n      pop\n      pop\n      dup2\n      swap1\n      sstore\n      pop\n        /* \"contracts/CrowdFunding.sol\":2079:2088  msg.value */\n      callvalue\n        /* \"contracts/CrowdFunding.sol\":2069:2075  raised */\n      0x06\n      0x00\n        /* \"contracts/CrowdFunding.sol\":2069:2088  raised += msg.value */\n      dup3\n      dup3\n      sload\n      tag_102\n      swap2\n      swap1\n      tag_101\n      jump\t// in\n    tag_102:\n      swap3\n      pop\n      pop\n      dup2\n      swap1\n      sstore\n      pop\n        /* \"contracts/CrowdFunding.sol\":2106:2145  ContributeEvent (msg.sender, msg.value) */\n      0x2daf61dec57a2c194e9e87958b1a40a5c236b5e8c6041655d664ddbd16c29320\n        /* \"contracts/CrowdFunding.sol\":2123:2133  msg.sender */\n      caller\n        /* \"contracts/CrowdFunding.sol\":2135:2144  msg.value */\n      callvalue\n        /* \"contracts/CrowdFunding.sol\":2106:2145  ContributeEvent (msg.sender, msg.value) */\n      mload(0x40)\n      tag_103\n      swap3\n      swap2\n      swap1\n      tag_104\n      jump\t// in\n    tag_103:\n      mload(0x40)\n      dup1\n      swap2\n      sub\n      swap1\n      log1\n        /* \"contracts/CrowdFunding.sol\":1762:2153  function contribute() public payable stillGoing{... */\n      jump\t// out\n        /* \"contracts/CrowdFunding.sol\":2949:3441  function spendingRequest(string memory _description, address payable _target, uint _value) public onlyOwner{... */\n    tag_29:\n        /* \"contracts/CrowdFunding.sol\":1704:1709  owner */\n      0x01\n      0x00\n      swap1\n      sload\n      swap1\n      0x0100\n      exp\n      swap1\n      div\n      0xffffffffffffffffffffffffffffffffffffffff\n      and\n        /* \"contracts/CrowdFunding.sol\":1690:1709  msg.sender == owner */\n      0xffffffffffffffffffffffffffffffffffffffff\n      and\n        /* \"contracts/CrowdFunding.sol\":1690:1700  msg.sender */\n      caller\n        /* \"contracts/CrowdFunding.sol\":1690:1709  msg.sender == owner */\n      0xffffffffffffffffffffffffffffffffffffffff\n      and\n      eq\n        /* \"contracts/CrowdFunding.sol\":1682:1734  require(msg.sender == owner, \"You're not the owner\") */\n      tag_106\n      jumpi\n      mload(0x40)\n      0x08c379a000000000000000000000000000000000000000000000000000000000\n      dup2\n      mstore\n      0x04\n      add\n      tag_107\n      swap1\n      tag_108\n      jump\t// in\n    tag_107:\n      mload(0x40)\n      dup1\n      swap2\n      sub\n      swap1\n      revert\n    tag_106:\n        /* \"contracts/CrowdFunding.sol\":3067:3093  Request storage newRequest */\n      0x00\n        /* \"contracts/CrowdFunding.sol\":3096:3104  requests */\n      0x07\n        /* \"contracts/CrowdFunding.sol\":3096:3116  requests[numRequest] */\n      0x00\n        /* \"contracts/CrowdFunding.sol\":3105:3115  numRequest */\n      sload(0x08)\n        /* \"contracts/CrowdFunding.sol\":3096:3116  requests[numRequest] */\n      dup2\n      mstore\n      0x20\n      add\n      swap1\n      dup2\n      mstore\n      0x20\n      add\n      0x00\n      keccak256\n        /* \"contracts/CrowdFunding.sol\":3067:3116  Request storage newRequest = requests[numRequest] */\n      swap1\n      pop\n        /* \"contracts/CrowdFunding.sol\":3152:3162  numRequest */\n      0x08\n      0x00\n        /* \"contracts/CrowdFunding.sol\":3152:3164  numRequest++ */\n      dup2\n      sload\n      dup1\n      swap3\n      swap2\n      swap1\n      tag_110\n      swap1\n      tag_99\n      jump\t// in\n    tag_110:\n      swap2\n      swap1\n      pop\n      sstore\n      pop\n        /* \"contracts/CrowdFunding.sol\":3202:3214  _description */\n      dup4\n        /* \"contracts/CrowdFunding.sol\":3177:3187  newRequest */\n      dup2\n        /* \"contracts/CrowdFunding.sol\":3177:3199  newRequest.description */\n      0x00\n      add\n        /* \"contracts/CrowdFunding.sol\":3177:3214  newRequest.description = _description */\n      swap1\n      dup2\n      tag_111\n      swap2\n      swap1\n      tag_112\n      jump\t// in\n    tag_111:\n      pop\n        /* \"contracts/CrowdFunding.sol\":3245:3252  _target */\n      dup3\n        /* \"contracts/CrowdFunding.sol\":3225:3235  newRequest */\n      dup2\n        /* \"contracts/CrowdFunding.sol\":3225:3242  newRequest.target */\n      0x01\n      add\n      0x00\n        /* \"contracts/CrowdFunding.sol\":3225:3252  newRequest.target = _target */\n      0x0100\n      exp\n      dup2\n      sload\n      dup2\n      0xffffffffffffffffffffffffffffffffffffffff\n      mul\n      not\n      and\n      swap1\n      dup4\n      0xffffffffffffffffffffffffffffffffffffffff\n      and\n      mul\n      or\n      swap1\n      sstore\n      pop\n        /* \"contracts/CrowdFunding.sol\":3282:3288  _value */\n      dup2\n        /* \"contracts/CrowdFunding.sol\":3263:3273  newRequest */\n      dup2\n        /* \"contracts/CrowdFunding.sol\":3263:3279  newRequest.value */\n      0x02\n      add\n        /* \"contracts/CrowdFunding.sol\":3263:3288  newRequest.value = _value */\n      dup2\n      swap1\n      sstore\n      pop\n        /* \"contracts/CrowdFunding.sol\":3322:3327  false */\n      0x00\n        /* \"contracts/CrowdFunding.sol\":3299:3309  newRequest */\n      dup2\n        /* \"contracts/CrowdFunding.sol\":3299:3319  newRequest.completed */\n      0x03\n      add\n      0x00\n        /* \"contracts/CrowdFunding.sol\":3299:3327  newRequest.completed = false */\n      0x0100\n      exp\n      dup2\n      sload\n      dup2\n      0xff\n      mul\n      not\n      and\n      swap1\n      dup4\n      iszero\n      iszero\n      mul\n      or\n      swap1\n      sstore\n      pop\n        /* \"contracts/CrowdFunding.sol\":3365:3366  0 */\n      0x00\n        /* \"contracts/CrowdFunding.sol\":3338:3348  newRequest */\n      dup2\n        /* \"contracts/CrowdFunding.sol\":3338:3362  newRequest.numberOfVotes */\n      0x04\n      add\n        /* \"contracts/CrowdFunding.sol\":3338:3366  newRequest.numberOfVotes = 0 */\n      dup2\n      swap1\n      sstore\n      pop\n        /* \"contracts/CrowdFunding.sol\":3384:3433  CreateRequestEvent(_description, _target, _value) */\n      0x5392bd80651676ccaaedec1afbe841d47e369223df0ba1586110b6426ee87a3a\n        /* \"contracts/CrowdFunding.sol\":3403:3415  _description */\n      dup5\n        /* \"contracts/CrowdFunding.sol\":3417:3424  _target */\n      dup5\n        /* \"contracts/CrowdFunding.sol\":3426:3432  _value */\n      dup5\n        /* \"contracts/CrowdFunding.sol\":3384:3433  CreateRequestEvent(_description, _target, _value) */\n      mload(0x40)\n      tag_113\n      swap4\n      swap3\n      swap2\n      swap1\n      tag_114\n      jump\t// in\n    tag_113:\n      mload(0x40)\n      dup1\n      swap2\n      sub\n      swap1\n      log1\n        /* \"contracts/CrowdFunding.sol\":3056:3441  {... */\n      pop\n        /* \"contracts/CrowdFunding.sol\":2949:3441  function spendingRequest(string memory _description, address payable _target, uint _value) public onlyOwner{... */\n      pop\n      pop\n      pop\n      jump\t// out\n        /* \"contracts/CrowdFunding.sol\":2362:2456  function getBalance() public view returns(uint){... */\n    tag_32:\n        /* \"contracts/CrowdFunding.sol\":2404:2408  uint */\n      0x00\n        /* \"contracts/CrowdFunding.sol\":2427:2448  address(this).balance */\n      selfbalance\n        /* \"contracts/CrowdFunding.sol\":2420:2448  return address(this).balance */\n      swap1\n      pop\n        /* \"contracts/CrowdFunding.sol\":2362:2456  function getBalance() public view returns(uint){... */\n      swap1\n      jump\t// out\n        /* \"contracts/CrowdFunding.sol\":342:386  mapping(address => uint) public contributors */\n    tag_39:\n      mstore(0x20, 0x00)\n      dup1\n      0x00\n      mstore\n      keccak256(0x00, 0x40)\n      0x00\n      swap2\n      pop\n      swap1\n      pop\n      sload\n      dup2\n      jump\t// out\n        /* \"contracts/CrowdFunding.sol\":587:607  uint public deadline */\n    tag_43:\n      sload(0x05)\n      dup2\n      jump\t// out\n        /* \"contracts/CrowdFunding.sol\":450:466  uint public goal */\n    tag_47:\n      sload(0x03)\n      dup2\n      jump\t// out\n        /* \"contracts/CrowdFunding.sol\":3551:3948  function acceptRequest(uint _requestNum) public{... */\n    tag_53:\n        /* \"contracts/CrowdFunding.sol\":3642:3643  0 */\n      0x00\n        /* \"contracts/CrowdFunding.sol\":3617:3629  contributors */\n      dup1\n        /* \"contracts/CrowdFunding.sol\":3617:3641  contributors[msg.sender] */\n      0x00\n        /* \"contracts/CrowdFunding.sol\":3630:3640  msg.sender */\n      caller\n        /* \"contracts/CrowdFunding.sol\":3617:3641  contributors[msg.sender] */\n      0xffffffffffffffffffffffffffffffffffffffff\n      and\n      0xffffffffffffffffffffffffffffffffffffffff\n      and\n      dup2\n      mstore\n      0x20\n      add\n      swap1\n      dup2\n      mstore\n      0x20\n      add\n      0x00\n      keccak256\n      sload\n        /* \"contracts/CrowdFunding.sol\":3617:3643  contributors[msg.sender]>0 */\n      gt\n        /* \"contracts/CrowdFunding.sol\":3609:3672  require(contributors[msg.sender]>0, \"You're not a contributor\") */\n      tag_117\n      jumpi\n      mload(0x40)\n      0x08c379a000000000000000000000000000000000000000000000000000000000\n      dup2\n      mstore\n      0x04\n      add\n      tag_118\n      swap1\n      tag_119\n      jump\t// in\n    tag_118:\n      mload(0x40)\n      dup1\n      swap2\n      sub\n      swap1\n      revert\n    tag_117:\n        /* \"contracts/CrowdFunding.sol\":3683:3710  Request storage thisRequest */\n      0x00\n        /* \"contracts/CrowdFunding.sol\":3713:3721  requests */\n      0x07\n        /* \"contracts/CrowdFunding.sol\":3713:3734  requests[_requestNum] */\n      0x00\n        /* \"contracts/CrowdFunding.sol\":3722:3733  _requestNum */\n      dup4\n        /* \"contracts/CrowdFunding.sol\":3713:3734  requests[_requestNum] */\n      dup2\n      mstore\n      0x20\n      add\n      swap1\n      dup2\n      mstore\n      0x20\n      add\n      0x00\n      keccak256\n        /* \"contracts/CrowdFunding.sol\":3683:3734  Request storage thisRequest = requests[_requestNum] */\n      swap1\n      pop\n        /* \"contracts/CrowdFunding.sol\":3785:3790  false */\n      0x00\n        /* \"contracts/CrowdFunding.sol\":3753:3790  thisRequest.voters[msg.sender]==false */\n      iszero\n      iszero\n        /* \"contracts/CrowdFunding.sol\":3753:3764  thisRequest */\n      dup2\n        /* \"contracts/CrowdFunding.sol\":3753:3771  thisRequest.voters */\n      0x05\n      add\n        /* \"contracts/CrowdFunding.sol\":3753:3783  thisRequest.voters[msg.sender] */\n      0x00\n        /* \"contracts/CrowdFunding.sol\":3772:3782  msg.sender */\n      caller\n        /* \"contracts/CrowdFunding.sol\":3753:3783  thisRequest.voters[msg.sender] */\n      0xffffffffffffffffffffffffffffffffffffffff\n      and\n      0xffffffffffffffffffffffffffffffffffffffff\n      and\n      dup2\n      mstore\n      0x20\n      add\n      swap1\n      dup2\n      mstore\n      0x20\n      add\n      0x00\n      keccak256\n      0x00\n      swap1\n      sload\n      swap1\n      0x0100\n      exp\n      swap1\n      div\n      0xff\n      and\n        /* \"contracts/CrowdFunding.sol\":3753:3790  thisRequest.voters[msg.sender]==false */\n      iszero\n      iszero\n      eq\n        /* \"contracts/CrowdFunding.sol\":3745:3816  require(thisRequest.voters[msg.sender]==false,\"You have already voted\") */\n      tag_120\n      jumpi\n      mload(0x40)\n      0x08c379a000000000000000000000000000000000000000000000000000000000\n      dup2\n      mstore\n      0x04\n      add\n      tag_121\n      swap1\n      tag_122\n      jump\t// in\n    tag_121:\n      mload(0x40)\n      dup1\n      swap2\n      sub\n      swap1\n      revert\n    tag_120:\n        /* \"contracts/CrowdFunding.sol\":3898:3902  true */\n      0x01\n        /* \"contracts/CrowdFunding.sol\":3864:3902  thisRequest.voters[msg.sender] == true */\n      iszero\n      iszero\n        /* \"contracts/CrowdFunding.sol\":3864:3875  thisRequest */\n      dup2\n        /* \"contracts/CrowdFunding.sol\":3864:3882  thisRequest.voters */\n      0x05\n      add\n        /* \"contracts/CrowdFunding.sol\":3864:3894  thisRequest.voters[msg.sender] */\n      0x00\n        /* \"contracts/CrowdFunding.sol\":3883:3893  msg.sender */\n      caller\n        /* \"contracts/CrowdFunding.sol\":3864:3894  thisRequest.voters[msg.sender] */\n      0xffffffffffffffffffffffffffffffffffffffff\n      and\n      0xffffffffffffffffffffffffffffffffffffffff\n      and\n      dup2\n      mstore\n      0x20\n      add\n      swap1\n      dup2\n      mstore\n      0x20\n      add\n      0x00\n      keccak256\n      0x00\n      swap1\n      sload\n      swap1\n      0x0100\n      exp\n      swap1\n      pop\n      pop\n        /* \"contracts/CrowdFunding.sol\":3864:3902  thisRequest.voters[msg.sender] == true */\n      pop\n        /* \"contracts/CrowdFunding.sol\":3913:3924  thisRequest */\n      dup1\n        /* \"contracts/CrowdFunding.sol\":3913:3938  thisRequest.numberOfVotes */\n      0x04\n      add\n      0x00\n        /* \"contracts/CrowdFunding.sol\":3913:3940  thisRequest.numberOfVotes++ */\n      dup2\n      sload\n      dup1\n      swap3\n      swap2\n      swap1\n      tag_123\n      swap1\n      tag_99\n      jump\t// in\n    tag_123:\n      swap2\n      swap1\n      pop\n      sstore\n      pop\n        /* \"contracts/CrowdFunding.sol\":3598:3948  {... */\n      pop\n        /* \"contracts/CrowdFunding.sol\":3551:3948  function acceptRequest(uint _requestNum) public{... */\n      pop\n      jump\t// out\n        /* \"contracts/CrowdFunding.sol\":928:967  mapping(uint=> Request) public requests */\n    tag_57:\n      mstore(0x20, 0x07)\n      dup1\n      0x00\n      mstore\n      keccak256(0x00, 0x40)\n      0x00\n      swap2\n      pop\n      swap1\n      pop\n      dup1\n      0x00\n      add\n      dup1\n      sload\n      tag_124\n      swap1\n      tag_125\n      jump\t// in\n    tag_124:\n      dup1\n      0x1f\n      add\n      0x20\n      dup1\n      swap2\n      div\n      mul\n      0x20\n      add\n      mload(0x40)\n      swap1\n      dup2\n      add\n      0x40\n      mstore\n      dup1\n      swap3\n      swap2\n      swap1\n      dup2\n      dup2\n      mstore\n      0x20\n      add\n      dup3\n      dup1\n      sload\n      tag_126\n      swap1\n      tag_125\n      jump\t// in\n    tag_126:\n      dup1\n      iszero\n      tag_127\n      jumpi\n      dup1\n      0x1f\n      lt\n      tag_128\n      jumpi\n      0x0100\n      dup1\n      dup4\n      sload\n      div\n      mul\n      dup4\n      mstore\n      swap2\n      0x20\n      add\n      swap2\n      jump(tag_127)\n    tag_128:\n      dup3\n      add\n      swap2\n      swap1\n      0x00\n      mstore\n      keccak256(0x00, 0x20)\n      swap1\n    tag_129:\n      dup2\n      sload\n      dup2\n      mstore\n      swap1\n      0x01\n      add\n      swap1\n      0x20\n      add\n      dup1\n      dup4\n      gt\n      tag_129\n      jumpi\n      dup3\n      swap1\n      sub\n      0x1f\n      and\n      dup3\n      add\n      swap2\n    tag_127:\n      pop\n      pop\n      pop\n      pop\n      pop\n      swap1\n      dup1\n      0x01\n      add\n      0x00\n      swap1\n      sload\n      swap1\n      0x0100\n      exp\n      swap1\n      div\n      0xffffffffffffffffffffffffffffffffffffffff\n      and\n      swap1\n      dup1\n      0x02\n      add\n      sload\n      swap1\n      dup1\n      0x03\n      add\n      0x00\n      swap1\n      sload\n      swap1\n      0x0100\n      exp\n      swap1\n      div\n      0xff\n      and\n      swap1\n      dup1\n      0x04\n      add\n      sload\n      swap1\n      pop\n      dup6\n      jump\t// out\n        /* \"contracts/CrowdFunding.sol\":393:413  address public owner */\n    tag_62:\n      0x01\n      0x00\n      swap1\n      sload\n      swap1\n      0x0100\n      exp\n      swap1\n      div\n      0xffffffffffffffffffffffffffffffffffffffff\n      and\n      dup2\n      jump\t// out\n        /* \"contracts/CrowdFunding.sol\":3956:4504  function fulfillRequest(uint _requestNum) public onlyOwner{... */\n    tag_68:\n        /* \"contracts/CrowdFunding.sol\":1704:1709  owner */\n      0x01\n      0x00\n      swap1\n      sload\n      swap1\n      0x0100\n      exp\n      swap1\n      div\n      0xffffffffffffffffffffffffffffffffffffffff\n      and\n        /* \"contracts/CrowdFunding.sol\":1690:1709  msg.sender == owner */\n      0xffffffffffffffffffffffffffffffffffffffff\n      and\n        /* \"contracts/CrowdFunding.sol\":1690:1700  msg.sender */\n      caller\n        /* \"contracts/CrowdFunding.sol\":1690:1709  msg.sender == owner */\n      0xffffffffffffffffffffffffffffffffffffffff\n      and\n      eq\n        /* \"contracts/CrowdFunding.sol\":1682:1734  require(msg.sender == owner, \"You're not the owner\") */\n      tag_131\n      jumpi\n      mload(0x40)\n      0x08c379a000000000000000000000000000000000000000000000000000000000\n      dup2\n      mstore\n      0x04\n      add\n      tag_132\n      swap1\n      tag_108\n      jump\t// in\n    tag_132:\n      mload(0x40)\n      dup1\n      swap2\n      sub\n      swap1\n      revert\n    tag_131:\n        /* \"contracts/CrowdFunding.sol\":4043:4047  goal */\n      sload(0x03)\n        /* \"contracts/CrowdFunding.sol\":4033:4039  raised */\n      sload(0x06)\n        /* \"contracts/CrowdFunding.sol\":4033:4047  raised >= goal */\n      lt\n      iszero\n        /* \"contracts/CrowdFunding.sol\":4025:4048  require(raised >= goal) */\n      tag_134\n      jumpi\n      0x00\n      dup1\n      revert\n    tag_134:\n        /* \"contracts/CrowdFunding.sol\":4059:4086  Request storage thisRequest */\n      0x00\n        /* \"contracts/CrowdFunding.sol\":4089:4097  requests */\n      0x07\n        /* \"contracts/CrowdFunding.sol\":4089:4110  requests[_requestNum] */\n      0x00\n        /* \"contracts/CrowdFunding.sol\":4098:4109  _requestNum */\n      dup4\n        /* \"contracts/CrowdFunding.sol\":4089:4110  requests[_requestNum] */\n      dup2\n      mstore\n      0x20\n      add\n      swap1\n      dup2\n      mstore\n      0x20\n      add\n      0x00\n      keccak256\n        /* \"contracts/CrowdFunding.sol\":4059:4110  Request storage thisRequest = requests[_requestNum] */\n      swap1\n      pop\n        /* \"contracts/CrowdFunding.sol\":4154:4159  false */\n      0x00\n        /* \"contracts/CrowdFunding.sol\":4129:4159  thisRequest.completed == false */\n      iszero\n      iszero\n        /* \"contracts/CrowdFunding.sol\":4129:4140  thisRequest */\n      dup2\n        /* \"contracts/CrowdFunding.sol\":4129:4150  thisRequest.completed */\n      0x03\n      add\n      0x00\n      swap1\n      sload\n      swap1\n      0x0100\n      exp\n      swap1\n      div\n      0xff\n      and\n        /* \"contracts/CrowdFunding.sol\":4129:4159  thisRequest.completed == false */\n      iszero\n      iszero\n      eq\n        /* \"contracts/CrowdFunding.sol\":4121:4189  require(thisRequest.completed == false, \"Request already completed\") */\n      tag_135\n      jumpi\n      mload(0x40)\n      0x08c379a000000000000000000000000000000000000000000000000000000000\n      dup2\n      mstore\n      0x04\n      add\n      tag_136\n      swap1\n      tag_137\n      jump\t// in\n    tag_136:\n      mload(0x40)\n      dup1\n      swap2\n      sub\n      swap1\n      revert\n    tag_135:\n        /* \"contracts/CrowdFunding.sol\":4250:4251  2 */\n      0x02\n        /* \"contracts/CrowdFunding.sol\":4236:4247  numberContr */\n      dup1\n      sload\n        /* \"contracts/CrowdFunding.sol\":4236:4251  numberContr / 2 */\n      tag_138\n      swap2\n      swap1\n      tag_139\n      jump\t// in\n    tag_138:\n        /* \"contracts/CrowdFunding.sol\":4208:4219  thisRequest */\n      dup2\n        /* \"contracts/CrowdFunding.sol\":4208:4233  thisRequest.numberOfVotes */\n      0x04\n      add\n      sload\n        /* \"contracts/CrowdFunding.sol\":4208:4251  thisRequest.numberOfVotes > numberContr / 2 */\n      gt\n        /* \"contracts/CrowdFunding.sol\":4200:4252  require(thisRequest.numberOfVotes > numberContr / 2) */\n      tag_140\n      jumpi\n      0x00\n      dup1\n      revert\n    tag_140:\n        /* \"contracts/CrowdFunding.sol\":4338:4349  thisRequest */\n      dup1\n        /* \"contracts/CrowdFunding.sol\":4338:4356  thisRequest.target */\n      0x01\n      add\n      0x00\n      swap1\n      sload\n      swap1\n      0x0100\n      exp\n      swap1\n      div\n      0xffffffffffffffffffffffffffffffffffffffff\n      and\n        /* \"contracts/CrowdFunding.sol\":4338:4365  thisRequest.target.transfer */\n      0xffffffffffffffffffffffffffffffffffffffff\n      and\n        /* \"contracts/CrowdFunding.sol\":4338:4384  thisRequest.target.transfer(thisRequest.value) */\n      0x08fc\n        /* \"contracts/CrowdFunding.sol\":4366:4377  thisRequest */\n      dup3\n        /* \"contracts/CrowdFunding.sol\":4366:4383  thisRequest.value */\n      0x02\n      add\n      sload\n        /* \"contracts/CrowdFunding.sol\":4338:4384  thisRequest.target.transfer(thisRequest.value) */\n      swap1\n      dup2\n      iszero\n      mul\n      swap1\n      mload(0x40)\n      0x00\n      mload(0x40)\n      dup1\n      dup4\n      sub\n      dup2\n      dup6\n      dup9\n      dup9\n      call\n      swap4\n      pop\n      pop\n      pop\n      pop\n      iszero\n      dup1\n      iszero\n      tag_142\n      jumpi\n      returndatasize\n      0x00\n      dup1\n      returndatacopy\n      revert(0x00, returndatasize)\n    tag_142:\n      pop\n        /* \"contracts/CrowdFunding.sol\":4419:4423  true */\n      0x01\n        /* \"contracts/CrowdFunding.sol\":4395:4406  thisRequest */\n      dup2\n        /* \"contracts/CrowdFunding.sol\":4395:4416  thisRequest.completed */\n      0x03\n      add\n      0x00\n        /* \"contracts/CrowdFunding.sol\":4395:4423  thisRequest.completed = true */\n      0x0100\n      exp\n      dup2\n      sload\n      dup2\n      0xff\n      mul\n      not\n      and\n      swap1\n      dup4\n      iszero\n      iszero\n      mul\n      or\n      swap1\n      sstore\n      pop\n        /* \"contracts/CrowdFunding.sol\":4441:4496  MakePaymentEvent(thisRequest.target, thisRequest.value) */\n      0x516e1673e5e85c44620165259173329adda2ad25e7bb15020c732be060b5b790\n        /* \"contracts/CrowdFunding.sol\":4458:4469  thisRequest */\n      dup2\n        /* \"contracts/CrowdFunding.sol\":4458:4476  thisRequest.target */\n      0x01\n      add\n      0x00\n      swap1\n      sload\n      swap1\n      0x0100\n      exp\n      swap1\n      div\n      0xffffffffffffffffffffffffffffffffffffffff\n      and\n        /* \"contracts/CrowdFunding.sol\":4478:4489  thisRequest */\n      dup3\n        /* \"contracts/CrowdFunding.sol\":4478:4495  thisRequest.value */\n      0x02\n      add\n      sload\n        /* \"contracts/CrowdFunding.sol\":4441:4496  MakePaymentEvent(thisRequest.target, thisRequest.value) */\n      mload(0x40)\n      tag_143\n      swap3\n      swap2\n      swap1\n      tag_144\n      jump\t// in\n    tag_143:\n      mload(0x40)\n      dup1\n      swap2\n      sub\n      swap1\n      log1\n        /* \"contracts/CrowdFunding.sol\":4014:4504  {... */\n      pop\n        /* \"contracts/CrowdFunding.sol\":3956:4504  function fulfillRequest(uint _requestNum) public onlyOwner{... */\n      pop\n      jump\t// out\n        /* \"contracts/CrowdFunding.sol\":420:443  uint public numberContr */\n    tag_71:\n      sload(0x02)\n      dup2\n      jump\t// out\n        /* \"contracts/CrowdFunding.sol\":974:996  uint public numRequest */\n    tag_75:\n      sload(0x08)\n      dup2\n      jump\t// out\n        /* \"contracts/CrowdFunding.sol\":2464:2941  function getRefund() public ended{... */\n    tag_79:\n        /* \"contracts/CrowdFunding.sol\":1444:1452  deadline */\n      sload(0x05)\n        /* \"contracts/CrowdFunding.sol\":1426:1441  block.timestamp */\n      timestamp\n        /* \"contracts/CrowdFunding.sol\":1426:1452  block.timestamp > deadline */\n      gt\n        /* \"contracts/CrowdFunding.sol\":1418:1490  require(block.timestamp > deadline,\"The CrowdFunding is still going on\") */\n      tag_146\n      jumpi\n      mload(0x40)\n      0x08c379a000000000000000000000000000000000000000000000000000000000\n      dup2\n      mstore\n      0x04\n      add\n      tag_147\n      swap1\n      tag_148\n      jump\t// in\n    tag_147:\n      mload(0x40)\n      dup1\n      swap2\n      sub\n      swap1\n      revert\n    tag_146:\n        /* \"contracts/CrowdFunding.sol\":2524:2528  goal */\n      sload(0x03)\n        /* \"contracts/CrowdFunding.sol\":2515:2521  raised */\n      sload(0x06)\n        /* \"contracts/CrowdFunding.sol\":2515:2528  raised < goal */\n      lt\n        /* \"contracts/CrowdFunding.sol\":2515:2560  raised < goal && contributors[msg.sender] > 0 */\n      dup1\n      iszero\n      tag_150\n      jumpi\n      pop\n        /* \"contracts/CrowdFunding.sol\":2559:2560  0 */\n      0x00\n        /* \"contracts/CrowdFunding.sol\":2532:2544  contributors */\n      dup1\n        /* \"contracts/CrowdFunding.sol\":2532:2556  contributors[msg.sender] */\n      0x00\n        /* \"contracts/CrowdFunding.sol\":2545:2555  msg.sender */\n      caller\n        /* \"contracts/CrowdFunding.sol\":2532:2556  contributors[msg.sender] */\n      0xffffffffffffffffffffffffffffffffffffffff\n      and\n      0xffffffffffffffffffffffffffffffffffffffff\n      and\n      dup2\n      mstore\n      0x20\n      add\n      swap1\n      dup2\n      mstore\n      0x20\n      add\n      0x00\n      keccak256\n      sload\n        /* \"contracts/CrowdFunding.sol\":2532:2560  contributors[msg.sender] > 0 */\n      gt\n        /* \"contracts/CrowdFunding.sol\":2515:2560  raised < goal && contributors[msg.sender] > 0 */\n    tag_150:\n        /* \"contracts/CrowdFunding.sol\":2507:2561  require(raised < goal && contributors[msg.sender] > 0) */\n      tag_151\n      jumpi\n      0x00\n      dup1\n      revert\n    tag_151:\n        /* \"contracts/CrowdFunding.sol\":2579:2589  msg.sender */\n      caller\n        /* \"contracts/CrowdFunding.sol\":2571:2599  payable(msg.sender).transfer */\n      0xffffffffffffffffffffffffffffffffffffffff\n      and\n        /* \"contracts/CrowdFunding.sol\":2571:2625  payable(msg.sender).transfer(contributors[msg.sender]) */\n      0x08fc\n        /* \"contracts/CrowdFunding.sol\":2600:2612  contributors */\n      0x00\n        /* \"contracts/CrowdFunding.sol\":2600:2624  contributors[msg.sender] */\n      dup1\n        /* \"contracts/CrowdFunding.sol\":2613:2623  msg.sender */\n      caller\n        /* \"contracts/CrowdFunding.sol\":2600:2624  contributors[msg.sender] */\n      0xffffffffffffffffffffffffffffffffffffffff\n      and\n      0xffffffffffffffffffffffffffffffffffffffff\n      and\n      dup2\n      mstore\n      0x20\n      add\n      swap1\n      dup2\n      mstore\n      0x20\n      add\n      0x00\n      keccak256\n      sload\n        /* \"contracts/CrowdFunding.sol\":2571:2625  payable(msg.sender).transfer(contributors[msg.sender]) */\n      swap1\n      dup2\n      iszero\n      mul\n      swap1\n      mload(0x40)\n      0x00\n      mload(0x40)\n      dup1\n      dup4\n      sub\n      dup2\n      dup6\n      dup9\n      dup9\n      call\n      swap4\n      pop\n      pop\n      pop\n      pop\n      iszero\n      dup1\n      iszero\n      tag_153\n      jumpi\n      returndatasize\n      0x00\n      dup1\n      returndatacopy\n      revert(0x00, returndatasize)\n    tag_153:\n      pop\n        /* \"contracts/CrowdFunding.sol\":2645:2657  contributors */\n      0x00\n        /* \"contracts/CrowdFunding.sol\":2645:2669  contributors[msg.sender] */\n      dup1\n        /* \"contracts/CrowdFunding.sol\":2658:2668  msg.sender */\n      caller\n        /* \"contracts/CrowdFunding.sol\":2645:2669  contributors[msg.sender] */\n      0xffffffffffffffffffffffffffffffffffffffff\n      and\n      0xffffffffffffffffffffffffffffffffffffffff\n      and\n      dup2\n      mstore\n      0x20\n      add\n      swap1\n      dup2\n      mstore\n      0x20\n      add\n      0x00\n      keccak256\n      sload\n        /* \"contracts/CrowdFunding.sol\":2635:2641  raised */\n      0x06\n      0x00\n        /* \"contracts/CrowdFunding.sol\":2635:2669  raised -= contributors[msg.sender] */\n      dup3\n      dup3\n      sload\n      tag_154\n      swap2\n      swap1\n      tag_155\n      jump\t// in\n    tag_154:\n      swap3\n      pop\n      pop\n      dup2\n      swap1\n      sstore\n      pop\n        /* \"contracts/CrowdFunding.sol\":2824:2825  0 */\n      0x00\n        /* \"contracts/CrowdFunding.sol\":2797:2809  contributors */\n      dup1\n        /* \"contracts/CrowdFunding.sol\":2797:2821  contributors[msg.sender] */\n      0x00\n        /* \"contracts/CrowdFunding.sol\":2810:2820  msg.sender */\n      caller\n        /* \"contracts/CrowdFunding.sol\":2797:2821  contributors[msg.sender] */\n      0xffffffffffffffffffffffffffffffffffffffff\n      and\n      0xffffffffffffffffffffffffffffffffffffffff\n      and\n      dup2\n      mstore\n      0x20\n      add\n      swap1\n      dup2\n      mstore\n      0x20\n      add\n      0x00\n      keccak256\n        /* \"contracts/CrowdFunding.sol\":2797:2825  contributors[msg.sender] = 0 */\n      dup2\n      swap1\n      sstore\n      pop\n        /* \"contracts/CrowdFunding.sol\":2464:2941  function getRefund() public ended{... */\n      jump\t// out\n        /* \"contracts/CrowdFunding.sol\":473:493  uint public minContr */\n    tag_82:\n      sload(0x04)\n      dup2\n      jump\t// out\n        /* \"contracts/CrowdFunding.sol\":698:716  uint public raised */\n    tag_87:\n      sload(0x06)\n      dup2\n      jump\t// out\n        /* \"#utility.yul\":7:82   */\n    tag_156:\n        /* \"#utility.yul\":40:46   */\n      0x00\n        /* \"#utility.yul\":73:75   */\n      0x40\n        /* \"#utility.yul\":67:76   */\n      mload\n        /* \"#utility.yul\":57:76   */\n      swap1\n      pop\n        /* \"#utility.yul\":7:82   */\n      swap1\n      jump\t// out\n        /* \"#utility.yul\":88:205   */\n    tag_157:\n        /* \"#utility.yul\":197:198   */\n      0x00\n        /* \"#utility.yul\":194:195   */\n      dup1\n        /* \"#utility.yul\":187:199   */\n      revert\n        /* \"#utility.yul\":211:328   */\n    tag_158:\n        /* \"#utility.yul\":320:321   */\n      0x00\n        /* \"#utility.yul\":317:318   */\n      dup1\n        /* \"#utility.yul\":310:322   */\n      revert\n        /* \"#utility.yul\":334:451   */\n    tag_159:\n        /* \"#utility.yul\":443:444   */\n      0x00\n        /* \"#utility.yul\":440:441   */\n      dup1\n        /* \"#utility.yul\":433:445   */\n      revert\n        /* \"#utility.yul\":457:574   */\n    tag_160:\n        /* \"#utility.yul\":566:567   */\n      0x00\n        /* \"#utility.yul\":563:564   */\n      dup1\n        /* \"#utility.yul\":556:568   */\n      revert\n        /* \"#utility.yul\":580:682   */\n    tag_161:\n        /* \"#utility.yul\":621:627   */\n      0x00\n        /* \"#utility.yul\":672:674   */\n      0x1f\n        /* \"#utility.yul\":668:675   */\n      not\n        /* \"#utility.yul\":663:665   */\n      0x1f\n        /* \"#utility.yul\":656:661   */\n      dup4\n        /* \"#utility.yul\":652:666   */\n      add\n        /* \"#utility.yul\":648:676   */\n      and\n        /* \"#utility.yul\":638:676   */\n      swap1\n      pop\n        /* \"#utility.yul\":580:682   */\n      swap2\n      swap1\n      pop\n      jump\t// out\n        /* \"#utility.yul\":688:868   */\n    tag_162:\n        /* \"#utility.yul\":736:813   */\n      0x4e487b7100000000000000000000000000000000000000000000000000000000\n        /* \"#utility.yul\":733:734   */\n      0x00\n        /* \"#utility.yul\":726:814   */\n      mstore\n        /* \"#utility.yul\":833:837   */\n      0x41\n        /* \"#utility.yul\":830:831   */\n      0x04\n        /* \"#utility.yul\":823:838   */\n      mstore\n        /* \"#utility.yul\":857:861   */\n      0x24\n        /* \"#utility.yul\":854:855   */\n      0x00\n        /* \"#utility.yul\":847:862   */\n      revert\n        /* \"#utility.yul\":874:1155   */\n    tag_163:\n        /* \"#utility.yul\":957:984   */\n      tag_233\n        /* \"#utility.yul\":979:983   */\n      dup3\n        /* \"#utility.yul\":957:984   */\n      tag_161\n      jump\t// in\n    tag_233:\n        /* \"#utility.yul\":949:955   */\n      dup2\n        /* \"#utility.yul\":945:985   */\n      add\n        /* \"#utility.yul\":1087:1093   */\n      dup2\n        /* \"#utility.yul\":1075:1085   */\n      dup2\n        /* \"#utility.yul\":1072:1094   */\n      lt\n        /* \"#utility.yul\":1051:1069   */\n      0xffffffffffffffff\n        /* \"#utility.yul\":1039:1049   */\n      dup3\n        /* \"#utility.yul\":1036:1070   */\n      gt\n        /* \"#utility.yul\":1033:1095   */\n      or\n        /* \"#utility.yul\":1030:1118   */\n      iszero\n      tag_234\n      jumpi\n        /* \"#utility.yul\":1098:1116   */\n      tag_235\n      tag_162\n      jump\t// in\n    tag_235:\n        /* \"#utility.yul\":1030:1118   */\n    tag_234:\n        /* \"#utility.yul\":1138:1148   */\n      dup1\n        /* \"#utility.yul\":1134:1136   */\n      0x40\n        /* \"#utility.yul\":1127:1149   */\n      mstore\n        /* \"#utility.yul\":917:1155   */\n      pop\n        /* \"#utility.yul\":874:1155   */\n      pop\n      pop\n      jump\t// out\n        /* \"#utility.yul\":1161:1290   */\n    tag_164:\n        /* \"#utility.yul\":1195:1201   */\n      0x00\n        /* \"#utility.yul\":1222:1242   */\n      tag_237\n      tag_156\n      jump\t// in\n    tag_237:\n        /* \"#utility.yul\":1212:1242   */\n      swap1\n      pop\n        /* \"#utility.yul\":1251:1284   */\n      tag_238\n        /* \"#utility.yul\":1279:1283   */\n      dup3\n        /* \"#utility.yul\":1271:1277   */\n      dup3\n        /* \"#utility.yul\":1251:1284   */\n      tag_163\n      jump\t// in\n    tag_238:\n        /* \"#utility.yul\":1161:1290   */\n      swap2\n      swap1\n      pop\n      jump\t// out\n        /* \"#utility.yul\":1296:1604   */\n    tag_165:\n        /* \"#utility.yul\":1358:1362   */\n      0x00\n        /* \"#utility.yul\":1448:1466   */\n      0xffffffffffffffff\n        /* \"#utility.yul\":1440:1446   */\n      dup3\n        /* \"#utility.yul\":1437:1467   */\n      gt\n        /* \"#utility.yul\":1434:1490   */\n      iszero\n      tag_240\n      jumpi\n        /* \"#utility.yul\":1470:1488   */\n      tag_241\n      tag_162\n      jump\t// in\n    tag_241:\n        /* \"#utility.yul\":1434:1490   */\n    tag_240:\n        /* \"#utility.yul\":1508:1537   */\n      tag_242\n        /* \"#utility.yul\":1530:1536   */\n      dup3\n        /* \"#utility.yul\":1508:1537   */\n      tag_161\n      jump\t// in\n    tag_242:\n        /* \"#utility.yul\":1500:1537   */\n      swap1\n      pop\n        /* \"#utility.yul\":1592:1596   */\n      0x20\n        /* \"#utility.yul\":1586:1590   */\n      dup2\n        /* \"#utility.yul\":1582:1597   */\n      add\n        /* \"#utility.yul\":1574:1597   */\n      swap1\n      pop\n        /* \"#utility.yul\":1296:1604   */\n      swap2\n      swap1\n      pop\n      jump\t// out\n        /* \"#utility.yul\":1610:1756   */\n    tag_166:\n        /* \"#utility.yul\":1707:1713   */\n      dup3\n        /* \"#utility.yul\":1702:1705   */\n      dup2\n        /* \"#utility.yul\":1697:1700   */\n      dup4\n        /* \"#utility.yul\":1684:1714   */\n      calldatacopy\n        /* \"#utility.yul\":1748:1749   */\n      0x00\n        /* \"#utility.yul\":1739:1745   */\n      dup4\n        /* \"#utility.yul\":1734:1737   */\n      dup4\n        /* \"#utility.yul\":1730:1746   */\n      add\n        /* \"#utility.yul\":1723:1750   */\n      mstore\n        /* \"#utility.yul\":1610:1756   */\n      pop\n      pop\n      pop\n      jump\t// out\n        /* \"#utility.yul\":1762:2187   */\n    tag_167:\n        /* \"#utility.yul\":1840:1845   */\n      0x00\n        /* \"#utility.yul\":1865:1931   */\n      tag_245\n        /* \"#utility.yul\":1881:1930   */\n      tag_246\n        /* \"#utility.yul\":1923:1929   */\n      dup5\n        /* \"#utility.yul\":1881:1930   */\n      tag_165\n      jump\t// in\n    tag_246:\n        /* \"#utility.yul\":1865:1931   */\n      tag_164\n      jump\t// in\n    tag_245:\n        /* \"#utility.yul\":1856:1931   */\n      swap1\n      pop\n        /* \"#utility.yul\":1954:1960   */\n      dup3\n        /* \"#utility.yul\":1947:1952   */\n      dup2\n        /* \"#utility.yul\":1940:1961   */\n      mstore\n        /* \"#utility.yul\":1992:1996   */\n      0x20\n        /* \"#utility.yul\":1985:1990   */\n      dup2\n        /* \"#utility.yul\":1981:1997   */\n      add\n        /* \"#utility.yul\":2030:2033   */\n      dup5\n        /* \"#utility.yul\":2021:2027   */\n      dup5\n        /* \"#utility.yul\":2016:2019   */\n      dup5\n        /* \"#utility.yul\":2012:2028   */\n      add\n        /* \"#utility.yul\":2009:2034   */\n      gt\n        /* \"#utility.yul\":2006:2118   */\n      iszero\n      tag_247\n      jumpi\n        /* \"#utility.yul\":2037:2116   */\n      tag_248\n      tag_160\n      jump\t// in\n    tag_248:\n        /* \"#utility.yul\":2006:2118   */\n    tag_247:\n        /* \"#utility.yul\":2127:2181   */\n      tag_249\n        /* \"#utility.yul\":2174:2180   */\n      dup5\n        /* \"#utility.yul\":2169:2172   */\n      dup3\n        /* \"#utility.yul\":2164:2167   */\n      dup6\n        /* \"#utility.yul\":2127:2181   */\n      tag_166\n      jump\t// in\n    tag_249:\n        /* \"#utility.yul\":1846:2187   */\n      pop\n        /* \"#utility.yul\":1762:2187   */\n      swap4\n      swap3\n      pop\n      pop\n      pop\n      jump\t// out\n        /* \"#utility.yul\":2207:2547   */\n    tag_168:\n        /* \"#utility.yul\":2263:2268   */\n      0x00\n        /* \"#utility.yul\":2312:2315   */\n      dup3\n        /* \"#utility.yul\":2305:2309   */\n      0x1f\n        /* \"#utility.yul\":2297:2303   */\n      dup4\n        /* \"#utility.yul\":2293:2310   */\n      add\n        /* \"#utility.yul\":2289:2316   */\n      slt\n        /* \"#utility.yul\":2279:2401   */\n      tag_251\n      jumpi\n        /* \"#utility.yul\":2320:2399   */\n      tag_252\n      tag_159\n      jump\t// in\n    tag_252:\n        /* \"#utility.yul\":2279:2401   */\n    tag_251:\n        /* \"#utility.yul\":2437:2443   */\n      dup2\n        /* \"#utility.yul\":2424:2444   */\n      calldataload\n        /* \"#utility.yul\":2462:2541   */\n      tag_253\n        /* \"#utility.yul\":2537:2540   */\n      dup5\n        /* \"#utility.yul\":2529:2535   */\n      dup3\n        /* \"#utility.yul\":2522:2526   */\n      0x20\n        /* \"#utility.yul\":2514:2520   */\n      dup7\n        /* \"#utility.yul\":2510:2527   */\n      add\n        /* \"#utility.yul\":2462:2541   */\n      tag_167\n      jump\t// in\n    tag_253:\n        /* \"#utility.yul\":2453:2541   */\n      swap2\n      pop\n        /* \"#utility.yul\":2269:2547   */\n      pop\n        /* \"#utility.yul\":2207:2547   */\n      swap3\n      swap2\n      pop\n      pop\n      jump\t// out\n        /* \"#utility.yul\":2553:2679   */\n    tag_169:\n        /* \"#utility.yul\":2590:2597   */\n      0x00\n        /* \"#utility.yul\":2630:2672   */\n      0xffffffffffffffffffffffffffffffffffffffff\n        /* \"#utility.yul\":2623:2628   */\n      dup3\n        /* \"#utility.yul\":2619:2673   */\n      and\n        /* \"#utility.yul\":2608:2673   */\n      swap1\n      pop\n        /* \"#utility.yul\":2553:2679   */\n      swap2\n      swap1\n      pop\n      jump\t// out\n        /* \"#utility.yul\":2685:2789   */\n    tag_170:\n        /* \"#utility.yul\":2730:2737   */\n      0x00\n        /* \"#utility.yul\":2759:2783   */\n      tag_256\n        /* \"#utility.yul\":2777:2782   */\n      dup3\n        /* \"#utility.yul\":2759:2783   */\n      tag_169\n      jump\t// in\n    tag_256:\n        /* \"#utility.yul\":2748:2783   */\n      swap1\n      pop\n        /* \"#utility.yul\":2685:2789   */\n      swap2\n      swap1\n      pop\n      jump\t// out\n        /* \"#utility.yul\":2795:2933   */\n    tag_171:\n        /* \"#utility.yul\":2876:2908   */\n      tag_258\n        /* \"#utility.yul\":2902:2907   */\n      dup2\n        /* \"#utility.yul\":2876:2908   */\n      tag_170\n      jump\t// in\n    tag_258:\n        /* \"#utility.yul\":2869:2874   */\n      dup2\n        /* \"#utility.yul\":2866:2909   */\n      eq\n        /* \"#utility.yul\":2856:2927   */\n      tag_259\n      jumpi\n        /* \"#utility.yul\":2923:2924   */\n      0x00\n        /* \"#utility.yul\":2920:2921   */\n      dup1\n        /* \"#utility.yul\":2913:2925   */\n      revert\n        /* \"#utility.yul\":2856:2927   */\n    tag_259:\n        /* \"#utility.yul\":2795:2933   */\n      pop\n      jump\t// out\n        /* \"#utility.yul\":2939:3094   */\n    tag_172:\n        /* \"#utility.yul\":2993:2998   */\n      0x00\n        /* \"#utility.yul\":3031:3037   */\n      dup2\n        /* \"#utility.yul\":3018:3038   */\n      calldataload\n        /* \"#utility.yul\":3009:3038   */\n      swap1\n      pop\n        /* \"#utility.yul\":3047:3088   */\n      tag_261\n        /* \"#utility.yul\":3082:3087   */\n      dup2\n        /* \"#utility.yul\":3047:3088   */\n      tag_171\n      jump\t// in\n    tag_261:\n        /* \"#utility.yul\":2939:3094   */\n      swap3\n      swap2\n      pop\n      pop\n      jump\t// out\n        /* \"#utility.yul\":3100:3177   */\n    tag_173:\n        /* \"#utility.yul\":3137:3144   */\n      0x00\n        /* \"#utility.yul\":3166:3171   */\n      dup2\n        /* \"#utility.yul\":3155:3171   */\n      swap1\n      pop\n        /* \"#utility.yul\":3100:3177   */\n      swap2\n      swap1\n      pop\n      jump\t// out\n        /* \"#utility.yul\":3183:3305   */\n    tag_174:\n        /* \"#utility.yul\":3256:3280   */\n      tag_264\n        /* \"#utility.yul\":3274:3279   */\n      dup2\n        /* \"#utility.yul\":3256:3280   */\n      tag_173\n      jump\t// in\n    tag_264:\n        /* \"#utility.yul\":3249:3254   */\n      dup2\n        /* \"#utility.yul\":3246:3281   */\n      eq\n        /* \"#utility.yul\":3236:3299   */\n      tag_265\n      jumpi\n        /* \"#utility.yul\":3295:3296   */\n      0x00\n        /* \"#utility.yul\":3292:3293   */\n      dup1\n        /* \"#utility.yul\":3285:3297   */\n      revert\n        /* \"#utility.yul\":3236:3299   */\n    tag_265:\n        /* \"#utility.yul\":3183:3305   */\n      pop\n      jump\t// out\n        /* \"#utility.yul\":3311:3450   */\n    tag_175:\n        /* \"#utility.yul\":3357:3362   */\n      0x00\n        /* \"#utility.yul\":3395:3401   */\n      dup2\n        /* \"#utility.yul\":3382:3402   */\n      calldataload\n        /* \"#utility.yul\":3373:3402   */\n      swap1\n      pop\n        /* \"#utility.yul\":3411:3444   */\n      tag_267\n        /* \"#utility.yul\":3438:3443   */\n      dup2\n        /* \"#utility.yul\":3411:3444   */\n      tag_174\n      jump\t// in\n    tag_267:\n        /* \"#utility.yul\":3311:3450   */\n      swap3\n      swap2\n      pop\n      pop\n      jump\t// out\n        /* \"#utility.yul\":3456:4271   */\n    tag_28:\n        /* \"#utility.yul\":3551:3557   */\n      0x00\n        /* \"#utility.yul\":3559:3565   */\n      dup1\n        /* \"#utility.yul\":3567:3573   */\n      0x00\n        /* \"#utility.yul\":3616:3618   */\n      0x60\n        /* \"#utility.yul\":3604:3613   */\n      dup5\n        /* \"#utility.yul\":3595:3602   */\n      dup7\n        /* \"#utility.yul\":3591:3614   */\n      sub\n        /* \"#utility.yul\":3587:3619   */\n      slt\n        /* \"#utility.yul\":3584:3703   */\n      iszero\n      tag_269\n      jumpi\n        /* \"#utility.yul\":3622:3701   */\n      tag_270\n      tag_157\n      jump\t// in\n    tag_270:\n        /* \"#utility.yul\":3584:3703   */\n    tag_269:\n        /* \"#utility.yul\":3770:3771   */\n      0x00\n        /* \"#utility.yul\":3759:3768   */\n      dup5\n        /* \"#utility.yul\":3755:3772   */\n      add\n        /* \"#utility.yul\":3742:3773   */\n      calldataload\n        /* \"#utility.yul\":3800:3818   */\n      0xffffffffffffffff\n        /* \"#utility.yul\":3792:3798   */\n      dup2\n        /* \"#utility.yul\":3789:3819   */\n      gt\n        /* \"#utility.yul\":3786:3903   */\n      iszero\n      tag_271\n      jumpi\n        /* \"#utility.yul\":3822:3901   */\n      tag_272\n      tag_158\n      jump\t// in\n    tag_272:\n        /* \"#utility.yul\":3786:3903   */\n    tag_271:\n        /* \"#utility.yul\":3927:3990   */\n      tag_273\n        /* \"#utility.yul\":3982:3989   */\n      dup7\n        /* \"#utility.yul\":3973:3979   */\n      dup3\n        /* \"#utility.yul\":3962:3971   */\n      dup8\n        /* \"#utility.yul\":3958:3980   */\n      add\n        /* \"#utility.yul\":3927:3990   */\n      tag_168\n      jump\t// in\n    tag_273:\n        /* \"#utility.yul\":3917:3990   */\n      swap4\n      pop\n        /* \"#utility.yul\":3713:4000   */\n      pop\n        /* \"#utility.yul\":4039:4041   */\n      0x20\n        /* \"#utility.yul\":4065:4126   */\n      tag_274\n        /* \"#utility.yul\":4118:4125   */\n      dup7\n        /* \"#utility.yul\":4109:4115   */\n      dup3\n        /* \"#utility.yul\":4098:4107   */\n      dup8\n        /* \"#utility.yul\":4094:4116   */\n      add\n        /* \"#utility.yul\":4065:4126   */\n      tag_172\n      jump\t// in\n    tag_274:\n        /* \"#utility.yul\":4055:4126   */\n      swap3\n      pop\n        /* \"#utility.yul\":4010:4136   */\n      pop\n        /* \"#utility.yul\":4175:4177   */\n      0x40\n        /* \"#utility.yul\":4201:4254   */\n      tag_275\n        /* \"#utility.yul\":4246:4253   */\n      dup7\n        /* \"#utility.yul\":4237:4243   */\n      dup3\n        /* \"#utility.yul\":4226:4235   */\n      dup8\n        /* \"#utility.yul\":4222:4244   */\n      add\n        /* \"#utility.yul\":4201:4254   */\n      tag_175\n      jump\t// in\n    tag_275:\n        /* \"#utility.yul\":4191:4254   */\n      swap2\n      pop\n        /* \"#utility.yul\":4146:4264   */\n      pop\n        /* \"#utility.yul\":3456:4271   */\n      swap3\n      pop\n      swap3\n      pop\n      swap3\n      jump\t// out\n        /* \"#utility.yul\":4277:4395   */\n    tag_176:\n        /* \"#utility.yul\":4364:4388   */\n      tag_277\n        /* \"#utility.yul\":4382:4387   */\n      dup2\n        /* \"#utility.yul\":4364:4388   */\n      tag_173\n      jump\t// in\n    tag_277:\n        /* \"#utility.yul\":4359:4362   */\n      dup3\n        /* \"#utility.yul\":4352:4389   */\n      mstore\n        /* \"#utility.yul\":4277:4395   */\n      pop\n      pop\n      jump\t// out\n        /* \"#utility.yul\":4401:4623   */\n    tag_34:\n        /* \"#utility.yul\":4494:4498   */\n      0x00\n        /* \"#utility.yul\":4532:4534   */\n      0x20\n        /* \"#utility.yul\":4521:4530   */\n      dup3\n        /* \"#utility.yul\":4517:4535   */\n      add\n        /* \"#utility.yul\":4509:4535   */\n      swap1\n      pop\n        /* \"#utility.yul\":4545:4616   */\n      tag_279\n        /* \"#utility.yul\":4613:4614   */\n      0x00\n        /* \"#utility.yul\":4602:4611   */\n      dup4\n        /* \"#utility.yul\":4598:4615   */\n      add\n        /* \"#utility.yul\":4589:4595   */\n      dup5\n        /* \"#utility.yul\":4545:4616   */\n      tag_176\n      jump\t// in\n    tag_279:\n        /* \"#utility.yul\":4401:4623   */\n      swap3\n      swap2\n      pop\n      pop\n      jump\t// out\n        /* \"#utility.yul\":4629:4725   */\n    tag_177:\n        /* \"#utility.yul\":4666:4673   */\n      0x00\n        /* \"#utility.yul\":4695:4719   */\n      tag_281\n        /* \"#utility.yul\":4713:4718   */\n      dup3\n        /* \"#utility.yul\":4695:4719   */\n      tag_169\n      jump\t// in\n    tag_281:\n        /* \"#utility.yul\":4684:4719   */\n      swap1\n      pop\n        /* \"#utility.yul\":4629:4725   */\n      swap2\n      swap1\n      pop\n      jump\t// out\n        /* \"#utility.yul\":4731:4853   */\n    tag_178:\n        /* \"#utility.yul\":4804:4828   */\n      tag_283\n        /* \"#utility.yul\":4822:4827   */\n      dup2\n        /* \"#utility.yul\":4804:4828   */\n      tag_177\n      jump\t// in\n    tag_283:\n        /* \"#utility.yul\":4797:4802   */\n      dup2\n        /* \"#utility.yul\":4794:4829   */\n      eq\n        /* \"#utility.yul\":4784:4847   */\n      tag_284\n      jumpi\n        /* \"#utility.yul\":4843:4844   */\n      0x00\n        /* \"#utility.yul\":4840:4841   */\n      dup1\n        /* \"#utility.yul\":4833:4845   */\n      revert\n        /* \"#utility.yul\":4784:4847   */\n    tag_284:\n        /* \"#utility.yul\":4731:4853   */\n      pop\n      jump\t// out\n        /* \"#utility.yul\":4859:4998   */\n    tag_179:\n        /* \"#utility.yul\":4905:4910   */\n      0x00\n        /* \"#utility.yul\":4943:4949   */\n      dup2\n        /* \"#utility.yul\":4930:4950   */\n      calldataload\n        /* \"#utility.yul\":4921:4950   */\n      swap1\n      pop\n        /* \"#utility.yul\":4959:4992   */\n      tag_286\n        /* \"#utility.yul\":4986:4991   */\n      dup2\n        /* \"#utility.yul\":4959:4992   */\n      tag_178\n      jump\t// in\n    tag_286:\n        /* \"#utility.yul\":4859:4998   */\n      swap3\n      swap2\n      pop\n      pop\n      jump\t// out\n        /* \"#utility.yul\":5004:5333   */\n    tag_38:\n        /* \"#utility.yul\":5063:5069   */\n      0x00\n        /* \"#utility.yul\":5112:5114   */\n      0x20\n        /* \"#utility.yul\":5100:5109   */\n      dup3\n        /* \"#utility.yul\":5091:5098   */\n      dup5\n        /* \"#utility.yul\":5087:5110   */\n      sub\n        /* \"#utility.yul\":5083:5115   */\n      slt\n        /* \"#utility.yul\":5080:5199   */\n      iszero\n      tag_288\n      jumpi\n        /* \"#utility.yul\":5118:5197   */\n      tag_289\n      tag_157\n      jump\t// in\n    tag_289:\n        /* \"#utility.yul\":5080:5199   */\n    tag_288:\n        /* \"#utility.yul\":5238:5239   */\n      0x00\n        /* \"#utility.yul\":5263:5316   */\n      tag_290\n        /* \"#utility.yul\":5308:5315   */\n      dup5\n        /* \"#utility.yul\":5299:5305   */\n      dup3\n        /* \"#utility.yul\":5288:5297   */\n      dup6\n        /* \"#utility.yul\":5284:5306   */\n      add\n        /* \"#utility.yul\":5263:5316   */\n      tag_179\n      jump\t// in\n    tag_290:\n        /* \"#utility.yul\":5253:5316   */\n      swap2\n      pop\n        /* \"#utility.yul\":5209:5326   */\n      pop\n        /* \"#utility.yul\":5004:5333   */\n      swap3\n      swap2\n      pop\n      pop\n      jump\t// out\n        /* \"#utility.yul\":5339:5668   */\n    tag_52:\n        /* \"#utility.yul\":5398:5404   */\n      0x00\n        /* \"#utility.yul\":5447:5449   */\n      0x20\n        /* \"#utility.yul\":5435:5444   */\n      dup3\n        /* \"#utility.yul\":5426:5433   */\n      dup5\n        /* \"#utility.yul\":5422:5445   */\n      sub\n        /* \"#utility.yul\":5418:5450   */\n      slt\n        /* \"#utility.yul\":5415:5534   */\n      iszero\n      tag_292\n      jumpi\n        /* \"#utility.yul\":5453:5532   */\n      tag_293\n      tag_157\n      jump\t// in\n    tag_293:\n        /* \"#utility.yul\":5415:5534   */\n    tag_292:\n        /* \"#utility.yul\":5573:5574   */\n      0x00\n        /* \"#utility.yul\":5598:5651   */\n      tag_294\n        /* \"#utility.yul\":5643:5650   */\n      dup5\n        /* \"#utility.yul\":5634:5640   */\n      dup3\n        /* \"#utility.yul\":5623:5632   */\n      dup6\n        /* \"#utility.yul\":5619:5641   */\n      add\n        /* \"#utility.yul\":5598:5651   */\n      tag_175\n      jump\t// in\n    tag_294:\n        /* \"#utility.yul\":5588:5651   */\n      swap2\n      pop\n        /* \"#utility.yul\":5544:5661   */\n      pop\n        /* \"#utility.yul\":5339:5668   */\n      swap3\n      swap2\n      pop\n      pop\n      jump\t// out\n        /* \"#utility.yul\":5674:5773   */\n    tag_180:\n        /* \"#utility.yul\":5726:5732   */\n      0x00\n        /* \"#utility.yul\":5760:5765   */\n      dup2\n        /* \"#utility.yul\":5754:5766   */\n      mload\n        /* \"#utility.yul\":5744:5766   */\n      swap1\n      pop\n        /* \"#utility.yul\":5674:5773   */\n      swap2\n      swap1\n      pop\n      jump\t// out\n        /* \"#utility.yul\":5779:5948   */\n    tag_181:\n        /* \"#utility.yul\":5863:5874   */\n      0x00\n        /* \"#utility.yul\":5897:5903   */\n      dup3\n        /* \"#utility.yul\":5892:5895   */\n      dup3\n        /* \"#utility.yul\":5885:5904   */\n      mstore\n        /* \"#utility.yul\":5937:5941   */\n      0x20\n        /* \"#utility.yul\":5932:5935   */\n      dup3\n        /* \"#utility.yul\":5928:5942   */\n      add\n        /* \"#utility.yul\":5913:5942   */\n      swap1\n      pop\n        /* \"#utility.yul\":5779:5948   */\n      swap3\n      swap2\n      pop\n      pop\n      jump\t// out\n        /* \"#utility.yul\":5954:6200   */\n    tag_182:\n        /* \"#utility.yul\":6035:6036   */\n      0x00\n        /* \"#utility.yul\":6045:6158   */\n    tag_298:\n        /* \"#utility.yul\":6059:6065   */\n      dup4\n        /* \"#utility.yul\":6056:6057   */\n      dup2\n        /* \"#utility.yul\":6053:6066   */\n      lt\n        /* \"#utility.yul\":6045:6158   */\n      iszero\n      tag_300\n      jumpi\n        /* \"#utility.yul\":6144:6145   */\n      dup1\n        /* \"#utility.yul\":6139:6142   */\n      dup3\n        /* \"#utility.yul\":6135:6146   */\n      add\n        /* \"#utility.yul\":6129:6147   */\n      mload\n        /* \"#utility.yul\":6125:6126   */\n      dup2\n        /* \"#utility.yul\":6120:6123   */\n      dup5\n        /* \"#utility.yul\":6116:6127   */\n      add\n        /* \"#utility.yul\":6109:6148   */\n      mstore\n        /* \"#utility.yul\":6081:6083   */\n      0x20\n        /* \"#utility.yul\":6078:6079   */\n      dup2\n        /* \"#utility.yul\":6074:6084   */\n      add\n        /* \"#utility.yul\":6069:6084   */\n      swap1\n      pop\n        /* \"#utility.yul\":6045:6158   */\n      jump(tag_298)\n    tag_300:\n        /* \"#utility.yul\":6192:6193   */\n      0x00\n        /* \"#utility.yul\":6183:6189   */\n      dup5\n        /* \"#utility.yul\":6178:6181   */\n      dup5\n        /* \"#utility.yul\":6174:6190   */\n      add\n        /* \"#utility.yul\":6167:6194   */\n      mstore\n        /* \"#utility.yul\":6016:6200   */\n      pop\n        /* \"#utility.yul\":5954:6200   */\n      pop\n      pop\n      pop\n      jump\t// out\n        /* \"#utility.yul\":6206:6583   */\n    tag_183:\n        /* \"#utility.yul\":6294:6297   */\n      0x00\n        /* \"#utility.yul\":6322:6361   */\n      tag_302\n        /* \"#utility.yul\":6355:6360   */\n      dup3\n        /* \"#utility.yul\":6322:6361   */\n      tag_180\n      jump\t// in\n    tag_302:\n        /* \"#utility.yul\":6377:6448   */\n      tag_303\n        /* \"#utility.yul\":6441:6447   */\n      dup2\n        /* \"#utility.yul\":6436:6439   */\n      dup6\n        /* \"#utility.yul\":6377:6448   */\n      tag_181\n      jump\t// in\n    tag_303:\n        /* \"#utility.yul\":6370:6448   */\n      swap4\n      pop\n        /* \"#utility.yul\":6457:6522   */\n      tag_304\n        /* \"#utility.yul\":6515:6521   */\n      dup2\n        /* \"#utility.yul\":6510:6513   */\n      dup6\n        /* \"#utility.yul\":6503:6507   */\n      0x20\n        /* \"#utility.yul\":6496:6501   */\n      dup7\n        /* \"#utility.yul\":6492:6508   */\n      add\n        /* \"#utility.yul\":6457:6522   */\n      tag_182\n      jump\t// in\n    tag_304:\n        /* \"#utility.yul\":6547:6576   */\n      tag_305\n        /* \"#utility.yul\":6569:6575   */\n      dup2\n        /* \"#utility.yul\":6547:6576   */\n      tag_161\n      jump\t// in\n    tag_305:\n        /* \"#utility.yul\":6542:6545   */\n      dup5\n        /* \"#utility.yul\":6538:6577   */\n      add\n        /* \"#utility.yul\":6531:6577   */\n      swap2\n      pop\n        /* \"#utility.yul\":6298:6583   */\n      pop\n        /* \"#utility.yul\":6206:6583   */\n      swap3\n      swap2\n      pop\n      pop\n      jump\t// out\n        /* \"#utility.yul\":6589:6731   */\n    tag_184:\n        /* \"#utility.yul\":6692:6724   */\n      tag_307\n        /* \"#utility.yul\":6718:6723   */\n      dup2\n        /* \"#utility.yul\":6692:6724   */\n      tag_170\n      jump\t// in\n    tag_307:\n        /* \"#utility.yul\":6687:6690   */\n      dup3\n        /* \"#utility.yul\":6680:6725   */\n      mstore\n        /* \"#utility.yul\":6589:6731   */\n      pop\n      pop\n      jump\t// out\n        /* \"#utility.yul\":6737:6827   */\n    tag_185:\n        /* \"#utility.yul\":6771:6778   */\n      0x00\n        /* \"#utility.yul\":6814:6819   */\n      dup2\n        /* \"#utility.yul\":6807:6820   */\n      iszero\n        /* \"#utility.yul\":6800:6821   */\n      iszero\n        /* \"#utility.yul\":6789:6821   */\n      swap1\n      pop\n        /* \"#utility.yul\":6737:6827   */\n      swap2\n      swap1\n      pop\n      jump\t// out\n        /* \"#utility.yul\":6833:6942   */\n    tag_186:\n        /* \"#utility.yul\":6914:6935   */\n      tag_310\n        /* \"#utility.yul\":6929:6934   */\n      dup2\n        /* \"#utility.yul\":6914:6935   */\n      tag_185\n      jump\t// in\n    tag_310:\n        /* \"#utility.yul\":6909:6912   */\n      dup3\n        /* \"#utility.yul\":6902:6936   */\n      mstore\n        /* \"#utility.yul\":6833:6942   */\n      pop\n      pop\n      jump\t// out\n        /* \"#utility.yul\":6948:7723   */\n    tag_59:\n        /* \"#utility.yul\":7183:7187   */\n      0x00\n        /* \"#utility.yul\":7221:7224   */\n      0xa0\n        /* \"#utility.yul\":7210:7219   */\n      dup3\n        /* \"#utility.yul\":7206:7225   */\n      add\n        /* \"#utility.yul\":7198:7225   */\n      swap1\n      pop\n        /* \"#utility.yul\":7271:7280   */\n      dup2\n        /* \"#utility.yul\":7265:7269   */\n      dup2\n        /* \"#utility.yul\":7261:7281   */\n      sub\n        /* \"#utility.yul\":7257:7258   */\n      0x00\n        /* \"#utility.yul\":7246:7255   */\n      dup4\n        /* \"#utility.yul\":7242:7259   */\n      add\n        /* \"#utility.yul\":7235:7282   */\n      mstore\n        /* \"#utility.yul\":7299:7377   */\n      tag_312\n        /* \"#utility.yul\":7372:7376   */\n      dup2\n        /* \"#utility.yul\":7363:7369   */\n      dup9\n        /* \"#utility.yul\":7299:7377   */\n      tag_183\n      jump\t// in\n    tag_312:\n        /* \"#utility.yul\":7291:7377   */\n      swap1\n      pop\n        /* \"#utility.yul\":7387:7475   */\n      tag_313\n        /* \"#utility.yul\":7471:7473   */\n      0x20\n        /* \"#utility.yul\":7460:7469   */\n      dup4\n        /* \"#utility.yul\":7456:7474   */\n      add\n        /* \"#utility.yul\":7447:7453   */\n      dup8\n        /* \"#utility.yul\":7387:7475   */\n      tag_184\n      jump\t// in\n    tag_313:\n        /* \"#utility.yul\":7485:7557   */\n      tag_314\n        /* \"#utility.yul\":7553:7555   */\n      0x40\n        /* \"#utility.yul\":7542:7551   */\n      dup4\n        /* \"#utility.yul\":7538:7556   */\n      add\n        /* \"#utility.yul\":7529:7535   */\n      dup7\n        /* \"#utility.yul\":7485:7557   */\n      tag_176\n      jump\t// in\n    tag_314:\n        /* \"#utility.yul\":7567:7633   */\n      tag_315\n        /* \"#utility.yul\":7629:7631   */\n      0x60\n        /* \"#utility.yul\":7618:7627   */\n      dup4\n        /* \"#utility.yul\":7614:7632   */\n      add\n        /* \"#utility.yul\":7605:7611   */\n      dup6\n        /* \"#utility.yul\":7567:7633   */\n      tag_186\n      jump\t// in\n    tag_315:\n        /* \"#utility.yul\":7643:7716   */\n      tag_316\n        /* \"#utility.yul\":7711:7714   */\n      0x80\n        /* \"#utility.yul\":7700:7709   */\n      dup4\n        /* \"#utility.yul\":7696:7715   */\n      add\n        /* \"#utility.yul\":7687:7693   */\n      dup5\n        /* \"#utility.yul\":7643:7716   */\n      tag_176\n      jump\t// in\n    tag_316:\n        /* \"#utility.yul\":6948:7723   */\n      swap7\n      swap6\n      pop\n      pop\n      pop\n      pop\n      pop\n      pop\n      jump\t// out\n        /* \"#utility.yul\":7729:7847   */\n    tag_187:\n        /* \"#utility.yul\":7816:7840   */\n      tag_318\n        /* \"#utility.yul\":7834:7839   */\n      dup2\n        /* \"#utility.yul\":7816:7840   */\n      tag_177\n      jump\t// in\n    tag_318:\n        /* \"#utility.yul\":7811:7814   */\n      dup3\n        /* \"#utility.yul\":7804:7841   */\n      mstore\n        /* \"#utility.yul\":7729:7847   */\n      pop\n      pop\n      jump\t// out\n        /* \"#utility.yul\":7853:8075   */\n    tag_64:\n        /* \"#utility.yul\":7946:7950   */\n      0x00\n        /* \"#utility.yul\":7984:7986   */\n      0x20\n        /* \"#utility.yul\":7973:7982   */\n      dup3\n        /* \"#utility.yul\":7969:7987   */\n      add\n        /* \"#utility.yul\":7961:7987   */\n      swap1\n      pop\n        /* \"#utility.yul\":7997:8068   */\n      tag_320\n        /* \"#utility.yul\":8065:8066   */\n      0x00\n        /* \"#utility.yul\":8054:8063   */\n      dup4\n        /* \"#utility.yul\":8050:8067   */\n      add\n        /* \"#utility.yul\":8041:8047   */\n      dup5\n        /* \"#utility.yul\":7997:8068   */\n      tag_187\n      jump\t// in\n    tag_320:\n        /* \"#utility.yul\":7853:8075   */\n      swap3\n      swap2\n      pop\n      pop\n      jump\t// out\n        /* \"#utility.yul\":8081:8302   */\n    tag_188:\n        /* \"#utility.yul\":8221:8255   */\n      0x5468652043726f776446756e64696e672068617320616c726561647920656e64\n        /* \"#utility.yul\":8217:8218   */\n      0x00\n        /* \"#utility.yul\":8209:8215   */\n      dup3\n        /* \"#utility.yul\":8205:8219   */\n      add\n        /* \"#utility.yul\":8198:8256   */\n      mstore\n        /* \"#utility.yul\":8290:8294   */\n      0x6564000000000000000000000000000000000000000000000000000000000000\n        /* \"#utility.yul\":8285:8287   */\n      0x20\n        /* \"#utility.yul\":8277:8283   */\n      dup3\n        /* \"#utility.yul\":8273:8288   */\n      add\n        /* \"#utility.yul\":8266:8295   */\n      mstore\n        /* \"#utility.yul\":8081:8302   */\n      pop\n      jump\t// out\n        /* \"#utility.yul\":8308:8674   */\n    tag_189:\n        /* \"#utility.yul\":8450:8453   */\n      0x00\n        /* \"#utility.yul\":8471:8538   */\n      tag_323\n        /* \"#utility.yul\":8535:8537   */\n      0x22\n        /* \"#utility.yul\":8530:8533   */\n      dup4\n        /* \"#utility.yul\":8471:8538   */\n      tag_181\n      jump\t// in\n    tag_323:\n        /* \"#utility.yul\":8464:8538   */\n      swap2\n      pop\n        /* \"#utility.yul\":8547:8640   */\n      tag_324\n        /* \"#utility.yul\":8636:8639   */\n      dup3\n        /* \"#utility.yul\":8547:8640   */\n      tag_188\n      jump\t// in\n    tag_324:\n        /* \"#utility.yul\":8665:8667   */\n      0x40\n        /* \"#utility.yul\":8660:8663   */\n      dup3\n        /* \"#utility.yul\":8656:8668   */\n      add\n        /* \"#utility.yul\":8649:8668   */\n      swap1\n      pop\n        /* \"#utility.yul\":8308:8674   */\n      swap2\n      swap1\n      pop\n      jump\t// out\n        /* \"#utility.yul\":8680:9099   */\n    tag_92:\n        /* \"#utility.yul\":8846:8850   */\n      0x00\n        /* \"#utility.yul\":8884:8886   */\n      0x20\n        /* \"#utility.yul\":8873:8882   */\n      dup3\n        /* \"#utility.yul\":8869:8887   */\n      add\n        /* \"#utility.yul\":8861:8887   */\n      swap1\n      pop\n        /* \"#utility.yul\":8933:8942   */\n      dup2\n        /* \"#utility.yul\":8927:8931   */\n      dup2\n        /* \"#utility.yul\":8923:8943   */\n      sub\n        /* \"#utility.yul\":8919:8920   */\n      0x00\n        /* \"#utility.yul\":8908:8917   */\n      dup4\n        /* \"#utility.yul\":8904:8921   */\n      add\n        /* \"#utility.yul\":8897:8944   */\n      mstore\n        /* \"#utility.yul\":8961:9092   */\n      tag_326\n        /* \"#utility.yul\":9087:9091   */\n      dup2\n        /* \"#utility.yul\":8961:9092   */\n      tag_189\n      jump\t// in\n    tag_326:\n        /* \"#utility.yul\":8953:9092   */\n      swap1\n      pop\n        /* \"#utility.yul\":8680:9099   */\n      swap2\n      swap1\n      pop\n      jump\t// out\n        /* \"#utility.yul\":9105:9286   */\n    tag_190:\n        /* \"#utility.yul\":9245:9278   */\n      0x4d696e696d756d20636f6e747269627574696f6e206973203130302077656900\n        /* \"#utility.yul\":9241:9242   */\n      0x00\n        /* \"#utility.yul\":9233:9239   */\n      dup3\n        /* \"#utility.yul\":9229:9243   */\n      add\n        /* \"#utility.yul\":9222:9279   */\n      mstore\n        /* \"#utility.yul\":9105:9286   */\n      pop\n      jump\t// out\n        /* \"#utility.yul\":9292:9658   */\n    tag_191:\n        /* \"#utility.yul\":9434:9437   */\n      0x00\n        /* \"#utility.yul\":9455:9522   */\n      tag_329\n        /* \"#utility.yul\":9519:9521   */\n      0x1f\n        /* \"#utility.yul\":9514:9517   */\n      dup4\n        /* \"#utility.yul\":9455:9522   */\n      tag_181\n      jump\t// in\n    tag_329:\n        /* \"#utility.yul\":9448:9522   */\n      swap2\n      pop\n        /* \"#utility.yul\":9531:9624   */\n      tag_330\n        /* \"#utility.yul\":9620:9623   */\n      dup3\n        /* \"#utility.yul\":9531:9624   */\n      tag_190\n      jump\t// in\n    tag_330:\n        /* \"#utility.yul\":9649:9651   */\n      0x20\n        /* \"#utility.yul\":9644:9647   */\n      dup3\n        /* \"#utility.yul\":9640:9652   */\n      add\n        /* \"#utility.yul\":9633:9652   */\n      swap1\n      pop\n        /* \"#utility.yul\":9292:9658   */\n      swap2\n      swap1\n      pop\n      jump\t// out\n        /* \"#utility.yul\":9664:10083   */\n    tag_96:\n        /* \"#utility.yul\":9830:9834   */\n      0x00\n        /* \"#utility.yul\":9868:9870   */\n      0x20\n        /* \"#utility.yul\":9857:9866   */\n      dup3\n        /* \"#utility.yul\":9853:9871   */\n      add\n        /* \"#utility.yul\":9845:9871   */\n      swap1\n      pop\n        /* \"#utility.yul\":9917:9926   */\n      dup2\n        /* \"#utility.yul\":9911:9915   */\n      dup2\n        /* \"#utility.yul\":9907:9927   */\n      sub\n        /* \"#utility.yul\":9903:9904   */\n      0x00\n        /* \"#utility.yul\":9892:9901   */\n      dup4\n        /* \"#utility.yul\":9888:9905   */\n      add\n        /* \"#utility.yul\":9881:9928   */\n      mstore\n        /* \"#utility.yul\":9945:10076   */\n      tag_332\n        /* \"#utility.yul\":10071:10075   */\n      dup2\n        /* \"#utility.yul\":9945:10076   */\n      tag_191\n      jump\t// in\n    tag_332:\n        /* \"#utility.yul\":9937:10076   */\n      swap1\n      pop\n        /* \"#utility.yul\":9664:10083   */\n      swap2\n      swap1\n      pop\n      jump\t// out\n        /* \"#utility.yul\":10089:10269   */\n    tag_192:\n        /* \"#utility.yul\":10137:10214   */\n      0x4e487b7100000000000000000000000000000000000000000000000000000000\n        /* \"#utility.yul\":10134:10135   */\n      0x00\n        /* \"#utility.yul\":10127:10215   */\n      mstore\n        /* \"#utility.yul\":10234:10238   */\n      0x11\n        /* \"#utility.yul\":10231:10232   */\n      0x04\n        /* \"#utility.yul\":10224:10239   */\n      mstore\n        /* \"#utility.yul\":10258:10262   */\n      0x24\n        /* \"#utility.yul\":10255:10256   */\n      0x00\n        /* \"#utility.yul\":10248:10263   */\n      revert\n        /* \"#utility.yul\":10275:10508   */\n    tag_99:\n        /* \"#utility.yul\":10314:10317   */\n      0x00\n        /* \"#utility.yul\":10337:10361   */\n      tag_335\n        /* \"#utility.yul\":10355:10360   */\n      dup3\n        /* \"#utility.yul\":10337:10361   */\n      tag_173\n      jump\t// in\n    tag_335:\n        /* \"#utility.yul\":10328:10361   */\n      swap2\n      pop\n        /* \"#utility.yul\":10383:10449   */\n      0xffffffffffffffffffffffffffffffffffffffffffffffffffffffffffffffff\n        /* \"#utility.yul\":10376:10381   */\n      dup3\n        /* \"#utility.yul\":10373:10450   */\n      sub\n        /* \"#utility.yul\":10370:10473   */\n      tag_336\n      jumpi\n        /* \"#utility.yul\":10453:10471   */\n      tag_337\n      tag_192\n      jump\t// in\n    tag_337:\n        /* \"#utility.yul\":10370:10473   */\n    tag_336:\n        /* \"#utility.yul\":10500:10501   */\n      0x01\n        /* \"#utility.yul\":10493:10498   */\n      dup3\n        /* \"#utility.yul\":10489:10502   */\n      add\n        /* \"#utility.yul\":10482:10502   */\n      swap1\n      pop\n        /* \"#utility.yul\":10275:10508   */\n      swap2\n      swap1\n      pop\n      jump\t// out\n        /* \"#utility.yul\":10514:10705   */\n    tag_101:\n        /* \"#utility.yul\":10554:10557   */\n      0x00\n        /* \"#utility.yul\":10573:10593   */\n      tag_339\n        /* \"#utility.yul\":10591:10592   */\n      dup3\n        /* \"#utility.yul\":10573:10593   */\n      tag_173\n      jump\t// in\n    tag_339:\n        /* \"#utility.yul\":10568:10593   */\n      swap2\n      pop\n        /* \"#utility.yul\":10607:10627   */\n      tag_340\n        /* \"#utility.yul\":10625:10626   */\n      dup4\n        /* \"#utility.yul\":10607:10627   */\n      tag_173\n      jump\t// in\n    tag_340:\n        /* \"#utility.yul\":10602:10627   */\n      swap3\n      pop\n        /* \"#utility.yul\":10650:10651   */\n      dup3\n        /* \"#utility.yul\":10647:10648   */\n      dup3\n        /* \"#utility.yul\":10643:10652   */\n      add\n        /* \"#utility.yul\":10636:10652   */\n      swap1\n      pop\n        /* \"#utility.yul\":10671:10674   */\n      dup1\n        /* \"#utility.yul\":10668:10669   */\n      dup3\n        /* \"#utility.yul\":10665:10675   */\n      gt\n        /* \"#utility.yul\":10662:10698   */\n      iszero\n      tag_341\n      jumpi\n        /* \"#utility.yul\":10678:10696   */\n      tag_342\n      tag_192\n      jump\t// in\n    tag_342:\n        /* \"#utility.yul\":10662:10698   */\n    tag_341:\n        /* \"#utility.yul\":10514:10705   */\n      swap3\n      swap2\n      pop\n      pop\n      jump\t// out\n        /* \"#utility.yul\":10711:11043   */\n    tag_104:\n        /* \"#utility.yul\":10832:10836   */\n      0x00\n        /* \"#utility.yul\":10870:10872   */\n      0x40\n        /* \"#utility.yul\":10859:10868   */\n      dup3\n        /* \"#utility.yul\":10855:10873   */\n      add\n        /* \"#utility.yul\":10847:10873   */\n      swap1\n      pop\n        /* \"#utility.yul\":10883:10954   */\n      tag_344\n        /* \"#utility.yul\":10951:10952   */\n      0x00\n        /* \"#utility.yul\":10940:10949   */\n      dup4\n        /* \"#utility.yul\":10936:10953   */\n      add\n        /* \"#utility.yul\":10927:10933   */\n      dup6\n        /* \"#utility.yul\":10883:10954   */\n      tag_187\n      jump\t// in\n    tag_344:\n        /* \"#utility.yul\":10964:11036   */\n      tag_345\n        /* \"#utility.yul\":11032:11034   */\n      0x20\n        /* \"#utility.yul\":11021:11030   */\n      dup4\n        /* \"#utility.yul\":11017:11035   */\n      add\n        /* \"#utility.yul\":11008:11014   */\n      dup5\n        /* \"#utility.yul\":10964:11036   */\n      tag_176\n      jump\t// in\n    tag_345:\n        /* \"#utility.yul\":10711:11043   */\n      swap4\n      swap3\n      pop\n      pop\n      pop\n      jump\t// out\n        /* \"#utility.yul\":11049:11219   */\n    tag_193:\n        /* \"#utility.yul\":11189:11211   */\n      0x596f75277265206e6f7420746865206f776e6572000000000000000000000000\n        /* \"#utility.yul\":11185:11186   */\n      0x00\n        /* \"#utility.yul\":11177:11183   */\n      dup3\n        /* \"#utility.yul\":11173:11187   */\n      add\n        /* \"#utility.yul\":11166:11212   */\n      mstore\n        /* \"#utility.yul\":11049:11219   */\n      pop\n      jump\t// out\n        /* \"#utility.yul\":11225:11591   */\n    tag_194:\n        /* \"#utility.yul\":11367:11370   */\n      0x00\n        /* \"#utility.yul\":11388:11455   */\n      tag_348\n        /* \"#utility.yul\":11452:11454   */\n      0x14\n        /* \"#utility.yul\":11447:11450   */\n      dup4\n        /* \"#utility.yul\":11388:11455   */\n      tag_181\n      jump\t// in\n    tag_348:\n        /* \"#utility.yul\":11381:11455   */\n      swap2\n      pop\n        /* \"#utility.yul\":11464:11557   */\n      tag_349\n        /* \"#utility.yul\":11553:11556   */\n      dup3\n        /* \"#utility.yul\":11464:11557   */\n      tag_193\n      jump\t// in\n    tag_349:\n        /* \"#utility.yul\":11582:11584   */\n      0x20\n        /* \"#utility.yul\":11577:11580   */\n      dup3\n        /* \"#utility.yul\":11573:11585   */\n      add\n        /* \"#utility.yul\":11566:11585   */\n      swap1\n      pop\n        /* \"#utility.yul\":11225:11591   */\n      swap2\n      swap1\n      pop\n      jump\t// out\n        /* \"#utility.yul\":11597:12016   */\n    tag_108:\n        /* \"#utility.yul\":11763:11767   */\n      0x00\n        /* \"#utility.yul\":11801:11803   */\n      0x20\n        /* \"#utility.yul\":11790:11799   */\n      dup3\n        /* \"#utility.yul\":11786:11804   */\n      add\n        /* \"#utility.yul\":11778:11804   */\n      swap1\n      pop\n        /* \"#utility.yul\":11850:11859   */\n      dup2\n        /* \"#utility.yul\":11844:11848   */\n      dup2\n        /* \"#utility.yul\":11840:11860   */\n      sub\n        /* \"#utility.yul\":11836:11837   */\n      0x00\n        /* \"#utility.yul\":11825:11834   */\n      dup4\n        /* \"#utility.yul\":11821:11838   */\n      add\n        /* \"#utility.yul\":11814:11861   */\n      mstore\n        /* \"#utility.yul\":11878:12009   */\n      tag_351\n        /* \"#utility.yul\":12004:12008   */\n      dup2\n        /* \"#utility.yul\":11878:12009   */\n      tag_194\n      jump\t// in\n    tag_351:\n        /* \"#utility.yul\":11870:12009   */\n      swap1\n      pop\n        /* \"#utility.yul\":11597:12016   */\n      swap2\n      swap1\n      pop\n      jump\t// out\n        /* \"#utility.yul\":12022:12202   */\n    tag_195:\n        /* \"#utility.yul\":12070:12147   */\n      0x4e487b7100000000000000000000000000000000000000000000000000000000\n        /* \"#utility.yul\":12067:12068   */\n      0x00\n        /* \"#utility.yul\":12060:12148   */\n      mstore\n        /* \"#utility.yul\":12167:12171   */\n      0x22\n        /* \"#utility.yul\":12164:12165   */\n      0x04\n        /* \"#utility.yul\":12157:12172   */\n      mstore\n        /* \"#utility.yul\":12191:12195   */\n      0x24\n        /* \"#utility.yul\":12188:12189   */\n      0x00\n        /* \"#utility.yul\":12181:12196   */\n      revert\n        /* \"#utility.yul\":12208:12528   */\n    tag_125:\n        /* \"#utility.yul\":12252:12258   */\n      0x00\n        /* \"#utility.yul\":12289:12290   */\n      0x02\n        /* \"#utility.yul\":12283:12287   */\n      dup3\n        /* \"#utility.yul\":12279:12291   */\n      div\n        /* \"#utility.yul\":12269:12291   */\n      swap1\n      pop\n        /* \"#utility.yul\":12336:12337   */\n      0x01\n        /* \"#utility.yul\":12330:12334   */\n      dup3\n        /* \"#utility.yul\":12326:12338   */\n      and\n        /* \"#utility.yul\":12357:12375   */\n      dup1\n        /* \"#utility.yul\":12347:12428   */\n      tag_354\n      jumpi\n        /* \"#utility.yul\":12413:12417   */\n      0x7f\n        /* \"#utility.yul\":12405:12411   */\n      dup3\n        /* \"#utility.yul\":12401:12418   */\n      and\n        /* \"#utility.yul\":12391:12418   */\n      swap2\n      pop\n        /* \"#utility.yul\":12347:12428   */\n    tag_354:\n        /* \"#utility.yul\":12475:12477   */\n      0x20\n        /* \"#utility.yul\":12467:12473   */\n      dup3\n        /* \"#utility.yul\":12464:12478   */\n      lt\n        /* \"#utility.yul\":12444:12462   */\n      dup2\n        /* \"#utility.yul\":12441:12479   */\n      sub\n        /* \"#utility.yul\":12438:12522   */\n      tag_355\n      jumpi\n        /* \"#utility.yul\":12494:12512   */\n      tag_356\n      tag_195\n      jump\t// in\n    tag_356:\n        /* \"#utility.yul\":12438:12522   */\n    tag_355:\n        /* \"#utility.yul\":12259:12528   */\n      pop\n        /* \"#utility.yul\":12208:12528   */\n      swap2\n      swap1\n      pop\n      jump\t// out\n        /* \"#utility.yul\":12534:12675   */\n    tag_196:\n        /* \"#utility.yul\":12583:12587   */\n      0x00\n        /* \"#utility.yul\":12606:12609   */\n      dup2\n        /* \"#utility.yul\":12598:12609   */\n      swap1\n      pop\n        /* \"#utility.yul\":12629:12632   */\n      dup2\n        /* \"#utility.yul\":12626:12627   */\n      0x00\n        /* \"#utility.yul\":12619:12633   */\n      mstore\n        /* \"#utility.yul\":12663:12667   */\n      0x20\n        /* \"#utility.yul\":12660:12661   */\n      0x00\n        /* \"#utility.yul\":12650:12668   */\n      keccak256\n        /* \"#utility.yul\":12642:12668   */\n      swap1\n      pop\n        /* \"#utility.yul\":12534:12675   */\n      swap2\n      swap1\n      pop\n      jump\t// out\n        /* \"#utility.yul\":12681:12774   */\n    tag_197:\n        /* \"#utility.yul\":12718:12724   */\n      0x00\n        /* \"#utility.yul\":12765:12767   */\n      0x20\n        /* \"#utility.yul\":12760:12762   */\n      0x1f\n        /* \"#utility.yul\":12753:12758   */\n      dup4\n        /* \"#utility.yul\":12749:12763   */\n      add\n        /* \"#utility.yul\":12745:12768   */\n      div\n        /* \"#utility.yul\":12735:12768   */\n      swap1\n      pop\n        /* \"#utility.yul\":12681:12774   */\n      swap2\n      swap1\n      pop\n      jump\t// out\n        /* \"#utility.yul\":12780:12887   */\n    tag_198:\n        /* \"#utility.yul\":12824:12832   */\n      0x00\n        /* \"#utility.yul\":12874:12879   */\n      dup3\n        /* \"#utility.yul\":12868:12872   */\n      dup3\n        /* \"#utility.yul\":12864:12880   */\n      shl\n        /* \"#utility.yul\":12843:12880   */\n      swap1\n      pop\n        /* \"#utility.yul\":12780:12887   */\n      swap3\n      swap2\n      pop\n      pop\n      jump\t// out\n        /* \"#utility.yul\":12893:13286   */\n    tag_199:\n        /* \"#utility.yul\":12962:12968   */\n      0x00\n        /* \"#utility.yul\":13012:13013   */\n      0x08\n        /* \"#utility.yul\":13000:13010   */\n      dup4\n        /* \"#utility.yul\":12996:13014   */\n      mul\n        /* \"#utility.yul\":13035:13132   */\n      tag_361\n        /* \"#utility.yul\":13065:13131   */\n      0xffffffffffffffffffffffffffffffffffffffffffffffffffffffffffffffff\n        /* \"#utility.yul\":13054:13063   */\n      dup3\n        /* \"#utility.yul\":13035:13132   */\n      tag_198\n      jump\t// in\n    tag_361:\n        /* \"#utility.yul\":13153:13192   */\n      tag_362\n        /* \"#utility.yul\":13183:13191   */\n      dup7\n        /* \"#utility.yul\":13172:13181   */\n      dup4\n        /* \"#utility.yul\":13153:13192   */\n      tag_198\n      jump\t// in\n    tag_362:\n        /* \"#utility.yul\":13141:13192   */\n      swap6\n      pop\n        /* \"#utility.yul\":13225:13229   */\n      dup1\n        /* \"#utility.yul\":13221:13230   */\n      not\n        /* \"#utility.yul\":13214:13219   */\n      dup5\n        /* \"#utility.yul\":13210:13231   */\n      and\n        /* \"#utility.yul\":13201:13231   */\n      swap4\n      pop\n        /* \"#utility.yul\":13274:13278   */\n      dup1\n        /* \"#utility.yul\":13264:13272   */\n      dup7\n        /* \"#utility.yul\":13260:13279   */\n      and\n        /* \"#utility.yul\":13253:13258   */\n      dup5\n        /* \"#utility.yul\":13250:13280   */\n      or\n        /* \"#utility.yul\":13240:13280   */\n      swap3\n      pop\n        /* \"#utility.yul\":12969:13286   */\n      pop\n      pop\n        /* \"#utility.yul\":12893:13286   */\n      swap4\n      swap3\n      pop\n      pop\n      pop\n      jump\t// out\n        /* \"#utility.yul\":13292:13352   */\n    tag_200:\n        /* \"#utility.yul\":13320:13323   */\n      0x00\n        /* \"#utility.yul\":13341:13346   */\n      dup2\n        /* \"#utility.yul\":13334:13346   */\n      swap1\n      pop\n        /* \"#utility.yul\":13292:13352   */\n      swap2\n      swap1\n      pop\n      jump\t// out\n        /* \"#utility.yul\":13358:13500   */\n    tag_201:\n        /* \"#utility.yul\":13408:13417   */\n      0x00\n        /* \"#utility.yul\":13441:13494   */\n      tag_365\n        /* \"#utility.yul\":13459:13493   */\n      tag_366\n        /* \"#utility.yul\":13468:13492   */\n      tag_367\n        /* \"#utility.yul\":13486:13491   */\n      dup5\n        /* \"#utility.yul\":13468:13492   */\n      tag_173\n      jump\t// in\n    tag_367:\n        /* \"#utility.yul\":13459:13493   */\n      tag_200\n      jump\t// in\n    tag_366:\n        /* \"#utility.yul\":13441:13494   */\n      tag_173\n      jump\t// in\n    tag_365:\n        /* \"#utility.yul\":13428:13494   */\n      swap1\n      pop\n        /* \"#utility.yul\":13358:13500   */\n      swap2\n      swap1\n      pop\n      jump\t// out\n        /* \"#utility.yul\":13506:13581   */\n    tag_202:\n        /* \"#utility.yul\":13549:13552   */\n      0x00\n        /* \"#utility.yul\":13570:13575   */\n      dup2\n        /* \"#utility.yul\":13563:13575   */\n      swap1\n      pop\n        /* \"#utility.yul\":13506:13581   */\n      swap2\n      swap1\n      pop\n      jump\t// out\n        /* \"#utility.yul\":13587:13856   */\n    tag_203:\n        /* \"#utility.yul\":13697:13736   */\n      tag_370\n        /* \"#utility.yul\":13728:13735   */\n      dup4\n        /* \"#utility.yul\":13697:13736   */\n      tag_201\n      jump\t// in\n    tag_370:\n        /* \"#utility.yul\":13758:13849   */\n      tag_371\n        /* \"#utility.yul\":13807:13848   */\n      tag_372\n        /* \"#utility.yul\":13831:13847   */\n      dup3\n        /* \"#utility.yul\":13807:13848   */\n      tag_202\n      jump\t// in\n    tag_372:\n        /* \"#utility.yul\":13799:13805   */\n      dup5\n        /* \"#utility.yul\":13792:13796   */\n      dup5\n        /* \"#utility.yul\":13786:13797   */\n      sload\n        /* \"#utility.yul\":13758:13849   */\n      tag_199\n      jump\t// in\n    tag_371:\n        /* \"#utility.yul\":13752:13756   */\n      dup3\n        /* \"#utility.yul\":13745:13850   */\n      sstore\n        /* \"#utility.yul\":13663:13856   */\n      pop\n        /* \"#utility.yul\":13587:13856   */\n      pop\n      pop\n      pop\n      jump\t// out\n        /* \"#utility.yul\":13862:13935   */\n    tag_204:\n        /* \"#utility.yul\":13907:13910   */\n      0x00\n        /* \"#utility.yul\":13862:13935   */\n      swap1\n      jump\t// out\n        /* \"#utility.yul\":13941:14130   */\n    tag_205:\n        /* \"#utility.yul\":14018:14050   */\n      tag_375\n      tag_204\n      jump\t// in\n    tag_375:\n        /* \"#utility.yul\":14059:14124   */\n      tag_376\n        /* \"#utility.yul\":14117:14123   */\n      dup2\n        /* \"#utility.yul\":14109:14115   */\n      dup5\n        /* \"#utility.yul\":14103:14107   */\n      dup5\n        /* \"#utility.yul\":14059:14124   */\n      tag_203\n      jump\t// in\n    tag_376:\n        /* \"#utility.yul\":13994:14130   */\n      pop\n        /* \"#utility.yul\":13941:14130   */\n      pop\n      pop\n      jump\t// out\n        /* \"#utility.yul\":14136:14322   */\n    tag_206:\n        /* \"#utility.yul\":14196:14316   */\n    tag_378:\n        /* \"#utility.yul\":14213:14216   */\n      dup2\n        /* \"#utility.yul\":14206:14211   */\n      dup2\n        /* \"#utility.yul\":14203:14217   */\n      lt\n        /* \"#utility.yul\":14196:14316   */\n      iszero\n      tag_380\n      jumpi\n        /* \"#utility.yul\":14267:14306   */\n      tag_381\n        /* \"#utility.yul\":14304:14305   */\n      0x00\n        /* \"#utility.yul\":14297:14302   */\n      dup3\n        /* \"#utility.yul\":14267:14306   */\n      tag_205\n      jump\t// in\n    tag_381:\n        /* \"#utility.yul\":14240:14241   */\n      0x01\n        /* \"#utility.yul\":14233:14238   */\n      dup2\n        /* \"#utility.yul\":14229:14242   */\n      add\n        /* \"#utility.yul\":14220:14242   */\n      swap1\n      pop\n        /* \"#utility.yul\":14196:14316   */\n      jump(tag_378)\n    tag_380:\n        /* \"#utility.yul\":14136:14322   */\n      pop\n      pop\n      jump\t// out\n        /* \"#utility.yul\":14328:14871   */\n    tag_207:\n        /* \"#utility.yul\":14429:14431   */\n      0x1f\n        /* \"#utility.yul\":14424:14427   */\n      dup3\n        /* \"#utility.yul\":14421:14432   */\n      gt\n        /* \"#utility.yul\":14418:14864   */\n      iszero\n      tag_383\n      jumpi\n        /* \"#utility.yul\":14463:14501   */\n      tag_384\n        /* \"#utility.yul\":14495:14500   */\n      dup2\n        /* \"#utility.yul\":14463:14501   */\n      tag_196\n      jump\t// in\n    tag_384:\n        /* \"#utility.yul\":14547:14576   */\n      tag_385\n        /* \"#utility.yul\":14565:14575   */\n      dup5\n        /* \"#utility.yul\":14547:14576   */\n      tag_197\n      jump\t// in\n    tag_385:\n        /* \"#utility.yul\":14537:14545   */\n      dup2\n        /* \"#utility.yul\":14533:14577   */\n      add\n        /* \"#utility.yul\":14730:14732   */\n      0x20\n        /* \"#utility.yul\":14718:14728   */\n      dup6\n        /* \"#utility.yul\":14715:14733   */\n      lt\n        /* \"#utility.yul\":14712:14761   */\n      iszero\n      tag_386\n      jumpi\n        /* \"#utility.yul\":14751:14759   */\n      dup2\n        /* \"#utility.yul\":14736:14759   */\n      swap1\n      pop\n        /* \"#utility.yul\":14712:14761   */\n    tag_386:\n        /* \"#utility.yul\":14774:14854   */\n      tag_387\n        /* \"#utility.yul\":14830:14852   */\n      tag_388\n        /* \"#utility.yul\":14848:14851   */\n      dup6\n        /* \"#utility.yul\":14830:14852   */\n      tag_197\n      jump\t// in\n    tag_388:\n        /* \"#utility.yul\":14820:14828   */\n      dup4\n        /* \"#utility.yul\":14816:14853   */\n      add\n        /* \"#utility.yul\":14803:14814   */\n      dup3\n        /* \"#utility.yul\":14774:14854   */\n      tag_206\n      jump\t// in\n    tag_387:\n        /* \"#utility.yul\":14433:14864   */\n      pop\n      pop\n        /* \"#utility.yul\":14418:14864   */\n    tag_383:\n        /* \"#utility.yul\":14328:14871   */\n      pop\n      pop\n      pop\n      jump\t// out\n        /* \"#utility.yul\":14877:14994   */\n    tag_208:\n        /* \"#utility.yul\":14931:14939   */\n      0x00\n        /* \"#utility.yul\":14981:14986   */\n      dup3\n        /* \"#utility.yul\":14975:14979   */\n      dup3\n        /* \"#utility.yul\":14971:14987   */\n      shr\n        /* \"#utility.yul\":14950:14987   */\n      swap1\n      pop\n        /* \"#utility.yul\":14877:14994   */\n      swap3\n      swap2\n      pop\n      pop\n      jump\t// out\n        /* \"#utility.yul\":15000:15169   */\n    tag_209:\n        /* \"#utility.yul\":15044:15050   */\n      0x00\n        /* \"#utility.yul\":15077:15128   */\n      tag_391\n        /* \"#utility.yul\":15125:15126   */\n      0x00\n        /* \"#utility.yul\":15121:15127   */\n      not\n        /* \"#utility.yul\":15113:15118   */\n      dup5\n        /* \"#utility.yul\":15110:15111   */\n      0x08\n        /* \"#utility.yul\":15106:15119   */\n      mul\n        /* \"#utility.yul\":15077:15128   */\n      tag_208\n      jump\t// in\n    tag_391:\n        /* \"#utility.yul\":15073:15129   */\n      not\n        /* \"#utility.yul\":15158:15162   */\n      dup1\n        /* \"#utility.yul\":15152:15156   */\n      dup4\n        /* \"#utility.yul\":15148:15163   */\n      and\n        /* \"#utility.yul\":15138:15163   */\n      swap2\n      pop\n        /* \"#utility.yul\":15051:15169   */\n      pop\n        /* \"#utility.yul\":15000:15169   */\n      swap3\n      swap2\n      pop\n      pop\n      jump\t// out\n        /* \"#utility.yul\":15174:15469   */\n    tag_210:\n        /* \"#utility.yul\":15250:15254   */\n      0x00\n        /* \"#utility.yul\":15396:15425   */\n      tag_393\n        /* \"#utility.yul\":15421:15424   */\n      dup4\n        /* \"#utility.yul\":15415:15419   */\n      dup4\n        /* \"#utility.yul\":15396:15425   */\n      tag_209\n      jump\t// in\n    tag_393:\n        /* \"#utility.yul\":15388:15425   */\n      swap2\n      pop\n        /* \"#utility.yul\":15458:15461   */\n      dup3\n        /* \"#utility.yul\":15455:15456   */\n      0x02\n        /* \"#utility.yul\":15451:15462   */\n      mul\n        /* \"#utility.yul\":15445:15449   */\n      dup3\n        /* \"#utility.yul\":15442:15463   */\n      or\n        /* \"#utility.yul\":15434:15463   */\n      swap1\n      pop\n        /* \"#utility.yul\":15174:15469   */\n      swap3\n      swap2\n      pop\n      pop\n      jump\t// out\n        /* \"#utility.yul\":15474:16869   */\n    tag_112:\n        /* \"#utility.yul\":15591:15628   */\n      tag_395\n        /* \"#utility.yul\":15624:15627   */\n      dup3\n        /* \"#utility.yul\":15591:15628   */\n      tag_180\n      jump\t// in\n    tag_395:\n        /* \"#utility.yul\":15693:15711   */\n      0xffffffffffffffff\n        /* \"#utility.yul\":15685:15691   */\n      dup2\n        /* \"#utility.yul\":15682:15712   */\n      gt\n        /* \"#utility.yul\":15679:15735   */\n      iszero\n      tag_396\n      jumpi\n        /* \"#utility.yul\":15715:15733   */\n      tag_397\n      tag_162\n      jump\t// in\n    tag_397:\n        /* \"#utility.yul\":15679:15735   */\n    tag_396:\n        /* \"#utility.yul\":15759:15797   */\n      tag_398\n        /* \"#utility.yul\":15791:15795   */\n      dup3\n        /* \"#utility.yul\":15785:15796   */\n      sload\n        /* \"#utility.yul\":15759:15797   */\n      tag_125\n      jump\t// in\n    tag_398:\n        /* \"#utility.yul\":15844:15911   */\n      tag_399\n        /* \"#utility.yul\":15904:15910   */\n      dup3\n        /* \"#utility.yul\":15896:15902   */\n      dup3\n        /* \"#utility.yul\":15890:15894   */\n      dup6\n        /* \"#utility.yul\":15844:15911   */\n      tag_207\n      jump\t// in\n    tag_399:\n        /* \"#utility.yul\":15938:15939   */\n      0x00\n        /* \"#utility.yul\":15962:15966   */\n      0x20\n        /* \"#utility.yul\":15949:15966   */\n      swap1\n      pop\n        /* \"#utility.yul\":15994:15996   */\n      0x1f\n        /* \"#utility.yul\":15986:15992   */\n      dup4\n        /* \"#utility.yul\":15983:15997   */\n      gt\n        /* \"#utility.yul\":16011:16012   */\n      0x01\n        /* \"#utility.yul\":16006:16624   */\n      dup2\n      eq\n      tag_401\n      jumpi\n        /* \"#utility.yul\":16668:16669   */\n      0x00\n        /* \"#utility.yul\":16685:16691   */\n      dup5\n        /* \"#utility.yul\":16682:16759   */\n      iszero\n      tag_402\n      jumpi\n        /* \"#utility.yul\":16734:16743   */\n      dup3\n        /* \"#utility.yul\":16729:16732   */\n      dup8\n        /* \"#utility.yul\":16725:16744   */\n      add\n        /* \"#utility.yul\":16719:16745   */\n      mload\n        /* \"#utility.yul\":16710:16745   */\n      swap1\n      pop\n        /* \"#utility.yul\":16682:16759   */\n    tag_402:\n        /* \"#utility.yul\":16785:16852   */\n      tag_403\n        /* \"#utility.yul\":16845:16851   */\n      dup6\n        /* \"#utility.yul\":16838:16843   */\n      dup3\n        /* \"#utility.yul\":16785:16852   */\n      tag_210\n      jump\t// in\n    tag_403:\n        /* \"#utility.yul\":16779:16783   */\n      dup7\n        /* \"#utility.yul\":16772:16853   */\n      sstore\n        /* \"#utility.yul\":16641:16863   */\n      pop\n        /* \"#utility.yul\":15976:16863   */\n      jump(tag_400)\n        /* \"#utility.yul\":16006:16624   */\n    tag_401:\n        /* \"#utility.yul\":16058:16062   */\n      0x1f\n        /* \"#utility.yul\":16054:16063   */\n      not\n        /* \"#utility.yul\":16046:16052   */\n      dup5\n        /* \"#utility.yul\":16042:16064   */\n      and\n        /* \"#utility.yul\":16092:16129   */\n      tag_404\n        /* \"#utility.yul\":16124:16128   */\n      dup7\n        /* \"#utility.yul\":16092:16129   */\n      tag_196\n      jump\t// in\n    tag_404:\n        /* \"#utility.yul\":16151:16152   */\n      0x00\n        /* \"#utility.yul\":16165:16373   */\n    tag_405:\n        /* \"#utility.yul\":16179:16186   */\n      dup3\n        /* \"#utility.yul\":16176:16177   */\n      dup2\n        /* \"#utility.yul\":16173:16187   */\n      lt\n        /* \"#utility.yul\":16165:16373   */\n      iszero\n      tag_407\n      jumpi\n        /* \"#utility.yul\":16258:16267   */\n      dup5\n        /* \"#utility.yul\":16253:16256   */\n      dup10\n        /* \"#utility.yul\":16249:16268   */\n      add\n        /* \"#utility.yul\":16243:16269   */\n      mload\n        /* \"#utility.yul\":16235:16241   */\n      dup3\n        /* \"#utility.yul\":16228:16270   */\n      sstore\n        /* \"#utility.yul\":16309:16310   */\n      0x01\n        /* \"#utility.yul\":16301:16307   */\n      dup3\n        /* \"#utility.yul\":16297:16311   */\n      add\n        /* \"#utility.yul\":16287:16311   */\n      swap2\n      pop\n        /* \"#utility.yul\":16356:16358   */\n      0x20\n        /* \"#utility.yul\":16345:16354   */\n      dup6\n        /* \"#utility.yul\":16341:16359   */\n      add\n        /* \"#utility.yul\":16328:16359   */\n      swap5\n      pop\n        /* \"#utility.yul\":16202:16206   */\n      0x20\n        /* \"#utility.yul\":16199:16200   */\n      dup2\n        /* \"#utility.yul\":16195:16207   */\n      add\n        /* \"#utility.yul\":16190:16207   */\n      swap1\n      pop\n        /* \"#utility.yul\":16165:16373   */\n      jump(tag_405)\n    tag_407:\n        /* \"#utility.yul\":16401:16407   */\n      dup7\n        /* \"#utility.yul\":16392:16399   */\n      dup4\n        /* \"#utility.yul\":16389:16408   */\n      lt\n        /* \"#utility.yul\":16386:16565   */\n      iszero\n      tag_408\n      jumpi\n        /* \"#utility.yul\":16459:16468   */\n      dup5\n        /* \"#utility.yul\":16454:16457   */\n      dup10\n        /* \"#utility.yul\":16450:16469   */\n      add\n        /* \"#utility.yul\":16444:16470   */\n      mload\n        /* \"#utility.yul\":16502:16550   */\n      tag_409\n        /* \"#utility.yul\":16544:16548   */\n      0x1f\n        /* \"#utility.yul\":16536:16542   */\n      dup10\n        /* \"#utility.yul\":16532:16549   */\n      and\n        /* \"#utility.yul\":16521:16530   */\n      dup3\n        /* \"#utility.yul\":16502:16550   */\n      tag_209\n      jump\t// in\n    tag_409:\n        /* \"#utility.yul\":16494:16500   */\n      dup4\n        /* \"#utility.yul\":16487:16551   */\n      sstore\n        /* \"#utility.yul\":16409:16565   */\n      pop\n        /* \"#utility.yul\":16386:16565   */\n    tag_408:\n        /* \"#utility.yul\":16611:16612   */\n      0x01\n        /* \"#utility.yul\":16607:16608   */\n      0x02\n        /* \"#utility.yul\":16599:16605   */\n      dup9\n        /* \"#utility.yul\":16595:16609   */\n      mul\n        /* \"#utility.yul\":16591:16613   */\n      add\n        /* \"#utility.yul\":16585:16589   */\n      dup9\n        /* \"#utility.yul\":16578:16614   */\n      sstore\n        /* \"#utility.yul\":16013:16624   */\n      pop\n      pop\n      pop\n        /* \"#utility.yul\":15976:16863   */\n    tag_400:\n      pop\n        /* \"#utility.yul\":15566:16869   */\n      pop\n      pop\n      pop\n        /* \"#utility.yul\":15474:16869   */\n      pop\n      pop\n      jump\t// out\n        /* \"#utility.yul\":16875:17017   */\n    tag_211:\n        /* \"#utility.yul\":16925:16934   */\n      0x00\n        /* \"#utility.yul\":16958:17011   */\n      tag_411\n        /* \"#utility.yul\":16976:17010   */\n      tag_412\n        /* \"#utility.yul\":16985:17009   */\n      tag_413\n        /* \"#utility.yul\":17003:17008   */\n      dup5\n        /* \"#utility.yul\":16985:17009   */\n      tag_169\n      jump\t// in\n    tag_413:\n        /* \"#utility.yul\":16976:17010   */\n      tag_200\n      jump\t// in\n    tag_412:\n        /* \"#utility.yul\":16958:17011   */\n      tag_169\n      jump\t// in\n    tag_411:\n        /* \"#utility.yul\":16945:17011   */\n      swap1\n      pop\n        /* \"#utility.yul\":16875:17017   */\n      swap2\n      swap1\n      pop\n      jump\t// out\n        /* \"#utility.yul\":17023:17149   */\n    tag_212:\n        /* \"#utility.yul\":17073:17082   */\n      0x00\n        /* \"#utility.yul\":17106:17143   */\n      tag_415\n        /* \"#utility.yul\":17137:17142   */\n      dup3\n        /* \"#utility.yul\":17106:17143   */\n      tag_211\n      jump\t// in\n    tag_415:\n        /* \"#utility.yul\":17093:17143   */\n      swap1\n      pop\n        /* \"#utility.yul\":17023:17149   */\n      swap2\n      swap1\n      pop\n      jump\t// out\n        /* \"#utility.yul\":17155:17289   */\n    tag_213:\n        /* \"#utility.yul\":17213:17222   */\n      0x00\n        /* \"#utility.yul\":17246:17283   */\n      tag_417\n        /* \"#utility.yul\":17277:17282   */\n      dup3\n        /* \"#utility.yul\":17246:17283   */\n      tag_212\n      jump\t// in\n    tag_417:\n        /* \"#utility.yul\":17233:17283   */\n      swap1\n      pop\n        /* \"#utility.yul\":17155:17289   */\n      swap2\n      swap1\n      pop\n      jump\t// out\n        /* \"#utility.yul\":17295:17442   */\n    tag_214:\n        /* \"#utility.yul\":17390:17435   */\n      tag_419\n        /* \"#utility.yul\":17429:17434   */\n      dup2\n        /* \"#utility.yul\":17390:17435   */\n      tag_213\n      jump\t// in\n    tag_419:\n        /* \"#utility.yul\":17385:17388   */\n      dup3\n        /* \"#utility.yul\":17378:17436   */\n      mstore\n        /* \"#utility.yul\":17295:17442   */\n      pop\n      pop\n      jump\t// out\n        /* \"#utility.yul\":17448:17997   */\n    tag_114:\n        /* \"#utility.yul\":17625:17629   */\n      0x00\n        /* \"#utility.yul\":17663:17665   */\n      0x60\n        /* \"#utility.yul\":17652:17661   */\n      dup3\n        /* \"#utility.yul\":17648:17666   */\n      add\n        /* \"#utility.yul\":17640:17666   */\n      swap1\n      pop\n        /* \"#utility.yul\":17712:17721   */\n      dup2\n        /* \"#utility.yul\":17706:17710   */\n      dup2\n        /* \"#utility.yul\":17702:17722   */\n      sub\n        /* \"#utility.yul\":17698:17699   */\n      0x00\n        /* \"#utility.yul\":17687:17696   */\n      dup4\n        /* \"#utility.yul\":17683:17700   */\n      add\n        /* \"#utility.yul\":17676:17723   */\n      mstore\n        /* \"#utility.yul\":17740:17818   */\n      tag_421\n        /* \"#utility.yul\":17813:17817   */\n      dup2\n        /* \"#utility.yul\":17804:17810   */\n      dup7\n        /* \"#utility.yul\":17740:17818   */\n      tag_183\n      jump\t// in\n    tag_421:\n        /* \"#utility.yul\":17732:17818   */\n      swap1\n      pop\n        /* \"#utility.yul\":17828:17908   */\n      tag_422\n        /* \"#utility.yul\":17904:17906   */\n      0x20\n        /* \"#utility.yul\":17893:17902   */\n      dup4\n        /* \"#utility.yul\":17889:17907   */\n      add\n        /* \"#utility.yul\":17880:17886   */\n      dup6\n        /* \"#utility.yul\":17828:17908   */\n      tag_214\n      jump\t// in\n    tag_422:\n        /* \"#utility.yul\":17918:17990   */\n      tag_423\n        /* \"#utility.yul\":17986:17988   */\n      0x40\n        /* \"#utility.yul\":17975:17984   */\n      dup4\n        /* \"#utility.yul\":17971:17989   */\n      add\n        /* \"#utility.yul\":17962:17968   */\n      dup5\n        /* \"#utility.yul\":17918:17990   */\n      tag_176\n      jump\t// in\n    tag_423:\n        /* \"#utility.yul\":17448:17997   */\n      swap5\n      swap4\n      pop\n      pop\n      pop\n      pop\n      jump\t// out\n        /* \"#utility.yul\":18003:18177   */\n    tag_215:\n        /* \"#utility.yul\":18143:18169   */\n      0x596f75277265206e6f74206120636f6e7472696275746f720000000000000000\n        /* \"#utility.yul\":18139:18140   */\n      0x00\n        /* \"#utility.yul\":18131:18137   */\n      dup3\n        /* \"#utility.yul\":18127:18141   */\n      add\n        /* \"#utility.yul\":18120:18170   */\n      mstore\n        /* \"#utility.yul\":18003:18177   */\n      pop\n      jump\t// out\n        /* \"#utility.yul\":18183:18549   */\n    tag_216:\n        /* \"#utility.yul\":18325:18328   */\n      0x00\n        /* \"#utility.yul\":18346:18413   */\n      tag_426\n        /* \"#utility.yul\":18410:18412   */\n      0x18\n        /* \"#utility.yul\":18405:18408   */\n      dup4\n        /* \"#utility.yul\":18346:18413   */\n      tag_181\n      jump\t// in\n    tag_426:\n        /* \"#utility.yul\":18339:18413   */\n      swap2\n      pop\n        /* \"#utility.yul\":18422:18515   */\n      tag_427\n        /* \"#utility.yul\":18511:18514   */\n      dup3\n        /* \"#utility.yul\":18422:18515   */\n      tag_215\n      jump\t// in\n    tag_427:\n        /* \"#utility.yul\":18540:18542   */\n      0x20\n        /* \"#utility.yul\":18535:18538   */\n      dup3\n        /* \"#utility.yul\":18531:18543   */\n      add\n        /* \"#utility.yul\":18524:18543   */\n      swap1\n      pop\n        /* \"#utility.yul\":18183:18549   */\n      swap2\n      swap1\n      pop\n      jump\t// out\n        /* \"#utility.yul\":18555:18974   */\n    tag_119:\n        /* \"#utility.yul\":18721:18725   */\n      0x00\n        /* \"#utility.yul\":18759:18761   */\n      0x20\n        /* \"#utility.yul\":18748:18757   */\n      dup3\n        /* \"#utility.yul\":18744:18762   */\n      add\n        /* \"#utility.yul\":18736:18762   */\n      swap1\n      pop\n        /* \"#utility.yul\":18808:18817   */\n      dup2\n        /* \"#utility.yul\":18802:18806   */\n      dup2\n        /* \"#utility.yul\":18798:18818   */\n      sub\n        /* \"#utility.yul\":18794:18795   */\n      0x00\n        /* \"#utility.yul\":18783:18792   */\n      dup4\n        /* \"#utility.yul\":18779:18796   */\n      add\n        /* \"#utility.yul\":18772:18819   */\n      mstore\n        /* \"#utility.yul\":18836:18967   */\n      tag_429\n        /* \"#utility.yul\":18962:18966   */\n      dup2\n        /* \"#utility.yul\":18836:18967   */\n      tag_216\n      jump\t// in\n    tag_429:\n        /* \"#utility.yul\":18828:18967   */\n      swap1\n      pop\n        /* \"#utility.yul\":18555:18974   */\n      swap2\n      swap1\n      pop\n      jump\t// out\n        /* \"#utility.yul\":18980:19152   */\n    tag_217:\n        /* \"#utility.yul\":19120:19144   */\n      0x596f75206861766520616c726561647920766f74656400000000000000000000\n        /* \"#utility.yul\":19116:19117   */\n      0x00\n        /* \"#utility.yul\":19108:19114   */\n      dup3\n        /* \"#utility.yul\":19104:19118   */\n      add\n        /* \"#utility.yul\":19097:19145   */\n      mstore\n        /* \"#utility.yul\":18980:19152   */\n      pop\n      jump\t// out\n        /* \"#utility.yul\":19158:19524   */\n    tag_218:\n        /* \"#utility.yul\":19300:19303   */\n      0x00\n        /* \"#utility.yul\":19321:19388   */\n      tag_432\n        /* \"#utility.yul\":19385:19387   */\n      0x16\n        /* \"#utility.yul\":19380:19383   */\n      dup4\n        /* \"#utility.yul\":19321:19388   */\n      tag_181\n      jump\t// in\n    tag_432:\n        /* \"#utility.yul\":19314:19388   */\n      swap2\n      pop\n        /* \"#utility.yul\":19397:19490   */\n      tag_433\n        /* \"#utility.yul\":19486:19489   */\n      dup3\n        /* \"#utility.yul\":19397:19490   */\n      tag_217\n      jump\t// in\n    tag_433:\n        /* \"#utility.yul\":19515:19517   */\n      0x20\n        /* \"#utility.yul\":19510:19513   */\n      dup3\n        /* \"#utility.yul\":19506:19518   */\n      add\n        /* \"#utility.yul\":19499:19518   */\n      swap1\n      pop\n        /* \"#utility.yul\":19158:19524   */\n      swap2\n      swap1\n      pop\n      jump\t// out\n        /* \"#utility.yul\":19530:19949   */\n    tag_122:\n        /* \"#utility.yul\":19696:19700   */\n      0x00\n        /* \"#utility.yul\":19734:19736   */\n      0x20\n        /* \"#utility.yul\":19723:19732   */\n      dup3\n        /* \"#utility.yul\":19719:19737   */\n      add\n        /* \"#utility.yul\":19711:19737   */\n      swap1\n      pop\n        /* \"#utility.yul\":19783:19792   */\n      dup2\n        /* \"#utility.yul\":19777:19781   */\n      dup2\n        /* \"#utility.yul\":19773:19793   */\n      sub\n        /* \"#utility.yul\":19769:19770   */\n      0x00\n        /* \"#utility.yul\":19758:19767   */\n      dup4\n        /* \"#utility.yul\":19754:19771   */\n      add\n        /* \"#utility.yul\":19747:19794   */\n      mstore\n        /* \"#utility.yul\":19811:19942   */\n      tag_435\n        /* \"#utility.yul\":19937:19941   */\n      dup2\n        /* \"#utility.yul\":19811:19942   */\n      tag_218\n      jump\t// in\n    tag_435:\n        /* \"#utility.yul\":19803:19942   */\n      swap1\n      pop\n        /* \"#utility.yul\":19530:19949   */\n      swap2\n      swap1\n      pop\n      jump\t// out\n        /* \"#utility.yul\":19955:20130   */\n    tag_219:\n        /* \"#utility.yul\":20095:20122   */\n      0x5265717565737420616c726561647920636f6d706c6574656400000000000000\n        /* \"#utility.yul\":20091:20092   */\n      0x00\n        /* \"#utility.yul\":20083:20089   */\n      dup3\n        /* \"#utility.yul\":20079:20093   */\n      add\n        /* \"#utility.yul\":20072:20123   */\n      mstore\n        /* \"#utility.yul\":19955:20130   */\n      pop\n      jump\t// out\n        /* \"#utility.yul\":20136:20502   */\n    tag_220:\n        /* \"#utility.yul\":20278:20281   */\n      0x00\n        /* \"#utility.yul\":20299:20366   */\n      tag_438\n        /* \"#utility.yul\":20363:20365   */\n      0x19\n        /* \"#utility.yul\":20358:20361   */\n      dup4\n        /* \"#utility.yul\":20299:20366   */\n      tag_181\n      jump\t// in\n    tag_438:\n        /* \"#utility.yul\":20292:20366   */\n      swap2\n      pop\n        /* \"#utility.yul\":20375:20468   */\n      tag_439\n        /* \"#utility.yul\":20464:20467   */\n      dup3\n        /* \"#utility.yul\":20375:20468   */\n      tag_219\n      jump\t// in\n    tag_439:\n        /* \"#utility.yul\":20493:20495   */\n      0x20\n        /* \"#utility.yul\":20488:20491   */\n      dup3\n        /* \"#utility.yul\":20484:20496   */\n      add\n        /* \"#utility.yul\":20477:20496   */\n      swap1\n      pop\n        /* \"#utility.yul\":20136:20502   */\n      swap2\n      swap1\n      pop\n      jump\t// out\n        /* \"#utility.yul\":20508:20927   */\n    tag_137:\n        /* \"#utility.yul\":20674:20678   */\n      0x00\n        /* \"#utility.yul\":20712:20714   */\n      0x20\n        /* \"#utility.yul\":20701:20710   */\n      dup3\n        /* \"#utility.yul\":20697:20715   */\n      add\n        /* \"#utility.yul\":20689:20715   */\n      swap1\n      pop\n        /* \"#utility.yul\":20761:20770   */\n      dup2\n        /* \"#utility.yul\":20755:20759   */\n      dup2\n        /* \"#utility.yul\":20751:20771   */\n      sub\n        /* \"#utility.yul\":20747:20748   */\n      0x00\n        /* \"#utility.yul\":20736:20745   */\n      dup4\n        /* \"#utility.yul\":20732:20749   */\n      add\n        /* \"#utility.yul\":20725:20772   */\n      mstore\n        /* \"#utility.yul\":20789:20920   */\n      tag_441\n        /* \"#utility.yul\":20915:20919   */\n      dup2\n        /* \"#utility.yul\":20789:20920   */\n      tag_220\n      jump\t// in\n    tag_441:\n        /* \"#utility.yul\":20781:20920   */\n      swap1\n      pop\n        /* \"#utility.yul\":20508:20927   */\n      swap2\n      swap1\n      pop\n      jump\t// out\n        /* \"#utility.yul\":20933:21113   */\n    tag_221:\n        /* \"#utility.yul\":20981:21058   */\n      0x4e487b7100000000000000000000000000000000000000000000000000000000\n        /* \"#utility.yul\":20978:20979   */\n      0x00\n        /* \"#utility.yul\":20971:21059   */\n      mstore\n        /* \"#utility.yul\":21078:21082   */\n      0x12\n        /* \"#utility.yul\":21075:21076   */\n      0x04\n        /* \"#utility.yul\":21068:21083   */\n      mstore\n        /* \"#utility.yul\":21102:21106   */\n      0x24\n        /* \"#utility.yul\":21099:21100   */\n      0x00\n        /* \"#utility.yul\":21092:21107   */\n      revert\n        /* \"#utility.yul\":21119:21304   */\n    tag_139:\n        /* \"#utility.yul\":21159:21160   */\n      0x00\n        /* \"#utility.yul\":21176:21196   */\n      tag_444\n        /* \"#utility.yul\":21194:21195   */\n      dup3\n        /* \"#utility.yul\":21176:21196   */\n      tag_173\n      jump\t// in\n    tag_444:\n        /* \"#utility.yul\":21171:21196   */\n      swap2\n      pop\n        /* \"#utility.yul\":21210:21230   */\n      tag_445\n        /* \"#utility.yul\":21228:21229   */\n      dup4\n        /* \"#utility.yul\":21210:21230   */\n      tag_173\n      jump\t// in\n    tag_445:\n        /* \"#utility.yul\":21205:21230   */\n      swap3\n      pop\n        /* \"#utility.yul\":21249:21250   */\n      dup3\n        /* \"#utility.yul\":21239:21274   */\n      tag_446\n      jumpi\n        /* \"#utility.yul\":21254:21272   */\n      tag_447\n      tag_221\n      jump\t// in\n    tag_447:\n        /* \"#utility.yul\":21239:21274   */\n    tag_446:\n        /* \"#utility.yul\":21296:21297   */\n      dup3\n        /* \"#utility.yul\":21293:21294   */\n      dup3\n        /* \"#utility.yul\":21289:21298   */\n      div\n        /* \"#utility.yul\":21284:21298   */\n      swap1\n      pop\n        /* \"#utility.yul\":21119:21304   */\n      swap3\n      swap2\n      pop\n      pop\n      jump\t// out\n        /* \"#utility.yul\":21310:21658   */\n    tag_144:\n        /* \"#utility.yul\":21439:21443   */\n      0x00\n        /* \"#utility.yul\":21477:21479   */\n      0x40\n        /* \"#utility.yul\":21466:21475   */\n      dup3\n        /* \"#utility.yul\":21462:21480   */\n      add\n        /* \"#utility.yul\":21454:21480   */\n      swap1\n      pop\n        /* \"#utility.yul\":21490:21569   */\n      tag_449\n        /* \"#utility.yul\":21566:21567   */\n      0x00\n        /* \"#utility.yul\":21555:21564   */\n      dup4\n        /* \"#utility.yul\":21551:21568   */\n      add\n        /* \"#utility.yul\":21542:21548   */\n      dup6\n        /* \"#utility.yul\":21490:21569   */\n      tag_214\n      jump\t// in\n    tag_449:\n        /* \"#utility.yul\":21579:21651   */\n      tag_450\n        /* \"#utility.yul\":21647:21649   */\n      0x20\n        /* \"#utility.yul\":21636:21645   */\n      dup4\n        /* \"#utility.yul\":21632:21650   */\n      add\n        /* \"#utility.yul\":21623:21629   */\n      dup5\n        /* \"#utility.yul\":21579:21651   */\n      tag_176\n      jump\t// in\n    tag_450:\n        /* \"#utility.yul\":21310:21658   */\n      swap4\n      swap3\n      pop\n      pop\n      pop\n      jump\t// out\n        /* \"#utility.yul\":21664:21885   */\n    tag_222:\n        /* \"#utility.yul\":21804:21838   */\n      0x5468652043726f776446756e64696e67206973207374696c6c20676f696e6720\n        /* \"#utility.yul\":21800:21801   */\n      0x00\n        /* \"#utility.yul\":21792:21798   */\n      dup3\n        /* \"#utility.yul\":21788:21802   */\n      add\n        /* \"#utility.yul\":21781:21839   */\n      mstore\n        /* \"#utility.yul\":21873:21877   */\n      0x6f6e000000000000000000000000000000000000000000000000000000000000\n        /* \"#utility.yul\":21868:21870   */\n      0x20\n        /* \"#utility.yul\":21860:21866   */\n      dup3\n        /* \"#utility.yul\":21856:21871   */\n      add\n        /* \"#utility.yul\":21849:21878   */\n      mstore\n        /* \"#utility.yul\":21664:21885   */\n      pop\n      jump\t// out\n        /* \"#utility.yul\":21891:22257   */\n    tag_223:\n        /* \"#utility.yul\":22033:22036   */\n      0x00\n        /* \"#utility.yul\":22054:22121   */\n      tag_453\n        /* \"#utility.yul\":22118:22120   */\n      0x22\n        /* \"#utility.yul\":22113:22116   */\n      dup4\n        /* \"#utility.yul\":22054:22121   */\n      tag_181\n      jump\t// in\n    tag_453:\n        /* \"#utility.yul\":22047:22121   */\n      swap2\n      pop\n        /* \"#utility.yul\":22130:22223   */\n      tag_454\n        /* \"#utility.yul\":22219:22222   */\n      dup3\n        /* \"#utility.yul\":22130:22223   */\n      tag_222\n      jump\t// in\n    tag_454:\n        /* \"#utility.yul\":22248:22250   */\n      0x40\n        /* \"#utility.yul\":22243:22246   */\n      dup3\n        /* \"#utility.yul\":22239:22251   */\n      add\n        /* \"#utility.yul\":22232:22251   */\n      swap1\n      pop\n        /* \"#utility.yul\":21891:22257   */\n      swap2\n      swap1\n      pop\n      jump\t// out\n        /* \"#utility.yul\":22263:22682   */\n    tag_148:\n        /* \"#utility.yul\":22429:22433   */\n      0x00\n        /* \"#utility.yul\":22467:22469   */\n      0x20\n        /* \"#utility.yul\":22456:22465   */\n      dup3\n        /* \"#utility.yul\":22452:22470   */\n      add\n        /* \"#utility.yul\":22444:22470   */\n      swap1\n      pop\n        /* \"#utility.yul\":22516:22525   */\n      dup2\n        /* \"#utility.yul\":22510:22514   */\n      dup2\n        /* \"#utility.yul\":22506:22526   */\n      sub\n        /* \"#utility.yul\":22502:22503   */\n      0x00\n        /* \"#utility.yul\":22491:22500   */\n      dup4\n        /* \"#utility.yul\":22487:22504   */\n      add\n        /* \"#utility.yul\":22480:22527   */\n      mstore\n        /* \"#utility.yul\":22544:22675   */\n      tag_456\n        /* \"#utility.yul\":22670:22674   */\n      dup2\n        /* \"#utility.yul\":22544:22675   */\n      tag_223\n      jump\t// in\n    tag_456:\n        /* \"#utility.yul\":22536:22675   */\n      swap1\n      pop\n        /* \"#utility.yul\":22263:22682   */\n      swap2\n      swap1\n      pop\n      jump\t// out\n        /* \"#utility.yul\":22688:22882   */\n    tag_155:\n        /* \"#utility.yul\":22728:22732   */\n      0x00\n        /* \"#utility.yul\":22748:22768   */\n      tag_458\n        /* \"#utility.yul\":22766:22767   */\n      dup3\n        /* \"#utility.yul\":22748:22768   */\n      tag_173\n      jump\t// in\n    tag_458:\n        /* \"#utility.yul\":22743:22768   */\n      swap2\n      pop\n        /* \"#utility.yul\":22782:22802   */\n      tag_459\n        /* \"#utility.yul\":22800:22801   */\n      dup4\n        /* \"#utility.yul\":22782:22802   */\n      tag_173\n      jump\t// in\n    tag_459:\n        /* \"#utility.yul\":22777:22802   */\n      swap3\n      pop\n        /* \"#utility.yul\":22826:22827   */\n      dup3\n        /* \"#utility.yul\":22823:22824   */\n      dup3\n        /* \"#utility.yul\":22819:22828   */\n      sub\n        /* \"#utility.yul\":22811:22828   */\n      swap1\n      pop\n        /* \"#utility.yul\":22850:22851   */\n      dup2\n        /* \"#utility.yul\":22844:22848   */\n      dup2\n        /* \"#utility.yul\":22841:22852   */\n      gt\n        /* \"#utility.yul\":22838:22875   */\n      iszero\n      tag_460\n      jumpi\n        /* \"#utility.yul\":22855:22873   */\n      tag_461\n      tag_192\n      jump\t// in\n    tag_461:\n        /* \"#utility.yul\":22838:22875   */\n    tag_460:\n        /* \"#utility.yul\":22688:22882   */\n      swap3\n      swap2\n      pop\n      pop\n      jump\t// out\n\n    auxdata: 0xa26469706673582212205bfbe7d5a97c57536545c9a83b1e793f60eda0e2ae6e300139291aba2716075964736f6c63430008110033\n}\n",
				"bytecode": {
					"linkReferences": {},
					"object": "60806040523480156200001157600080fd5b5060405162001bc238038062001bc28339818101604052810190620000379190620000e3565b33600160006101000a81548173ffffffffffffffffffffffffffffffffffffffff021916908373ffffffffffffffffffffffffffffffffffffffff1602179055508160038190555080426200008d919062000159565b6005819055506064600481905550505062000194565b600080fd5b6000819050919050565b620000bd81620000a8565b8114620000c957600080fd5b50565b600081519050620000dd81620000b2565b92915050565b60008060408385031215620000fd57620000fc620000a3565b5b60006200010d85828601620000cc565b92505060206200012085828601620000cc565b9150509250929050565b7f4e487b7100000000000000000000000000000000000000000000000000000000600052601160045260246000fd5b60006200016682620000a8565b91506200017383620000a8565b92508282019050808211156200018e576200018d6200012a565b5b92915050565b611a1e80620001a46000396000f3fe6080604052600436106100ec5760003560e01c80638da5cb5b1161008a578063b2d5ae4411610059578063b2d5ae44146102fb578063b8b142de14610312578063d7bb99ba1461033d578063f0ea4bfc14610347576100fb565b80638da5cb5b146102515780639a91eb0d1461027c578063afae512e146102a5578063b1b16431146102d0576100fb565b806329dcb0cf116100c657806329dcb0cf1461019157806340193883146101bc5780634ba1f098146101e757806381d12c5814610210576100fb565b8063064787dd1461010057806312065fe0146101295780631f6d494214610154576100fb565b366100fb576100f9610372565b005b600080fd5b34801561010c57600080fd5b5061012760048036038101906101229190610f48565b610503565b005b34801561013557600080fd5b5061013e61068a565b60405161014b9190610fc6565b60405180910390f35b34801561016057600080fd5b5061017b6004803603810190610176919061101f565b610692565b6040516101889190610fc6565b60405180910390f35b34801561019d57600080fd5b506101a66106aa565b6040516101b39190610fc6565b60405180910390f35b3480156101c857600080fd5b506101d16106b0565b6040516101de9190610fc6565b60405180910390f35b3480156101f357600080fd5b5061020e6004803603810190610209919061104c565b6106b6565b005b34801561021c57600080fd5b506102376004803603810190610232919061104c565b610853565b604051610248959493929190611122565b60405180910390f35b34801561025d57600080fd5b5061026661093e565b604051610273919061118b565b60405180910390f35b34801561028857600080fd5b506102a3600480360381019061029e919061104c565b610964565b005b3480156102b157600080fd5b506102ba610b82565b6040516102c79190610fc6565b60405180910390f35b3480156102dc57600080fd5b506102e5610b88565b6040516102f29190610fc6565b60405180910390f35b34801561030757600080fd5b50610310610b8e565b005b34801561031e57600080fd5b50610327610d4e565b6040516103349190610fc6565b60405180910390f35b610345610372565b005b34801561035357600080fd5b5061035c610d54565b6040516103699190610fc6565b60405180910390f35b60055442106103b6576040517f08c379a00000000000000000000000000000000000000000000000000000000081526004016103ad90611218565b60405180910390fd5b6004543410156103fb576040517f08c379a00000000000000000000000000000000000000000000000000000000081526004016103f290611284565b60405180910390fd5b60008060003373ffffffffffffffffffffffffffffffffffffffff1673ffffffffffffffffffffffffffffffffffffffff168152602001908152602001600020540361045a5760026000815480929190610454906112d3565b91905055505b346000803373ffffffffffffffffffffffffffffffffffffffff1673ffffffffffffffffffffffffffffffffffffffff16815260200190815260200160002060008282546104a8919061131b565b9250508190555034600660008282546104c1919061131b565b925050819055507f2daf61dec57a2c194e9e87958b1a40a5c236b5e8c6041655d664ddbd16c2932033346040516104f992919061134f565b60405180910390a1565b600160009054906101000a900473ffffffffffffffffffffffffffffffffffffffff1673ffffffffffffffffffffffffffffffffffffffff163373ffffffffffffffffffffffffffffffffffffffff1614610593576040517f08c379a000000000000000000000000000000000000000000000000000000000815260040161058a906113c4565b60405180910390fd5b60006007600060085481526020019081526020016000209050600860008154809291906105bf906112d3565b9190505550838160000190816105d591906115f0565b50828160010160006101000a81548173ffffffffffffffffffffffffffffffffffffffff021916908373ffffffffffffffffffffffffffffffffffffffff16021790555081816002018190555060008160030160006101000a81548160ff021916908315150217905550600081600401819055507f5392bd80651676ccaaedec1afbe841d47e369223df0ba1586110b6426ee87a3a84848460405161067c93929190611717565b60405180910390a150505050565b600047905090565b60006020528060005260406000206000915090505481565b60055481565b60035481565b60008060003373ffffffffffffffffffffffffffffffffffffffff1673ffffffffffffffffffffffffffffffffffffffff1681526020019081526020016000205411610737576040517f08c379a000000000000000000000000000000000000000000000000000000000815260040161072e906117a1565b60405180910390fd5b6000600760008381526020019081526020016000209050600015158160050160003373ffffffffffffffffffffffffffffffffffffffff1673ffffffffffffffffffffffffffffffffffffffff16815260200190815260200160002060009054906101000a900460ff161515146107e3576040517f08c379a00000000000000000000000000000000000000000000000000000000081526004016107da9061180d565b60405180910390fd5b600115158160050160003373ffffffffffffffffffffffffffffffffffffffff1673ffffffffffffffffffffffffffffffffffffffff16815260200190815260200160002060009054906101000a9050505080600401600081548092919061084a906112d3565b91905055505050565b600760205280600052604060002060009150905080600001805461087690611413565b80601f01602080910402602001604051908101604052809291908181526020018280546108a290611413565b80156108ef5780601f106108c4576101008083540402835291602001916108ef565b820191906000526020600020905b8154815290600101906020018083116108d257829003601f168201915b5050505050908060010160009054906101000a900473ffffffffffffffffffffffffffffffffffffffff16908060020154908060030160009054906101000a900460ff16908060040154905085565b600160009054906101000a900473ffffffffffffffffffffffffffffffffffffffff1681565b600160009054906101000a900473ffffffffffffffffffffffffffffffffffffffff1673ffffffffffffffffffffffffffffffffffffffff163373ffffffffffffffffffffffffffffffffffffffff16146109f4576040517f08c379a00000000000000000000000000000000000000000000000000000000081526004016109eb906113c4565b60405180910390fd5b6003546006541015610a0557600080fd5b6000600760008381526020019081526020016000209050600015158160030160009054906101000a900460ff16151514610a74576040517f08c379a0000000000000000000000000000000000000000000000000000000008152600401610a6b90611879565b60405180910390fd5b60028054610a8291906118c8565b816004015411610a9157600080fd5b8060010160009054906101000a900473ffffffffffffffffffffffffffffffffffffffff1673ffffffffffffffffffffffffffffffffffffffff166108fc82600201549081150290604051600060405180830381858888f19350505050158015610aff573d6000803e3d6000fd5b5060018160030160006101000a81548160ff0219169083151502179055507f516e1673e5e85c44620165259173329adda2ad25e7bb15020c732be060b5b7908160010160009054906101000a900473ffffffffffffffffffffffffffffffffffffffff168260020154604051610b769291906118f9565b60405180910390a15050565b60025481565b60085481565b6005544211610bd2576040517f08c379a0000000000000000000000000000000000000000000000000000000008152600401610bc990611994565b60405180910390fd5b600354600654108015610c23575060008060003373ffffffffffffffffffffffffffffffffffffffff1673ffffffffffffffffffffffffffffffffffffffff16815260200190815260200160002054115b610c2c57600080fd5b3373ffffffffffffffffffffffffffffffffffffffff166108fc6000803373ffffffffffffffffffffffffffffffffffffffff1673ffffffffffffffffffffffffffffffffffffffff168152602001908152602001600020549081150290604051600060405180830381858888f19350505050158015610cb0573d6000803e3d6000fd5b506000803373ffffffffffffffffffffffffffffffffffffffff1673ffffffffffffffffffffffffffffffffffffffff1681526020019081526020016000205460066000828254610d0191906119b4565b9250508190555060008060003373ffffffffffffffffffffffffffffffffffffffff1673ffffffffffffffffffffffffffffffffffffffff16815260200190815260200160002081905550565b60045481565b60065481565b6000604051905090565b600080fd5b600080fd5b600080fd5b600080fd5b6000601f19601f8301169050919050565b7f4e487b7100000000000000000000000000000000000000000000000000000000600052604160045260246000fd5b610dc182610d78565b810181811067ffffffffffffffff82111715610de057610ddf610d89565b5b80604052505050565b6000610df3610d5a565b9050610dff8282610db8565b919050565b600067ffffffffffffffff821115610e1f57610e1e610d89565b5b610e2882610d78565b9050602081019050919050565b82818337600083830152505050565b6000610e57610e5284610e04565b610de9565b905082815260208101848484011115610e7357610e72610d73565b5b610e7e848285610e35565b509392505050565b600082601f830112610e9b57610e9a610d6e565b5b8135610eab848260208601610e44565b91505092915050565b600073ffffffffffffffffffffffffffffffffffffffff82169050919050565b6000610edf82610eb4565b9050919050565b610eef81610ed4565b8114610efa57600080fd5b50565b600081359050610f0c81610ee6565b92915050565b6000819050919050565b610f2581610f12565b8114610f3057600080fd5b50565b600081359050610f4281610f1c565b92915050565b600080600060608486031215610f6157610f60610d64565b5b600084013567ffffffffffffffff811115610f7f57610f7e610d69565b5b610f8b86828701610e86565b9350506020610f9c86828701610efd565b9250506040610fad86828701610f33565b9150509250925092565b610fc081610f12565b82525050565b6000602082019050610fdb6000830184610fb7565b92915050565b6000610fec82610eb4565b9050919050565b610ffc81610fe1565b811461100757600080fd5b50565b60008135905061101981610ff3565b92915050565b60006020828403121561103557611034610d64565b5b60006110438482850161100a565b91505092915050565b60006020828403121561106257611061610d64565b5b600061107084828501610f33565b91505092915050565b600081519050919050565b600082825260208201905092915050565b60005b838110156110b3578082015181840152602081019050611098565b60008484015250505050565b60006110ca82611079565b6110d48185611084565b93506110e4818560208601611095565b6110ed81610d78565b840191505092915050565b61110181610ed4565b82525050565b60008115159050919050565b61111c81611107565b82525050565b600060a082019050818103600083015261113c81886110bf565b905061114b60208301876110f8565b6111586040830186610fb7565b6111656060830185611113565b6111726080830184610fb7565b9695505050505050565b61118581610fe1565b82525050565b60006020820190506111a0600083018461117c565b92915050565b7f5468652043726f776446756e64696e672068617320616c726561647920656e6460008201527f6564000000000000000000000000000000000000000000000000000000000000602082015250565b6000611202602283611084565b915061120d826111a6565b604082019050919050565b60006020820190508181036000830152611231816111f5565b9050919050565b7f4d696e696d756d20636f6e747269627574696f6e206973203130302077656900600082015250565b600061126e601f83611084565b915061127982611238565b602082019050919050565b6000602082019050818103600083015261129d81611261565b9050919050565b7f4e487b7100000000000000000000000000000000000000000000000000000000600052601160045260246000fd5b60006112de82610f12565b91507fffffffffffffffffffffffffffffffffffffffffffffffffffffffffffffffff82036113105761130f6112a4565b5b600182019050919050565b600061132682610f12565b915061133183610f12565b9250828201905080821115611349576113486112a4565b5b92915050565b6000604082019050611364600083018561117c565b6113716020830184610fb7565b9392505050565b7f596f75277265206e6f7420746865206f776e6572000000000000000000000000600082015250565b60006113ae601483611084565b91506113b982611378565b602082019050919050565b600060208201905081810360008301526113dd816113a1565b9050919050565b7f4e487b7100000000000000000000000000000000000000000000000000000000600052602260045260246000fd5b6000600282049050600182168061142b57607f821691505b60208210810361143e5761143d6113e4565b5b50919050565b60008190508160005260206000209050919050565b60006020601f8301049050919050565b600082821b905092915050565b6000600883026114a67fffffffffffffffffffffffffffffffffffffffffffffffffffffffffffffffff82611469565b6114b08683611469565b95508019841693508086168417925050509392505050565b6000819050919050565b60006114ed6114e86114e384610f12565b6114c8565b610f12565b9050919050565b6000819050919050565b611507836114d2565b61151b611513826114f4565b848454611476565b825550505050565b600090565b611530611523565b61153b8184846114fe565b505050565b5b8181101561155f57611554600082611528565b600181019050611541565b5050565b601f8211156115a45761157581611444565b61157e84611459565b8101602085101561158d578190505b6115a161159985611459565b830182611540565b50505b505050565b600082821c905092915050565b60006115c7600019846008026115a9565b1980831691505092915050565b60006115e083836115b6565b9150826002028217905092915050565b6115f982611079565b67ffffffffffffffff81111561161257611611610d89565b5b61161c8254611413565b611627828285611563565b600060209050601f83116001811461165a5760008415611648578287015190505b61165285826115d4565b8655506116ba565b601f19841661166886611444565b60005b828110156116905784890151825560018201915060208501945060208101905061166b565b868310156116ad57848901516116a9601f8916826115b6565b8355505b6001600288020188555050505b505050505050565b60006116dd6116d86116d384610eb4565b6114c8565b610eb4565b9050919050565b60006116ef826116c2565b9050919050565b6000611701826116e4565b9050919050565b611711816116f6565b82525050565b6000606082019050818103600083015261173181866110bf565b90506117406020830185611708565b61174d6040830184610fb7565b949350505050565b7f596f75277265206e6f74206120636f6e7472696275746f720000000000000000600082015250565b600061178b601883611084565b915061179682611755565b602082019050919050565b600060208201905081810360008301526117ba8161177e565b9050919050565b7f596f75206861766520616c726561647920766f74656400000000000000000000600082015250565b60006117f7601683611084565b9150611802826117c1565b602082019050919050565b60006020820190508181036000830152611826816117ea565b9050919050565b7f5265717565737420616c726561647920636f6d706c6574656400000000000000600082015250565b6000611863601983611084565b915061186e8261182d565b602082019050919050565b6000602082019050818103600083015261189281611856565b9050919050565b7f4e487b7100000000000000000000000000000000000000000000000000000000600052601260045260246000fd5b60006118d382610f12565b91506118de83610f12565b9250826118ee576118ed611899565b5b828204905092915050565b600060408201905061190e6000830185611708565b61191b6020830184610fb7565b9392505050565b7f5468652043726f776446756e64696e67206973207374696c6c20676f696e672060008201527f6f6e000000000000000000000000000000000000000000000000000000000000602082015250565b600061197e602283611084565b915061198982611922565b604082019050919050565b600060208201905081810360008301526119ad81611971565b9050919050565b60006119bf82610f12565b91506119ca83610f12565b92508282039050818111156119e2576119e16112a4565b5b9291505056fea26469706673582212205bfbe7d5a97c57536545c9a83b1e793f60eda0e2ae6e300139291aba2716075964736f6c63430008110033",
					"opcodes": "PUSH1 0x80 PUSH1 0x40 MSTORE CALLVALUE DUP1 ISZERO PUSH3 0x11 JUMPI PUSH1 0x0 DUP1 REVERT JUMPDEST POP PUSH1 0x40 MLOAD PUSH3 0x1BC2 CODESIZE SUB DUP1 PUSH3 0x1BC2 DUP4 CODECOPY DUP2 DUP2 ADD PUSH1 0x40 MSTORE DUP2 ADD SWAP1 PUSH3 0x37 SWAP2 SWAP1 PUSH3 0xE3 JUMP JUMPDEST CALLER PUSH1 0x1 PUSH1 0x0 PUSH2 0x100 EXP DUP2 SLOAD DUP2 PUSH20 0xFFFFFFFFFFFFFFFFFFFFFFFFFFFFFFFFFFFFFFFF MUL NOT AND SWAP1 DUP4 PUSH20 0xFFFFFFFFFFFFFFFFFFFFFFFFFFFFFFFFFFFFFFFF AND MUL OR SWAP1 SSTORE POP DUP2 PUSH1 0x3 DUP2 SWAP1 SSTORE POP DUP1 TIMESTAMP PUSH3 0x8D SWAP2 SWAP1 PUSH3 0x159 JUMP JUMPDEST PUSH1 0x5 DUP2 SWAP1 SSTORE POP PUSH1 0x64 PUSH1 0x4 DUP2 SWAP1 SSTORE POP POP POP PUSH3 0x194 JUMP JUMPDEST PUSH1 0x0 DUP1 REVERT JUMPDEST PUSH1 0x0 DUP2 SWAP1 POP SWAP2 SWAP1 POP JUMP JUMPDEST PUSH3 0xBD DUP2 PUSH3 0xA8 JUMP JUMPDEST DUP2 EQ PUSH3 0xC9 JUMPI PUSH1 0x0 DUP1 REVERT JUMPDEST POP JUMP JUMPDEST PUSH1 0x0 DUP2 MLOAD SWAP1 POP PUSH3 0xDD DUP2 PUSH3 0xB2 JUMP JUMPDEST SWAP3 SWAP2 POP POP JUMP JUMPDEST PUSH1 0x0 DUP1 PUSH1 0x40 DUP4 DUP6 SUB SLT ISZERO PUSH3 0xFD JUMPI PUSH3 0xFC PUSH3 0xA3 JUMP JUMPDEST JUMPDEST PUSH1 0x0 PUSH3 0x10D DUP6 DUP3 DUP7 ADD PUSH3 0xCC JUMP JUMPDEST SWAP3 POP POP PUSH1 0x20 PUSH3 0x120 DUP6 DUP3 DUP7 ADD PUSH3 0xCC JUMP JUMPDEST SWAP2 POP POP SWAP3 POP SWAP3 SWAP1 POP JUMP JUMPDEST PUSH32 0x4E487B7100000000000000000000000000000000000000000000000000000000 PUSH1 0x0 MSTORE PUSH1 0x11 PUSH1 0x4 MSTORE PUSH1 0x24 PUSH1 0x0 REVERT JUMPDEST PUSH1 0x0 PUSH3 0x166 DUP3 PUSH3 0xA8 JUMP JUMPDEST SWAP2 POP PUSH3 0x173 DUP4 PUSH3 0xA8 JUMP JUMPDEST SWAP3 POP DUP3 DUP3 ADD SWAP1 POP DUP1 DUP3 GT ISZERO PUSH3 0x18E JUMPI PUSH3 0x18D PUSH3 0x12A JUMP JUMPDEST JUMPDEST SWAP3 SWAP2 POP POP JUMP JUMPDEST PUSH2 0x1A1E DUP1 PUSH3 0x1A4 PUSH1 0x0 CODECOPY PUSH1 0x0 RETURN INVALID PUSH1 0x80 PUSH1 0x40 MSTORE PUSH1 0x4 CALLDATASIZE LT PUSH2 0xEC JUMPI PUSH1 0x0 CALLDATALOAD PUSH1 0xE0 SHR DUP1 PUSH4 0x8DA5CB5B GT PUSH2 0x8A JUMPI DUP1 PUSH4 0xB2D5AE44 GT PUSH2 0x59 JUMPI DUP1 PUSH4 0xB2D5AE44 EQ PUSH2 0x2FB JUMPI DUP1 PUSH4 0xB8B142DE EQ PUSH2 0x312 JUMPI DUP1 PUSH4 0xD7BB99BA EQ PUSH2 0x33D JUMPI DUP1 PUSH4 0xF0EA4BFC EQ PUSH2 0x347 JUMPI PUSH2 0xFB JUMP JUMPDEST DUP1 PUSH4 0x8DA5CB5B EQ PUSH2 0x251 JUMPI DUP1 PUSH4 0x9A91EB0D EQ PUSH2 0x27C JUMPI DUP1 PUSH4 0xAFAE512E EQ PUSH2 0x2A5 JUMPI DUP1 PUSH4 0xB1B16431 EQ PUSH2 0x2D0 JUMPI PUSH2 0xFB JUMP JUMPDEST DUP1 PUSH4 0x29DCB0CF GT PUSH2 0xC6 JUMPI DUP1 PUSH4 0x29DCB0CF EQ PUSH2 0x191 JUMPI DUP1 PUSH4 0x40193883 EQ PUSH2 0x1BC JUMPI DUP1 PUSH4 0x4BA1F098 EQ PUSH2 0x1E7 JUMPI DUP1 PUSH4 0x81D12C58 EQ PUSH2 0x210 JUMPI PUSH2 0xFB JUMP JUMPDEST DUP1 PUSH4 0x64787DD EQ PUSH2 0x100 JUMPI DUP1 PUSH4 0x12065FE0 EQ PUSH2 0x129 JUMPI DUP1 PUSH4 0x1F6D4942 EQ PUSH2 0x154 JUMPI PUSH2 0xFB JUMP JUMPDEST CALLDATASIZE PUSH2 0xFB JUMPI PUSH2 0xF9 PUSH2 0x372 JUMP JUMPDEST STOP JUMPDEST PUSH1 0x0 DUP1 REVERT JUMPDEST CALLVALUE DUP1 ISZERO PUSH2 0x10C JUMPI PUSH1 0x0 DUP1 REVERT JUMPDEST POP PUSH2 0x127 PUSH1 0x4 DUP1 CALLDATASIZE SUB DUP2 ADD SWAP1 PUSH2 0x122 SWAP2 SWAP1 PUSH2 0xF48 JUMP JUMPDEST PUSH2 0x503 JUMP JUMPDEST STOP JUMPDEST CALLVALUE DUP1 ISZERO PUSH2 0x135 JUMPI PUSH1 0x0 DUP1 REVERT JUMPDEST POP PUSH2 0x13E PUSH2 0x68A JUMP JUMPDEST PUSH1 0x40 MLOAD PUSH2 0x14B SWAP2 SWAP1 PUSH2 0xFC6 JUMP JUMPDEST PUSH1 0x40 MLOAD DUP1 SWAP2 SUB SWAP1 RETURN JUMPDEST CALLVALUE DUP1 ISZERO PUSH2 0x160 JUMPI PUSH1 0x0 DUP1 REVERT JUMPDEST POP PUSH2 0x17B PUSH1 0x4 DUP1 CALLDATASIZE SUB DUP2 ADD SWAP1 PUSH2 0x176 SWAP2 SWAP1 PUSH2 0x101F JUMP JUMPDEST PUSH2 0x692 JUMP JUMPDEST PUSH1 0x40 MLOAD PUSH2 0x188 SWAP2 SWAP1 PUSH2 0xFC6 JUMP JUMPDEST PUSH1 0x40 MLOAD DUP1 SWAP2 SUB SWAP1 RETURN JUMPDEST CALLVALUE DUP1 ISZERO PUSH2 0x19D JUMPI PUSH1 0x0 DUP1 REVERT JUMPDEST POP PUSH2 0x1A6 PUSH2 0x6AA JUMP JUMPDEST PUSH1 0x40 MLOAD PUSH2 0x1B3 SWAP2 SWAP1 PUSH2 0xFC6 JUMP JUMPDEST PUSH1 0x40 MLOAD DUP1 SWAP2 SUB SWAP1 RETURN JUMPDEST CALLVALUE DUP1 ISZERO PUSH2 0x1C8 JUMPI PUSH1 0x0 DUP1 REVERT JUMPDEST POP PUSH2 0x1D1 PUSH2 0x6B0 JUMP JUMPDEST PUSH1 0x40 MLOAD PUSH2 0x1DE SWAP2 SWAP1 PUSH2 0xFC6 JUMP JUMPDEST PUSH1 0x40 MLOAD DUP1 SWAP2 SUB SWAP1 RETURN JUMPDEST CALLVALUE DUP1 ISZERO PUSH2 0x1F3 JUMPI PUSH1 0x0 DUP1 REVERT JUMPDEST POP PUSH2 0x20E PUSH1 0x4 DUP1 CALLDATASIZE SUB DUP2 ADD SWAP1 PUSH2 0x209 SWAP2 SWAP1 PUSH2 0x104C JUMP JUMPDEST PUSH2 0x6B6 JUMP JUMPDEST STOP JUMPDEST CALLVALUE DUP1 ISZERO PUSH2 0x21C JUMPI PUSH1 0x0 DUP1 REVERT JUMPDEST POP PUSH2 0x237 PUSH1 0x4 DUP1 CALLDATASIZE SUB DUP2 ADD SWAP1 PUSH2 0x232 SWAP2 SWAP1 PUSH2 0x104C JUMP JUMPDEST PUSH2 0x853 JUMP JUMPDEST PUSH1 0x40 MLOAD PUSH2 0x248 SWAP6 SWAP5 SWAP4 SWAP3 SWAP2 SWAP1 PUSH2 0x1122 JUMP JUMPDEST PUSH1 0x40 MLOAD DUP1 SWAP2 SUB SWAP1 RETURN JUMPDEST CALLVALUE DUP1 ISZERO PUSH2 0x25D JUMPI PUSH1 0x0 DUP1 REVERT JUMPDEST POP PUSH2 0x266 PUSH2 0x93E JUMP JUMPDEST PUSH1 0x40 MLOAD PUSH2 0x273 SWAP2 SWAP1 PUSH2 0x118B JUMP JUMPDEST PUSH1 0x40 MLOAD DUP1 SWAP2 SUB SWAP1 RETURN JUMPDEST CALLVALUE DUP1 ISZERO PUSH2 0x288 JUMPI PUSH1 0x0 DUP1 REVERT JUMPDEST POP PUSH2 0x2A3 PUSH1 0x4 DUP1 CALLDATASIZE SUB DUP2 ADD SWAP1 PUSH2 0x29E SWAP2 SWAP1 PUSH2 0x104C JUMP JUMPDEST PUSH2 0x964 JUMP JUMPDEST STOP JUMPDEST CALLVALUE DUP1 ISZERO PUSH2 0x2B1 JUMPI PUSH1 0x0 DUP1 REVERT JUMPDEST POP PUSH2 0x2BA PUSH2 0xB82 JUMP JUMPDEST PUSH1 0x40 MLOAD PUSH2 0x2C7 SWAP2 SWAP1 PUSH2 0xFC6 JUMP JUMPDEST PUSH1 0x40 MLOAD DUP1 SWAP2 SUB SWAP1 RETURN JUMPDEST CALLVALUE DUP1 ISZERO PUSH2 0x2DC JUMPI PUSH1 0x0 DUP1 REVERT JUMPDEST POP PUSH2 0x2E5 PUSH2 0xB88 JUMP JUMPDEST PUSH1 0x40 MLOAD PUSH2 0x2F2 SWAP2 SWAP1 PUSH2 0xFC6 JUMP JUMPDEST PUSH1 0x40 MLOAD DUP1 SWAP2 SUB SWAP1 RETURN JUMPDEST CALLVALUE DUP1 ISZERO PUSH2 0x307 JUMPI PUSH1 0x0 DUP1 REVERT JUMPDEST POP PUSH2 0x310 PUSH2 0xB8E JUMP JUMPDEST STOP JUMPDEST CALLVALUE DUP1 ISZERO PUSH2 0x31E JUMPI PUSH1 0x0 DUP1 REVERT JUMPDEST POP PUSH2 0x327 PUSH2 0xD4E JUMP JUMPDEST PUSH1 0x40 MLOAD PUSH2 0x334 SWAP2 SWAP1 PUSH2 0xFC6 JUMP JUMPDEST PUSH1 0x40 MLOAD DUP1 SWAP2 SUB SWAP1 RETURN JUMPDEST PUSH2 0x345 PUSH2 0x372 JUMP JUMPDEST STOP JUMPDEST CALLVALUE DUP1 ISZERO PUSH2 0x353 JUMPI PUSH1 0x0 DUP1 REVERT JUMPDEST POP PUSH2 0x35C PUSH2 0xD54 JUMP JUMPDEST PUSH1 0x40 MLOAD PUSH2 0x369 SWAP2 SWAP1 PUSH2 0xFC6 JUMP JUMPDEST PUSH1 0x40 MLOAD DUP1 SWAP2 SUB SWAP1 RETURN JUMPDEST PUSH1 0x5 SLOAD TIMESTAMP LT PUSH2 0x3B6 JUMPI PUSH1 0x40 MLOAD PUSH32 0x8C379A000000000000000000000000000000000000000000000000000000000 DUP2 MSTORE PUSH1 0x4 ADD PUSH2 0x3AD SWAP1 PUSH2 0x1218 JUMP JUMPDEST PUSH1 0x40 MLOAD DUP1 SWAP2 SUB SWAP1 REVERT JUMPDEST PUSH1 0x4 SLOAD CALLVALUE LT ISZERO PUSH2 0x3FB JUMPI PUSH1 0x40 MLOAD PUSH32 0x8C379A000000000000000000000000000000000000000000000000000000000 DUP2 MSTORE PUSH1 0x4 ADD PUSH2 0x3F2 SWAP1 PUSH2 0x1284 JUMP JUMPDEST PUSH1 0x40 MLOAD DUP1 SWAP2 SUB SWAP1 REVERT JUMPDEST PUSH1 0x0 DUP1 PUSH1 0x0 CALLER PUSH20 0xFFFFFFFFFFFFFFFFFFFFFFFFFFFFFFFFFFFFFFFF AND PUSH20 0xFFFFFFFFFFFFFFFFFFFFFFFFFFFFFFFFFFFFFFFF AND DUP2 MSTORE PUSH1 0x20 ADD SWAP1 DUP2 MSTORE PUSH1 0x20 ADD PUSH1 0x0 KECCAK256 SLOAD SUB PUSH2 0x45A JUMPI PUSH1 0x2 PUSH1 0x0 DUP2 SLOAD DUP1 SWAP3 SWAP2 SWAP1 PUSH2 0x454 SWAP1 PUSH2 0x12D3 JUMP JUMPDEST SWAP2 SWAP1 POP SSTORE POP JUMPDEST CALLVALUE PUSH1 0x0 DUP1 CALLER PUSH20 0xFFFFFFFFFFFFFFFFFFFFFFFFFFFFFFFFFFFFFFFF AND PUSH20 0xFFFFFFFFFFFFFFFFFFFFFFFFFFFFFFFFFFFFFFFF AND DUP2 MSTORE PUSH1 0x20 ADD SWAP1 DUP2 MSTORE PUSH1 0x20 ADD PUSH1 0x0 KECCAK256 PUSH1 0x0 DUP3 DUP3 SLOAD PUSH2 0x4A8 SWAP2 SWAP1 PUSH2 0x131B JUMP JUMPDEST SWAP3 POP POP DUP2 SWAP1 SSTORE POP CALLVALUE PUSH1 0x6 PUSH1 0x0 DUP3 DUP3 SLOAD PUSH2 0x4C1 SWAP2 SWAP1 PUSH2 0x131B JUMP JUMPDEST SWAP3 POP POP DUP2 SWAP1 SSTORE POP PUSH32 0x2DAF61DEC57A2C194E9E87958B1A40A5C236B5E8C6041655D664DDBD16C29320 CALLER CALLVALUE PUSH1 0x40 MLOAD PUSH2 0x4F9 SWAP3 SWAP2 SWAP1 PUSH2 0x134F JUMP JUMPDEST PUSH1 0x40 MLOAD DUP1 SWAP2 SUB SWAP1 LOG1 JUMP JUMPDEST PUSH1 0x1 PUSH1 0x0 SWAP1 SLOAD SWAP1 PUSH2 0x100 EXP SWAP1 DIV PUSH20 0xFFFFFFFFFFFFFFFFFFFFFFFFFFFFFFFFFFFFFFFF AND PUSH20 0xFFFFFFFFFFFFFFFFFFFFFFFFFFFFFFFFFFFFFFFF AND CALLER PUSH20 0xFFFFFFFFFFFFFFFFFFFFFFFFFFFFFFFFFFFFFFFF AND EQ PUSH2 0x593 JUMPI PUSH1 0x40 MLOAD PUSH32 0x8C379A000000000000000000000000000000000000000000000000000000000 DUP2 MSTORE PUSH1 0x4 ADD PUSH2 0x58A SWAP1 PUSH2 0x13C4 JUMP JUMPDEST PUSH1 0x40 MLOAD DUP1 SWAP2 SUB SWAP1 REVERT JUMPDEST PUSH1 0x0 PUSH1 0x7 PUSH1 0x0 PUSH1 0x8 SLOAD DUP2 MSTORE PUSH1 0x20 ADD SWAP1 DUP2 MSTORE PUSH1 0x20 ADD PUSH1 0x0 KECCAK256 SWAP1 POP PUSH1 0x8 PUSH1 0x0 DUP2 SLOAD DUP1 SWAP3 SWAP2 SWAP1 PUSH2 0x5BF SWAP1 PUSH2 0x12D3 JUMP JUMPDEST SWAP2 SWAP1 POP SSTORE POP DUP4 DUP2 PUSH1 0x0 ADD SWAP1 DUP2 PUSH2 0x5D5 SWAP2 SWAP1 PUSH2 0x15F0 JUMP JUMPDEST POP DUP3 DUP2 PUSH1 0x1 ADD PUSH1 0x0 PUSH2 0x100 EXP DUP2 SLOAD DUP2 PUSH20 0xFFFFFFFFFFFFFFFFFFFFFFFFFFFFFFFFFFFFFFFF MUL NOT AND SWAP1 DUP4 PUSH20 0xFFFFFFFFFFFFFFFFFFFFFFFFFFFFFFFFFFFFFFFF AND MUL OR SWAP1 SSTORE POP DUP2 DUP2 PUSH1 0x2 ADD DUP2 SWAP1 SSTORE POP PUSH1 0x0 DUP2 PUSH1 0x3 ADD PUSH1 0x0 PUSH2 0x100 EXP DUP2 SLOAD DUP2 PUSH1 0xFF MUL NOT AND SWAP1 DUP4 ISZERO ISZERO MUL OR SWAP1 SSTORE POP PUSH1 0x0 DUP2 PUSH1 0x4 ADD DUP2 SWAP1 SSTORE POP PUSH32 0x5392BD80651676CCAAEDEC1AFBE841D47E369223DF0BA1586110B6426EE87A3A DUP5 DUP5 DUP5 PUSH1 0x40 MLOAD PUSH2 0x67C SWAP4 SWAP3 SWAP2 SWAP1 PUSH2 0x1717 JUMP JUMPDEST PUSH1 0x40 MLOAD DUP1 SWAP2 SUB SWAP1 LOG1 POP POP POP POP JUMP JUMPDEST PUSH1 0x0 SELFBALANCE SWAP1 POP SWAP1 JUMP JUMPDEST PUSH1 0x0 PUSH1 0x20 MSTORE DUP1 PUSH1 0x0 MSTORE PUSH1 0x40 PUSH1 0x0 KECCAK256 PUSH1 0x0 SWAP2 POP SWAP1 POP SLOAD DUP2 JUMP JUMPDEST PUSH1 0x5 SLOAD DUP2 JUMP JUMPDEST PUSH1 0x3 SLOAD DUP2 JUMP JUMPDEST PUSH1 0x0 DUP1 PUSH1 0x0 CALLER PUSH20 0xFFFFFFFFFFFFFFFFFFFFFFFFFFFFFFFFFFFFFFFF AND PUSH20 0xFFFFFFFFFFFFFFFFFFFFFFFFFFFFFFFFFFFFFFFF AND DUP2 MSTORE PUSH1 0x20 ADD SWAP1 DUP2 MSTORE PUSH1 0x20 ADD PUSH1 0x0 KECCAK256 SLOAD GT PUSH2 0x737 JUMPI PUSH1 0x40 MLOAD PUSH32 0x8C379A000000000000000000000000000000000000000000000000000000000 DUP2 MSTORE PUSH1 0x4 ADD PUSH2 0x72E SWAP1 PUSH2 0x17A1 JUMP JUMPDEST PUSH1 0x40 MLOAD DUP1 SWAP2 SUB SWAP1 REVERT JUMPDEST PUSH1 0x0 PUSH1 0x7 PUSH1 0x0 DUP4 DUP2 MSTORE PUSH1 0x20 ADD SWAP1 DUP2 MSTORE PUSH1 0x20 ADD PUSH1 0x0 KECCAK256 SWAP1 POP PUSH1 0x0 ISZERO ISZERO DUP2 PUSH1 0x5 ADD PUSH1 0x0 CALLER PUSH20 0xFFFFFFFFFFFFFFFFFFFFFFFFFFFFFFFFFFFFFFFF AND PUSH20 0xFFFFFFFFFFFFFFFFFFFFFFFFFFFFFFFFFFFFFFFF AND DUP2 MSTORE PUSH1 0x20 ADD SWAP1 DUP2 MSTORE PUSH1 0x20 ADD PUSH1 0x0 KECCAK256 PUSH1 0x0 SWAP1 SLOAD SWAP1 PUSH2 0x100 EXP SWAP1 DIV PUSH1 0xFF AND ISZERO ISZERO EQ PUSH2 0x7E3 JUMPI PUSH1 0x40 MLOAD PUSH32 0x8C379A000000000000000000000000000000000000000000000000000000000 DUP2 MSTORE PUSH1 0x4 ADD PUSH2 0x7DA SWAP1 PUSH2 0x180D JUMP JUMPDEST PUSH1 0x40 MLOAD DUP1 SWAP2 SUB SWAP1 REVERT JUMPDEST PUSH1 0x1 ISZERO ISZERO DUP2 PUSH1 0x5 ADD PUSH1 0x0 CALLER PUSH20 0xFFFFFFFFFFFFFFFFFFFFFFFFFFFFFFFFFFFFFFFF AND PUSH20 0xFFFFFFFFFFFFFFFFFFFFFFFFFFFFFFFFFFFFFFFF AND DUP2 MSTORE PUSH1 0x20 ADD SWAP1 DUP2 MSTORE PUSH1 0x20 ADD PUSH1 0x0 KECCAK256 PUSH1 0x0 SWAP1 SLOAD SWAP1 PUSH2 0x100 EXP SWAP1 POP POP POP DUP1 PUSH1 0x4 ADD PUSH1 0x0 DUP2 SLOAD DUP1 SWAP3 SWAP2 SWAP1 PUSH2 0x84A SWAP1 PUSH2 0x12D3 JUMP JUMPDEST SWAP2 SWAP1 POP SSTORE POP POP POP JUMP JUMPDEST PUSH1 0x7 PUSH1 0x20 MSTORE DUP1 PUSH1 0x0 MSTORE PUSH1 0x40 PUSH1 0x0 KECCAK256 PUSH1 0x0 SWAP2 POP SWAP1 POP DUP1 PUSH1 0x0 ADD DUP1 SLOAD PUSH2 0x876 SWAP1 PUSH2 0x1413 JUMP JUMPDEST DUP1 PUSH1 0x1F ADD PUSH1 0x20 DUP1 SWAP2 DIV MUL PUSH1 0x20 ADD PUSH1 0x40 MLOAD SWAP1 DUP2 ADD PUSH1 0x40 MSTORE DUP1 SWAP3 SWAP2 SWAP1 DUP2 DUP2 MSTORE PUSH1 0x20 ADD DUP3 DUP1 SLOAD PUSH2 0x8A2 SWAP1 PUSH2 0x1413 JUMP JUMPDEST DUP1 ISZERO PUSH2 0x8EF JUMPI DUP1 PUSH1 0x1F LT PUSH2 0x8C4 JUMPI PUSH2 0x100 DUP1 DUP4 SLOAD DIV MUL DUP4 MSTORE SWAP2 PUSH1 0x20 ADD SWAP2 PUSH2 0x8EF JUMP JUMPDEST DUP3 ADD SWAP2 SWAP1 PUSH1 0x0 MSTORE PUSH1 0x20 PUSH1 0x0 KECCAK256 SWAP1 JUMPDEST DUP2 SLOAD DUP2 MSTORE SWAP1 PUSH1 0x1 ADD SWAP1 PUSH1 0x20 ADD DUP1 DUP4 GT PUSH2 0x8D2 JUMPI DUP3 SWAP1 SUB PUSH1 0x1F AND DUP3 ADD SWAP2 JUMPDEST POP POP POP POP POP SWAP1 DUP1 PUSH1 0x1 ADD PUSH1 0x0 SWAP1 SLOAD SWAP1 PUSH2 0x100 EXP SWAP1 DIV PUSH20 0xFFFFFFFFFFFFFFFFFFFFFFFFFFFFFFFFFFFFFFFF AND SWAP1 DUP1 PUSH1 0x2 ADD SLOAD SWAP1 DUP1 PUSH1 0x3 ADD PUSH1 0x0 SWAP1 SLOAD SWAP1 PUSH2 0x100 EXP SWAP1 DIV PUSH1 0xFF AND SWAP1 DUP1 PUSH1 0x4 ADD SLOAD SWAP1 POP DUP6 JUMP JUMPDEST PUSH1 0x1 PUSH1 0x0 SWAP1 SLOAD SWAP1 PUSH2 0x100 EXP SWAP1 DIV PUSH20 0xFFFFFFFFFFFFFFFFFFFFFFFFFFFFFFFFFFFFFFFF AND DUP2 JUMP JUMPDEST PUSH1 0x1 PUSH1 0x0 SWAP1 SLOAD SWAP1 PUSH2 0x100 EXP SWAP1 DIV PUSH20 0xFFFFFFFFFFFFFFFFFFFFFFFFFFFFFFFFFFFFFFFF AND PUSH20 0xFFFFFFFFFFFFFFFFFFFFFFFFFFFFFFFFFFFFFFFF AND CALLER PUSH20 0xFFFFFFFFFFFFFFFFFFFFFFFFFFFFFFFFFFFFFFFF AND EQ PUSH2 0x9F4 JUMPI PUSH1 0x40 MLOAD PUSH32 0x8C379A000000000000000000000000000000000000000000000000000000000 DUP2 MSTORE PUSH1 0x4 ADD PUSH2 0x9EB SWAP1 PUSH2 0x13C4 JUMP JUMPDEST PUSH1 0x40 MLOAD DUP1 SWAP2 SUB SWAP1 REVERT JUMPDEST PUSH1 0x3 SLOAD PUSH1 0x6 SLOAD LT ISZERO PUSH2 0xA05 JUMPI PUSH1 0x0 DUP1 REVERT JUMPDEST PUSH1 0x0 PUSH1 0x7 PUSH1 0x0 DUP4 DUP2 MSTORE PUSH1 0x20 ADD SWAP1 DUP2 MSTORE PUSH1 0x20 ADD PUSH1 0x0 KECCAK256 SWAP1 POP PUSH1 0x0 ISZERO ISZERO DUP2 PUSH1 0x3 ADD PUSH1 0x0 SWAP1 SLOAD SWAP1 PUSH2 0x100 EXP SWAP1 DIV PUSH1 0xFF AND ISZERO ISZERO EQ PUSH2 0xA74 JUMPI PUSH1 0x40 MLOAD PUSH32 0x8C379A000000000000000000000000000000000000000000000000000000000 DUP2 MSTORE PUSH1 0x4 ADD PUSH2 0xA6B SWAP1 PUSH2 0x1879 JUMP JUMPDEST PUSH1 0x40 MLOAD DUP1 SWAP2 SUB SWAP1 REVERT JUMPDEST PUSH1 0x2 DUP1 SLOAD PUSH2 0xA82 SWAP2 SWAP1 PUSH2 0x18C8 JUMP JUMPDEST DUP2 PUSH1 0x4 ADD SLOAD GT PUSH2 0xA91 JUMPI PUSH1 0x0 DUP1 REVERT JUMPDEST DUP1 PUSH1 0x1 ADD PUSH1 0x0 SWAP1 SLOAD SWAP1 PUSH2 0x100 EXP SWAP1 DIV PUSH20 0xFFFFFFFFFFFFFFFFFFFFFFFFFFFFFFFFFFFFFFFF AND PUSH20 0xFFFFFFFFFFFFFFFFFFFFFFFFFFFFFFFFFFFFFFFF AND PUSH2 0x8FC DUP3 PUSH1 0x2 ADD SLOAD SWAP1 DUP2 ISZERO MUL SWAP1 PUSH1 0x40 MLOAD PUSH1 0x0 PUSH1 0x40 MLOAD DUP1 DUP4 SUB DUP2 DUP6 DUP9 DUP9 CALL SWAP4 POP POP POP POP ISZERO DUP1 ISZERO PUSH2 0xAFF JUMPI RETURNDATASIZE PUSH1 0x0 DUP1 RETURNDATACOPY RETURNDATASIZE PUSH1 0x0 REVERT JUMPDEST POP PUSH1 0x1 DUP2 PUSH1 0x3 ADD PUSH1 0x0 PUSH2 0x100 EXP DUP2 SLOAD DUP2 PUSH1 0xFF MUL NOT AND SWAP1 DUP4 ISZERO ISZERO MUL OR SWAP1 SSTORE POP PUSH32 0x516E1673E5E85C44620165259173329ADDA2AD25E7BB15020C732BE060B5B790 DUP2 PUSH1 0x1 ADD PUSH1 0x0 SWAP1 SLOAD SWAP1 PUSH2 0x100 EXP SWAP1 DIV PUSH20 0xFFFFFFFFFFFFFFFFFFFFFFFFFFFFFFFFFFFFFFFF AND DUP3 PUSH1 0x2 ADD SLOAD PUSH1 0x40 MLOAD PUSH2 0xB76 SWAP3 SWAP2 SWAP1 PUSH2 0x18F9 JUMP JUMPDEST PUSH1 0x40 MLOAD DUP1 SWAP2 SUB SWAP1 LOG1 POP POP JUMP JUMPDEST PUSH1 0x2 SLOAD DUP2 JUMP JUMPDEST PUSH1 0x8 SLOAD DUP2 JUMP JUMPDEST PUSH1 0x5 SLOAD TIMESTAMP GT PUSH2 0xBD2 JUMPI PUSH1 0x40 MLOAD PUSH32 0x8C379A000000000000000000000000000000000000000000000000000000000 DUP2 MSTORE PUSH1 0x4 ADD PUSH2 0xBC9 SWAP1 PUSH2 0x1994 JUMP JUMPDEST PUSH1 0x40 MLOAD DUP1 SWAP2 SUB SWAP1 REVERT JUMPDEST PUSH1 0x3 SLOAD PUSH1 0x6 SLOAD LT DUP1 ISZERO PUSH2 0xC23 JUMPI POP PUSH1 0x0 DUP1 PUSH1 0x0 CALLER PUSH20 0xFFFFFFFFFFFFFFFFFFFFFFFFFFFFFFFFFFFFFFFF AND PUSH20 0xFFFFFFFFFFFFFFFFFFFFFFFFFFFFFFFFFFFFFFFF AND DUP2 MSTORE PUSH1 0x20 ADD SWAP1 DUP2 MSTORE PUSH1 0x20 ADD PUSH1 0x0 KECCAK256 SLOAD GT JUMPDEST PUSH2 0xC2C JUMPI PUSH1 0x0 DUP1 REVERT JUMPDEST CALLER PUSH20 0xFFFFFFFFFFFFFFFFFFFFFFFFFFFFFFFFFFFFFFFF AND PUSH2 0x8FC PUSH1 0x0 DUP1 CALLER PUSH20 0xFFFFFFFFFFFFFFFFFFFFFFFFFFFFFFFFFFFFFFFF AND PUSH20 0xFFFFFFFFFFFFFFFFFFFFFFFFFFFFFFFFFFFFFFFF AND DUP2 MSTORE PUSH1 0x20 ADD SWAP1 DUP2 MSTORE PUSH1 0x20 ADD PUSH1 0x0 KECCAK256 SLOAD SWAP1 DUP2 ISZERO MUL SWAP1 PUSH1 0x40 MLOAD PUSH1 0x0 PUSH1 0x40 MLOAD DUP1 DUP4 SUB DUP2 DUP6 DUP9 DUP9 CALL SWAP4 POP POP POP POP ISZERO DUP1 ISZERO PUSH2 0xCB0 JUMPI RETURNDATASIZE PUSH1 0x0 DUP1 RETURNDATACOPY RETURNDATASIZE PUSH1 0x0 REVERT JUMPDEST POP PUSH1 0x0 DUP1 CALLER PUSH20 0xFFFFFFFFFFFFFFFFFFFFFFFFFFFFFFFFFFFFFFFF AND PUSH20 0xFFFFFFFFFFFFFFFFFFFFFFFFFFFFFFFFFFFFFFFF AND DUP2 MSTORE PUSH1 0x20 ADD SWAP1 DUP2 MSTORE PUSH1 0x20 ADD PUSH1 0x0 KECCAK256 SLOAD PUSH1 0x6 PUSH1 0x0 DUP3 DUP3 SLOAD PUSH2 0xD01 SWAP2 SWAP1 PUSH2 0x19B4 JUMP JUMPDEST SWAP3 POP POP DUP2 SWAP1 SSTORE POP PUSH1 0x0 DUP1 PUSH1 0x0 CALLER PUSH20 0xFFFFFFFFFFFFFFFFFFFFFFFFFFFFFFFFFFFFFFFF AND PUSH20 0xFFFFFFFFFFFFFFFFFFFFFFFFFFFFFFFFFFFFFFFF AND DUP2 MSTORE PUSH1 0x20 ADD SWAP1 DUP2 MSTORE PUSH1 0x20 ADD PUSH1 0x0 KECCAK256 DUP2 SWAP1 SSTORE POP JUMP JUMPDEST PUSH1 0x4 SLOAD DUP2 JUMP JUMPDEST PUSH1 0x6 SLOAD DUP2 JUMP JUMPDEST PUSH1 0x0 PUSH1 0x40 MLOAD SWAP1 POP SWAP1 JUMP JUMPDEST PUSH1 0x0 DUP1 REVERT JUMPDEST PUSH1 0x0 DUP1 REVERT JUMPDEST PUSH1 0x0 DUP1 REVERT JUMPDEST PUSH1 0x0 DUP1 REVERT JUMPDEST PUSH1 0x0 PUSH1 0x1F NOT PUSH1 0x1F DUP4 ADD AND SWAP1 POP SWAP2 SWAP1 POP JUMP JUMPDEST PUSH32 0x4E487B7100000000000000000000000000000000000000000000000000000000 PUSH1 0x0 MSTORE PUSH1 0x41 PUSH1 0x4 MSTORE PUSH1 0x24 PUSH1 0x0 REVERT JUMPDEST PUSH2 0xDC1 DUP3 PUSH2 0xD78 JUMP JUMPDEST DUP2 ADD DUP2 DUP2 LT PUSH8 0xFFFFFFFFFFFFFFFF DUP3 GT OR ISZERO PUSH2 0xDE0 JUMPI PUSH2 0xDDF PUSH2 0xD89 JUMP JUMPDEST JUMPDEST DUP1 PUSH1 0x40 MSTORE POP POP POP JUMP JUMPDEST PUSH1 0x0 PUSH2 0xDF3 PUSH2 0xD5A JUMP JUMPDEST SWAP1 POP PUSH2 0xDFF DUP3 DUP3 PUSH2 0xDB8 JUMP JUMPDEST SWAP2 SWAP1 POP JUMP JUMPDEST PUSH1 0x0 PUSH8 0xFFFFFFFFFFFFFFFF DUP3 GT ISZERO PUSH2 0xE1F JUMPI PUSH2 0xE1E PUSH2 0xD89 JUMP JUMPDEST JUMPDEST PUSH2 0xE28 DUP3 PUSH2 0xD78 JUMP JUMPDEST SWAP1 POP PUSH1 0x20 DUP2 ADD SWAP1 POP SWAP2 SWAP1 POP JUMP JUMPDEST DUP3 DUP2 DUP4 CALLDATACOPY PUSH1 0x0 DUP4 DUP4 ADD MSTORE POP POP POP JUMP JUMPDEST PUSH1 0x0 PUSH2 0xE57 PUSH2 0xE52 DUP5 PUSH2 0xE04 JUMP JUMPDEST PUSH2 0xDE9 JUMP JUMPDEST SWAP1 POP DUP3 DUP2 MSTORE PUSH1 0x20 DUP2 ADD DUP5 DUP5 DUP5 ADD GT ISZERO PUSH2 0xE73 JUMPI PUSH2 0xE72 PUSH2 0xD73 JUMP JUMPDEST JUMPDEST PUSH2 0xE7E DUP5 DUP3 DUP6 PUSH2 0xE35 JUMP JUMPDEST POP SWAP4 SWAP3 POP POP POP JUMP JUMPDEST PUSH1 0x0 DUP3 PUSH1 0x1F DUP4 ADD SLT PUSH2 0xE9B JUMPI PUSH2 0xE9A PUSH2 0xD6E JUMP JUMPDEST JUMPDEST DUP2 CALLDATALOAD PUSH2 0xEAB DUP5 DUP3 PUSH1 0x20 DUP7 ADD PUSH2 0xE44 JUMP JUMPDEST SWAP2 POP POP SWAP3 SWAP2 POP POP JUMP JUMPDEST PUSH1 0x0 PUSH20 0xFFFFFFFFFFFFFFFFFFFFFFFFFFFFFFFFFFFFFFFF DUP3 AND SWAP1 POP SWAP2 SWAP1 POP JUMP JUMPDEST PUSH1 0x0 PUSH2 0xEDF DUP3 PUSH2 0xEB4 JUMP JUMPDEST SWAP1 POP SWAP2 SWAP1 POP JUMP JUMPDEST PUSH2 0xEEF DUP2 PUSH2 0xED4 JUMP JUMPDEST DUP2 EQ PUSH2 0xEFA JUMPI PUSH1 0x0 DUP1 REVERT JUMPDEST POP JUMP JUMPDEST PUSH1 0x0 DUP2 CALLDATALOAD SWAP1 POP PUSH2 0xF0C DUP2 PUSH2 0xEE6 JUMP JUMPDEST SWAP3 SWAP2 POP POP JUMP JUMPDEST PUSH1 0x0 DUP2 SWAP1 POP SWAP2 SWAP1 POP JUMP JUMPDEST PUSH2 0xF25 DUP2 PUSH2 0xF12 JUMP JUMPDEST DUP2 EQ PUSH2 0xF30 JUMPI PUSH1 0x0 DUP1 REVERT JUMPDEST POP JUMP JUMPDEST PUSH1 0x0 DUP2 CALLDATALOAD SWAP1 POP PUSH2 0xF42 DUP2 PUSH2 0xF1C JUMP JUMPDEST SWAP3 SWAP2 POP POP JUMP JUMPDEST PUSH1 0x0 DUP1 PUSH1 0x0 PUSH1 0x60 DUP5 DUP7 SUB SLT ISZERO PUSH2 0xF61 JUMPI PUSH2 0xF60 PUSH2 0xD64 JUMP JUMPDEST JUMPDEST PUSH1 0x0 DUP5 ADD CALLDATALOAD PUSH8 0xFFFFFFFFFFFFFFFF DUP2 GT ISZERO PUSH2 0xF7F JUMPI PUSH2 0xF7E PUSH2 0xD69 JUMP JUMPDEST JUMPDEST PUSH2 0xF8B DUP7 DUP3 DUP8 ADD PUSH2 0xE86 JUMP JUMPDEST SWAP4 POP POP PUSH1 0x20 PUSH2 0xF9C DUP7 DUP3 DUP8 ADD PUSH2 0xEFD JUMP JUMPDEST SWAP3 POP POP PUSH1 0x40 PUSH2 0xFAD DUP7 DUP3 DUP8 ADD PUSH2 0xF33 JUMP JUMPDEST SWAP2 POP POP SWAP3 POP SWAP3 POP SWAP3 JUMP JUMPDEST PUSH2 0xFC0 DUP2 PUSH2 0xF12 JUMP JUMPDEST DUP3 MSTORE POP POP JUMP JUMPDEST PUSH1 0x0 PUSH1 0x20 DUP3 ADD SWAP1 POP PUSH2 0xFDB PUSH1 0x0 DUP4 ADD DUP5 PUSH2 0xFB7 JUMP JUMPDEST SWAP3 SWAP2 POP POP JUMP JUMPDEST PUSH1 0x0 PUSH2 0xFEC DUP3 PUSH2 0xEB4 JUMP JUMPDEST SWAP1 POP SWAP2 SWAP1 POP JUMP JUMPDEST PUSH2 0xFFC DUP2 PUSH2 0xFE1 JUMP JUMPDEST DUP2 EQ PUSH2 0x1007 JUMPI PUSH1 0x0 DUP1 REVERT JUMPDEST POP JUMP JUMPDEST PUSH1 0x0 DUP2 CALLDATALOAD SWAP1 POP PUSH2 0x1019 DUP2 PUSH2 0xFF3 JUMP JUMPDEST SWAP3 SWAP2 POP POP JUMP JUMPDEST PUSH1 0x0 PUSH1 0x20 DUP3 DUP5 SUB SLT ISZERO PUSH2 0x1035 JUMPI PUSH2 0x1034 PUSH2 0xD64 JUMP JUMPDEST JUMPDEST PUSH1 0x0 PUSH2 0x1043 DUP5 DUP3 DUP6 ADD PUSH2 0x100A JUMP JUMPDEST SWAP2 POP POP SWAP3 SWAP2 POP POP JUMP JUMPDEST PUSH1 0x0 PUSH1 0x20 DUP3 DUP5 SUB SLT ISZERO PUSH2 0x1062 JUMPI PUSH2 0x1061 PUSH2 0xD64 JUMP JUMPDEST JUMPDEST PUSH1 0x0 PUSH2 0x1070 DUP5 DUP3 DUP6 ADD PUSH2 0xF33 JUMP JUMPDEST SWAP2 POP POP SWAP3 SWAP2 POP POP JUMP JUMPDEST PUSH1 0x0 DUP2 MLOAD SWAP1 POP SWAP2 SWAP1 POP JUMP JUMPDEST PUSH1 0x0 DUP3 DUP3 MSTORE PUSH1 0x20 DUP3 ADD SWAP1 POP SWAP3 SWAP2 POP POP JUMP JUMPDEST PUSH1 0x0 JUMPDEST DUP4 DUP2 LT ISZERO PUSH2 0x10B3 JUMPI DUP1 DUP3 ADD MLOAD DUP2 DUP5 ADD MSTORE PUSH1 0x20 DUP2 ADD SWAP1 POP PUSH2 0x1098 JUMP JUMPDEST PUSH1 0x0 DUP5 DUP5 ADD MSTORE POP POP POP POP JUMP JUMPDEST PUSH1 0x0 PUSH2 0x10CA DUP3 PUSH2 0x1079 JUMP JUMPDEST PUSH2 0x10D4 DUP2 DUP6 PUSH2 0x1084 JUMP JUMPDEST SWAP4 POP PUSH2 0x10E4 DUP2 DUP6 PUSH1 0x20 DUP7 ADD PUSH2 0x1095 JUMP JUMPDEST PUSH2 0x10ED DUP2 PUSH2 0xD78 JUMP JUMPDEST DUP5 ADD SWAP2 POP POP SWAP3 SWAP2 POP POP JUMP JUMPDEST PUSH2 0x1101 DUP2 PUSH2 0xED4 JUMP JUMPDEST DUP3 MSTORE POP POP JUMP JUMPDEST PUSH1 0x0 DUP2 ISZERO ISZERO SWAP1 POP SWAP2 SWAP1 POP JUMP JUMPDEST PUSH2 0x111C DUP2 PUSH2 0x1107 JUMP JUMPDEST DUP3 MSTORE POP POP JUMP JUMPDEST PUSH1 0x0 PUSH1 0xA0 DUP3 ADD SWAP1 POP DUP2 DUP2 SUB PUSH1 0x0 DUP4 ADD MSTORE PUSH2 0x113C DUP2 DUP9 PUSH2 0x10BF JUMP JUMPDEST SWAP1 POP PUSH2 0x114B PUSH1 0x20 DUP4 ADD DUP8 PUSH2 0x10F8 JUMP JUMPDEST PUSH2 0x1158 PUSH1 0x40 DUP4 ADD DUP7 PUSH2 0xFB7 JUMP JUMPDEST PUSH2 0x1165 PUSH1 0x60 DUP4 ADD DUP6 PUSH2 0x1113 JUMP JUMPDEST PUSH2 0x1172 PUSH1 0x80 DUP4 ADD DUP5 PUSH2 0xFB7 JUMP JUMPDEST SWAP7 SWAP6 POP POP POP POP POP POP JUMP JUMPDEST PUSH2 0x1185 DUP2 PUSH2 0xFE1 JUMP JUMPDEST DUP3 MSTORE POP POP JUMP JUMPDEST PUSH1 0x0 PUSH1 0x20 DUP3 ADD SWAP1 POP PUSH2 0x11A0 PUSH1 0x0 DUP4 ADD DUP5 PUSH2 0x117C JUMP JUMPDEST SWAP3 SWAP2 POP POP JUMP JUMPDEST PUSH32 0x5468652043726F776446756E64696E672068617320616C726561647920656E64 PUSH1 0x0 DUP3 ADD MSTORE PUSH32 0x6564000000000000000000000000000000000000000000000000000000000000 PUSH1 0x20 DUP3 ADD MSTORE POP JUMP JUMPDEST PUSH1 0x0 PUSH2 0x1202 PUSH1 0x22 DUP4 PUSH2 0x1084 JUMP JUMPDEST SWAP2 POP PUSH2 0x120D DUP3 PUSH2 0x11A6 JUMP JUMPDEST PUSH1 0x40 DUP3 ADD SWAP1 POP SWAP2 SWAP1 POP JUMP JUMPDEST PUSH1 0x0 PUSH1 0x20 DUP3 ADD SWAP1 POP DUP2 DUP2 SUB PUSH1 0x0 DUP4 ADD MSTORE PUSH2 0x1231 DUP2 PUSH2 0x11F5 JUMP JUMPDEST SWAP1 POP SWAP2 SWAP1 POP JUMP JUMPDEST PUSH32 0x4D696E696D756D20636F6E747269627574696F6E206973203130302077656900 PUSH1 0x0 DUP3 ADD MSTORE POP JUMP JUMPDEST PUSH1 0x0 PUSH2 0x126E PUSH1 0x1F DUP4 PUSH2 0x1084 JUMP JUMPDEST SWAP2 POP PUSH2 0x1279 DUP3 PUSH2 0x1238 JUMP JUMPDEST PUSH1 0x20 DUP3 ADD SWAP1 POP SWAP2 SWAP1 POP JUMP JUMPDEST PUSH1 0x0 PUSH1 0x20 DUP3 ADD SWAP1 POP DUP2 DUP2 SUB PUSH1 0x0 DUP4 ADD MSTORE PUSH2 0x129D DUP2 PUSH2 0x1261 JUMP JUMPDEST SWAP1 POP SWAP2 SWAP1 POP JUMP JUMPDEST PUSH32 0x4E487B7100000000000000000000000000000000000000000000000000000000 PUSH1 0x0 MSTORE PUSH1 0x11 PUSH1 0x4 MSTORE PUSH1 0x24 PUSH1 0x0 REVERT JUMPDEST PUSH1 0x0 PUSH2 0x12DE DUP3 PUSH2 0xF12 JUMP JUMPDEST SWAP2 POP PUSH32 0xFFFFFFFFFFFFFFFFFFFFFFFFFFFFFFFFFFFFFFFFFFFFFFFFFFFFFFFFFFFFFFFF DUP3 SUB PUSH2 0x1310 JUMPI PUSH2 0x130F PUSH2 0x12A4 JUMP JUMPDEST JUMPDEST PUSH1 0x1 DUP3 ADD SWAP1 POP SWAP2 SWAP1 POP JUMP JUMPDEST PUSH1 0x0 PUSH2 0x1326 DUP3 PUSH2 0xF12 JUMP JUMPDEST SWAP2 POP PUSH2 0x1331 DUP4 PUSH2 0xF12 JUMP JUMPDEST SWAP3 POP DUP3 DUP3 ADD SWAP1 POP DUP1 DUP3 GT ISZERO PUSH2 0x1349 JUMPI PUSH2 0x1348 PUSH2 0x12A4 JUMP JUMPDEST JUMPDEST SWAP3 SWAP2 POP POP JUMP JUMPDEST PUSH1 0x0 PUSH1 0x40 DUP3 ADD SWAP1 POP PUSH2 0x1364 PUSH1 0x0 DUP4 ADD DUP6 PUSH2 0x117C JUMP JUMPDEST PUSH2 0x1371 PUSH1 0x20 DUP4 ADD DUP5 PUSH2 0xFB7 JUMP JUMPDEST SWAP4 SWAP3 POP POP POP JUMP JUMPDEST PUSH32 0x596F75277265206E6F7420746865206F776E6572000000000000000000000000 PUSH1 0x0 DUP3 ADD MSTORE POP JUMP JUMPDEST PUSH1 0x0 PUSH2 0x13AE PUSH1 0x14 DUP4 PUSH2 0x1084 JUMP JUMPDEST SWAP2 POP PUSH2 0x13B9 DUP3 PUSH2 0x1378 JUMP JUMPDEST PUSH1 0x20 DUP3 ADD SWAP1 POP SWAP2 SWAP1 POP JUMP JUMPDEST PUSH1 0x0 PUSH1 0x20 DUP3 ADD SWAP1 POP DUP2 DUP2 SUB PUSH1 0x0 DUP4 ADD MSTORE PUSH2 0x13DD DUP2 PUSH2 0x13A1 JUMP JUMPDEST SWAP1 POP SWAP2 SWAP1 POP JUMP JUMPDEST PUSH32 0x4E487B7100000000000000000000000000000000000000000000000000000000 PUSH1 0x0 MSTORE PUSH1 0x22 PUSH1 0x4 MSTORE PUSH1 0x24 PUSH1 0x0 REVERT JUMPDEST PUSH1 0x0 PUSH1 0x2 DUP3 DIV SWAP1 POP PUSH1 0x1 DUP3 AND DUP1 PUSH2 0x142B JUMPI PUSH1 0x7F DUP3 AND SWAP2 POP JUMPDEST PUSH1 0x20 DUP3 LT DUP2 SUB PUSH2 0x143E JUMPI PUSH2 0x143D PUSH2 0x13E4 JUMP JUMPDEST JUMPDEST POP SWAP2 SWAP1 POP JUMP JUMPDEST PUSH1 0x0 DUP2 SWAP1 POP DUP2 PUSH1 0x0 MSTORE PUSH1 0x20 PUSH1 0x0 KECCAK256 SWAP1 POP SWAP2 SWAP1 POP JUMP JUMPDEST PUSH1 0x0 PUSH1 0x20 PUSH1 0x1F DUP4 ADD DIV SWAP1 POP SWAP2 SWAP1 POP JUMP JUMPDEST PUSH1 0x0 DUP3 DUP3 SHL SWAP1 POP SWAP3 SWAP2 POP POP JUMP JUMPDEST PUSH1 0x0 PUSH1 0x8 DUP4 MUL PUSH2 0x14A6 PUSH32 0xFFFFFFFFFFFFFFFFFFFFFFFFFFFFFFFFFFFFFFFFFFFFFFFFFFFFFFFFFFFFFFFF DUP3 PUSH2 0x1469 JUMP JUMPDEST PUSH2 0x14B0 DUP7 DUP4 PUSH2 0x1469 JUMP JUMPDEST SWAP6 POP DUP1 NOT DUP5 AND SWAP4 POP DUP1 DUP7 AND DUP5 OR SWAP3 POP POP POP SWAP4 SWAP3 POP POP POP JUMP JUMPDEST PUSH1 0x0 DUP2 SWAP1 POP SWAP2 SWAP1 POP JUMP JUMPDEST PUSH1 0x0 PUSH2 0x14ED PUSH2 0x14E8 PUSH2 0x14E3 DUP5 PUSH2 0xF12 JUMP JUMPDEST PUSH2 0x14C8 JUMP JUMPDEST PUSH2 0xF12 JUMP JUMPDEST SWAP1 POP SWAP2 SWAP1 POP JUMP JUMPDEST PUSH1 0x0 DUP2 SWAP1 POP SWAP2 SWAP1 POP JUMP JUMPDEST PUSH2 0x1507 DUP4 PUSH2 0x14D2 JUMP JUMPDEST PUSH2 0x151B PUSH2 0x1513 DUP3 PUSH2 0x14F4 JUMP JUMPDEST DUP5 DUP5 SLOAD PUSH2 0x1476 JUMP JUMPDEST DUP3 SSTORE POP POP POP POP JUMP JUMPDEST PUSH1 0x0 SWAP1 JUMP JUMPDEST PUSH2 0x1530 PUSH2 0x1523 JUMP JUMPDEST PUSH2 0x153B DUP2 DUP5 DUP5 PUSH2 0x14FE JUMP JUMPDEST POP POP POP JUMP JUMPDEST JUMPDEST DUP2 DUP2 LT ISZERO PUSH2 0x155F JUMPI PUSH2 0x1554 PUSH1 0x0 DUP3 PUSH2 0x1528 JUMP JUMPDEST PUSH1 0x1 DUP2 ADD SWAP1 POP PUSH2 0x1541 JUMP JUMPDEST POP POP JUMP JUMPDEST PUSH1 0x1F DUP3 GT ISZERO PUSH2 0x15A4 JUMPI PUSH2 0x1575 DUP2 PUSH2 0x1444 JUMP JUMPDEST PUSH2 0x157E DUP5 PUSH2 0x1459 JUMP JUMPDEST DUP2 ADD PUSH1 0x20 DUP6 LT ISZERO PUSH2 0x158D JUMPI DUP2 SWAP1 POP JUMPDEST PUSH2 0x15A1 PUSH2 0x1599 DUP6 PUSH2 0x1459 JUMP JUMPDEST DUP4 ADD DUP3 PUSH2 0x1540 JUMP JUMPDEST POP POP JUMPDEST POP POP POP JUMP JUMPDEST PUSH1 0x0 DUP3 DUP3 SHR SWAP1 POP SWAP3 SWAP2 POP POP JUMP JUMPDEST PUSH1 0x0 PUSH2 0x15C7 PUSH1 0x0 NOT DUP5 PUSH1 0x8 MUL PUSH2 0x15A9 JUMP JUMPDEST NOT DUP1 DUP4 AND SWAP2 POP POP SWAP3 SWAP2 POP POP JUMP JUMPDEST PUSH1 0x0 PUSH2 0x15E0 DUP4 DUP4 PUSH2 0x15B6 JUMP JUMPDEST SWAP2 POP DUP3 PUSH1 0x2 MUL DUP3 OR SWAP1 POP SWAP3 SWAP2 POP POP JUMP JUMPDEST PUSH2 0x15F9 DUP3 PUSH2 0x1079 JUMP JUMPDEST PUSH8 0xFFFFFFFFFFFFFFFF DUP2 GT ISZERO PUSH2 0x1612 JUMPI PUSH2 0x1611 PUSH2 0xD89 JUMP JUMPDEST JUMPDEST PUSH2 0x161C DUP3 SLOAD PUSH2 0x1413 JUMP JUMPDEST PUSH2 0x1627 DUP3 DUP3 DUP6 PUSH2 0x1563 JUMP JUMPDEST PUSH1 0x0 PUSH1 0x20 SWAP1 POP PUSH1 0x1F DUP4 GT PUSH1 0x1 DUP2 EQ PUSH2 0x165A JUMPI PUSH1 0x0 DUP5 ISZERO PUSH2 0x1648 JUMPI DUP3 DUP8 ADD MLOAD SWAP1 POP JUMPDEST PUSH2 0x1652 DUP6 DUP3 PUSH2 0x15D4 JUMP JUMPDEST DUP7 SSTORE POP PUSH2 0x16BA JUMP JUMPDEST PUSH1 0x1F NOT DUP5 AND PUSH2 0x1668 DUP7 PUSH2 0x1444 JUMP JUMPDEST PUSH1 0x0 JUMPDEST DUP3 DUP2 LT ISZERO PUSH2 0x1690 JUMPI DUP5 DUP10 ADD MLOAD DUP3 SSTORE PUSH1 0x1 DUP3 ADD SWAP2 POP PUSH1 0x20 DUP6 ADD SWAP5 POP PUSH1 0x20 DUP2 ADD SWAP1 POP PUSH2 0x166B JUMP JUMPDEST DUP7 DUP4 LT ISZERO PUSH2 0x16AD JUMPI DUP5 DUP10 ADD MLOAD PUSH2 0x16A9 PUSH1 0x1F DUP10 AND DUP3 PUSH2 0x15B6 JUMP JUMPDEST DUP4 SSTORE POP JUMPDEST PUSH1 0x1 PUSH1 0x2 DUP9 MUL ADD DUP9 SSTORE POP POP POP JUMPDEST POP POP POP POP POP POP JUMP JUMPDEST PUSH1 0x0 PUSH2 0x16DD PUSH2 0x16D8 PUSH2 0x16D3 DUP5 PUSH2 0xEB4 JUMP JUMPDEST PUSH2 0x14C8 JUMP JUMPDEST PUSH2 0xEB4 JUMP JUMPDEST SWAP1 POP SWAP2 SWAP1 POP JUMP JUMPDEST PUSH1 0x0 PUSH2 0x16EF DUP3 PUSH2 0x16C2 JUMP JUMPDEST SWAP1 POP SWAP2 SWAP1 POP JUMP JUMPDEST PUSH1 0x0 PUSH2 0x1701 DUP3 PUSH2 0x16E4 JUMP JUMPDEST SWAP1 POP SWAP2 SWAP1 POP JUMP JUMPDEST PUSH2 0x1711 DUP2 PUSH2 0x16F6 JUMP JUMPDEST DUP3 MSTORE POP POP JUMP JUMPDEST PUSH1 0x0 PUSH1 0x60 DUP3 ADD SWAP1 POP DUP2 DUP2 SUB PUSH1 0x0 DUP4 ADD MSTORE PUSH2 0x1731 DUP2 DUP7 PUSH2 0x10BF JUMP JUMPDEST SWAP1 POP PUSH2 0x1740 PUSH1 0x20 DUP4 ADD DUP6 PUSH2 0x1708 JUMP JUMPDEST PUSH2 0x174D PUSH1 0x40 DUP4 ADD DUP5 PUSH2 0xFB7 JUMP JUMPDEST SWAP5 SWAP4 POP POP POP POP JUMP JUMPDEST PUSH32 0x596F75277265206E6F74206120636F6E7472696275746F720000000000000000 PUSH1 0x0 DUP3 ADD MSTORE POP JUMP JUMPDEST PUSH1 0x0 PUSH2 0x178B PUSH1 0x18 DUP4 PUSH2 0x1084 JUMP JUMPDEST SWAP2 POP PUSH2 0x1796 DUP3 PUSH2 0x1755 JUMP JUMPDEST PUSH1 0x20 DUP3 ADD SWAP1 POP SWAP2 SWAP1 POP JUMP JUMPDEST PUSH1 0x0 PUSH1 0x20 DUP3 ADD SWAP1 POP DUP2 DUP2 SUB PUSH1 0x0 DUP4 ADD MSTORE PUSH2 0x17BA DUP2 PUSH2 0x177E JUMP JUMPDEST SWAP1 POP SWAP2 SWAP1 POP JUMP JUMPDEST PUSH32 0x596F75206861766520616C726561647920766F74656400000000000000000000 PUSH1 0x0 DUP3 ADD MSTORE POP JUMP JUMPDEST PUSH1 0x0 PUSH2 0x17F7 PUSH1 0x16 DUP4 PUSH2 0x1084 JUMP JUMPDEST SWAP2 POP PUSH2 0x1802 DUP3 PUSH2 0x17C1 JUMP JUMPDEST PUSH1 0x20 DUP3 ADD SWAP1 POP SWAP2 SWAP1 POP JUMP JUMPDEST PUSH1 0x0 PUSH1 0x20 DUP3 ADD SWAP1 POP DUP2 DUP2 SUB PUSH1 0x0 DUP4 ADD MSTORE PUSH2 0x1826 DUP2 PUSH2 0x17EA JUMP JUMPDEST SWAP1 POP SWAP2 SWAP1 POP JUMP JUMPDEST PUSH32 0x5265717565737420616C726561647920636F6D706C6574656400000000000000 PUSH1 0x0 DUP3 ADD MSTORE POP JUMP JUMPDEST PUSH1 0x0 PUSH2 0x1863 PUSH1 0x19 DUP4 PUSH2 0x1084 JUMP JUMPDEST SWAP2 POP PUSH2 0x186E DUP3 PUSH2 0x182D JUMP JUMPDEST PUSH1 0x20 DUP3 ADD SWAP1 POP SWAP2 SWAP1 POP JUMP JUMPDEST PUSH1 0x0 PUSH1 0x20 DUP3 ADD SWAP1 POP DUP2 DUP2 SUB PUSH1 0x0 DUP4 ADD MSTORE PUSH2 0x1892 DUP2 PUSH2 0x1856 JUMP JUMPDEST SWAP1 POP SWAP2 SWAP1 POP JUMP JUMPDEST PUSH32 0x4E487B7100000000000000000000000000000000000000000000000000000000 PUSH1 0x0 MSTORE PUSH1 0x12 PUSH1 0x4 MSTORE PUSH1 0x24 PUSH1 0x0 REVERT JUMPDEST PUSH1 0x0 PUSH2 0x18D3 DUP3 PUSH2 0xF12 JUMP JUMPDEST SWAP2 POP PUSH2 0x18DE DUP4 PUSH2 0xF12 JUMP JUMPDEST SWAP3 POP DUP3 PUSH2 0x18EE JUMPI PUSH2 0x18ED PUSH2 0x1899 JUMP JUMPDEST JUMPDEST DUP3 DUP3 DIV SWAP1 POP SWAP3 SWAP2 POP POP JUMP JUMPDEST PUSH1 0x0 PUSH1 0x40 DUP3 ADD SWAP1 POP PUSH2 0x190E PUSH1 0x0 DUP4 ADD DUP6 PUSH2 0x1708 JUMP JUMPDEST PUSH2 0x191B PUSH1 0x20 DUP4 ADD DUP5 PUSH2 0xFB7 JUMP JUMPDEST SWAP4 SWAP3 POP POP POP JUMP JUMPDEST PUSH32 0x5468652043726F776446756E64696E67206973207374696C6C20676F696E6720 PUSH1 0x0 DUP3 ADD MSTORE PUSH32 0x6F6E000000000000000000000000000000000000000000000000000000000000 PUSH1 0x20 DUP3 ADD MSTORE POP JUMP JUMPDEST PUSH1 0x0 PUSH2 0x197E PUSH1 0x22 DUP4 PUSH2 0x1084 JUMP JUMPDEST SWAP2 POP PUSH2 0x1989 DUP3 PUSH2 0x1922 JUMP JUMPDEST PUSH1 0x40 DUP3 ADD SWAP1 POP SWAP2 SWAP1 POP JUMP JUMPDEST PUSH1 0x0 PUSH1 0x20 DUP3 ADD SWAP1 POP DUP2 DUP2 SUB PUSH1 0x0 DUP4 ADD MSTORE PUSH2 0x19AD DUP2 PUSH2 0x1971 JUMP JUMPDEST SWAP1 POP SWAP2 SWAP1 POP JUMP JUMPDEST PUSH1 0x0 PUSH2 0x19BF DUP3 PUSH2 0xF12 JUMP JUMPDEST SWAP2 POP PUSH2 0x19CA DUP4 PUSH2 0xF12 JUMP JUMPDEST SWAP3 POP DUP3 DUP3 SUB SWAP1 POP DUP2 DUP2 GT ISZERO PUSH2 0x19E2 JUMPI PUSH2 0x19E1 PUSH2 0x12A4 JUMP JUMPDEST JUMPDEST SWAP3 SWAP2 POP POP JUMP INVALID LOG2 PUSH5 0x6970667358 0x22 SLT KECCAK256 JUMPDEST 0xFB 0xE7 0xD5 0xA9 PUSH29 0x57536545C9A83B1E793F60EDA0E2AE6E300139291ABA2716075964736F PUSH13 0x63430008110033000000000000 "
				},
				"gasEstimates": {
					"creation": {
						"codeDepositCost": "1337200",
						"executionCost": "infinite",
						"totalCost": "infinite"
					},
					"external": {
						"acceptRequest(uint256)": "infinite",
						"contribute()": "infinite",
						"contributors(address)": "2882",
						"deadline()": "2452",
						"fulfillRequest(uint256)": "infinite",
						"getBalance()": "385",
						"getRefund()": "infinite",
						"goal()": "2474",
						"minContr()": "2473",
						"numRequest()": "2518",
						"numberContr()": "2496",
						"owner()": "2537",
						"raised()": "2517",
						"requests(uint256)": "infinite",
						"spendingRequest(string,address,uint256)": "infinite"
					}
				},
				"methodIdentifiers": {
					"acceptRequest(uint256)": "4ba1f098",
					"contribute()": "d7bb99ba",
					"contributors(address)": "1f6d4942",
					"deadline()": "29dcb0cf",
					"fulfillRequest(uint256)": "9a91eb0d",
					"getBalance()": "12065fe0",
					"getRefund()": "b2d5ae44",
					"goal()": "40193883",
					"minContr()": "b8b142de",
					"numRequest()": "b1b16431",
					"numberContr()": "afae512e",
					"owner()": "8da5cb5b",
					"raised()": "f0ea4bfc",
					"requests(uint256)": "81d12c58",
					"spendingRequest(string,address,uint256)": "064787dd"
				}
			},
			"storageLayout": {
				"storage": [
					{
						"astId": 5,
						"contract": "contracts/CrowdFunding.sol:CrowdFunding",
						"label": "contributors",
						"offset": 0,
						"slot": "0",
						"type": "t_mapping(t_address,t_uint256)"
					},
					{
						"astId": 7,
						"contract": "contracts/CrowdFunding.sol:CrowdFunding",
						"label": "owner",
						"offset": 0,
						"slot": "1",
						"type": "t_address"
					},
					{
						"astId": 9,
						"contract": "contracts/CrowdFunding.sol:CrowdFunding",
						"label": "numberContr",
						"offset": 0,
						"slot": "2",
						"type": "t_uint256"
					},
					{
						"astId": 11,
						"contract": "contracts/CrowdFunding.sol:CrowdFunding",
						"label": "goal",
						"offset": 0,
						"slot": "3",
						"type": "t_uint256"
					},
					{
						"astId": 13,
						"contract": "contracts/CrowdFunding.sol:CrowdFunding",
						"label": "minContr",
						"offset": 0,
						"slot": "4",
						"type": "t_uint256"
					},
					{
						"astId": 15,
						"contract": "contracts/CrowdFunding.sol:CrowdFunding",
						"label": "deadline",
						"offset": 0,
						"slot": "5",
						"type": "t_uint256"
					},
					{
						"astId": 17,
						"contract": "contracts/CrowdFunding.sol:CrowdFunding",
						"label": "raised",
						"offset": 0,
						"slot": "6",
						"type": "t_uint256"
					},
					{
						"astId": 37,
						"contract": "contracts/CrowdFunding.sol:CrowdFunding",
						"label": "requests",
						"offset": 0,
						"slot": "7",
						"type": "t_mapping(t_uint256,t_struct(Request)32_storage)"
					},
					{
						"astId": 39,
						"contract": "contracts/CrowdFunding.sol:CrowdFunding",
						"label": "numRequest",
						"offset": 0,
						"slot": "8",
						"type": "t_uint256"
					}
				],
				"types": {
					"t_address": {
						"encoding": "inplace",
						"label": "address",
						"numberOfBytes": "20"
					},
					"t_address_payable": {
						"encoding": "inplace",
						"label": "address payable",
						"numberOfBytes": "20"
					},
					"t_bool": {
						"encoding": "inplace",
						"label": "bool",
						"numberOfBytes": "1"
					},
					"t_mapping(t_address,t_bool)": {
						"encoding": "mapping",
						"key": "t_address",
						"label": "mapping(address => bool)",
						"numberOfBytes": "32",
						"value": "t_bool"
					},
					"t_mapping(t_address,t_uint256)": {
						"encoding": "mapping",
						"key": "t_address",
						"label": "mapping(address => uint256)",
						"numberOfBytes": "32",
						"value": "t_uint256"
					},
					"t_mapping(t_uint256,t_struct(Request)32_storage)": {
						"encoding": "mapping",
						"key": "t_uint256",
						"label": "mapping(uint256 => struct CrowdFunding.Request)",
						"numberOfBytes": "32",
						"value": "t_struct(Request)32_storage"
					},
					"t_string_storage": {
						"encoding": "bytes",
						"label": "string",
						"numberOfBytes": "32"
					},
					"t_struct(Request)32_storage": {
						"encoding": "inplace",
						"label": "struct CrowdFunding.Request",
						"members": [
							{
								"astId": 19,
								"contract": "contracts/CrowdFunding.sol:CrowdFunding",
								"label": "description",
								"offset": 0,
								"slot": "0",
								"type": "t_string_storage"
							},
							{
								"astId": 21,
								"contract": "contracts/CrowdFunding.sol:CrowdFunding",
								"label": "target",
								"offset": 0,
								"slot": "1",
								"type": "t_address_payable"
							},
							{
								"astId": 23,
								"contract": "contracts/CrowdFunding.sol:CrowdFunding",
								"label": "value",
								"offset": 0,
								"slot": "2",
								"type": "t_uint256"
							},
							{
								"astId": 25,
								"contract": "contracts/CrowdFunding.sol:CrowdFunding",
								"label": "completed",
								"offset": 0,
								"slot": "3",
								"type": "t_bool"
							},
							{
								"astId": 27,
								"contract": "contracts/CrowdFunding.sol:CrowdFunding",
								"label": "numberOfVotes",
								"offset": 0,
								"slot": "4",
								"type": "t_uint256"
							},
							{
								"astId": 31,
								"contract": "contracts/CrowdFunding.sol:CrowdFunding",
								"label": "voters",
								"offset": 0,
								"slot": "5",
								"type": "t_mapping(t_address,t_bool)"
							}
						],
						"numberOfBytes": "192"
					},
					"t_uint256": {
						"encoding": "inplace",
						"label": "uint256",
						"numberOfBytes": "32"
					}
				}
			},
			"userdoc": {
				"kind": "user",
				"methods": {},
				"version": 1
			}
		}
	}
}